:020000040800F2
:10000000980500209D0100081B220008CB1F000856
:1000100019220008B50800080924000800000000A3
:100020000000000000000000000000001F22000887
:10003000B7080008000000001D2200082122000867
:10004000B7010008B7010008B7010008B7010008B0
:10005000B7010008B7010008B7010008B7010008A0
:10006000B7010008B7010008B7010008B701000890
:10007000B7010008B7010008B7010008B701000880
:10008000B7010008B7010008B7010008B701000870
:10009000B7010008B7010008B7010008B701000860
:1000A000B7010008B7010008B7010008B701000850
:1000B00035230008B7010008B7010008B7010008A0
:1000C000B7010008B7010008B7010008B701000830
:1000D000B7010008B7010008B7010008B701000820
:1000E000B7010008B7010008B7010008B701000810
:1000F000B7010008B7010008B7010008B701000800
:10010000B7010008B7010008B7010008B7010008EF
:10011000B7010008B7010008B7010008B7010008DF
:10012000B7010008B7010008B7010008B7010008CF
:10013000B7010008B7010008B7010008B7010008BF
:10014000B7010008B7010008B7010008B7010008AF
:10015000B7010008B7010008B7010008B70100089F
:10016000B7010008B7010008B7010008B70100088F
:10017000B7010008B7010008B7010008000000003F
:10018000B7010008B7010008DFF80CD000F080FBD1
:10019000004800471D3C000898050020064880479D
:1001A00006480047FEE7FEE7FEE7FEE7FEE7FEE75C
:1001B000FEE7FEE7FEE7FEE7D1220008890100081E
:1001C0002DE9F05F0546002092469B46884606468C
:1001D000814640241BE0284641464746224600F01F
:1001E00028FA53465A46C01A914110D31146184670
:1001F000224600F00FFA2D1A67EB01084F462246FF
:100200000120002100F006FA17EB00094E41201EE4
:10021000A4F10104DFDC484631462A464346BDE8E6
:10022000F09F40EA01039B0703D009E008C9121FB1
:1002300008C0042AFAD203E011F8013B00F8013BA0
:10024000521EF9D270472DE9FE4F804681EA030025
:10025000C00F0C46009021F0004123F00045B8EBA0
:100260000200A94105D24046214690461C460B4655
:10027000024623F00040104347D0270DC7F30A0081
:10028000C3F30A510290401A019040286BDAC3F37D
:10029000130040F4801B0098924620B10023D2EB5B
:1002A000030A63EB0B0B01985946C0F1400250461C
:1002B00000F0B0F906460D4650465946019A00F046
:1002C000C8F910EB08006141002487EA115284EA62
:1002D000E7731A4340D0009A62B3019A012A4FEAA9
:1002E000075215DC001B61EB02014FF0004202EAED
:1002F0000752CDE90042001C41F5801132462B46E1
:1003000000F0FFF903B0BDE8F08F40462146F9E761
:10031000001B61EB0201001C41F5801300185B41DA
:100320002018A2F5001747EB030140EAD570B61973
:100330006D4111E06D084FEA360645EAC0754FEA97
:100340000752001B61EB0201001C41F580114908B6
:100350004FEA30000019514132462B4603B0BDE848
:10036000F04F00F0BFB90098012240000023D0EB0D
:10037000020263EBE073009821464FEAE074B8EBA9
:10038000000061EB0401E9E783F000435BE781F0E3
:10039000004158E72DE9FE4F81EA030404F00044D0
:1003A00021F0004100944FF0000B23F0004350EA8D
:1003B00001045ED052EA03045BD0C3F30A54C1F3D4
:1003C0000A552C44A4F2F3340194A0FB0254C1F367
:1003D000130141F48011C3F3130343F4801301FBB1
:1003E000024400FB034E840A970A44EA815447EA18
:1003F0008357A4FB076802958D0A05FB07854FEA22
:10040000932C04FB0C542705029D4FEA065847EA3B
:100410001637B5EB08056EEB070C870E920E47EA10
:10042000811742EA8312A7FB0201B6EB0B0164EBD2
:1004300000042B0D43EA0C335E1844EB1C50DA46E3
:100440005146E7FB0201C5F313044FEA0B3343EABD
:1004500014534FEA0432019C43EA0603A4F10C044E
:100460000294009CCDE900B400F04BF903B0BDE864
:10047000F08F00200146F9E72DE9F04D81EA0304F1
:1004800004F0004B21F0004514464FF0000A23F021
:10049000004150EA050220D054EA01021DD0C5F304
:1004A0000A570246C5F31303C1F31300C1F30A56FA
:1004B00040F4801543F48013A7EB0608101BD646C2
:1004C00008F2FD3873EB050002D308F1010801E0E2
:1004D00092185B41B8F1000F03DA00200146BDE835
:1004E000F08D00204FF48011064684460EE0171B65
:1004F00073EB050705D3121B63EB050306434CEAB8
:10050000010C49084FEA300092185B4150EA01079C
:10051000EDD152EA030012D082EA040083EA050119
:10052000084305D0101BAB4106D20122002306E090
:1005300000224FF0004302E06FF0010253101AEB6B
:1005400006004CEB085110EB0A0041EB0B01BDE833
:10055000F04D00F0C7B800F0004230F000400AD083
:10056000C10D01F56071C0F3160042EA0151C208E5
:1005700040071143704700200146704730B5041E04
:1005800071F1000404DB4FF00044404264EB0101D0
:10059000141E73F1000405DB1C464FF00043524269
:1005A00063EB04038B4208BF824230BD30B5041EAA
:1005B00071F1000404DB4FF00044404264EB0101A0
:1005C000141E73F1000405DB1C464FF00043524239
:1005D00063EB0403994208BF904230BD01F0004331
:1005E00030B421F0004150EA010206D00A0DA2F514
:1005F0006072C1F31301002A02DC30BC0020704796
:10060000440F44EAC104C100E01830BC00EBC25002
:1006100000F031B8202A04DB203A00FA02F1002071
:1006200070479140C2F1200320FA03F31943904030
:100630007047202A04DB203A21FA02F0002170479B
:1006400021FA02F3D040C2F120029140084319463A
:100650007047202A06DBCB17203A41FA02F043EA22
:10066000E07306E041FA02F3D040C2F1200291406B
:100670000843194670470029A8BF7047401C49002D
:1006800008BF20F00100704710B4B0FA80FC00FAF7
:100690000CF050EA010404BF10BC704749B1CCF122
:1006A000200421FA04F411FA0CF118BF01212143AE
:1006B0000843A3EB0C01CB1D4FEA00614FEA102069
:1006C00042BF002010BC704700EBC350104400290B
:1006D000A4BF10BC7047401C490008BF20F00100B7
:1006E00010BC704710B5141E73F1000408DA401CEA
:1006F00041F1000192185B411A4301D120F0010041
:1007000010BD2DE9F04D92469B4611B1B1FA81F230
:1007100002E0B0FA80F220329046FFF77BFF0446F9
:100720000F4640EA0A0041EA0B0153465A46084385
:1007300013D0114653EA010019D0C8F140025046C7
:10074000FFF777FF05460E46504659464246FFF7EB
:1007500061FF084305D0012004E020463946BDE88A
:10076000F08D0020054346EAE0762C4337430A9893
:100770006305E40AA0EB08000022FD0A44EA47549E
:100780000A3002D500200146E9E701051019694148
:10079000DDE9084500196941BDE8F04DA2E770B5F3
:1007A00021F0004303430CD0C1F30A550024D5EBDC
:1007B000040564EB0403D617AD1AB34102DB002035
:1007C000014670BD201841EB025170BD2DE9F04D7E
:1007D00000231A461B1A8A4103DB00200146BDE8AC
:1007E000F08DC1F30A52C1F3130141F480154FF0AB
:1007F000000BD10702D100186D41521E002704469C
:1008000040F2FF11384601EB620A3E46804602463E
:1008100000204FF48011FFF70CFFC2197141BB1883
:1008200046EB0100B4EB030C75EB000C04D3E41AA7
:1008300065EB000517460E46241908F101006D41CD
:1008400080463428E3DDF91946EB0600091BA84170
:1008500003D24FF0FF32134601E0002213461BEB98
:10086000070046EB0A51BDE8F04DFFF73BBF0EB560
:10087000C10F80EAE0700844CA07002140F2334308
:100880008DE80E000A460B46FFF73BFF03B000BDA4
:10089000064C074D06E0E06840F0010394E80700CD
:1008A00098471034AC42F6D3FFF772FCC0460008FC
:1008B000E0460008FEE7704730B482B04FF0000C0D
:1008C000CDF804C090F83C20012A01BF022002B0FC
:1008D00030BC7047012280F83C200A680723046876
:1008E000092A14D9E5680A3A02EB420203FA02F235
:1008F00025EA0202E2600B788A680A3B03EB4303B5
:1009000002FA03F30268D4682343D36011E0256937
:1009100002EB420203FA02F225EA020222610B789C
:100920008A6803EB430302FA03F302681469234362
:1009300013614A681F23072A16D20468656B521E8A
:1009400002EB820203FA02F225EA020262630B79E9
:100950000A885B1E92B203EB830302FA03F3026878
:10096000546B234353632DE004680D2A15D2256B85
:10097000D21F02EB820203FA02F225EA020222638C
:100980000B790A88DB1F92B203EB830302FA03F3AD
:100990000268146B2343136314E0E56A0D3A02EB1B
:1009A000820203FA02F225EA0202E2620B790A8865
:1009B0000D3B92B203EB830302FA03F30268D46A9D
:1009C0002343D362254B0468234A9C4204BF0C682E
:1009D000122C03D1546844F48004546004689C428F
:1009E0002FD10B68102B18BF112B2AD1536843F459
:1009F000000353600968102923D11949194A09686D
:100A0000B1FBF2F101EB810149000191009118D095
:100A1000B1F1004F1BD20029D8BF002105DD11F034
:100A2000010102D0019A521E0192009A491C521CE7
:100A3000914206DA019B891C5B1E5B1E0193914269
:100A4000F8DB80F83CC002B0002030BC7047019950
:100A5000491E0191FCD1F4E7002301400020014030
:100A60001400002040420F000068C06C7047000076
:100A700070B504004FF0000504BF012070BD206C6C
:100A8000002628B9666484F83C60204600F0A8F887
:100A9000206C10F0100F18BF012503D084F83C60C3
:100AA000284670BD206C20F4885040F0020020647D
:100AB0004848416821F4403141604168626811430F
:100AC00041602068416821F480714160206841687C
:100AD000226941EA022141602068416821F04071A9
:100AE000416020684168A2681143416020688168C4
:100AF00021F40061816020688168E26811438160AF
:100B0000A06A6FF07061C8422068816821F070614E
:100B100081602068816808BF21F040510BD0A26A33
:100B2000114381602068816821F040518160206814
:100B30008168E26A114381602068816821F00201C6
:100B4000816020688168A26941EA42018160206A6F
:100B500000282068416808BF21F400610ED041F4EC
:100B6000006141602068416821F460414160206873
:100B70004168194B626A03EB4232114341602068BD
:100B8000C16A21F47001C1622068C16AA28B134B53
:100B900003EB02521143C1622068816821F40071A5
:100BA000816020688168226B41EA4221816020686F
:100BB000816821F48061816020688168626941EA0E
:100BC000822181606664206C20F0020040F0010008
:100BD000206463E70023014000E0FFFF0000F0FF16
:100BE00010B5D0F800C00022194903231948ACF110
:100BF000804486B0B4F5903417D0174CA4451CBF80
:100C000006B010BDD1F800C04CF4007CC1F800C0A3
:100C10000968029201F4007105910221CDE90013E7
:100C2000694600F081F906B010BDD1F800C04CF45F
:100C3000807CC1F800C00968029201F480710591BE
:100C40000121CDE90013694600F06EF906B010BD30
:100C50004438024000000240002101402DE9F041EB
:100C6000044600680D4681684FF0000711F4806F5C
:100C70001CBF806810F4807F08D0206C40F02000FA
:100C8000206484F83C700120BDE8F08100F06AFA2D
:100C900006462068006810F0020F16D1B5F1FF3F3C
:100CA0000ED025B100F05EFA801BA84208D9206C56
:100CB00040F00400206484F83C700320BDE8F0811B
:100CC0002068006810F0020FE8D021686FF0120071
:100CD0000860206C40F4007020642068816811F086
:100CE000405F04BFA169002913D1C16A11F4700FDC
:100CF0001CBF806810F4806F0BD1206C20F48070D2
:100D00002064206C10F4805F03D1206C40F001005F
:100D100020644FF00000BDE8F081000082B04FF089
:100D2000000CCDF804C090F83C10012902BF02204D
:100D300002B07047012180F83C1001688A6812F007
:100D4000010F26D18A6842F001028A603449354A8F
:100D50000968B1FBF2F111EB41010191009118D04A
:100D6000B1F1004F57D20029D8BF002105DD11F0A5
:100D7000010102D0019A521E0192009A491C521C94
:100D8000914206DA019B891C5B1E5B1E0193914216
:100D9000F8DB01688A6812F0010F39D0026C22F08A
:100DA000010222F4C06242F4807202644A6812F4C2
:100DB000806F05D0026C22F4005242F4805202642B
:100DC000026C12F4805F08BFC0F844C003D0426CCC
:100DD00022F00602426480F83CC0134A6FF02203FE
:100DE0000B605168006811F01F0F09D0A0F180411D
:100DF000B1F5903104BF816811F0405F04D007E085
:100E0000816811F0405F03D1816841F080418160C9
:100E1000002002B070470199491E0191FCD1B8E74A
:100E20001400002040420F000023014090F83C10C5
:100E3000012904BF02207047012180F83C1001689D
:100E40008A6822F001028A600168896811F0010F46
:100E500005D1016C21F4885141F0010101640021A8
:100E600080F83C10084670474379012B04BF0220EC
:100E7000704730B44FF0010C80F805C002230371B5
:100E800003681C6840F6FE759540AC43D1E90051FB
:100E9000294391402143196001680B68C02404FA7A
:100EA00002F223EA02020A6080F804C000214171C4
:100EB00030BC08467047002804BF0120704770B559
:100EC00004460079002518B96571204600F008F83D
:100ED00002202071256101202071002070BD0000DA
:100EE00000B5006887B0A0F18041B1F5E8411CBFB2
:100EF00007B000BD00210A48026842F000520260BB
:100F0000006800F000500590302000900320CDE9EB
:100F100001016946034800F007F807B000BD000072
:100F200040380240000002402DE9F84F0022884E70
:100F3000DFF820E201274FF0030A4FF00F0800BF4F
:100F40000B6807FA02F42340A34240F0FB80D1F87B
:100F500004C0BCF1020F18BFBCF1120F15D14FEA4B
:100F6000D20C00EB8C0CDCF820504FEA42794FEAAF
:100F7000D96908FA09FB25EA0B05D1F810B00BFA7C
:100F800009F949EA0505CCF82050D0F800904FEA5D
:100F9000420C91F804B00AFA0CF50BF0030B29EAA5
:100FA00005090BFA0CFB4BEA0909C0F80090D1F8CF
:100FB0000490B9F1010F18BFB9F1020F05D0B9F1D2
:100FC000110F18BFB9F1120F18D1D0F80890D1F84D
:100FD0000CB029EA05090BFA0CFB4BEA0909C0F829
:100FE0000890D0F8049029EA040491F80490C9F319
:100FF000001909FA02F949EA04044460C46824EAC1
:1010000005048D6805FA0CFC4CEA040CC0F80CC011
:10101000D1F804C01CF0805F7ED0D6F800C04CF43C
:10102000804CC6F800C0D6F800C00CF4804CCDF857
:1010300000C022F0030C0CF1804505F59835D5F879
:1010400008C84FEA82744FEA147408FA04F92CEACB
:10105000090CA0F18049B9F5003938D0A0F18049D8
:10106000B9F5013908BF4FF0010930D0A0F180492E
:10107000B9F5023908BF4FF0020928D0A0F1804924
:10108000B9F5033908BF4FF0030920D0A0F180491A
:10109000B9F5043908BF4FF0040918D0A0F1804910
:1010A000B9F5053908BF4FF0050910D0A0F1804906
:1010B000B9F5063908BF4FF0060908D0A0F18049FC
:1010C000B9F507390CBF4FF007094FF0080909FAC5
:1010D00004F444EA0C0CC5F808C8DEF800C04C68FB
:1010E0002CEA030C14F4803F18BF4CEA030CCEF832
:1010F00000C0194CD4F800C04D682CEA030C15F45C
:10110000003F18BF4CEA030CC4F800C0134CD4F8DD
:1011100000C02CEA030C00E014E04D6815F4801FB9
:1011200018BF4CEA030CC4F800C00D4CD4F800C042
:101130004D682CEA030C15F4001F18BF4CEA030C91
:10114000C4F800C0521C102AFFF4FAAEBDE8F88FB4
:1011500044380240003C0140043C0140083C01404E
:101160000C3C0140014880687047000008000020E6
:10117000002804BF0120704770B5044690F83D0078
:10118000002520B984F83C50204600F075F8242052
:1011900084F83D002068016821F00101016000F041
:1011A0000DFA33492268B0FBF1F15160314A6368AE
:1011B000934298BF491C07D94FF4967359434FF493
:1011C0007A73B1FBF3F1491C2368196261688A42A2
:1011D0000AD34900B0FBF1F2C2F30B02042A34BF78
:1011E0000420B0FBF1F023E0A368002B0EBF01EB5D
:1011F000410201EBC10202EB0112B0FBF2F218BF97
:1012000042F480421205120D08BF012010D0002BBD
:1012100004BF01EB4101B0FBF1F007D001EBC102CB
:1012200002EB0111B0FBF1F040F4804040F40040CB
:101230002168C861D4E90701084321680860D4E93E
:101240000310084321688860D4E905010843216838
:10125000C8602068016841F0010101602564202018
:1012600084F83D00256384F83E50002070BD0000E6
:1012700040420F00A086010000B5006887B0A0F1D1
:101280008041B1F5A8411CBF07B000BDC02000904F
:10129000122001900120029003200390042004906A
:1012A00069460748FFF740FE0648016841F400110F
:1012B0000160006800F40010059007B000BD000058
:1012C000000402404038024002488168027811441C
:1012D00081607047080000200B4810B5016841F498
:1012E00000710160016841F480610160016841F4AE
:1012F00080710160032000F09DF8002000F006F8E6
:1013000000F024F8002010BD003C024070B50D4DE7
:1013100004464FF47A712878B1FBF0F00A49096865
:10132000B1FBF0F000F072FB48B9102C07D200229C
:101330002146501E00F04CF800206C6070BD01206A
:1013400070BD000008000020140000201E4808B5F1
:10135000016841F480410160006800F48040009021
:101360001A48016841F080510160006800F0805027
:101370000090032000F05EF8002211466FF00B0091
:1013800000F026F8002211466FF00A0000F020F865
:10139000002211466FF0090000F01AF800221146F1
:1013A000501F00F015F800221146101F00F010F831
:1013B00000221146901E00F00BF80022BDE8084004
:1013C0001146501E00F004B8443802404038024034
:1013D000174B10B41B68C3F30223C3F1070CBCF115
:1013E000040F88BF4FF0040C1C1D072C34BF0023D2
:1013F000DB1E012404FA0CFCACF1010C0CEA010127
:10140000994004FA03F35B1E1A40114300284FEA87
:101410000111A1BF00F1E02080F8001410BC70475A
:1014200000F00F0000F1E02080F8141D10BC7047A0
:101430000CED00E0074900F007000A684FF6FF03D3
:101440001A4042EA002040F0FD7040F080600860E1
:10145000704700000CED00E0002804BF0120704739
:101460002DE9F0474D4E04460F46306801F0FF0865
:1014700000F00F00B84206D286F80080306800F015
:101480000F00B84261D12068454D10F0020F14D012
:1014900010F0040F03D0286840F4E0502860207852
:1014A00010F0080F03D0286840F4604028602868D6
:1014B000A16820F0F00008432860207810F0010FA8
:1014C00037D060683749012823D0022818BF032885
:1014D000096823D011F0020F37D0296821F00301E9
:1014E00041EA00002860FFF73DFE814628686168F8
:1014F00000F00C00B0EB810F18BF41F2883A18D011
:10150000FFF730FEA0EB090050450BD90320BDE8E2
:10151000F087096811F4003FDFD116E011F0007F79
:10152000DBD112E02868616800F00C00B0EB810F9D
:10153000E6D1306800F00F00B84209D986F8008083
:10154000306800F00F00B84202D00120BDE8F087FB
:10155000207810F0040F05D02868E16820F4E050EE
:1015600008432860207810F0080F06D02868216909
:1015700020F4604040EAC100286000F02FF829689C
:10158000094AC1F30311515CC840084908600020B2
:10159000FFF7BCFE0020BDE8F0870000003C0240E1
:1015A000083802400038024080450008140000203E
:1015B00001480068704700001400002004480549F5
:1015C00000680968044AC1F38221515CC840704731
:1015D00014000020083802409045000818480068B0
:1015E00010F00C02174808BF70471749042A04BFBF
:1015F00008467047082A18BF704710B5134C226878
:10160000236802F03F0213F4800F08D02068002303
:10161000C0F38810A0FB0101FEF7D2FD07E02168AE
:101620000023C1F38811A1FB0001FEF7C9FD216869
:10163000C1F30141491C4900B0FBF1F010BD0000AD
:10164000083802400024F40040787D01043802404C
:10165000002804BF012070472DE9F84F04460078A8
:10166000DA4D10F0010F59D0D948016801F00C0192
:1016700004290AD0006800F00C0008280ED105F1FA
:101680000400006810F4800F08D0286810F4003FB0
:1016900044D06068002800F096813FE06068B0F5B3
:1016A000803F19D0B0F5A02F28680CBF40F48020EF
:1016B00020F48030286028680CBF40F4803020F48B
:1016C000802028606068B8B1FFF74CFD06462868A6
:1016D00010F4003F05D021E0286840F480302860F5
:1016E000F0E7FFF73FFD801B642800F22A8128689D
:1016F00010F4003FF5D011E0FFF734FD06462868EE
:1017000010F4003F0AD000BFFFF72CFD801B6428B7
:1017100000F21781286810F4003FF5D12078AD4F12
:1017200010F0020F4FF0000847D0A948016811F0EF
:101730000C0F16D0006800F00C00082804D1A64851
:10174000006810F4800F0CD0E06820B34FF0010067
:101750003860FFF707FD0646286810F0020F09D031
:1017600011E0286810F0020F1CBFE06801280AD0C1
:1017700000F029B9FFF7F6FC801B02287ED8286804
:1017800010F0020FF6D02868216920F0F80040EA36
:10179000C100286011E0C7F80080FFF7E3FC0646AF
:1017A000286810F0020F08D0FFF7DCFC801B02282D
:1017B00064D8286810F0020FF6D1207810F0080FD6
:1017C0002AD08648864E616999B101210160FFF7F0
:1017D000C9FC8146306810F0020F1DD1FFF7C2FC32
:1017E000A0EB0900022849D8306810F0020FF5D0AC
:1017F00012E0C0F80080FFF7B5FC8146306810F0B9
:10180000020F09D0FFF7AEFCA0EB0900022835D883
:10181000306810F0020FF5D1207810F0040F77D067
:1018200070484FF0000B006810F0805F0AD16D48DF
:10183000016841F08051016000684FF0010B00F039
:1018400080500090684E306810F4807F14D130686A
:1018500040F480703060FFF785FC8146306810F4FA
:10186000807F09D1FFF77EFCA0EB0900022868D831
:10187000306810F4807FF5D05C4E00E061E0A06835
:1018800001281BD0052830680CBF40F0040020F070
:101890000100306030680CBF40F0010020F004000F
:1018A000C6F80000A06841F2883AB8B1FFF75AFCC8
:1018B0008146306810F0020F05D021E0306840F01A
:1018C00001003060EEE7FFF74DFCA0EB090050454A
:1018D00037D8306810F0020FF5D011E0FFF742FC66
:1018E0008146306810F0020F0AD000BFFFF73AFCC3
:1018F000A0EB0900504524D8306810F0020FF5D154
:10190000BBF1000F04D03748016821F0805101601D
:10191000A069E8B32E49096801F00C01082952D0EA
:101920000228C7F860800FD0FFF71CFC0446286827
:1019300010F0007F44D000BFFFF714FC001B02280A
:101940003AD90320BDE8F88FFFF70CFC064628685B
:1019500010F0007F09D000BFFFF704FC801B0228B5
:10196000EFD8286810F0007FF6D1D4E907010843CA
:10197000A16A1F4A490802EB0141626A41EA8211E9
:10198000084394F82C1040EA01611348016000E01C
:1019900016E001203866FFF7E5FB0446286810F0E2
:1019A000007F0DD1FFF7DEFB001B0228C9D8286895
:1019B00010F0007FF6D003E0286810F0007FBBD164
:1019C0000020BDE8F88F0120BDE8F88F0038024004
:1019D000083802400000474204380240800E474267
:1019E00074380240403802400070004070380240B5
:1019F0000000FFFF4FF0E021042808690CBF40F011
:101A0000040020F00400086170477047411EB1F1E6
:101A1000807F24BF012070474FF0E0204161054ADC
:101A2000F02182F8141D002181610721016100204D
:101A3000704700000FE000E010B5FFF7E6FF10BDB3
:101A400070477047002804BF0120704710B5044656
:101A500090F8390028B9002084F83800204600F0BA
:101A60000DF8022084F83900211D206800F06AFC7E
:101A7000012084F83900002010BD0000006881B00A
:101A8000A0F18041B1F580311CBF01B0704705481D
:101A9000016841F001010160006800F00100009060
:101AA00001B07047443802400168CA6842F0010240
:101AB000CA600068016841F00101016000207047C0
:101AC0000168CA6822F00102CA600068016A41F236
:101AD0001112114207D1016A9210114203D101681B
:101AE00021F00101016000207047704770B5044685
:101AF000006801694FF0000511F0020F1CBFC168BA
:101B000011F0020F13D06FF0020101610120207665
:101B10002068806910F0030F204602D0FFF7E5FF30
:101B200004E000F099F8204600F0D0F9257620680E
:101B3000016911F0040F1CBFC16811F0040F13D02C
:101B40006FF004010161022020762068806910F4A2
:101B5000407F204602D0FFF7C8FF04E000F07CF889
:101B6000204600F0B3F925762068016911F0080FCE
:101B70001CBFC16811F0080F13D06FF0080101619C
:101B8000042020762068C06910F0030F204602D0A0
:101B9000FFF7ABFF04E000F05FF8204600F096F995
:101BA00025762068016911F0100F1CBFC16811F083
:101BB000100F13D06FF0100101610820207620680B
:101BC000C06910F4407F204602D0FFF78EFF04E08A
:101BD00000F042F8204600F079F925762068016986
:101BE00011F0010F1CBFC16811F0010F05D06FF09B
:101BF00001010161204600F0C5F92068016911F07A
:101C0000800F1CBFC16811F0800F05D06FF08001FC
:101C100001612046FFF714FF2068016911F0400FB1
:101C20001CBFC16811F0400F05D06FF04001016189
:101C3000204600F0C9F92068016911F0200F1ABF91
:101C4000C16811F0200F70BD6FF0200101612046C6
:101C5000BDE87040FFF7F5BE7047000090F83830DF
:101C6000012B04BF022070472DE9F001012480F808
:101C70003840022380F83930844BDFF814C242B177
:101C8000042A45D0082A7DD00C2A00F0C28000F03A
:101C9000F3B80268156A25F001051562156A5668E1
:101CA0009769D1F8008027F0730748EA0707D1F851
:101CB000088025F0020548EA05059A4218BF6245EA
:101CC00011D1D1F80CC025F008034CEA030323F02E
:101CD0000405D1F814C026F440734CEA0303D1F88C
:101CE00018C04CEA0306566097614B68536315624F
:101CF0000268936943F0080393610268936923F0D3
:101D00000403936102689369096943EA01013FE0B2
:101D10000268156A25F010051562156A56689769FC
:101D2000D1F8008027F4E64747EA0827D1F8088071
:101D300025F0200545EA08159A4218BF624511D1E1
:101D4000D1F80CC025F0800343EA0C1323F04005C2
:101D5000D1F814C026F4406343EA8C03D1F818C0CC
:101D600043EA8C06566097614B689363156202687C
:101D7000936943F4006393610268936923F4806379
:101D8000936100E006E002689369096943EA012172
:101D9000916171E00268156A25F480751562166A12
:101DA0005568D769D1F8008027F0730748EA07071C
:101DB000D1F8088026F4007646EA08269A4218BF31
:101DC000624511D1D1F80CC026F4006343EA0C231C
:101DD00023F48066D1F814C025F4405343EA0C1371
:101DE000D1F818C043EA0C155560D7614B68D3632E
:101DF00016620268D36943F00803D3610268D369AD
:101E000023F00403D3610268D369096943EA01013D
:101E100031E00268156A25F480551562176A556825
:101E2000D669D1F8008026F4E64646EA0826D1F8BD
:101E3000088027F4005747EA08379A4218BF6245DE
:101E400005D1D1F814C025F4804343EA8C155560C0
:101E5000D6614B68136417620268D36943F4006368
:101E6000D3610268D36923F48063D3610268D369C4
:101E7000096943EA0121D16180F839404FF000013E
:101E800080F83810BDE8F0010846704700000140B6
:101E900000040140002804BF0120704710B504462B
:101EA00090F8390028B9002084F83800204600F066
:101EB0000CF8022084F83900211D206800F042FA55
:101EC000012084F83900002010BD70477047026877
:101ED000012303FA01F1136A8B431362136A194356
:101EE00011620168A1F18042B2F580321CBFA1F1FC
:101EF0008042B2F5823203D14A6C42F400424A6415
:101F00000068016841F0010101600020704730B4B1
:101F1000026801234FF0000C156A03FA01F425EA68
:101F200004041462146A0CFA01F12143116201687D
:101F300041F21112A1F1804440F2444CB4F58034D6
:101F40001CBFA1F18044B4F582340AD10C6A14425A
:101F500004BF0C6A14EA0C0F03D14C6C24F4004447
:101F60004C6401680C6A144204BF0A6A12EA0C0F3E
:101F700003D10A6822F001020A6080F8393030BCCF
:101F80000020704710B504462DED028B02F0CCFA0C
:101F9000B0EE408A01F0A4FC30B902F01BFAB0EEBA
:101FA000408A01F09DFC38B105490120086002F02B
:101FB00033FA0448FFF784FDBDEC028B10BD00002E
:101FC00004000020500100207047FEE77FB5124852
:101FD0001049002401604FF40031C0E9011404618C
:101FE00084610E490462C0E90A140125C460C56118
:101FF00045610463FEF73CFD00B1FEE7CDE9004515
:10200000694605480294FEF757FC002800D0FEE719
:102010007FBD0000002001401C0000200100000FD7
:102020007FB512481049002401604FF40031C0E927
:102030000114046184610E490462C0E90A14012597
:10204000C460C56145610463FEF712FD00B1FEE79F
:102050000095CDE9015469460448FEF72DFC00289F
:1020600000D0FEE77FBD0000002101406400002099
:102070000100000F1CB50F480D4C0460FEF71BFF5C
:1020800000B1FEE700200090024601906946094831
:10209000FEF7EAFE00B1FEE7102269460548FEF7AA
:1020A000E3FE00B1FEE7206840F03D1020601CBD5B
:1020B00000740040AC000020184800B5016887B0EB
:1020C00041F080010160016801F080010591016823
:1020D00041F001010160016801F001010591016811
:1020E00041F010010160016801F0100105910168E3
:1020F00041F0020101600068694600F002000590AD
:102100004FF4007000900220019002900390012093
:1021100004900348FEF708FF07B000BD30380240C6
:10212000001002400B4810B5094901600A4941609E
:1021300000214FF480428160C0E903124161816156
:10214000C1610162FFF714F8002800D0FEE710BD5E
:1021500000540040C0000020A086010010B51348C4
:1021600088B00024016841F001010160006800F0BE
:10217000010007900E48FFF7A8FE0D480D490160C9
:102180000F21C0E9011442F6FF71C0E90314FFF703
:1021900081FE7020CDE900040294002269460448C3
:1021A0000494FFF75BFD08B010BD00004438024006
:1021B0001401002000000140154808B50268002104
:1021C00042F00102026000684FF0804200F001001E
:1021D0000090104802600F22C0E901214FF6FF7203
:1021E000C0E90321FFF72EFC0720FFF723F90022A7
:1021F00011461C20FFF7ECF84FF0E0214FF0805023
:10220000C1F80001BDE808400248FFF74DBC0000DE
:102210004038024050010020FEE770477047704789
:1022200010B5FFF751F8BDE81040FFF705BC0000FE
:1022300030B5254893B00025016841F08051016018
:10224000006800F0805011902048016841F48041FE
:1022500001600068022400F4804011900120009089
:10226000000401908001CDE90640192008904FF448
:10227000A870CDE9090404200B906846FFF7E8F93F
:1022800000B1FEE70CA90F2081E831004FF4A05007
:102290000F904FF48050109005210CA8FFF7DCF848
:1022A00000B1FEE7FFF784F94FF47A71B0FBF1F06B
:1022B000FFF7ACFB0420FFF79DFB00221146501EE8
:1022C000FFF786F813B030BD403802400070004080
:1022D0001448006840F47000124908601248006811
:1022E00040F001001049086000200F4908310860E3
:1022F0000D4800680D4908400B4908600C48091D4D
:102300000860081F006820F48020091F0860002072
:1023100005490C3108604FF00060024980390860BF
:102320007047000088ED00E000380240FFFFF6FE35
:102330001030002410B50248FFF7D8FB10BD000094
:1023400050010020F0B402682A4B2B4C2B4D2C4E30
:10235000DFF8B0C0984218BFB0F1804F07D0A0425C
:1023600018BFA84203D0B04218BF604504D14F68DF
:1023700022F0700247EA0202984218BFB0F1804F83
:1023800025D0A04218BFA84221D0B04218BF604556
:102390001DD0A0F18044B4F5A0341CBFA0F180444E
:1023A000B4F5A23413D0A0F18044B4F5A4341CBF1A
:1023B000A0F18044B4F5C05409D0A0F18044B4F534
:1023C000E0541CBFA0F18044B4F5005403D1CC68A4
:1023D00022F44072224302608A68C2620A68826202
:1023E000984212BF6045096901634FF001014161E4
:1023F000F0BC7047000001400004004000080040AD
:10240000000C004000040140FEE703B401984100C5
:10241000009850EAC12018BF04204A0D18BF40F0B0
:10242000010040F2FF72B2EB515F08BF40F00200C2
:10243000012808BF052002B070470000000000001E
:1024400070B59B482DED020B2DED068B079D25F0F9
:102450000044A04218DC9748844202DC0AD1069866
:1024600040B19DED060BBDEC068B02B0BDE870409F
:1024700001F046B9002DCCBF9FED8F0B9FED900B67
:10248000BDEC068B02B070BD8F48A04215DD8F48B1
:10249000A042D8BF4FF0FF3458DD9DED060B51EC44
:1024A000100BFFF7B2FF042808BF01F05DF99DEDA6
:1024B000060BBDEC068B02B070BD9DED060B51EC1A
:1024C000100B01F027FBCDE9060181489FED828BBF
:1024D000A0423CDD8248A0421FDD00249FED82AB7C
:1024E0009DED060B53EC1A2B51EC100BFDF7ABFED8
:1024F0009DED060B41EC190B53EC1A2B51EC100B14
:10250000FDF748FF53EC182BFDF73EFF53EC192B5A
:10251000FDF7B2FFCDE9060149E09DED060B012470
:1025200053EC182B51EC100BFDF78DFE9DED060BB7
:1025300041EC190B53EC182B51EC100BFDF724FF59
:1025400053EC192BFDF798FFCDE906012FE0684801
:10255000A0421FDD02249FED689B9DED060B53EC0E
:10256000192B51EC100BFDF715FF53EC182BFDF751
:102570006AFE9DED060B41EC180B53EC192B51EC48
:10258000100BFDF701FF53EC182BFDF775FFCDE99C
:1025900006010CE09DED060B032453EC102B9FED80
:1025A000580B51EC100BFDF767FFCDE906019DEDCF
:1025B000060B53EC102B51EC100BFDF7EBFE41EC2E
:1025C000180B53EC182BFDF7E5FE41EC190B4E48A8
:1025D0000621B0EE490AF0EE690A784400F0F9FFEE
:1025E00053EC182B51EC100BFDF7D4FE41EC180BFB
:1025F0004648B0EE490AF0EE690A0521784400F039
:10260000E8FF53EC192B51EC100BFDF7C3FE41EC26
:10261000100B51EC180B53EC102B002C0EDAFDF7BD
:1026200012FE9DED061B53EC112BFDF7B3FE9DED45
:10263000061B53EC112BFDF7AAFE35E0FDF703FE58
:102640009DED061B53EC112BFDF7A4FE41EC100B86
:102650002F48784400EBC40090ED001B51EC100BA8
:1026600053EC112BFDF790FE9DED061B53EC112B47
:10267000FDF78AFE41EC100B2648784400EBC400BD
:1026800090ED001B51EC100B53EC112BFDF77FFE6E
:1026900041EC100B002DA2BFBDEC068B02B070BD4B
:1026A00051EC100B81F0004141EC100B01E70000F0
:1026B000000010440000F07F182D4454FB21F93F26
:1026C000182D4454FB21F9BF0000DC3F0000203EE0
:1026D0000000F33F00000000000000000000F03F99
:1026E0000000E63F00000000000000000000004085
:1026F0000080034000000000000000000000F83FE0
:10270000000000000000F0BFAA20000060200000D0
:10271000EA1F0000A21F000070B56B4E2DED040BE8
:102720002DED028B82B0DDF81CC0DDE905235C4293
:102730002CF000411C4341EAD474049D22F0004077
:10274000B44205D86C422C4340EAD474B4420BD94D
:102750009DED061B9DED040B02B0BDEC028B04B099
:10276000BDE8704000F0D6BFACF14054A4F17F64E6
:102770001C430BD0022404EAAC7444EAD27405432F
:102780009FED538B9FED542B07D015E09DED040B6F
:1027900051EC100B01F09CF842E0002C11BF012C11
:1027A0009DED040B02B0BDEC028B04BF04B070BD04
:1027B000022C38D0032C3BD00B439FED491B9FEDDF
:1027C0004A0B0AD0B14218D1B04209D121F0804160
:1027D00020F08040079105900FE0002A15DA10E004
:1027E000434B7B44002C08BF93ED000B0DD0012C14
:1027F00010D0022C17D0032C1AD0B0421DD1002AC1
:1028000003DAB0EE410AF0EE610A02B0BDEC028BD1
:1028100004B070BD93ED000B51EC100B81F0004142
:1028200041EC100BF1E7B0EE480AF0EE680AECE775
:10283000B0EE420AF0EE620AE7E7401A00153C28C3
:10284000C8BF8DED000B19DCBCF1000FBEBF10F14D
:102850003C0F9FED290B8DED000B0FDB9DED060B63
:1028600053EC102B9DED040B51EC100BFDF704FE07
:1028700001F050F901F02CF8CDE90001002C08BF5F
:102880009DED000BC1D0012C10D0022C9FED1C0B34
:1028900053EC102B9DED000B51EC100B0DD0FDF700
:1028A00073FD53EC182BFDF76FFDB9E7019880F02D
:1028B000004001909DED000BA7E7FDF765FD53EC8F
:1028C000182BFDF764FDABE70000F07F000000006F
:1028D000182D4454FB210940182D4454FB2109C0F4
:1028E000182D4454FB21F9BF182D4454FB21F93F06
:1028F000D21E0000000000000000000000000000E8
:10290000075C143326A6A13C2DE9F04D2DED040BF8
:102910002DED0E8B96B0DDE92550279CDDF890A0BB
:1029200025F0004624F00048BAF1000F14BF012141
:10293000002101EB4502FC4953184A1093422AD367
:10294000002814BF0123002303EB44030B44F74981
:102950008B4220D358EA00019FEDF59B76D0DFF83B
:10296000D8B35D4503D1BAF1000F05D188E0BAF1C3
:10297000000F08BF002100D0012101EB450111F536
:10298000001F08D8002814BF0121002101EB4401D9
:1029900011F5001F0BD99DED261B9DED240B16B0E4
:1029A000BDEC0E8B04B0BDE8F04D00F0B3BE0027C7
:1029B000002DBCBFE149884521DAE1498845A8BF1F
:1029C00002271CDAC3451ADCDE4901EB2851142921
:1029D00008DDC1F1340220FA02F101FA02F282426A
:1029E0000DD108E058B9C1F1140228FA02F101FA38
:1029F00002F2424503D101F00101C1F1020756EA9A
:102A00000A0124D1002C22DA002D18BF022F01D098
:102A1000012F0AD0022000F0C7FE16B0BDEC0E8BCD
:102A200004B0BDE8F04D00F053BE022000F0BCFE43
:102A300000F04EFE51EC100B81F0004141EC100B08
:102A400016B0BDEC0E8B04B0BDE8F08D18E09FED24
:102A5000BEAB9FEDBF8B002871D1B848804522D115
:102A600005F1804010F5801008BFBAF1000F07D0C3
:102A7000B3450ADC002CA8BF9DED260BE0DA0DE083
:102A8000B0EE490AF0EE690ADAE7002C06DA9DEDAD
:102A9000260B51EC100B81F000416FE0AE487844FA
:102AA00090ED000BCCE7D8454DD1002C48DA2EB183
:102AB00086423AD1BAF1000F42D126E0BAF1000FB6
:102AC00013D0022000F070FE00F03EFE8DED020BF0
:102AD0009DED240B8DED000B10EE900A039961F330
:102AE0001E0003909DED020BAAE78DED02AB9DED5C
:102AF000240B1AEE901A10EE900A8DED000B61F384
:102B00001E0003909DED020B9AE78DED028B9DED6B
:102B1000240B18EE901A10EE900A8DED000B61F365
:102B20001E0003909DED020B8AE709DA9DED240B50
:102B300051EC190B53EC102BFDF79EFC1EE020E02E
:102B40009DED240B7CE786421BDAB4F1804F0DD05B
:102B5000A4F10050B0F1FF5013D1002D11DB9DED19
:102B6000240B51EC100B01F07FFC07E09DED240BD2
:102B700053EC102B51EC100B00F0C2BC41EC100BCD
:102B80005EE79DED240B51EC100B00F0C3FFBAF192
:102B9000000FCDE90E0142D19FED710B46B3A6F1B6
:102BA000E040B0F17F600CD05E4538D1002D00DAF6
:102BB000A7B3022F0CBF01204FF0FF30FDF757FEE7
:102BC000DCE7002D01DD002C0DDA002D01DD002CED
:102BD0001FDB002D16DA002C14DB012F08BF9FED40
:102BE000620B3FF42DAFB0EE4A0AF0EE6A0A27E717
:102BF000022F18BF002D0CD0012F0AD1002DFFF697
:102C00001FAF06E0002DB8BF002C08DA012F3FF4FB
:102C100017AFB0EE480AF0EE680A11E71BE001209A
:102C200000EBE57050EA070115D0791EB0EE498A35
:102C3000F0EE698A084308BF9FED4D8B4E48002592
:102C4000804570DD4D494E48884514DDB0420DDBAE
:102C5000002C19DB2FE0012000F0A6FD16B0BDEC22
:102C60000E8B04B0BDE8F04D00F05EBDB34502DC54
:102C7000002C09DC1FE0864202DA002C1BDA03E09C
:102C80005E452BDD002C16DD022000F08DFD00F0EE
:102C90005BFD8DED020B53EC1A2B51EC180BFDF77D
:102CA00079FBCDE900010399019861F31E000390BF
:102CB0009DED020BC4E6022000F076FD00F054FD0D
:102CC00010EE901A18EE900A8DED020B8DED008B30
:102CD00061F31E0003909DED020BB1E69DED0E0B1E
:102CE00053EC192B51EC100BFDF74EFB9FED260B0F
:102CF000CDE9080153EC102B9DED080B51EC100BA6
:102D0000FDF748FB9FED221B53EC112BFDF73FFB1A
:102D10009DED081B53EC112BFDF73CFB9FED1E1B9B
:102D200053EC112B3CE08CE0FFFF1F00FFFF0F0076
:102D3000000000000000F03F0000F03F0000F07FC6
:102D40000000404301FCFFFF000000000000F07F96
:102D50000000000000000000161C00000000000041
:102D60000000000000000080000000000000F0FFF4
:102D7000000000000000F0BF0000E0410000F04350
:102D8000FFFFEF3F00000000000000000000D03F08
:102D9000555555555555D53F000000000000E03F02
:102DA000FDF7F5FA9DED080B41EC1A0B53EC102BD7
:102DB00051EC100BFDF7EEFA53EC1A2BFDF7EAFA83
:102DC00041EC1A0B9FEDFE0B53EC102B9DED080B05
:102DD00051EC100BFDF7DEFA41EC1B0B9FEDFA0BEB
:102DE00051EC1A0B53EC102BFDF7D4FA41EC1A0BF3
:102DF0009FEDF70B53EC102B9DED080B51EC100BD6
:102E0000FDF7C8FA53EC1A2BFDF7BEFA41EC1A0B8A
:102E100051EC1B0B53EC1A2BFDF715FA0690CDE97C
:102E200006519DED060B53EC1B2B51EC100BFDF7DF
:102E3000ABFA53EC1A2BFDF7AAFA41EC100B00F099
:102E4000A1B90020B6F5801F0EDA9FEDE30B53EC1D
:102E5000102B9DED0E0B51EC100BFDF79BFACDE9FD
:102E60000E016FF034000E4600EB2650A0F2FF3743
:102E7000C6F31300DA4940F07F6646F040568842B8
:102E8000D8BF002408DDD7498142C8BF012403DC34
:102E90000024A6F580167F1CD348784400EBC400BC
:102EA0000F9690ED00CB9DED0E0B53EC1C2B51ECCF
:102EB000100BFDF769FA9DED0E0B41EC1B0B53EC6B
:102EC0001C2B51EC100BFDF7BEF941EC100B51EC33
:102ED000190B53EC102BFDF7CFFA41EC1D0B51EC05
:102EE0001B0B53EC1D2BFDF755FA41EC1A0BBF4899
:102EF0008DED10AB7844109590ED000B4FF0005025
:102F000040EA660000EB84408DED080B00F50020E0
:102F100009909DED080B53EC1C2B51EC100BFDF7A9
:102F200033FA9DED0E1B53EC112BFDF730FA41ECFB
:102F3000100B53EC102B9DED100B51EC100BFDF70B
:102F400029FA9DED080B41EC1C0B53EC102B9DED69
:102F5000100B51EC100BFDF71DFA53EC1B2BFDF77A
:102F600016FA53EC1C2BFDF70FFA53EC1D2BFDF753
:102F700011FA41EC1C0B53EC1A2B51EC1A0BFDF718
:102F800009FA41EC1B0B9A480621B0EE4B0AF0EE11
:102F90006B0A784400F01DFBB0EE401AF0EE601AA8
:102FA000B0EE41DAF0EE61DA53EC1B2B51EC1B0B67
:102FB000FDF7F0F953EC1D2BFDF7ECF99DED100B2F
:102FC00041EC1B0B53EC1A2B51EC100BFDF73BF9AA
:102FD00053EC1C2BFDF7DEF953EC1B2BFDF733F9FB
:102FE0009DED100B41EC1B0B53EC102B51EC100B17
:102FF000FDF7D0F941EC1D0B9FED7FEB53EC1E2B41
:10300000FDF721F953EC1B2BFDF71DF90890CDE9D5
:1030100008519DED080B53EC1E2B51EC100BFDF7E6
:10302000B3F953EC1D2BFDF7AFF953EC1B2BFDF758
:10303000AEF99DED080B41EC1D0B53EC102B9DEDF3
:10304000100B51EC100BFDF7A5F941EC1B0B53ECE9
:103050001A2B51EC1D0BFDF79DF99DED080B41EC72
:103060001A0B53EC102B51EC1C0BFDF793F953EC9E
:103070001A2BFDF7E8F841EC1A0B51EC1B0B53EC43
:103080001A2BFDF7E0F80C90CDE90C519DED0C0BDF
:1030900053EC1B2B51EC100BFDF776F953EC1A2B6C
:1030A000FDF775F941EC1B0B9FED550B53EC102B05
:1030B0009DED0C0B51EC100BFDF76CF941EC1A0B6C
:1030C0009FED510B51EC1B0B53EC102BFDF762F9EC
:1030D00041EC1B0B9FED4E0B53EC102B9DED0C0B9D
:1030E00051EC100BFDF756F953EC1B2BFDF7ABF829
:1030F00041EC100B4848784400EBC40090ED001BF5
:1031000051EC100B53EC112BFDF79DF841EC1B0B10
:103110003846FDF7ACFBCDE9080153EC1B2B51EC15
:103120001A0BFDF790F841EC100B3C48784400EB8B
:10313000C40090ED00CB51EC100B53EC1C2BFDF7B1
:1031400082F89DED081B53EC112BFDF77CF80690DF
:10315000CDE906519DED080B53EC102B9DED060BB0
:1031600051EC100BFDF710F953EC1C2BFDF70CF98B
:1031700053EC1A2BFDF708F953EC1B2BFDF707F95D
:1031800041EC100B9DED261B53EC102B8DED001B1D
:1031900000959DED260B51EC100BFDF7FBF89DED16
:1031A000000B41EC1A0B53EC102B9DED260B51EC50
:1031B000100BFDF7E9F89DED061B53EC112B2FE0EA
:1031C000000000604715F73FFE822B654715F73F6B
:1031D00044DF5DF80BAE543E0000000000004043A9
:1031E0008E9803007AB60B00FA160000C017000094
:1031F000321600000000000000000000000008403F
:10320000000000E009C7EE3FFD033ADC09C7EE3FCE
:10321000F5015B14E02F3EBEBE14000078140000E0
:10322000FDF7B8F853EC1A2BFDF70DF89DED060BE2
:1032300041EC1A0B53EC102B9DED000B51EC100BD5
:10324000FDF7A8F8CDE90C019DED0C0B51EC1A0B24
:1032500053EC102BFCF7F7FFCDE902010C46AA490D
:103260008C422FDB611A084318D19DED0C0B53ECF7
:10327000102B9DED020B51EC100BFDF785F841EC86
:103280001B0B9FEDA30B51EC1A0B53EC102BFCF70F
:10329000DAFF53EC1B2BFDF789F92DD2022000F049
:1032A00083FA00F051FA10EE901A18EE900A8DEDA4
:1032B000020B8DED008B61F31E0003909DED020B60
:1032C000FFF7BEBB944A24F00041914214D39349C6
:1032D000214408437FF4EFAC9DED0C0B53EC102B15
:1032E0009DED020B51EC100BFDF74EF853EC1A2B31
:1032F000FDF75CF97FF6DFAC24F000408849894A8D
:10330000002601EB205182422BDA481C4FF4801139
:1033100021FA00F02044844AC0F30A517A44A1F211
:10332000FF3192ED000B814A8DED080BCA4020EA77
:103330000202C0F3130040F48010C1F1140120FA1E
:1033400001F60992002CB8BF76429DED080B53ECB4
:10335000102B9DED0C0B51EC100BFDF715F8CDE982
:103360000C019DED0C0B51EC1A0B53EC102BFCF7E0
:103370006AFF9FED6F0B0890CDE9085153EC102BBD
:103380009DED080B51EC100BFDF704F841EC1B0B05
:103390009FED690B53EC102B9DED080B51EC100BBE
:1033A000FCF7F8FF9DED0C0B41EC1C0B53EC102BC4
:1033B0009DED080B51EC100BFCF7E6FF53EC1A2BBC
:1033C000FCF7E5FF9FED5E1B53EC112BFCF7E2FFD2
:1033D00053EC1C2BFCF737FF41EC1A0B51EC1B0B89
:1033E00053EC1A2BFCF72FFFCDE902019DED020BE8
:1033F00053EC1B2B51EC100BFCF7C6FF53EC1A2BB4
:10340000FCF7C5FF9DED020B41EC1A0B53EC102BA2
:1034100051EC100BFCF7BEFFCDE908014A489DEDC9
:10342000080B0521784400F0D4F89DED081B51EC01
:10343000100B53EC112BFCF7ADFF9DED021B53EC71
:10344000112BFCF7A4FFCDE906019DED020B53EC17
:103450001A2B51EC100BFCF79DFF53EC1A2BFCF7C9
:10346000F2FE9FED3B0B41EC1A0B53EC102B9DED44
:10347000060B51EC100BFCF787FF9DED060B41ECA2
:103480001B0B53EC102B9DED020B51EC100BFCF7BA
:1034900081FF53EC1B2BFCF7EFFF53EC1A2BFCF7CF
:1034A00073FF9DED021B53EC112BFCF76DFF53ECEA
:1034B000192BFCF76CFFCDE9020101EB0650011559
:1034C0000029C8BF039015DC9DED020B324651EC7C
:1034D000100BFDF764F9FEF798FF042808BF00F011
:1034E00043F932469DED020B51EC100BFDF757F9F5
:1034F000CDE902019DED020B51EC180B53EC102BA2
:10350000FCF748FFFFF73ABB0000904000000000C6
:10351000FE822B654715973C00CC904000346F3FEE
:1035200001FCFFFF0000E03F98130000FFFF0F00C9
:1035300000000000432EE63F396CA80C615C20BE01
:10354000EF39FAFE422EE63FD011000000000000E5
:10355000000000000000004000B52DED048BB0EE2F
:10356000409AF0EE609A83B051EC190BFDF72EF9FA
:1035700041EC180B18EE100A18EE901A8DED008B26
:10358000002818BF0120084320F00040C0F17F60F0
:1035900000F1E040C00F14D019EE101A19EE900A95
:1035A0008DED009B002918BF0121084320F0004049
:1035B000C0F17F6000F1E040C00F04BF012000F0C7
:1035C000F3F8B0EE480A03B0F0EE680ABDEC048BE5
:1035D00000BD70B504462DED028B4D1E00EBC500FD
:1035E000B0EE408AF0EE608A90ED000B35F00600F8
:1035F00017D053EC182B51EC100BFCF7CBFE41EC21
:10360000100B6D1E04EBC50090ED001B51EC100B70
:1036100053EC112BFCF717FE41EC100B35F00600B4
:10362000E7D1022D36D0042D1CD0062D1CBFBDECD9
:10363000028B70BD53EC182B51EC100BFCF7AAFE5B
:1036400094ED0A1B53EC112BFCF7FDFD53EC182BEA
:10365000FCF7A0FE94ED081B53EC112BFCF7F3FDD7
:1036600041EC100B53EC182B51EC100BFCF792FEB5
:1036700094ED061B53EC112BFCF7E5FD53EC182BD6
:10368000FCF788FE94ED040B53EC102BFCF7DBFDEC
:1036900041EC100B53EC182B51EC100BFCF77AFE9D
:1036A00094ED021B53EC112BFCF7CDFD53EC182BC2
:1036B000FCF770FE94ED001B53EC112BFCF7C3FDDF
:1036C000BDEC028B41EC100B70BD0000000000004F
:1036D0009FED070B10B553EC102B9FED070B51EC32
:1036E000100BFCF7C9FE41EC100B10BD00000000F0
:1036F0000000000000000000000000000000F03F9B
:1037000010B553EC102B51EC100BFCF79CFD41EC69
:10371000100B10BD10B553EC112B51EC100BFCF736
:1037200092FD41EC100B10BD9FED050B10B553EC55
:10373000102B51EC100BFCF79FFE41EC100B10BD51
:1037400000000000000000009FED050B10B553ECD9
:10375000102B51EC100BFCF71DFE41EC100B10BDB3
:1037600000000000000000709FED050B10B553EC49
:10377000102B51EC100BFCF70DFE41EC100B10BDA3
:10378000000000000000001002E008C8121F08C17D
:10379000002AFAD170477047002001E001C1121FD2
:1037A000002AFBD170470000014908607047000003
:1037B0001800002010B52DED108BB0EE408AF0EE11
:1037C000608AB0EE41FA1FEE100AFCF7C4FE41EC2D
:1037D0001D0B9FED371BB0EE4D0AF0EE6D0AFFF7A3
:1037E00093F8B0EE40BAF0EE60BA18EE900AFCF72B
:1037F000B2FE41EC1D0B9FED2E1BB0EE4D0AF0EE1C
:103800006D0AFFF781F8B0EE40CAF0EE60CA53ECE3
:103810001B2B51EC1C0BFCF716FD41EC1A0BB0EE08
:103820004A0AF0EE6A0AFFF797FEB0EE409AF0EE11
:10383000609A51EC190BFCF7D1FE04462046FCF7C8
:103840008AFE41EC1D0B18EE100AFCF784FE41ECD9
:103850001E0BB0EE4D1AF0EE6D1AB0EE4E0AF0EE01
:103860006E0AFEF759FFB0EE40CAF0EE60CA9FED57
:10387000120B51EC1C0B53EC102BFCF78BFD9FED46
:10388000100B41EC1B0B53EC102BFCF7F5FD9FEDDF
:103890000E0B41EC1A0B53EC102BFCF775FD41ECB1
:1038A000190BFCF79BFEBDEC108B00EE100A10BD4F
:1038B00000000000000000400000000000806640A2
:1038C0004189D316F14A09400000000000805640AB
:1038D00010B541EC100BFEF7B3FD51EC100B10BD11
:1038E00010B52DED048BB0EE408A18EE100AFCF7EF
:1038F00032FE9FED0E0B41EC190B53EC102BFCF735
:103900003DFE0CD318EE100AFCF725FE9FED090BC7
:1039100041EC190B53EC102BFCF748FE03D20120AD
:10392000BDEC048B10BD0020FAE7000066666666F9
:103930006666F23F33333333333301401748D0EDFB
:10394000000AF8EEE00AB4EEE00AF1EE10FA02DD49
:1039500040F6FF70704711480068404200EE900A40
:10396000F8EEE00AB4EEE00AF1EE10FA01D200201F
:10397000F0E70A48D0ED000AF8EEE00A80EE201ADF
:10398000F7EE000A71EE200A9FED051A60EE810A3B
:10399000FDEEE00A10EE900ADCE7000000000020D7
:1039A00000E0FF44F0EE401A42F6FF7000EE900A8D
:1039B0009FED1D0A10EE900A81EE802AB0EE080AF3
:1039C000C11700EB9171891030EE422A00EE101AF7
:1039D000B8EEC00A22EE000AB0EE401AB8EEE00AD5
:1039E000B4EEC01AF1EE10FA02DBB8EEE00A70474E
:1039F00010EE900A00EBD071491000EE101AB8EEEC
:103A0000C00AB4EEC10AF1EE10FA09DB10EE900A1A
:103A100000EBD071491000EE101AB8EEC00AE6E7CC
:103A2000B0EE410AE3E70000000020420EB500F0CE
:103A300065F98DED000ACDED010A8DED021A9DEDBF
:103A4000000ADDED010A9DED021A0EBD0FB410B59E
:103A50002DED028B04A8FDF761F9642104A8FDF7A0
:103A6000FDF804A8FDF700F800EE100AB8EE400AD1
:103A7000B0EE408A04A8FDF7D9F9B0EE480ABDECD3
:103A8000028B10BC5DF814FB0FB410B52DED068B46
:103A9000A0B0342228A90EA8FCF7C3FB35981B90D0
:103AA00036983799CDE91C0138981E9039981F90A7
:103AB000382212A96846FCF7B4FB0EA80FC8FFF71E
:103AC000C5FF10EE104A2046FCF745FD9FED0D0B9B
:103AD00041EC1A0B53EC102BFCF75CFC9FED0B0B2D
:103AE00041EC190B53EC102BFCF7C6FC41EC180B06
:103AF000FCF774FD20B000EE100ABDEC068B10BC84
:103B00005DF814FB6666666666660A4000000000A3
:103B10000000B04082B0CDE9000121F000400190EA
:103B20009DED000B02B051EC100B704710B52DED60
:103B3000028BA0B060E000F061F98DED1D0ACDEDC3
:103B40001E0A8DED1F1A9DED1E0A10EE101A084672
:103B5000FCF701FD9FED2C0B41EC180B53EC102BE7
:103B6000FCF724FD02D22A490120086034222949A9
:103B70000EA8FCF756FB2748406B1B902549886B25
:103B8000C96BCDE91C012348006C1E902148406C94
:103B90001F90382212A96846FCF743FB0EA80FC8F5
:103BA000FFF754FFBDEEC00A10EE104A204600F0A9
:103BB000A3FC342218490EA8FCF733FB1648406BCF
:103BC0001B901549886BC96BCDE91C011248006C2C
:103BD0001E901148406C1F90382212A96846FCF7CD
:103BE00020FB0EA80FC8FFF731FFBDEEC00A10EE94
:103BF000104A204600F0D4FB0548006802289AD0FD
:103C000020B0BDEC028B10BD9A9999999999E93F22
:103C1000040000201C0000206400002086B0FDF796
:103C20005BFBFEF705FBFEF747FAFEF7CFF9FEF761
:103C3000F7F9FEF71FFAFEF775FAFEF78FFAFEF7AF
:103C4000BBFA00F035F90020039004900590009035
:103C500001900290FFF7EAFE064880ED000AC0EDF1
:103C6000010A80ED021A03E0FFF760FF00F04EFB4F
:103C7000FAE700008C01002010B53B2000F026FA86
:103C8000000204B23C2000F021FA204304B200EE0E
:103C9000104A9FED031AF8EEC00A80EE810A10BDAB
:103CA0000000004710B53D2000F010FA000204B2F9
:103CB0003E2000F00BFA204304B200EE104A9FEDC4
:103CC000031AF8EEC00A80EE810A10BD000000471A
:103CD00010B53F2000F0FAF9000204B2402000F0D5
:103CE000F5F9204304B200EE104A9FED031AF8EEF6
:103CF000C00A80EE810A10BD0000004700B52DED1E
:103D0000048B83B0FFF7B8FFB0EE408AFFF7CAFF1D
:103D1000F0EE408AFFF7DCFFB0EE409A0020009002
:103D200001900290B0EE491AF0EE680AB0EE480A2F
:103D3000FFF740FD8DED000AB0EE481AF0EE490A9B
:103D4000B0EE680AFFF736FD8DED010AB0EE681A95
:103D5000F0EE480AB0EE490AFFF72CFD8DED020A9D
:103D60009DED000ADDED010A9DED021A03B0BDECE8
:103D7000048B00BD00B587B000200490059006902C
:103D8000FFF7BCFF8DED010ACDED020A1A488DED5B
:103D9000031A9DED010AD0ED000A30EE600A8DEDA8
:103DA000040AFFF7ABFF8DED010ACDED020A1248C0
:103DB0008DED031A9DED020AD0ED010A30EE600A86
:103DC0008DED050AFFF79AFF8DED010ACDED020A90
:103DD00009488DED031A9DED030AD0ED020A30EE7D
:103DE000600A8DED060A9DED040ADDED050A9DEDE4
:103DF000061A07B000BD00008C0100200EB500209F
:103E000000900190029000F011F88DED000A00F092
:103E100023F88DED010A00F035F88DED020A9DEDD5
:103E2000000ADDED010A9DED021A0EBD10B543201A
:103E300000F04CF9000204B2442000F047F920439E
:103E400004B200EE104A9FED031AF8EEC00A80EEAD
:103E5000810A10BD0000004710B5452000F036F97A
:103E6000000204B2462000F031F9204304B200EE13
:103E7000104A9FED031AF8EEC00A80EE810A10BDC9
:103E80000000004710B5472000F020F9000204B2FE
:103E9000482000F01BF9204304B200EE104A9FEDC9
:103EA000031AF8EEC00A80EE810A10BD0000004738
:103EB00085480068844940F00100086008460068B1
:103EC00040F48070086000BF7F481430006800F044
:103ED00001000028F8D07C48143000687A49D020CE
:103EE0001031086000BF78481430006800F002000C
:103EF0000028F8D0744814300068734818300068FF
:103F000071496B201031086000BF6F4814300068A1
:103F100000F004000028F8D06B4900201031086040
:103F200000BF69481430006800F004000028F8D091
:103F300065480068644940F40070086008460068FD
:103F400040F48070086000BF5F481430006800F0E3
:103F500001000028F8D05C48143000685A49D0208D
:103F60001031086000BF58481430006800F00200AB
:103F70000028F8D0544814300068534818300068BE
:103F8000514938201031086000BF4F481430006894
:103F900000F004000028F8D04B49012010310860DF
:103FA00000BF49481430006800F004000028F8D031
:103FB00045480068444940F40070086008460068BD
:103FC00040F48070086000BF3F481430006800F083
:103FD00001000028F8D03C48143000683A49D0204D
:103FE0001031086000BF38481430006800F002004B
:103FF0000028F8D03448143000683348183000687E
:1040000031491A201031086000BF2F481430006871
:1040100000F004000028F8D02B490420103108607B
:1040200000BF29481430006800F004000028F8D0D0
:1040300025480068244940F400700860084600687C
:1040400040F48070086000BF1F481430006800F022
:1040500001000028F8D01C48143000681A49D0200C
:104060001031086000BF18481430006800F00200EA
:104070000028F8D01448143000681348183000683D
:10408000114919201031086000BF0F481430006832
:1040900000F004000028F8D00B490020103108601F
:1040A00000BF09481430006800F004000028F8D070
:1040B00005480068044940F400700860002000E0F2
:1040C000401CFF28FCDB70470054004008B5014647
:1040D000574A0C2010601014554A08321060544A98
:1040E0003C201C3210600D20121D1060504A01202F
:1040F0001060002000E0401C40F6FF729042FADBA6
:104100004B4800684A4A40F48070106000BF48483D
:104110001430006800F001000028F8D04448143042
:104120000068434AD0201032106000BF404814306D
:10413000006800F002000028F8D03D481430006804
:104140003B48183000683A481030016000BF3848DA
:104150001430006800F004000028F8D034480068EB
:10416000334A40F48070106000BF3148143000685A
:1041700000F001000028F8D02D48143000682C4AC7
:10418000D1201032106000BF29481430006800F0C0
:1041900002000028F8D0264814300068244818305F
:1041A000006800BF22481430006800F0400000287A
:1041B000F8D01F481030006800901D4800681C4A65
:1041C00040F4806010601A481430006818481830B5
:1041D00000681046006840F4007010601448143005
:1041E00000681348183000681148103000680090CB
:1041F0001046006840F40070106000BF0C48143096
:10420000006800F010000028F8D100BF08481830FE
:10421000006800B1FAE706480068054A40F400402B
:104220001060002000E0401CFF28FCDB009808BD67
:104230000054004000B52DED048B83B003202F49BE
:104240000860042000F0E8F800F046F948E0FFF7C5
:1042500091FD8DED000ACDED010A8DED021A9DED67
:10426000000AB0EE408AB0EE480AFFF79BFBF0EE82
:10427000402A00F0E7F8B3EE0E0AB4EEC08AF1EE81
:1042800010FA03DD1E49142008600DE0BBEE0E0A93
:10429000B4EEC08AF1EE10FA03DD19491E20086061
:1042A00002E0174928200860FFF7A8FD8DED000AFD
:1042B000CDED010A8DED021A9DED010A10EE101AE6
:1042C0000846FCF748F99FED0F0B41EC190B53EC36
:1042D000102BFCF76BF902D208490120086000BFDF
:1042E000064800680328B2D000F0FEF8022000F073
:1042F00093F803B0BDEC048B00BD00000400002067
:10430000000000209A9999999999E93F00B52DEDFF
:10431000028B87B0032000F07FF81D48FDF7C4FB37
:104320002EE0FFF76BFD8DED010ACDED020A8DED5C
:10433000031A9DED020A10EE101A0846FCF70BF95D
:104340009FED140B41EC180B53EC102BFCF72EF9DE
:1043500001D2FFF76FFFFFF70DFD8DED040ACDEDE4
:10436000050A8DED061ADDED040AB0EE600A00F0D4
:10437000CFF8DDED060AB0EE600A00F01FF800BFCE
:10438000064800680128CCD007B0BDEC028B00BD08
:10439000500100209A9999999999E93F04000020C9
:1043A00005490860044910390968034A41F00201CF
:1043B000103A1160704700001474004000B5F0EE30
:1043C000401AB0EE610AFFF7B9FA03461846FFF744
:1043D000E7FF00BD00B5A1B034220E490FA8FBF7DE
:1043E00020FF0C48406B1C900A49886BC96BCDE9D3
:1043F0001D010848006C1F900648406C2090382230
:1044000013A96846FBF70DFF0FA80FC8FFF73CFB89
:1044100021B000BD6400002070B5044600250CE00A
:1044200000F05AF89FED060A00F00CF800F09EF834
:1044300000F05AF800F09AF86D1CA542F0DB70BD50
:1044400000E0BF44FCEEC00A064910EE900AC862C4
:10445000F0EE000A80EE201AFCEEC10A10EE900A7F
:10446000486370470000014000B52DED048B83B018
:1044700041EC190BFCF7AAF941EC180B18EE100AE5
:1044800018EE901A8DED008B002818BF012008430C
:1044900020F00040C0F17F6000F1E040C00F14D078
:1044A00019EE101A19EE900A8DED009B002918BF25
:1044B0000121084320F00040C0F17F6000F1E0409E
:1044C000C00F04BF0120FFF76FF951EC180B03B0C8
:1044D000BDEC048B00BD000010B500210148FDF7C4
:1044E000F6FC10BD1401002010B500210148FDF7B5
:1044F0000EFD10BD1401002004490860091F096861
:10450000024A41F00101121F116070470874004017
:1045100000B5F0EE401AB0EE610AFFF70FFA03465D
:104520001846FFF7E9FF00BD00B5A1B034220E49DF
:104530000FA8FBF776FE0C48406B1C900A49886B6D
:10454000C96BCDE91D010848006C1F900648406CFE
:104550002090382213A96846FBF763FE0FA80FC806
:10456000FFF792FA21B000BD1C000020002000E0FF
:10457000401C02498842FBDB7047000000C05D0020
:104580000000000000000000010203040607080903
:104590000000000001020304000000000000F03FE2
:1045A000000000000000F83F0000000000000000D4
:1045B0000000004003B8E23F0000000000000000DF
:1045C00006D0CF43EBFD4C3E033333333333E33F6D
:1045D000FFAB6FDBB66DDB3F4D268F515555D53F99
:1045E00001411DA96074D13F65DBC9934A86CD3F67
:1045F000EF4E454A287ECA3F3E5555555555C53F55
:1046000093BDBE166CC166BF2CDE25AF6A56113F46
:10461000F16BD2C541BDBBBED0A4BE726937663E48
:104620004FBB610567ACDD3F182D4454FB21E93FCA
:104630009BF681D20B73EF3F182D4454FB21F93FB9
:10464000E2652F227F2B7A3C075C143326A6813C3F
:10465000BDCBF07A8807703C075C143326A6913CEA
:10466000C4EB98999999C9BF711623FEC671BCBF56
:104670006D9A74AFF2B0B3BF9AFDDE522DDEADBFBE
:104680002F6C6A2C44B4A2BF0D5555555555D53FD6
:10469000FF8300922449C23F6E204CC5CD45B73FF1
:1046A000513DD0A0660DB13FEB0D76244B7BA93F69
:1046B00011DA22E33AAD903F000000000000000054
:1046C000E0460008000000201C00000088370008B9
:1046D000FC4600081C0000207C05000098370008FC
:1046E0001E0000000100000001000000100000009A
:0C46F000000000000024F40000000000A6
:040000050800018965
:00000001FF
