:020000040800F2
:10000000D80500209D0100085B1E0008731C000835
:10001000591E00080D0A0008F52100080000000024
:10002000000000000000000000000000951E000815
:100030000F0A000800000000931E0008971E000829
:10004000B7010008B7010008B7010008B7010008B0
:10005000B7010008B7010008B7010008B7010008A0
:10006000B7010008B7010008B7010008B701000890
:10007000B7010008B7010008B7010008B701000880
:10008000B7010008B7010008B7010008B701000870
:10009000B7010008B7010008B7010008B701000860
:1000A000B7010008B7010008B7010008B701000850
:1000B000991F0008A51F0008B7010008B701000834
:1000C000B7010008B7010008B7010008B701000830
:1000D000B7010008B7010008B7010008B701000820
:1000E000B7010008B7010008B7010008B701000810
:1000F000B7010008B7010008B7010008B701000800
:10010000B7010008B7010008B7010008B7010008EF
:10011000B7010008B7010008B7010008B7010008DF
:10012000B7010008B7010008B7010008B7010008CF
:10013000B7010008B7010008B7010008B7010008BF
:10014000B7010008B7010008B7010008B7010008AF
:10015000B7010008B7010008B7010008B70100089F
:10016000B7010008B7010008B7010008B70100088F
:10017000B7010008B7010008B7010008000000003F
:10018000B7010008B7010008DFF80CD000F09AFBB7
:1001900000480047ED3A0008D8050020064880478F
:1001A00006480047FEE7FEE7FEE7FEE7FEE7FEE75C
:1001B000FEE7FEE7FEE7FEE7451F000889010008AD
:1001C0002DE9F05F0546002092469B46884606468C
:1001D000814640241BE0284641464746224600F01F
:1001E00022FA53465A46C01A914110D31146184676
:1001F000224600F009FA2D1A67EB01084F46224605
:100200000120002100F000FA17EB00094E41201EEA
:10021000A4F10104DFDC484631462A464346BDE8E6
:10022000F09F40EA01039B0703D009E008C9121FB1
:1002300008C0042AFAD203E011F8013B00F8013BA0
:10024000521EF9D270472DE9FE4F804681EA030025
:10025000C00F0C46009021F0004123F00045B8EBA0
:100260000200A94105D24046214690461C460B4655
:10027000024623F00040104347D0270DC7F30A0081
:10028000C3F30A510290401A019040286BDAC3F37D
:10029000130040F4801B0098924620B10023D2EB5B
:1002A000030A63EB0B0B01985946C0F1400250461C
:1002B00000F0AAF906460D4650465946019A00F04C
:1002C000C2F910EB08006141002487EA115284EA68
:1002D000E7731A4340D0009A62B3019A012A4FEAA9
:1002E000075215DC001B61EB02014FF0004202EAED
:1002F0000752CDE90042001C41F5801132462B46E1
:1003000000F0F9F903B0BDE8F08F40462146F9E767
:10031000001B61EB0201001C41F5801300185B41DA
:100320002018A2F5001747EB030140EAD570B61973
:100330006D4111E06D084FEA360645EAC0754FEA97
:100340000752001B61EB0201001C41F580114908B6
:100350004FEA30000019514132462B4603B0BDE848
:10036000F04F00F0B9B90098012240000023D0EB13
:10037000020263EBE073009821464FEAE074B8EBA9
:10038000000061EB0401E9E783F000435BE781F0E3
:10039000004158E72DE9FE4F81EA030404F00044D0
:1003A00021F0004100944FF0000B23F0004350EA8D
:1003B00001045ED052EA03045BD0C3F30A54C1F3D4
:1003C0000A552C44A4F2F3340194A0FB0254C1F367
:1003D000130141F48011C3F3130343F4801301FBB1
:1003E000024400FB034E840A970A44EA815447EA18
:1003F0008357A4FB076802958D0A05FB07854FEA22
:10040000932C04FB0C542705029D4FEA065847EA3B
:100410001637B5EB08056EEB070C870E920E47EA10
:10042000811742EA8312A7FB0201B6EB0B0164EBD2
:1004300000042B0D43EA0C335E1844EB1C50DA46E3
:100440005146E7FB0201C5F313044FEA0B3343EABD
:1004500014534FEA0432019C43EA0603A4F10C044E
:100460000294009CCDE900B400F045F903B0BDE86A
:10047000F08F00200146F9E72DE9F04D81EA0304F1
:1004800004F0004B21F0004514464FF0000A23F021
:10049000004150EA050220D054EA01021DD0C5F304
:1004A0000A570246C5F31303C1F31300C1F30A56FA
:1004B00040F4801543F48013A7EB0608101BD646C2
:1004C00008F2FD3873EB050002D308F1010801E0E2
:1004D00092185B41B8F1000F03DA00200146BDE835
:1004E000F08D00204FF48011064684460EE0171B65
:1004F00073EB050705D3121B63EB050306434CEAB8
:10050000010C49084FEA300092185B4150EA01079C
:10051000EDD152EA030012D082EA040083EA050119
:10052000084305D0101BAB4106D20122002306E090
:1005300000224FF0004302E06FF0010253101AEB6B
:1005400006004CEB085110EB0A0041EB0B01BDE833
:10055000F04D00F0C1B80EB5C10F80EAE07008445C
:10056000CA07002140F233438DE80E000A460B46CD
:1005700000F0C1F803B000BD00F0004230F00040D0
:100580000AD0C10D01F56071C0F3160042EA0151B5
:10059000C208400711437047002001467047000021
:1005A00030B5041E71F1000404DB4FF000444042FA
:1005B00064EB0101141E73F1000405DB1C464FF0CF
:1005C0000043524263EB0403994208BF904230BD9E
:1005D00001F0004330B421F0004150EA010206D09E
:1005E0000A0DA2F56072C1F31301002A02DC30BCCF
:1005F00000207047440F44EAC104C100E01830BC39
:1006000000EBC25000F031B8202A04DB203A00FA97
:1006100002F1002070479140C2F1200320FA03F359
:10062000194390407047202A04DB203A21FA02F057
:100630000021704721FA02F3D040C2F1200291401C
:10064000084319467047202A06DBCB17203A41FAA7
:1006500002F043EAE07306E041FA02F3D040C2F14F
:10066000200291400843194670470029A8BF7047EF
:10067000401C490008BF20F00100704710B4B0FAD8
:1006800080FC00FA0CF050EA010404BF10BC704773
:1006900049B1CCF1200421FA04F411FA0CF118BF8D
:1006A000012121430843A3EB0C01CB1D4FEA00615C
:1006B0004FEA102042BF002010BC704700EBC3502F
:1006C00010440029A4BF10BC7047401C490008BF5B
:1006D00020F0010010BC704710B5141E73F1000427
:1006E00008DA401C41F1000192185B411A4301D124
:1006F00020F0010010BD2DE9F04D92469B4611B14E
:10070000B1FA81F202E0B0FA80F220329046FFF7AF
:100710007BFF04460F4640EA0A0041EA0B015346BC
:100720005A46084313D0114653EA010019D0C8F1C4
:1007300040025046FFF777FF05460E4650465946A1
:100740004246FFF761FF084305D0012004E0204640
:100750003946BDE8F08D0020054346EAE0762C439B
:1007600037430A986305E40AA0EB08000022FD0A5B
:1007700044EA47540A3002D500200146E9E7010562
:1007800010196941DDE9084500196941BDE8F04DDE
:10079000A2E770B521F0004303430CD0C1F30A5522
:1007A0000024D5EB040564EB0403D617AD1AB3415E
:1007B00002DB0020014670BD201841EB025170BDE4
:1007C0002DE9F04D00231A461B1A8A4103DB002055
:1007D0000146BDE8F08DC1F30A52C1F3130141F4A3
:1007E00080154FF0000BD10702D100186D41521E49
:1007F0000027044640F2FF11384601EB620A3E46EC
:100800008046024600204FF48011FFF70CFFC2190A
:100810007141BB1846EB0100B4EB030C75EB000C07
:1008200004D3E41A65EB000517460E46241908F1B7
:1008300001006D4180463428E3DDF91946EB0600DE
:10084000091BA84103D24FF0FF32134601E00022FA
:1008500013461BEB070046EB0A51BDE8F04DFFF7CE
:100860003BBF70B5044601F000450020054304D1AC
:100870004FF00045644265EB010103F00045284359
:1008800005D118464FF00043524263EB0003101BA2
:1008900073EB010002D24FF0004009E082EA04024B
:1008A00083EA01034FF000501A4301D14FF0C040DA
:1008B0004FEA2062EFF3008162F31F6181F3008849
:1008C00070BD0000064C074D06E0E06840F00103F3
:1008D00094E8070098471034AC42F6D3FFF758FC71
:1008E000D0430008F0430008454910B54A6822F497
:1008F00040324A604A6843681A434A6001684A685D
:1009000022F480724A6001684A68036942EA03225D
:100910004A6001684A6822F040724A6001684A6889
:1009200083681A434A6001688A6822F400628A6018
:1009300001688A68C3681A438A60816A6FF07062CE
:10094000D14201688A6822F070628A6001688A6810
:100950000CD0836A1A438A6001688A6822F0405288
:100960008A6001688A68C36A1A4301E022F0405233
:100970008A6001688A6822F002028A6001688A68D7
:10098000836942EA43028A60016A002901684A6871
:100990000FD042F400624A6001684A6822F4604263
:1009A0004A6001684A68174C436A04EB43331A43B0
:1009B00001E022F400624A600168CA6A22F470020F
:1009C000CA620168CA6A838B0F4C04EB03531A4353
:1009D000CA6201688A6822F400728A6001688A68C3
:1009E000036B42EA43228A6001688A6822F48062CB
:1009F0008A6001688A68406942EA8020886010BD88
:100A00000023014000E0FFFF0000F0FFFEE7704719
:100A100078B50024009490F83C20012A19D00122D6
:100A200080F83C200A6807230568092A13D9EE6874
:100A30000A3A02EB420293409E43EE600B788A68CA
:100A40000A3B03EB43039A400368DD682A43DA60FC
:100A500010E0022078BD2E6902EB420293409E43D3
:100A60002E610B788A6803EB43039A4003681D6983
:100A70002A431A614A681F23072A13D205686E6B3E
:100A8000521E02EB820293409E436E630B790A88EA
:100A90005B1E92B203EB83039A4003685D6B2A43AB
:100AA0005A6327E005680D2A12D22E6BD21F02EB83
:100AB000820293409E432E630B790A88DB1F92B219
:100AC00003EB83039A4003681D6B2A431A6311E00A
:100AD000EE6A0D3A02EB820293409E43EE620B797E
:100AE0000A880D3B92B203EB83039A400368DD6AE8
:100AF0002A43DA62164B0568144A9D4206D10D68F6
:100B0000122D03D1556845F48005556005689D4256
:100B100018D10B68102B01D0112B13D1536843F45B
:100B200000035360096810290CD10A490A4A096870
:100B3000B1FBF2F101EB8101490000E0491E009197
:100B40000029FBD180F83C40002078BD0023014003
:100B500000200140D400002040420F000068C06C1B
:100B6000704770B504004FF0000503D0206C0026DC
:100B700010B107E0012070BD666484F83C60204637
:100B800000F01AF8206CC00610D4206C20F48850B5
:100B900040F0020020642046FFF7A6FE6664206C49
:100BA00020F0020040F00100206400E0012584F8FC
:100BB0003C60284670BD000030B5134D046800222B
:100BC00012490323124887B0AC4209D10C6844F49F
:100BD00080740C60096801F48071059101210BE0BB
:100BE0000C4DAC420ED10C6844F400740C600968E2
:100BF00001F4007105910221CDE9001302926946CA
:100C000000F030F907B030BD002001404438024008
:100C100000000240002101402DE9F0410446006837
:100C20000D4681684FF0000749050BD58068C00567
:100C300008D5206C40F02000206484F83C7001202E
:100C4000BDE8F08100F0E6F906460FE0681C0DD023
:100C500025B100F0DFF9801BA84207D9206C40F0D5
:100C60000400206484F83C700320E9E720680068F1
:100C70008007EBD521686FF012000860206C40F40B
:100C8000007020642068816811F0405F13D1A16971
:100C900089B9C16A11F4700F02D0806840050AD486
:100CA000206C20F480702064206CC00403D4206C7D
:100CB00040F0010020640020C2E7000018B50021C8
:100CC000009190F83C20012A07D0012280F83C20B6
:100CD00002689368DB0702D011E0022018BD936818
:100CE00043F001039360204A204B1268B2FBF3F2F9
:100CF00002EB420200E0521E0092002AFBD1026881
:100D00009368DB072DD0036C40F20164A34343F4E6
:100D10008073036453685B0505D5036C23F40053AB
:100D200043F480530364036CDB0404D5436C23F069
:100D30000603436400E0416480F83C100C496FF006
:100D40002203136049680068C90602D00949884235
:100D500007D1816811F0405F03D1816841F0804183
:100D60008160002018BD0000D400002040420F0028
:100D7000002301400020014090F83C1001290CD0D4
:100D8000012180F83C1001688A6822F001028A6023
:100D900001688968C90702D007E002207047016C2A
:100DA00021F4885141F001010164002180F83C10D8
:100DB0000846704770B54379012B1AD00126467159
:100DC0000223037105682C6840F6FE7393409C4330
:100DD000D1E900310B43934023432B6001680B683A
:100DE000C0249440A3430B60067100214171084662
:100DF00070BD022070BD70B5040003D020790025BD
:100E000010B105E0012070BD6571204600F008F8C2
:100E100002202071256101202071002070BD00009A
:100E200000B500680C4987B0884212D10B480021F8
:100E3000026842F000520260006800F00050059025
:100E4000302000900320CDE901016946044800F0FC
:100E500009F807B000BD00000074004040380240AF
:100E6000000002402DE9F84FDFF87CB100224FF07E
:100E700001084FF0030A4FF00F090BF1040E00BFF9
:100E80000B6808FA02F42340A3426ED14D68022D8C
:100E900001D0122D0ED1D50800EB850CDCF82050C6
:100EA0005607F70E09FA07F6B5430E69BE402E4302
:100EB000CCF82060066855000F790AFA05FC07F0A7
:100EC000030726EA0C06AF40374307604E68012E41
:100ED00005D0022E03D0112E01D0122E0ED186681D
:100EE000CF6826EA0C06AF40374387604668A643C2
:100EF0000C79C4F30014944034434460C6688C6891
:100F000026EA0C06AC403443C4604C68E40065D566
:100F1000364C256845F480452560246822F0030599
:100F200004F480440094324C2E19D6F808489507F2
:100F30002F0F09FA07F5AC432E4DA84201D1002529
:100F400024E02D4DA84201D101251FE02B4DA842E0
:100F500001D102251AE02A4DA84201D1032515E04E
:100F6000284DA84202D1042510E037E0264DA842C2
:100F700001D105250AE0254DA84201D1062505E04D
:100F8000234DA84201D1072500E00825BD40254397
:100F9000C6F80858DBF800405D464E689C43F603EF
:100FA00000D51C432C60DEF8004075464E689C431B
:100FB000B60300D51C432C600B4D08352C684E68D9
:100FC0009C43F60200D51C432C60074D0C352C6861
:100FD0004E689C43B60200D51C432C60521C102A5C
:100FE000FFF44EAFBDE8F88F003C014044380240AA
:100FF00000300140000002400004024000080240AE
:10100000000C024000100240001402400018024090
:10101000001C02400148806870470000C8000020A2
:1010200070B5040004D094F83D00002510B106E02E
:10103000012070BD84F83C50204600F075F8242053
:1010400084F83D002068016821F00101016000F092
:10105000F1F933492268B0FBF1F15160314A63681C
:10106000934206D94FF4967359434FF47A73B1FB08
:10107000F3F12368491C1962616891420BD8490059
:10108000B0FBF1F2C2F30B02042A01D2042019E0F2
:10109000B0FBF1F016E0A3689BB301EBC10202EBD9
:1010A0000112B0FBF2F242F48042120530D04BB391
:1010B00001EBC10202EB0111B0FBF1F040F4804002
:1010C00040F400402168C861D4E907010843216861
:1010D0000860D4E90310084321688860D4E9050159
:1010E00008432168C8602068016841F0010101607F
:1010F0002564202084F83D00256384F83E500020BC
:1011000070BD00E006E001EB4102B0FBF2F2CCE77B
:101110000120D7E701EB4101B0FBF1F0D0E700007F
:1011200040420F00A086010000B500680E4987B05C
:10113000884216D1C0200090122001900120029018
:10114000032003900420049069460848FFF78AFEB4
:101150000748016841F400110160006800F40010C4
:10116000059007B000BD000000540040000402409C
:10117000403802400248816802781144816070471B
:10118000C80000200B4810B5016841F400710160EF
:10119000016841F480610160016841F4807101607F
:1011A000032000F097F8002000F006F800F024F883
:1011B000002010BD003C024070B50D4D04464FF4B8
:1011C0007A712878B1FBF0F00A490968B1FBF0F0B8
:1011D00000F00DFB48B9102C07D200222146501E0A
:1011E00000F058F800206C6070BD012070BD000058
:1011F000C8000020D40000201F4808B5016841F451
:1012000080410160006800F4804000901A48001F8F
:10121000016841F080510160006800F0805000904A
:10122000032000F057F8002211466FF00B0000F089
:1012300031F8002211466FF00A0000F02BF800226E
:1012400011466FF0090000F025F800221146501FEA
:1012500000F020F800221146101F00F01BF80022B9
:101260001146901E00F016F80022BDE80840114615
:10127000501E00F00FB800004438024000F01F027A
:10128000012191404009800000F1E020C0F8801267
:1012900070470000F0B40E4B1B680C46C3F30223EA
:1012A000C3F10705042D00D90425191D072901D212
:1012B000002300E0DB1E012606FA05F1491E21404D
:1012C00099409E40761E16403143F0BC00F0D1BDDF
:1012D0000CED00E0064900F0070208684FF6FF0336
:1012E000184040EA0220034A10430860704700009B
:1012F0000CED00E00000FA052DE9F0470E46050070
:1013000065D0DFF81481D8F80000F7B200F00F00C4
:10131000B04207D288F80070D8F8000000F00F0043
:10132000B04254D128683D4C810712D5400703D5FF
:10133000206840F4E05020602878000703D520683A
:1013400040F4604020602068A96820F0F000084365
:1013500020602878C0072DD03049686808390128F6
:1013600012D0022813D0032811D009688907002958
:101370002DDA216821F0030101432160FFF74AFEC5
:10138000814641F2883A0EE009688903EFE709686F
:101390008901ECE7FFF73EFEA0EB0901514502D9B8
:1013A0000320BDE8F0872068696800F00C00B0EB0E
:1013B000810FEFD1D8F80010404601F00F01B14283
:1013C00007D90770006800F00F00B04201D001207B
:1013D000E7E72878400705D52068E96820F4E05061
:1013E000084320602878000706D52068296920F482
:1013F000604040EAC100206000F02CF82168084AF3
:10140000C1F30311515CC840064908600020FFF792
:10141000D3FE0020C5E70000003C0240083802402F
:101420008A420008D400002001480068704700008C
:10143000D40000200448054900680968044AC1F343
:101440008221515CC8407047D40000200838024017
:101450009A420008154810B5006810F00C021448B4
:1014600013D01449042A0FD0082A0ED10F4C241F80
:101470002268236802F03F025B0207D52068C0F3B0
:101480008810A0FB010106E0084610BD2168C1F3E9
:101490008811A1FB00010023FEF792FE2168C1F331
:1014A0000141491C4900B0FBF1F010BD0838024071
:1014B0000024F40040787D012DE9F84F050076D036
:1014C0002878DFF8F8B2BE4CC00749D0DBF800102E
:1014D0005846C1F38101012908D00068C0F381009A
:1014E00002280AD1201D0068400206D5206880032A
:1014F00036D568680028E2D032E06868B0F5803FF1
:1015000010D0B0F5A02F206810D020F480302060DB
:10151000206820F4802020606868A0B1FFF77AFD81
:1015200006460CE0206840F48030F4E740F4802068
:101530002060F7E7FFF76EFD801B642873D82068F2
:101540008003F7D50CE0FFF765FD064605E000BF18
:10155000FFF760FD801B6428F0D820688003F7D473
:101560002878DFF8608280074FF000093ED5DBF86D
:101570000010584611F00C0F09D00068C0F381002C
:1015800002280BD18D48001F0068400206D4206855
:10159000800715D5E868012809D111E0E868B8B1DD
:1015A0000120C8F80000FFF735FD064605E002E11E
:1015B000FFF730FD801B0228C0D820688007F7D5D0
:1015C0002068296920F0F80040EAC10020600DE0A1
:1015D000C8F80090FFF71EFD064604E0FFF71AFD6D
:1015E000801B02281FD820688007F7D428780007BE
:1015F00022D5724E744869696C3671B1012101605F
:10160000FFF708FD074604E0FFF704FDC01B0228B2
:1016100009D830688007F7D50EE0C0F80090FFF7D2
:10162000F9FC074605E083E0FFF7F4FCC01B022845
:101630007ED830688007F7D42878400768D5DFF86F
:101640007CA100270AF1380ADAF80000C0000BD4A8
:10165000DAF8001041F08051CAF80010DAF8000002
:10166000012700F080500090584E3068C00510D41B
:10167000306840F480703060FFF7CCFC009005E0EB
:10168000FFF7C8FC0099401A022851D83068C005FD
:10169000F6D54A4EA868683601280FD0052830686C
:1016A00010D020F001003060306820F0040030607D
:1016B000A868B8B1FFF7AEFC00900FE0306840F0CA
:1016C0000100F4E740F004003060F7E7FFF7A2FC08
:1016D0000099411A41F28830814264D8306880070D
:1016E000F4D50EE0FFF796FC009007E0FFF792FCC0
:1016F0000099411A41F28830814254D830688007FD
:10170000F4D42FB1DAF8001021F08051CAF800109B
:10171000A869C0B3DBF80010C1F3810102294AD0E7
:101720000228484607D0C8F86000FFF773FC00E0C5
:1017300039E005463AE04746C8F86000FFF76AFC22
:10174000064604E0FFF766FC801B02282BD82068C1
:101750008001F7D4D5E907010843A96A1C4A490862
:1017600002EB01416A6A41EA8211084395F82C10A4
:1017700040EA01611148001F016001203866FFF74F
:1017800049FC054605E014E0FFF744FC401B022835
:1017900009D820688001F7D50BE000BFFFF73AFCBD
:1017A000401B022802D90320BDE8F88F2068800181
:1017B000F4D40020F8E70120F6E7000008380240E2
:1017C0000038024000004742800E4742007000404F
:1017D0000000FFFF4FF0E0210428086903D020F04B
:1017E00004000861704740F00400FAE7704710B544
:1017F000401EB0F1807F01D3012010BD4FF0E024E6
:1018000060610F21601700F034FB0020A061072009
:101810002061002010BD10B5FFF7E8FF10BD704734
:10182000704710B5040003D094F8390010B107E0F8
:10183000012010BD002084F83800204600F00CF88C
:10184000022084F83900211D206800F0B1FB01203E
:1018500084F83900002010BD08B5006806498842A8
:1018600008D10648016841F001010160006800F0FC
:101870000100009008BD0000000001404438024013
:101880000168CA6842F00102CA600068016841F05C
:1018900001010160002070470168CA6822F001025E
:1018A000CA600068016A41F21112114207D1016A4F
:1018B0009210114203D1016821F001010160002062
:1018C0007047704770B50446006801694FF0000525
:1018D000C943890715D4C168C943890711D4E91ED2
:1018E000016101202076206880698007204602D0AF
:1018F000FFF7E7FF04E000F098F8204600F01AF93F
:10190000257620680169C943490717D4C168C943CE
:10191000490713D46FF0040101610220207620688A
:10192000806910F4407F204602D0FFF7CAFF04E030
:1019300000F07BF8204600F0FDF82576206801696C
:10194000C943090716D4C168C943090712D46FF007
:1019500008010161042020762068C06980072046C4
:1019600002D0FFF7AEFF04E000F05FF8204600F081
:10197000E1F8257620680169C943C90617D4C16812
:10198000C943C90613D46FF0100101610820207605
:101990002068C06910F4407F204602D0FFF791FF15
:1019A00004E000F042F8204600F0C4F825762068F4
:1019B0000169C943C90708D1C168C943C90704D12E
:1019C000891E0161204600F001F920680169C943C0
:1019D000090609D4C168C943090605D46FF080011E
:1019E00001612046FFF71BFF20680169C9434906D2
:1019F00009D4C168C943490605D46FF040010161AB
:101A0000204600F035F920680169C94389060BD4E6
:101A1000C168C943890607D46FF0200101612046DF
:101A2000BDE87040FFF7FCBE70BD704770B504465E
:101A300090F838000D4601280DD0012684F8386052
:101A4000022084F8390042B1042A18D0082A2AD08A
:101A50000C2A4DD139E0022070BD206800F014FB43
:101A60002068816941F0080181612068816921F065
:101A700004018161206881692A69114311E02068AD
:101A800000F02EFB2068816941F4006181612068CB
:101A9000816921F480618161206881692A6941EA54
:101AA0000221816124E0206800F04CFB2068C169BC
:101AB00041F00801C1612068C16921F00401C161E0
:101AC0002068C1692A69114311E0206800F06AFBAF
:101AD0002068C16941F40061C1612068C16921F4D5
:101AE0008061C1612068C1692A6941EA0221C1613E
:101AF00084F83960002084F8380070BD10B5040007
:101B000003D094F8390010B107E0012010BD002087
:101B100084F83800204600F00CF8022084F83900E0
:101B2000211D206800F044FA012084F839000020CB
:101B300010BD70477047000010B5044600680122D0
:101B400000F096FA08492068884202D00749884286
:101B500003D1416C41F4004141642068016841F0C7
:101B600001010160002010BD00000140000401409F
:101B700010B504460068002200F07AFA114841F2DC
:101B8000111221689310814202D00F48814209D17D
:101B9000086A104206D1086A184203D1486C20F442
:101BA000004048642068016A114206D1016A194266
:101BB00003D1016821F001010160012084F839009E
:101BC000002010BD000001400004014010B525496F
:101BD000254C2DED028B9AB00068884202D1016835
:101BE000012934D0B0F1804F2DD102F025FBB0EEA9
:101BF000408A02F079FA30EE080A1C4910EE100A09
:101C00000844B0F5001F1ED90220606002F036FBC8
:101C1000012002F08DFA1449392244310BA8FEF755
:101C200000FB114810F1440090F839008DF8650070
:101C30002C220FA96846FEF7F4FA0DF12C0C9CE853
:101C40000F0001F039FE1AB0BDEC028B10BD04206C
:101C500005496060392280310BA8FEF7E2FA02489C
:101C60008030E1E70004004000000020000070BF69
:101C70007047FEE77FB512481049002401604FF419
:101C80000031C0E90114046184610E490462C0E9B5
:101C90000A140125C460C56145610463FEF761FF54
:101CA00000B1FEE7CDE90045694605480294FEF71C
:101CB000AFFE002800D0FEE77FBD000000200140FD
:101CC000DC0000200100000F7FB5124810490024FD
:101CD00001604FF40031C0E90114046184610E49D0
:101CE0000462C0E90A140125C460C561456104634A
:101CF000FEF737FF00B1FEE70095CDE901546946D4
:101D00000448FEF785FE002800D0FEE77FBD0000F6
:101D100000210140240100200100000F1CB50F48E4
:101D20000D4C0460FFF767F800B1FEE7002000905B
:101D30000246019069460948FFF73CF800B1FEE70A
:101D4000102269460548FFF735F800B1FEE7206824
:101D500040F03D1020601CBD007400406C0100206C
:101D6000184800B5016887B041F080010160016842
:101D700001F080010591016841F0010101600168F5
:101D800001F001010591016841F010010160016855
:101D900001F010010591016841F002010160006845
:101DA000694600F0020005904FF400700090022098
:101DB000019002900390012004900348FFF752F82D
:101DC00007B000BD30380240001002400B4810B58B
:101DD000094901600A49416000214FF48042816055
:101DE000C0E9031241618161C1610162FFF718F925
:101DF000002800D0FEE710BD005400408001002004
:101E0000A086010010B5124888B00024016841F096
:101E100001010160006800F0010007900D48FFF724
:101E200088FE0C480F21C0E9011442F6FF71C0E999
:101E30000314FFF763FE7020CDE900040294002232
:101E4000694604480494FFF7F1FD08B010BD000096
:101E50004438024008000020FEE7704700F01F02EF
:101E6000012191404009800000F1E020C0F80011FC
:101E700070470907090E002806DA00F00F0000F18C
:101E8000E02080F8141D704700F1E02080F8001475
:101E900070477047704710B5FFF76CF9BDE8104008
:101EA000FFF7B9BC30B5254893B00025016841F073
:101EB00080510160006800F0805011902048016856
:101EC00041F4804101600068022400F480401190D8
:101ED00001200090000401908001CDE90640192006
:101EE00008904FF4A870CDE9090404200B906846CF
:101EF000FFF7E2FA00B1FEE70CA90F2081E83100FC
:101F00004FF4A0500F904FF48050109005210CA872
:101F1000FFF7F2F900B1FEE7FFF786FA4FF47A71A6
:101F2000B0FBF1F0FFF763FC0420FFF753FC002245
:101F30001146501EFFF7AEF913B030BD40380240D5
:101F4000007000401048016841F4700101600F48C2
:101F5000016841F0010101600C4A00210832116062
:101F600002680B4B1A400260031D0A4A1A6002689D
:101F700022F48022026005480C30016002495806B4
:101F8000803908607047000088ED00E000380240AA
:101F9000FFFFF6FE103000240148FFF793BC00005D
:101FA000440000200148FFF78DBC000080000020A5
:101FB000F0B50268234B244D244E254F254C4FF09D
:101FC000804C984209D0604507D0A84205D0B04265
:101FD00003D0B84201D0A04204D122F0700E4A686A
:101FE00042EA0E0298421BD0604519D0A84217D091
:101FF000B04215D0B84213D0A04211D0164DA8421D
:102000000ED0164DA8420BD0154DA84208D0154D44
:10201000A84205D0144DA84202D0144DA84203D1C5
:1020200022F44075CA682A4302608A68C2620A685C
:102030008262984201D0A04201D109690163012165
:102040004161F0BD00000140000400400008004074
:10205000000C0040000401400040014000440140E9
:102060000048014000180040001C004000200040D3
:1020700010B50123046A8B409C430462036A8A40C2
:102080001343036210BD000030B5026A22F0010262
:102090000262026A436884690D6824F07304254370
:1020A00022F002048A6822430B4CA04202D00B4C5F
:1020B000A0420BD122F00804CA6823F440732243E3
:1020C0004C6922F004021C438B6923434360856101
:1020D00049684163026230BD0000014000040140D4
:1020E00030B5026A22F010020262026A4368846913
:1020F0000D6824F4E64444EA05248D6822F02002A9
:1021000042EA05120D4DA84202D00D4DA8420ED153
:10211000CD6822F0800242EA05124D6923F4406343
:1021200043EA85038D6922F0400243EA8503436058
:10213000846149688163026230BD00000000014093
:102140000004014030B5026A22F480720262036A20
:102150004268C46923F4007324F073050C682C43AF
:102160008D6843EA05230D4DA84202D00C4DA842CC
:102170000ED1CD6823F4006343EA05234D6922F4B0
:10218000405242EA05128D6923F4806342EA051247
:102190004260C4614968C163036230BD0000014010
:1021A0000004014030B5026A22F480520262046ADF
:1021B0004268C3690D6823F4E64343EA05238D684A
:1021C00024F4005444EA0534084DA84202D0084DD6
:1021D000A84204D14D6922F4804242EA851242604D
:1021E000C36149680164046230BD00000000014021
:1021F00000040140FEE703B401984100009850EA52
:10220000C12018BF04204A0D18BF40F0010040F261
:10221000FF72B2EB515F08BF40F00200012808BF17
:10222000052002B07047000070B59B482DED020BF1
:102230002DED068B079D25F00044A04218DC974841
:10224000844202DC0AD1069840B19DED060BBDEC3C
:10225000068B02B0BDE8704001F082B9002DCCBF02
:102260009FED8F0B9FED900BBDEC068B02B070BD08
:102270008F48A04215DD8F48A042D8BF4FF0FF34F1
:1022800058DD9DED060B51EC100BFFF7B4FF042851
:1022900008BF01F099F99DED060BBDEC068B02B06D
:1022A00070BD9DED060B51EC100B01F0B5FBCDE9B7
:1022B000060181489FED828BA0423CDD8248A0420E
:1022C0001FDD00249FED82AB9DED060B53EC1A2B16
:1022D00051EC100BFDF7B7FF9DED060B41EC190B10
:1022E00053EC1A2B51EC100BFEF754F853EC182B4F
:1022F000FEF74AF853EC192BFEF7BEF8CDE90601BC
:1023000049E09DED060B012453EC182B51EC100B0A
:10231000FDF799FF9DED060B41EC190B53EC182BC3
:1023200051EC100BFEF730F853EC192BFEF7A4F824
:10233000CDE906012FE06848A0421FDD02249FED91
:10234000689B9DED060B53EC192B51EC100BFEF71F
:1023500021F853EC182BFDF776FF9DED060B41ECB1
:10236000180B53EC192B51EC100BFEF70DF853EC36
:10237000182BFEF781F8CDE906010CE09DED060B68
:10238000032453EC102B9FED580B51EC100BFEF770
:1023900073F8CDE906019DED060B53EC102B51ECC3
:1023A000100BFDF7F7FF41EC180B53EC182BFDF762
:1023B000F1FF41EC190B4E480621B0EE490AF0EE50
:1023C000690A784401F035F853EC182B51EC100BE6
:1023D000FDF7E0FF41EC180B4648B0EE490AF0EE7D
:1023E000690A0521784401F024F853EC192B51ECCB
:1023F000100BFDF7CFFF41EC100B51EC180B53EC19
:10240000102B002C0EDAFDF71EFF9DED061B53EC82
:10241000112BFDF7BFFF9DED061B53EC112BFDF7B4
:10242000B6FF35E0FDF70FFF9DED061B53EC112BBA
:10243000FDF7B0FF41EC100B2F48784400EBC400CF
:1024400090ED001B51EC100B53EC112BFDF79CFF92
:102450009DED061B53EC112BFDF796FF41EC100B85
:102460002648784400EBC40090ED001B51EC100BA3
:1024700053EC112BFDF78BFF41EC100B002DA2BF8D
:10248000BDEC068B02B070BD51EC100B81F0004129
:1024900041EC100B01E70000000010440000F07F49
:1024A000182D4454FB21F93F182D4454FB21F9BF4A
:1024B0000000DC3F0000203E0000F33F0000000071
:1024C000000000000000F03F0000E63F00000000B8
:1024D00000000000000000400080034000000000F9
:1024E000000000000000F83F000000000000F0BF06
:1024F000D21F0000881F0000121F0000CA1E00002B
:1025000070B56B4E2DED040B2DED028B82B0DDF816
:102510001CC0DDE905235C422CF000411C4341EA6C
:10252000D474049D22F00040B44205D86C422C4380
:1025300040EAD474B4420BD99DED061B9DED040B0B
:1025400002B0BDEC028B04B0BDE8704001F012B8DF
:10255000ACF14054A4F17F641C430BD0022404EA84
:10256000AC7444EAD27405439FED538B9FED542B1A
:1025700007D015E09DED040B51EC100B01F0BCF8F9
:1025800042E0002C11BF012C9DED040B02B0BDEC0C
:10259000028B04BF04B070BD022C38D0032C3BD09A
:1025A0000B439FED491B9FED4A0B0AD0B14218D156
:1025B000B04209D121F0804120F080400791059080
:1025C0000FE0002A15DA10E0434B7B44002C08BFD3
:1025D00093ED000B0DD0012C10D0022C17D0032C42
:1025E0001AD0B0421DD1002A03DAB0EE410AF0EE53
:1025F000610A02B0BDEC028B04B070BD93ED000B1C
:1026000051EC100B81F0004141EC100BF1E7B0EE02
:10261000480AF0EE680AECE7B0EE420AF0EE620A11
:10262000E7E7401A00153C28C8BF8DED000B19DC08
:10263000BCF1000FBEBF10F13C0F9FED290B8DEDDB
:10264000000B0FDB9DED060B53EC102B9DED040BE7
:1026500051EC100BFDF710FF01F0DEF901F04CF822
:10266000CDE90001002C08BF9DED000BC1D0012C6D
:1026700010D0022C9FED1C0B53EC102B9DED000B8A
:1026800051EC100B0DD0FDF77FFE53EC182BFDF72E
:102690007BFEB9E7019880F0004001909DED000BB2
:1026A000A7E7FDF771FE53EC182BFDF770FEABE7C3
:1026B0000000F07F00000000182D4454FB21094069
:1026C000182D4454FB2109C0182D4454FB21F9BF97
:1026D000182D4454FB21F93FFA1D000000000000B2
:1026E0000000000000000000075C143326A6A13C97
:1026F00000B52DED048BB0EE418AF0EE618AB0EEAC
:10270000409AF0EE609A83B053EC182B51EC190B01
:10271000FEF7A7F800F07040B0F1005F1AD018EE95
:10272000101A18EE900A8DED008B002918BF0121B8
:10273000084320F00040C0F17F6000F1E040C00F8E
:1027400001BFB0EE480AF0EE680A03B0BDEC048B9E
:1027500008BF00BDB0EE490A03B0F0EE690ABDEC57
:10276000048B00BD000000002DE9F04D2DED040BA1
:102770002DED0E8B96B0DDE92550279CDDF890A05D
:1027800025F0004624F00048BAF1000F14BF0121E3
:10279000002101EB4502FC4953184A1093422AD309
:1027A000002814BF0123002303EB44030B44F74923
:1027B0008B4220D358EA00019FEDF59B76D0DFF8DD
:1027C000D8B35D4503D1BAF1000F05D188E0BAF165
:1027D000000F08BF002100D0012101EB450111F5D8
:1027E000001F08D8002814BF0121002101EB44017B
:1027F00011F5001F0BD99DED261B9DED240B16B086
:10280000BDEC0E8B04B0BDE8F04D00F0B3BE002768
:10281000002DBCBFE149884521DAE1498845A8BFC0
:1028200002271CDAC3451ADCDE4901EB28511429C2
:1028300008DDC1F1340220FA02F101FA02F282420B
:102840000DD108E058B9C1F1140228FA02F101FAD9
:1028500002F2424503D101F00101C1F1020756EA3B
:102860000A0124D1002C22DA002D18BF022F01D03A
:10287000012F0AD0022000F0C7FE16B0BDEC0E8B6F
:1028800004B0BDE8F04D00F053BE022000F0BCFEE5
:1028900000F04EFE51EC100B81F0004141EC100BAA
:1028A00016B0BDEC0E8B04B0BDE8F08D18E09FEDC6
:1028B000BEAB9FEDBF8B002871D1B848804522D1B7
:1028C00005F1804010F5801008BFBAF1000F07D065
:1028D000B3450ADC002CA8BF9DED260BE0DA0DE025
:1028E000B0EE490AF0EE690ADAE7002C06DA9DED4F
:1028F000260B51EC100B81F000416FE0AE4878449C
:1029000090ED000BCCE7D8454DD1002C48DA2EB124
:1029100086423AD1BAF1000F42D126E0BAF1000F57
:1029200013D0022000F070FE00F03EFE8DED020B91
:102930009DED240B8DED000B10EE900A039961F3D1
:102940001E0003909DED020BAAE78DED02AB9DEDFD
:10295000240B1AEE901A10EE900A8DED000B61F325
:102960001E0003909DED020B9AE78DED028B9DED0D
:10297000240B18EE901A10EE900A8DED000B61F307
:102980001E0003909DED020B8AE709DA9DED240BF2
:1029900051EC190B53EC102BFDF76EFD1EE020E0FF
:1029A0009DED240B7CE786421BDAB4F1804F0DD0FD
:1029B000A4F10050B0F1FF5013D1002D11DB9DEDBB
:1029C000240B51EC100B01F0E1FB07E09DED240B13
:1029D00053EC102B51EC100B00F0C2BC41EC100B6F
:1029E0005EE79DED240B51EC100B01F015F8BAF1E8
:1029F000000FCDE90E0142D19FED710B46B3A6F158
:102A0000E040B0F17F600CD05E4538D1002D00DA97
:102A1000A7B3022F0CBF01204FF0FF30FDF79BFD45
:102A2000DCE7002D01DD002C0DDA002D01DD002C8E
:102A30001FDB002D16DA002C14DB012F08BF9FEDE1
:102A4000620B3FF42DAFB0EE4A0AF0EE6A0A27E7B8
:102A5000022F18BF002D0CD0012F0AD1002DFFF638
:102A60001FAF06E0002DB8BF002C08DA012F3FF49D
:102A700017AFB0EE480AF0EE680A11E71BE001203C
:102A800000EBE57050EA070115D0791EB0EE498AD7
:102A9000F0EE698A084308BF9FED4D8B4E48002534
:102AA000804570DD4D494E48884514DDB0420DDB50
:102AB000002C19DB2FE0012000F0A6FD16B0BDECC4
:102AC0000E8B04B0BDE8F04D00F05EBDB34502DCF6
:102AD000002C09DC1FE0864202DA002C1BDA03E03E
:102AE0005E452BDD002C16DD022000F08DFD00F090
:102AF0005BFD8DED020B53EC1A2B51EC180BFDF71F
:102B000049FCCDE900010399019861F31E0003908F
:102B10009DED020BC4E6022000F076FD00F054FDAE
:102B200010EE901A18EE900A8DED020B8DED008BD1
:102B300061F31E0003909DED020BB1E69DED0E0BBF
:102B400053EC192B51EC100BFDF71EFC9FED260BDF
:102B5000CDE9080153EC102B9DED080B51EC100B47
:102B6000FDF718FC9FED221B53EC112BFDF70FFC1A
:102B70009DED081B53EC112BFDF70CFC9FED1E1B6C
:102B800053EC112B3CE08CE0FFFF1F00FFFF0F0018
:102B9000000000000000F03F0000F03F0000F07F68
:102BA0000000404301FCFFFF000000000000F07F38
:102BB0000000000000000000C61A00000000000035
:102BC0000000000000000080000000000000F0FF96
:102BD000000000000000F0BF0000E0410000F043F2
:102BE000FFFFEF3F00000000000000000000D03FAA
:102BF000555555555555D53F000000000000E03FA4
:102C0000FDF7C5FB9DED080B41EC1A0B53EC102BA7
:102C100051EC100BFDF7BEFB53EC1A2BFDF7BAFB82
:102C200041EC1A0B9FEDFE0B53EC102B9DED080BA6
:102C300051EC100BFDF7AEFB41EC1B0B9FEDFA0BBB
:102C400051EC1A0B53EC102BFDF7A4FB41EC1A0BC3
:102C50009FEDF70B53EC102B9DED080B51EC100B77
:102C6000FDF798FB53EC1A2BFDF78EFB41EC1A0B8A
:102C700051EC1B0B53EC1A2BFDF7E5FA0690CDE94E
:102C800006519DED060B53EC1B2B51EC100BFDF781
:102C90007BFB53EC1A2BFDF77AFB41EC100B00F099
:102CA000A1B90020B6F5801F0EDA9FEDE30B53ECBF
:102CB000102B9DED0E0B51EC100BFDF76BFBCDE9CE
:102CC0000E016FF034000E4600EB2650A0F2FF37E5
:102CD000C6F31300DA4940F07F6646F0405688425A
:102CE000D8BF002408DDD7498142C8BF012403DCD6
:102CF0000024A6F580167F1CD348784400EBC4005E
:102D00000F9690ED00CB9DED0E0B53EC1C2B51EC70
:102D1000100BFDF739FB9DED0E0B41EC1B0B53EC3B
:102D20001C2B51EC100BFDF78EFA41EC100B51EC03
:102D3000190B53EC102BFDF79FFB41EC1D0B51ECD5
:102D40001B0B53EC1D2BFDF725FB41EC1A0BBF4869
:102D50008DED10AB7844109590ED000B4FF00050C6
:102D600040EA660000EB84408DED080B00F5002082
:102D700009909DED080B53EC1C2B51EC100BFDF74B
:102D800003FB9DED0E1B53EC112BFDF700FB41ECFB
:102D9000100B53EC102B9DED100B51EC100BFDF7AD
:102DA000F9FA9DED080B41EC1C0B53EC102B9DED3B
:102DB000100B51EC100BFDF7EDFA53EC1B2BFDF74C
:102DC000E6FA53EC1C2BFDF7DFFA53EC1D2BFDF755
:102DD000E1FA41EC1C0B53EC1A2B51EC1A0BFDF7EA
:102DE000D9FA41EC1B0B9A480621B0EE4B0AF0EEE3
:102DF0006B0A784400F01DFBB0EE401AF0EE601A4A
:102E0000B0EE41DAF0EE61DA53EC1B2B51EC1B0B08
:102E1000FDF7C0FA53EC1D2BFDF7BCFA9DED100B2E
:102E200041EC1B0B53EC1A2B51EC100BFDF70BFA7A
:102E300053EC1C2BFDF7AEFA53EC1B2BFDF703FAFA
:102E40009DED100B41EC1B0B53EC102B51EC100BB8
:102E5000FDF7A0FA41EC1D0B9FED7FEB53EC1E2B11
:102E6000FDF7F1F953EC1B2BFDF7EDF90890CDE9D7
:102E700008519DED080B53EC1E2B51EC100BFDF788
:102E800083FA53EC1D2BFDF77FFA53EC1B2BFDF758
:102E90007EFA9DED080B41EC1D0B53EC102B9DEDC4
:102EA000100B51EC100BFDF775FA41EC1B0B53ECBA
:102EB0001A2B51EC1D0BFDF76DFA9DED080B41EC43
:102EC0001A0B53EC102B51EC1C0BFDF763FA53EC6F
:102ED0001A2BFDF7B8F941EC1A0B51EC1B0B53EC14
:102EE0001A2BFDF7B0F90C90CDE90C519DED0C0BB0
:102EF00053EC1B2B51EC100BFDF746FA53EC1A2B3D
:102F0000FDF745FA41EC1B0B9FED550B53EC102BD5
:102F10009DED0C0B51EC100BFDF73CFA41EC1A0B3C
:102F20009FED510B51EC1B0B53EC102BFDF732FABC
:102F300041EC1B0B9FED4E0B53EC102B9DED0C0B3E
:102F400051EC100BFDF726FA53EC1B2BFDF77BF928
:102F500041EC100B4848784400EBC40090ED001B96
:102F600051EC100B53EC112BFDF76DF941EC1B0BE1
:102F70003846FDF7F0FACDE9080153EC1B2B51EC74
:102F80001A0BFDF760F941EC100B3C48784400EB5C
:102F9000C40090ED00CB51EC100B53EC1C2BFDF753
:102FA00052F99DED081B53EC112BFDF74CF90690DF
:102FB000CDE906519DED080B53EC102B9DED060B52
:102FC00051EC100BFDF7E0F953EC1C2BFDF7DCF98D
:102FD00053EC1A2BFDF7D8F953EC1B2BFDF7D7F95F
:102FE00041EC100B9DED261B53EC102B8DED001BBF
:102FF00000959DED260B51EC100BFDF7CBF99DEDE7
:10300000000B41EC1A0B53EC102B9DED260B51ECF1
:10301000100BFDF7B9F99DED061B53EC112B2FE0BA
:10302000000000604715F73FFE822B654715F73F0C
:1030300044DF5DF80BAE543E00000000000040434A
:103040008E9803007AB60B00AA15000070160000D7
:10305000E214000000000000000000000000084032
:10306000000000E009C7EE3FFD033ADC09C7EE3F70
:10307000F5015B14E02F3EBE6E1300002813000024
:10308000FDF788F953EC1A2BFDF7DDF89DED060BE3
:1030900041EC1A0B53EC102B9DED000B51EC100B77
:1030A000FDF778F9CDE90C019DED0C0B51EC1A0BF5
:1030B00053EC102BFDF7C7F8CDE902010C46AA49E5
:1030C0008C422FDB611A084318D19DED0C0B53EC99
:1030D000102B9DED020B51EC100BFDF755F941EC57
:1030E0001B0B9FEDA30B51EC1A0B53EC102BFDF7B0
:1030F000AAF853EC1B2BFDF753FA2DD2022000F057
:1031000083FA00F051FA10EE901A18EE900A8DED45
:10311000020B8DED008B61F31E0003909DED020B01
:10312000FFF7BEBB944A24F00041914214D3934967
:10313000214408437FF4EFAC9DED0C0B53EC102BB6
:103140009DED020B51EC100BFDF71EF953EC1A2B01
:10315000FDF726FA7FF6DFAC24F000408849894A63
:10316000002601EB205182422BDA481C4FF48011DB
:1031700021FA00F02044844AC0F30A517A44A1F2B3
:10318000FF3192ED000B814A8DED080BCA4020EA19
:103190000202C0F3130040F48010C1F1140120FAC0
:1031A00001F60992002CB8BF76429DED080B53EC56
:1031B000102B9DED0C0B51EC100BFDF7E5F8CDE954
:1031C0000C019DED0C0B51EC1A0B53EC102BFDF781
:1031D0003AF89FED6F0B0890CDE9085153EC102B96
:1031E0009DED080B51EC100BFDF7D4F841EC1B0BD7
:1031F0009FED690B53EC102B9DED080B51EC100B60
:10320000FDF7C8F89DED0C0B41EC1C0B53EC102B9B
:103210009DED080B51EC100BFDF7B6F853EC1A2B93
:10322000FDF7B5F89FED5E1B53EC112BFDF7B2F8DF
:1032300053EC1C2BFDF707F841EC1A0B51EC1B0B60
:1032400053EC1A2BFCF7FFFFCDE902019DED020BB9
:1032500053EC1B2B51EC100BFDF796F853EC1A2B8B
:10326000FDF795F89DED020B41EC1A0B53EC102B7A
:1032700051EC100BFDF78EF8CDE908014A489DEDA1
:10328000080B0521784400F0D4F89DED081B51ECA3
:10329000100B53EC112BFDF77DF89DED021B53EC49
:1032A000112BFDF774F8CDE906019DED020B53ECEF
:1032B0001A2B51EC100BFDF76DF853EC1A2BFCF7A1
:1032C000C2FF9FED3B0B41EC1A0B53EC102B9DED15
:1032D000060B51EC100BFDF757F89DED060B41EC7A
:1032E0001B0B53EC102B9DED020B51EC100BFDF75B
:1032F00051F853EC1B2BFDF7BFF853EC1A2BFDF7DD
:1033000043F89DED021B53EC112BFDF73DF853ECF8
:10331000192BFDF73CF8CDE9020101EB0650011530
:103320000029C8BF039015DC9DED020B324651EC1D
:10333000100BFDF72EFAFEF75EFF042808BF00F021
:1033400043F932469DED020B51EC100BFDF721FACB
:10335000CDE902019DED020B51EC180B53EC102B43
:10336000FDF718F8FFF73ABB00009040000000009E
:10337000FE822B654715973C00CC904000346F3F90
:1033800001FCFFFF0000E03F48120000FFFF0F00BC
:1033900000000000432EE63F396CA80C615C20BEA3
:1033A000EF39FAFE422EE63F8010000000000000D8
:1033B000000000000000004000B52DED048BB0EED1
:1033C000409AF0EE609A83B051EC190BFDF7F8F9D2
:1033D00041EC180B18EE100A18EE901A8DED008BC8
:1033E000002818BF0120084320F00040C0F17F6092
:1033F00000F1E040C00F14D019EE101A19EE900A37
:103400008DED009B002918BF0121084320F00040EA
:10341000C0F17F6000F1E040C00F04BF012000F068
:10342000F3F8B0EE480A03B0F0EE680ABDEC048B86
:1034300000BD70B504462DED028B4D1E00EBC5009E
:10344000B0EE408AF0EE608A90ED000B35F0060099
:1034500017D053EC182B51EC100BFCF79BFF41ECF1
:10346000100B6D1E04EBC50090ED001B51EC100B12
:1034700053EC112BFCF7E7FE41EC100B35F0060086
:10348000E7D1022D36D0042D1CD0062D1CBFBDEC7B
:10349000028B70BD53EC182B51EC100BFCF77AFF2C
:1034A00094ED0A1B53EC112BFCF7CDFE53EC182BBB
:1034B000FCF770FF94ED081B53EC112BFCF7C3FED7
:1034C00041EC100B53EC182B51EC100BFCF762FF86
:1034D00094ED061B53EC112BFCF7B5FE53EC182BA7
:1034E000FCF758FF94ED040B53EC102BFCF7ABFEEC
:1034F00041EC100B53EC182B51EC100BFCF74AFF6E
:1035000094ED021B53EC112BFCF79DFE53EC182B92
:10351000FCF740FF94ED001B53EC112BFCF793FEDE
:10352000BDEC028B41EC100B70BD000000000000F0
:103530009FED070B10B553EC102B9FED070B51ECD3
:10354000100BFCF799FF41EC100B10BD00000000C0
:103550000000000000000000000000000000F03F3C
:1035600010B553EC102B51EC100BFCF76CFE41EC3A
:10357000100B10BD10B553EC112B51EC100BFCF7D8
:1035800062FE41EC100B10BD9FED050B10B553EC26
:10359000102B51EC100BFCF76FFF41EC100B10BD22
:1035A00000000000000000009FED050B10B553EC7B
:1035B000102B51EC100BFCF7EDFE41EC100B10BD85
:1035C00000000000000000709FED050B10B553ECEB
:1035D000102B51EC100BFCF7DDFE41EC100B10BD75
:1035E000000000000000001002E008C8121F08C11F
:1035F000002AFAD170477047002001E001C1121F74
:10360000002AFBD1704700000149086070470000A4
:10361000D800002010B511EE100A2DED068BF0EE4B
:10362000608AB0EE408AFCF7A7FF9FED2BAB41EC20
:10363000100BB0EE4A1AF0EE6A1AFFF795F8B0EEEA
:10364000409AF0EE609A18EE900AFCF795FF41EC74
:10365000100BB0EE4A1AF0EE6A1AFFF785F8B0EEDA
:10366000401AF0EE601A53EC192B51EC110BFCF7D9
:10367000EAFD41EC100BFFF79FFE51EC100BFCF73D
:10368000A7FFFCF779FF41EC190B18EE100AFCF7C5
:1036900073FF41EC100BB0EE491AF0EE691AFEF719
:1036A0002FFF9FED0F1B51EC100B53EC112BFCF770
:1036B00071FE9FED0D1B53EC112BFCF7DDFE9FED12
:1036C0000C1B53EC112BFCF75FFEFCF781FFBDECEC
:1036D000068B00EE100A10BD000000000000004044
:1036E00000000000008066404189D316F14A09407D
:1036F000000000000080564010B541EC100BFEF7B2
:1037000093FD51EC100B10BD2648006800EE900AA6
:10371000F8EEE00AB4EEE00AF1EE10FA02DD40F64F
:10372000FF707047414200EE901AF8EEE00AB4EEE6
:10373000E00AF1EE10FA02D240F63E00704710EEB9
:10374000101A194A914207DA10EE101A174A9142DC
:1037500002D240F61E407047B5EEC00AF1EE10FAF4
:1037600001DD052101E06FF0040100EE901A401F19
:10377000F8EEE00A70EE600A00EE100AB8EEC01A29
:1037800080EE810AF7EE000A9FED091A70EE200A1A
:103790009FED080A00EE810ABDEEC00A10EE100A85
:1037A00070470000000000200000A0400000A0C002
:1037B00000E0C14400E003459FED0E1AC0EE010A8F
:1037C000B0EE080A30EE600ADFED0B0A20EE200AA8
:1037D000DFED0A0AB4EEE00AF1EE10FA06DADFEDE8
:1037E000080AF4EEC00AF1EE10FA01DBB0EE600A4E
:1037F000704700000000204200F03F4500FC3F46BB
:1038000000F8BF4500F04ABA0FB410B52DED028B99
:1038100004A8FDF753FA642104A8FDF7FDF904A8F4
:10382000FDF79CF900EE100A04A8B8EE408AFDF7F7
:10383000A3FAB0EE480ABDEC028B10BC5DF814FB95
:103840000FB4342200B5A1B022A90EA8FCF7E9FC00
:103850002F981B9030983199CDE91C0132981E9019
:1038600033981F90382212A96846FCF7DAFC0DF154
:10387000380C9CE80F00FFF7C7FF10EE100AFCF7AA
:103880007BFE9FED091B53EC112BFCF783FD9FED95
:10389000081B53EC112BFCF77DFDFCF799FE21B0C2
:1038A00000EE100A5DF814FB6666666666660A40FE
:1038B000000000000000303F0FB410B50D4C02981E
:1038C000B0F1804F11D0A0420CD10298C0680128FD
:1038D00008D102A8FDF7E0FF0298A04202D10299A8
:1038E0000020486210BC5DF814FB034840680228C1
:1038F000EBD0F7E7000400400000002030B5F0EE08
:10390000E00A2DED048B9BB0B0EE409A2E4D10EEE8
:10391000900AFCF731FE41EC180BB0EEC90A10EE2C
:10392000100AFCF729FE41EC100BB0EE481AF0EE3D
:10393000681AFEF7DDFE51EC100BFCF749FE044659
:10394000A5F180000068FCF706FE9FED201B53ECFC
:10395000112BFCF71FFD41EC180B2046FCF70CFE69
:1039600053EC182BFCF71CFE19D2012000F0E0FBF1
:10397000392229460BA8FCF754FC95F839008DF83C
:1039800065002C220FA96846FCF74BFC0BAC94E8B1
:103990000F0000F01FF81BB0BDEC048B30BD3922C6
:1039A00009490BA8FCF73DFC95F839008DF8650036
:1039B0002C220FA96846FCF734FC0BAC94E80F00EE
:1039C000FFF77AFFE7E7000080000020000000001A
:1039D0000000F43F0FB410B50D4C0298B0F1804FC9
:1039E00011D0A0420CD10298C068002808D102A8CA
:1039F000FDF746FF0298A04202D11D20FDF73EFCD4
:103A000010BC5DF814FB034840680128EBD0F7E7D1
:103A1000000400400000002082B0CDE9000121F048
:103A2000004001909DED000B02B051EC100B70476F
:103A300010B5A0B02A4C4EE000F084F910EE900AC8
:103A40002849884201DB01206060342226490EA803
:103A5000FCF7E7FB2448416B1B91816BC26BCDE9FE
:103A60001C12016C1E91406C1F90382212A96846EE
:103A7000FCF7D7FB0DF1380C9CE80F00FFF7C4FEF4
:103A8000BDEEC00A10EE100A00F0C4FB1649342245
:103A900048310EA8FCF7C5FB13484830416B1B9119
:103AA00000F1380211685268CDE91C12016C1E91B8
:103AB000406C1F90382212A96846FCF7B2FB0DF14A
:103AC000380C9CE80F00FFF79FFEBDEEC00A10EE19
:103AD000100A00F0F5FA60680228ADD020B010BDE1
:103AE00000000020CDCC4C3FDC0000202DED028BEF
:103AF00082B0FDF747FBFEF7D5F9FEF731F9FEF787
:103B0000B9F8FEF7E1F8FEF709F9FEF75FF9FEF7FD
:103B100079F93E4C0025206840F0010020602068C3
:103B2000FA2100F00100009039484FF6FF76021D9F
:103B300082E862000561FDF774FE0720FDF7CAFB0D
:103B4000002211461C20FDF7A5FB1C20FEF786F97C
:103B5000206840F002002060206840F2FF4100F041
:103B6000020000902A483C30021D82E86200056194
:103B7000FDF757FE0720FDF7ADFB002211461D2083
:103B8000FDF788FB1D20FEF769F940F61E4210463E
:103B900000F040FB104600F093FA00F06FFB00F0DD
:103BA00025F9FFF72FFE1A489FED1A8A7830A0F109
:103BB000BC0480EC030A05466068022806D100F0C8
:103BC0005DFB022000F0B4FAFFF732FF60680128C5
:103BD00006D100F053FB032000F0AAFA00F026FA09
:103BE00060680428E8D195ED000A00F01DFB95ED12
:103BF000020A00F071FA00F001FBB0EE480A00F092
:103C0000B3FA60680428FDD0D6E7000040380240CF
:103C10004400002000E0BF4410B53B2000F06AF9EA
:103C200004023C2000F066F9204300B200EE100AC6
:103C3000DFED030AB8EEC00A20EE200A10BD000036
:103C40000000003810B53D2000F054F904023E2079
:103C500000F050F9204300B200EE100ADFED030A35
:103C6000B8EEC00A20EE200A10BD000000000038A7
:103C700010B53F2000F03EF90402402000F03AF970
:103C8000204300B200EE100ADFED030AB8EEC00ACE
:103C900020EE200A10BD00000000003810B52DED08
:103CA000068BFFF7B9FFB0EE409AFFF7CBFFF0EEBF
:103CB000408AFFF7DDFFB0EE408AF0EE680AB0EE12
:103CC000481AB0EE490AFFF7A5FCF0EE409AB0EEB4
:103CD000491AF0EE480AB0EE680AFFF79BFCB0EE16
:103CE00040AAB0EE681AF0EE490AB0EE480AFFF7B3
:103CF00091FCB0EE401AB0EE690AF0EE4A0ABDEC53
:103D0000068B10BD10B52DED028BFFF7C7FF0C4CD5
:103D1000D4ED000A30EE608AFFF7C0FF94ED010A8F
:103D200070EEC08AFFF7BAFF94ED020AF0EE680A5F
:103D300031EE401AB0EE480ABDEC028B10BD000017
:103D4000BC00002000B500F00FF8B0EE402A00F0F3
:103D500021F8F0EE401A00F033F8B0EE401AB0EE61
:103D6000420AF0EE610A00BD10B5432000F0C2F82F
:103D70000402442000F0BEF8204300B200EE100A16
:103D8000DFED030AB8EEC00A20EE200A10BD0000E5
:103D90000000003810B5452000F0ACF804024620C1
:103DA00000F0A8F8204300B200EE100ADFED030A8D
:103DB000B8EEC00A20EE200A10BD00000000003856
:103DC00010B5472000F096F80402482000F092F861
:103DD000204300B200EE100ADFED030AB8EEC00A7D
:103DE00020EE200A10BD00000000003870B5404AE7
:103DF000106840F001001060106840F4807010609E
:103E00003B4814300168C907FCD001683849D02408
:103E100010310C6003689B07FCD50368344B1833E2
:103E20001D686B250D6005686D07FCD500250D60CC
:103E300006687607FCD5166846F4007616601668A4
:103E400046F4807616600668F607FCD006680C60BB
:103E50000668B607FCD506681E6838260E60066838
:103E60007607FCD501260E6006687607FCD5166835
:103E700046F400761660166846F48076166006688A
:103E8000F607FCD006680C600668B607FCD5066825
:103E90001E681A260E6006687607FCD504260E609A
:103EA00006687607FCD5166846F400761660166834
:103EB00046F4807616600668F607FCD006680C604B
:103EC0000468A407FCD504681B6819230B60036809
:103ED0005B07FCD50D6001684907FCD5106840F40C
:103EE000007010600220401CFF28FCDB70BD000049
:103EF0000054004038B52D4A0C2111602B4B111491
:103F000008331960294B3C211C3319600D211B1DFE
:103F1000196001211160116841F480711160234919
:103F200014310B68DB07FCD00B68204CD023103415
:103F300023600B689B07FCD50B681C4B18331D686E
:103F4000206008684007FCD5106840F4807010605D
:103F50000868C007FCD00868D12020600868800786
:103F6000FCD50868186808684006FCD52068106809
:103F700040F48060106008681868106840F40070B1
:103F800010600868186820680090106840F400709D
:103F900010600868C006FCD418680028FCD11068BE
:103FA00040F400401060009838BD0000005400400C
:103FB00010B500F023F9194C2BE000BFFFF7A2FE6B
:103FC00010EE100A01EE900AB0EE610AFFF7F4FB62
:103FD00000F0CAF811EE900A1149884201DD142060
:103FE00007E011EE900A0F49884201D21E2000E03E
:103FF00028202060FFF7A6FE10EE900A0A498842AA
:1040000007DB00F001F9052000F092F80120606064
:1040100010BD60680328D1D010BD00000000002052
:104020000000F0410000F0C1CDCC4C3F10B5224C57
:104030002DED028B9AB038E0FFF784FE10EE900A67
:104040001E49884208DB00F019F9042000F070F8DE
:1040500003206060FFF7ACFFFFF754FEB0EE418A2B
:10406000F0EE408AF0EE480AFFF748FCB0EE680A2E
:1040700000F0DAF8B0EE480A00F02EF80E493922C6
:1040800044310BA8FCF7CDF80B48443090F83900C8
:104090008DF865002C220FA96846FCF7C2F80DF1D7
:1040A0002C0C9CE80F00FFF795FC60680128C3D03A
:1040B0001AB0BDEC028B10BD00000020CDCC4C3FEF
:1040C0000449086003481038016841F002010160AA
:1040D000704700001474004000B5FFF715FB5DF851
:1040E00004EBFFF7EDBF000000B5A1B034220F498B
:1040F0000EA8FCF796F80D48416B1B9100F13802B1
:1041000011685268CDE91C12016C1E91406C1F9021
:10411000382212A96846FCF784F80DF1380C9CE8A7
:104120000F00FFF78DFB21B000BD0000240100202F
:1041300070B505462DED028B00249FED0A8A0CE038
:1041400000F05CF8B0EE480A00F00EF800F096F8C7
:1041500000F05AF800F092F8641CAC42F0DBBDECC1
:10416000028B70BD00E0BF44FCEEC00A064810EEB2
:10417000901AC162F6EE000A20EE200ABCEEC00AD8
:1041800010EE101A416370470000014000B52DED9C
:10419000048B83B041EC190BFCF712FB41EC180BBC
:1041A00018EE100A18EE901A8DED008B002818BF3B
:1041B0000120084320F00040C0F17F6000F1E040A2
:1041C000C00F14D019EE101A19EE900A8DED009B55
:1041D000002918BF0121084320F00040C0F17F6092
:1041E00000F1E040C00F04BF0120FFF70DFA51ECD1
:1041F000180B03B0BDEC048B00BD0000002101488A
:10420000FDF79ABC0800002000210148FDF7B0BC72
:104210000800002003490860081F016841F00101FF
:10422000016070470874004000B5FFF76DFA5DF853
:1042300004EBFFF7EFBF000000B5A1B034220E4938
:104240000EA8FBF7EEFF0C48416B1B91816BC26B14
:10425000CDE91C12016C1E91406C1F90382212A9EE
:104260006846FBF7DEFF0DF1380C9CE80F00FFF706
:10427000E7FA21B000BD0000DC00002000204FF470
:104280009611401C8842FCDB7047000000000000D3
:1042900000000102030406070809000000000102F3
:1042A0000304000000000000000000000000F03FD8
:1042B000000000000000F83F0000000000000000C7
:1042C0000000004003B8E23F0000000000000000D2
:1042D00006D0CF43EBFD4C3E033333333333E33F60
:1042E000FFAB6FDBB66DDB3F4D268F515555D53F8C
:1042F00001411DA96074D13F65DBC9934A86CD3F5A
:10430000EF4E454A287ECA3F3E5555555555C53F47
:1043100093BDBE166CC166BF2CDE25AF6A56113F39
:10432000F16BD2C541BDBBBED0A4BE726937663E3B
:104330004FBB610567ACDD3F182D4454FB21E93FBD
:104340009BF681D20B73EF3F182D4454FB21F93FAC
:10435000E2652F227F2B7A3C075C143326A6813C32
:10436000BDCBF07A8807703C075C143326A6913CDD
:10437000C4EB98999999C9BF711623FEC671BCBF49
:104380006D9A74AFF2B0B3BF9AFDDE522DDEADBFB1
:104390002F6C6A2C44B4A2BF0D5555555555D53FC9
:1043A000FF8300922449C23F6E204CC5CD45B73FE4
:1043B000513DD0A0660DB13FEB0D76244B7BA93F5C
:1043C00011DA22E33AAD903F000000000000000047
:1043D000F043000800000020DC000000E835000881
:1043E000CC440008DC000020FC040000F835000884
:1043F0001E0000000100000000000140000000005D
:1044000000000000000000000000000000000000AC
:10441000000000000000000000000000000000009C
:10442000000000000000000000000000000000008C
:10443000000000000000004000000000000000003C
:10444000000000000000000000000000000000006C
:10445000000000000000000000000000000000005C
:10446000000000000000000000000000000000004C
:1044700000040040000000000000000000000000F8
:10448000000000000000000000000000000000002C
:10449000000000000000000000000000000000001C
:1044A000000000000000000000000000000080404C
:1044B000000080400000804001000000100000006B
:0C44C000000000000024F40000000000D8
:040000050800018965
:00000001FF
