:020000040800F2
:10000000980500209D010008972200084F20000855
:1000100095220008B50800088524000800000000AB
:100020000000000000000000000000009B2200080B
:10003000B708000800000000992200089D2200086F
:10004000B7010008B7010008B7010008B7010008B0
:10005000B7010008B7010008B7010008B7010008A0
:10006000B7010008B7010008B7010008B701000890
:10007000B7010008B7010008B7010008B701000880
:10008000B7010008B7010008B7010008B701000870
:10009000B7010008B7010008B7010008B701000860
:1000A000B7010008B7010008B7010008B701000850
:1000B000B1230008B7010008B7010008B701000824
:1000C000B7010008B7010008B7010008B701000830
:1000D000B7010008B7010008B7010008B701000820
:1000E000B7010008B7010008B7010008B701000810
:1000F000B7010008B7010008B7010008B701000800
:10010000B7010008B7010008B7010008B7010008EF
:10011000B7010008B7010008B7010008B7010008DF
:10012000B7010008B7010008B7010008B7010008CF
:10013000B7010008B7010008B7010008B7010008BF
:10014000B7010008B7010008B7010008B7010008AF
:10015000B7010008B7010008B7010008B70100089F
:10016000B7010008B7010008B7010008B70100088F
:10017000B7010008B7010008B7010008000000003F
:10018000B7010008B7010008DFF80CD000F080FBD1
:1001900000480047C53C00089805002006488047F5
:1001A00006480047FEE7FEE7FEE7FEE7FEE7FEE75C
:1001B000FEE7FEE7FEE7FEE74D23000889010008A1
:1001C0002DE9F05F0546002092469B46884606468C
:1001D000814640241BE0284641464746224600F01F
:1001E00028FA53465A46C01A914110D31146184670
:1001F000224600F00FFA2D1A67EB01084F462246FF
:100200000120002100F006FA17EB00094E41201EE4
:10021000A4F10104DFDC484631462A464346BDE8E6
:10022000F09F40EA01039B0703D009E008C9121FB1
:1002300008C0042AFAD203E011F8013B00F8013BA0
:10024000521EF9D270472DE9FE4F804681EA030025
:10025000C00F0C46009021F0004123F00045B8EBA0
:100260000200A94105D24046214690461C460B4655
:10027000024623F00040104347D0270DC7F30A0081
:10028000C3F30A510290401A019040286BDAC3F37D
:10029000130040F4801B0098924620B10023D2EB5B
:1002A000030A63EB0B0B01985946C0F1400250461C
:1002B00000F0B0F906460D4650465946019A00F046
:1002C000C8F910EB08006141002487EA115284EA62
:1002D000E7731A4340D0009A62B3019A012A4FEAA9
:1002E000075215DC001B61EB02014FF0004202EAED
:1002F0000752CDE90042001C41F5801132462B46E1
:1003000000F0FFF903B0BDE8F08F40462146F9E761
:10031000001B61EB0201001C41F5801300185B41DA
:100320002018A2F5001747EB030140EAD570B61973
:100330006D4111E06D084FEA360645EAC0754FEA97
:100340000752001B61EB0201001C41F580114908B6
:100350004FEA30000019514132462B4603B0BDE848
:10036000F04F00F0BFB90098012240000023D0EB0D
:10037000020263EBE073009821464FEAE074B8EBA9
:10038000000061EB0401E9E783F000435BE781F0E3
:10039000004158E72DE9FE4F81EA030404F00044D0
:1003A00021F0004100944FF0000B23F0004350EA8D
:1003B00001045ED052EA03045BD0C3F30A54C1F3D4
:1003C0000A552C44A4F2F3340194A0FB0254C1F367
:1003D000130141F48011C3F3130343F4801301FBB1
:1003E000024400FB034E840A970A44EA815447EA18
:1003F0008357A4FB076802958D0A05FB07854FEA22
:10040000932C04FB0C542705029D4FEA065847EA3B
:100410001637B5EB08056EEB070C870E920E47EA10
:10042000811742EA8312A7FB0201B6EB0B0164EBD2
:1004300000042B0D43EA0C335E1844EB1C50DA46E3
:100440005146E7FB0201C5F313044FEA0B3343EABD
:1004500014534FEA0432019C43EA0603A4F10C044E
:100460000294009CCDE900B400F04BF903B0BDE864
:10047000F08F00200146F9E72DE9F04D81EA0304F1
:1004800004F0004B21F0004514464FF0000A23F021
:10049000004150EA050220D054EA01021DD0C5F304
:1004A0000A570246C5F31303C1F31300C1F30A56FA
:1004B00040F4801543F48013A7EB0608101BD646C2
:1004C00008F2FD3873EB050002D308F1010801E0E2
:1004D00092185B41B8F1000F03DA00200146BDE835
:1004E000F08D00204FF48011064684460EE0171B65
:1004F00073EB050705D3121B63EB050306434CEAB8
:10050000010C49084FEA300092185B4150EA01079C
:10051000EDD152EA030012D082EA040083EA050119
:10052000084305D0101BAB4106D20122002306E090
:1005300000224FF0004302E06FF0010253101AEB6B
:1005400006004CEB085110EB0A0041EB0B01BDE833
:10055000F04D00F0C7B800F0004230F000400AD083
:10056000C10D01F56071C0F3160042EA0151C208E5
:1005700040071143704700200146704730B5041E04
:1005800071F1000404DB4FF00044404264EB0101D0
:10059000141E73F1000405DB1C464FF00043524269
:1005A00063EB04038B4208BF824230BD30B5041EAA
:1005B00071F1000404DB4FF00044404264EB0101A0
:1005C000141E73F1000405DB1C464FF00043524239
:1005D00063EB0403994208BF904230BD01F0004331
:1005E00030B421F0004150EA010206D00A0DA2F514
:1005F0006072C1F31301002A02DC30BC0020704796
:10060000440F44EAC104C100E01830BC00EBC25002
:1006100000F031B8202A04DB203A00FA02F1002071
:1006200070479140C2F1200320FA03F31943904030
:100630007047202A04DB203A21FA02F0002170479B
:1006400021FA02F3D040C2F120029140084319463A
:100650007047202A06DBCB17203A41FA02F043EA22
:10066000E07306E041FA02F3D040C2F1200291406B
:100670000843194670470029A8BF7047401C49002D
:1006800008BF20F00100704710B4B0FA80FC00FAF7
:100690000CF050EA010404BF10BC704749B1CCF122
:1006A000200421FA04F411FA0CF118BF01212143AE
:1006B0000843A3EB0C01CB1D4FEA00614FEA102069
:1006C00042BF002010BC704700EBC350104400290B
:1006D000A4BF10BC7047401C490008BF20F00100B7
:1006E00010BC704710B5141E73F1000408DA401CEA
:1006F00041F1000192185B411A4301D120F0010041
:1007000010BD2DE9F04D92469B4611B1B1FA81F230
:1007100002E0B0FA80F220329046FFF77BFF0446F9
:100720000F4640EA0A0041EA0B0153465A46084385
:1007300013D0114653EA010019D0C8F140025046C7
:10074000FFF777FF05460E46504659464246FFF7EB
:1007500061FF084305D0012004E020463946BDE88A
:10076000F08D0020054346EAE0762C4337430A9893
:100770006305E40AA0EB08000022FD0A44EA47549E
:100780000A3002D500200146E9E701051019694148
:10079000DDE9084500196941BDE8F04DA2E770B5F3
:1007A00021F0004303430CD0C1F30A550024D5EBDC
:1007B000040564EB0403D617AD1AB34102DB002035
:1007C000014670BD201841EB025170BD2DE9F04D7E
:1007D00000231A461B1A8A4103DB00200146BDE8AC
:1007E000F08DC1F30A52C1F3130141F480154FF0AB
:1007F000000BD10702D100186D41521E002704469C
:1008000040F2FF11384601EB620A3E46804602463E
:1008100000204FF48011FFF70CFFC2197141BB1883
:1008200046EB0100B4EB030C75EB000C04D3E41AA7
:1008300065EB000517460E46241908F101006D41CD
:1008400080463428E3DDF91946EB0600091BA84170
:1008500003D24FF0FF32134601E0002213461BEB98
:10086000070046EB0A51BDE8F04DFFF73BBF0EB560
:10087000C10F80EAE0700844CA07002140F2334308
:100880008DE80E000A460B46FFF73BFF03B000BDA4
:10089000064C074D06E0E06840F0010394E80700CD
:1008A00098471034AC42F6D3FFF772FC704700084B
:1008B00090470008FEE7704730B482B04FF0000C5C
:1008C000CDF804C090F83C20012A01BF022002B0FC
:1008D00030BC7047012280F83C200A680723046876
:1008E000092A14D9E5680A3A02EB420203FA02F235
:1008F00025EA0202E2600B788A680A3B03EB4303B5
:1009000002FA03F30268D4682343D36011E0256937
:1009100002EB420203FA02F225EA020222610B789C
:100920008A6803EB430302FA03F302681469234362
:1009300013614A681F23072A16D20468656B521E8A
:1009400002EB820203FA02F225EA020262630B79E9
:100950000A885B1E92B203EB830302FA03F3026878
:10096000546B234353632DE004680D2A15D2256B85
:10097000D21F02EB820203FA02F225EA020222638C
:100980000B790A88DB1F92B203EB830302FA03F3AD
:100990000268146B2343136314E0E56A0D3A02EB1B
:1009A000820203FA02F225EA0202E2620B790A8865
:1009B0000D3B92B203EB830302FA03F30268D46A9D
:1009C0002343D362254B0468234A9C4204BF0C682E
:1009D000122C03D1546844F48004546004689C428F
:1009E0002FD10B68102B18BF112B2AD1536843F459
:1009F000000353600968102923D11949194A09686D
:100A0000B1FBF2F101EB810149000191009118D095
:100A1000B1F1004F1BD20029D8BF002105DD11F034
:100A2000010102D0019A521E0192009A491C521CE7
:100A3000914206DA019B891C5B1E5B1E0193914269
:100A4000F8DB80F83CC002B0002030BC7047019950
:100A5000491E0191FCD1F4E7002301400020014030
:100A60001400002040420F000068C06C7047000076
:100A700070B504004FF0000504BF012070BD206C6C
:100A8000002628B9666484F83C60204600F0A8F887
:100A9000206C10F0100F18BF012503D084F83C60C3
:100AA000284670BD206C20F4885040F0020020647D
:100AB0004848416821F4403141604168626811430F
:100AC00041602068416821F480714160206841687C
:100AD000226941EA022141602068416821F04071A9
:100AE000416020684168A2681143416020688168C4
:100AF00021F40061816020688168E26811438160AF
:100B0000A06A6FF07061C8422068816821F070614E
:100B100081602068816808BF21F040510BD0A26A33
:100B2000114381602068816821F040518160206814
:100B30008168E26A114381602068816821F00201C6
:100B4000816020688168A26941EA42018160206A6F
:100B500000282068416808BF21F400610ED041F4EC
:100B6000006141602068416821F460414160206873
:100B70004168194B626A03EB4232114341602068BD
:100B8000C16A21F47001C1622068C16AA28B134B53
:100B900003EB02521143C1622068816821F40071A5
:100BA000816020688168226B41EA4221816020686F
:100BB000816821F48061816020688168626941EA0E
:100BC000822181606664206C20F0020040F0010008
:100BD000206463E70023014000E0FFFF0000F0FF16
:100BE00010B5D0F800C00022194903231948ACF110
:100BF000804486B0B4F5903417D0174CA4451CBF80
:100C000006B010BDD1F800C04CF4007CC1F800C0A3
:100C10000968029201F4007105910221CDE90013E7
:100C2000694600F081F906B010BDD1F800C04CF45F
:100C3000807CC1F800C00968029201F480710591BE
:100C40000121CDE90013694600F06EF906B010BD30
:100C50004438024000000240002101402DE9F041EB
:100C6000044600680D4681684FF0000711F4806F5C
:100C70001CBF806810F4807F08D0206C40F02000FA
:100C8000206484F83C700120BDE8F08100F06AFA2D
:100C900006462068006810F0020F16D1B5F1FF3F3C
:100CA0000ED025B100F05EFA801BA84208D9206C56
:100CB00040F00400206484F83C700320BDE8F0811B
:100CC0002068006810F0020FE8D021686FF0120071
:100CD0000860206C40F4007020642068816811F086
:100CE000405F04BFA169002913D1C16A11F4700FDC
:100CF0001CBF806810F4806F0BD1206C20F48070D2
:100D00002064206C10F4805F03D1206C40F001005F
:100D100020644FF00000BDE8F081000082B04FF089
:100D2000000CCDF804C090F83C10012902BF02204D
:100D300002B07047012180F83C1001688A6812F007
:100D4000010F26D18A6842F001028A603449354A8F
:100D50000968B1FBF2F111EB41010191009118D04A
:100D6000B1F1004F57D20029D8BF002105DD11F0A5
:100D7000010102D0019A521E0192009A491C521C94
:100D8000914206DA019B891C5B1E5B1E0193914216
:100D9000F8DB01688A6812F0010F39D0026C22F08A
:100DA000010222F4C06242F4807202644A6812F4C2
:100DB000806F05D0026C22F4005242F4805202642B
:100DC000026C12F4805F08BFC0F844C003D0426CCC
:100DD00022F00602426480F83CC0134A6FF02203FE
:100DE0000B605168006811F01F0F09D0A0F180411D
:100DF000B1F5903104BF816811F0405F04D007E085
:100E0000816811F0405F03D1816841F080418160C9
:100E1000002002B070470199491E0191FCD1B8E74A
:100E20001400002040420F000023014090F83C10C5
:100E3000012904BF02207047012180F83C1001689D
:100E40008A6822F001028A600168896811F0010F46
:100E500005D1016C21F4885141F0010101640021A8
:100E600080F83C10084670474379012B04BF0220EC
:100E7000704730B44FF0010C80F805C002230371B5
:100E800003681C6840F6FE759540AC43D1E90051FB
:100E9000294391402143196001680B68C02404FA7A
:100EA00002F223EA02020A6080F804C000214171C4
:100EB00030BC08467047002804BF0120704770B559
:100EC00004460079002518B96571204600F008F83D
:100ED00002202071256101202071002070BD0000DA
:100EE00000B5006887B0A0F18041B1F5E8411CBFB2
:100EF00007B000BD00210A48026842F000520260BB
:100F0000006800F000500590302000900320CDE9EB
:100F100001016946034800F007F807B000BD000072
:100F200040380240000002402DE9F84F0022884E70
:100F3000DFF820E201274FF0030A4FF00F0800BF4F
:100F40000B6807FA02F42340A34240F0FB80D1F87B
:100F500004C0BCF1020F18BFBCF1120F15D14FEA4B
:100F6000D20C00EB8C0CDCF820504FEA42794FEAAF
:100F7000D96908FA09FB25EA0B05D1F810B00BFA7C
:100F800009F949EA0505CCF82050D0F800904FEA5D
:100F9000420C91F804B00AFA0CF50BF0030B29EAA5
:100FA00005090BFA0CFB4BEA0909C0F80090D1F8CF
:100FB0000490B9F1010F18BFB9F1020F05D0B9F1D2
:100FC000110F18BFB9F1120F18D1D0F80890D1F84D
:100FD0000CB029EA05090BFA0CFB4BEA0909C0F829
:100FE0000890D0F8049029EA040491F80490C9F319
:100FF000001909FA02F949EA04044460C46824EAC1
:1010000005048D6805FA0CFC4CEA040CC0F80CC011
:10101000D1F804C01CF0805F7ED0D6F800C04CF43C
:10102000804CC6F800C0D6F800C00CF4804CCDF857
:1010300000C022F0030C0CF1804505F59835D5F879
:1010400008C84FEA82744FEA147408FA04F92CEACB
:10105000090CA0F18049B9F5003938D0A0F18049D8
:10106000B9F5013908BF4FF0010930D0A0F180492E
:10107000B9F5023908BF4FF0020928D0A0F1804924
:10108000B9F5033908BF4FF0030920D0A0F180491A
:10109000B9F5043908BF4FF0040918D0A0F1804910
:1010A000B9F5053908BF4FF0050910D0A0F1804906
:1010B000B9F5063908BF4FF0060908D0A0F18049FC
:1010C000B9F507390CBF4FF007094FF0080909FAC5
:1010D00004F444EA0C0CC5F808C8DEF800C04C68FB
:1010E0002CEA030C14F4803F18BF4CEA030CCEF832
:1010F00000C0194CD4F800C04D682CEA030C15F45C
:10110000003F18BF4CEA030CC4F800C0134CD4F8DD
:1011100000C02CEA030C00E014E04D6815F4801FB9
:1011200018BF4CEA030CC4F800C00D4CD4F800C042
:101130004D682CEA030C15F4001F18BF4CEA030C91
:10114000C4F800C0521C102AFFF4FAAEBDE8F88FB4
:1011500044380240003C0140043C0140083C01404E
:101160000C3C0140014880687047000008000020E6
:10117000002804BF0120704770B5044690F83D0078
:10118000002520B984F83C50204600F075F8242052
:1011900084F83D002068016821F00101016000F041
:1011A0000DFA33492268B0FBF1F15160314A6368AE
:1011B000934298BF491C07D94FF4967359434FF493
:1011C0007A73B1FBF3F1491C2368196261688A42A2
:1011D0000AD34900B0FBF1F2C2F30B02042A34BF78
:1011E0000420B0FBF1F023E0A368002B0EBF01EB5D
:1011F000410201EBC10202EB0112B0FBF2F218BF97
:1012000042F480421205120D08BF012010D0002BBD
:1012100004BF01EB4101B0FBF1F007D001EBC102CB
:1012200002EB0111B0FBF1F040F4804040F40040CB
:101230002168C861D4E90701084321680860D4E93E
:101240000310084321688860D4E905010843216838
:10125000C8602068016841F0010101602564202018
:1012600084F83D00256384F83E50002070BD0000E6
:1012700040420F00A086010000B5006887B0A0F1D1
:101280008041B1F5A8411CBF07B000BDC02000904F
:10129000122001900120029003200390042004906A
:1012A00069460748FFF740FE0648016841F400110F
:1012B0000160006800F40010059007B000BD000058
:1012C000000402404038024002488168027811441C
:1012D00081607047080000200B4810B5016841F498
:1012E00000710160016841F480610160016841F4AE
:1012F00080710160032000F09DF8002000F006F8E6
:1013000000F024F8002010BD003C024070B50D4DE7
:1013100004464FF47A712878B1FBF0F00A49096865
:10132000B1FBF0F000F072FB48B9102C07D200229C
:101330002146501E00F04CF800206C6070BD01206A
:1013400070BD000008000020140000201E4808B5F1
:10135000016841F480410160006800F48040009021
:101360001A48016841F080510160006800F0805027
:101370000090032000F05EF8002211466FF00B0091
:1013800000F026F8002211466FF00A0000F020F865
:10139000002211466FF0090000F01AF800221146F1
:1013A000501F00F015F800221146101F00F010F831
:1013B00000221146901E00F00BF80022BDE8084004
:1013C0001146501E00F004B8443802404038024034
:1013D000174B10B41B68C3F30223C3F1070CBCF115
:1013E000040F88BF4FF0040C1C1D072C34BF0023D2
:1013F000DB1E012404FA0CFCACF1010C0CEA010127
:10140000994004FA03F35B1E1A40114300284FEA87
:101410000111A1BF00F1E02080F8001410BC70475A
:1014200000F00F0000F1E02080F8141D10BC7047A0
:101430000CED00E0074900F007000A684FF6FF03D3
:101440001A4042EA002040F0FD7040F080600860E1
:10145000704700000CED00E0002804BF0120704739
:101460002DE9F0474D4E04460F46306801F0FF0865
:1014700000F00F00B84206D286F80080306800F015
:101480000F00B84261D12068454D10F0020F14D012
:1014900010F0040F03D0286840F4E0502860207852
:1014A00010F0080F03D0286840F4604028602868D6
:1014B000A16820F0F00008432860207810F0010FA8
:1014C00037D060683749012823D0022818BF032885
:1014D000096823D011F0020F37D0296821F00301E9
:1014E00041EA00002860FFF73DFE814628686168F8
:1014F00000F00C00B0EB810F18BF41F2883A18D011
:10150000FFF730FEA0EB090050450BD90320BDE8E2
:10151000F087096811F4003FDFD116E011F0007F79
:10152000DBD112E02868616800F00C00B0EB810F9D
:10153000E6D1306800F00F00B84209D986F8008083
:10154000306800F00F00B84202D00120BDE8F087FB
:10155000207810F0040F05D02868E16820F4E050EE
:1015600008432860207810F0080F06D02868216909
:1015700020F4604040EAC100286000F02FF829689C
:10158000094AC1F30311515CC840084908600020B2
:10159000FFF7BCFE0020BDE8F0870000003C0240E1
:1015A00008380240003802402A4600081400002093
:1015B00001480068704700001400002004480549F5
:1015C00000680968044AC1F38221515CC840704731
:1015D00014000020083802403A4600081848006805
:1015E00010F00C02174808BF70471749042A04BFBF
:1015F00008467047082A18BF704710B5134C226878
:10160000236802F03F0213F4800F08D02068002303
:10161000C0F38810A0FB0101FEF7D2FD07E02168AE
:101620000023C1F38811A1FB0001FEF7C9FD216869
:10163000C1F30141491C4900B0FBF1F010BD0000AD
:10164000083802400024F40040787D01043802404C
:10165000002804BF012070472DE9F84F04460078A8
:10166000DA4D10F0010F59D0D948016801F00C0192
:1016700004290AD0006800F00C0008280ED105F1FA
:101680000400006810F4800F08D0286810F4003FB0
:1016900044D06068002800F096813FE06068B0F5B3
:1016A000803F19D0B0F5A02F28680CBF40F48020EF
:1016B00020F48030286028680CBF40F4803020F48B
:1016C000802028606068B8B1FFF74CFD06462868A6
:1016D00010F4003F05D021E0286840F480302860F5
:1016E000F0E7FFF73FFD801B642800F22A8128689D
:1016F00010F4003FF5D011E0FFF734FD06462868EE
:1017000010F4003F0AD000BFFFF72CFD801B6428B7
:1017100000F21781286810F4003FF5D12078AD4F12
:1017200010F0020F4FF0000847D0A948016811F0EF
:101730000C0F16D0006800F00C00082804D1A64851
:10174000006810F4800F0CD0E06820B34FF0010067
:101750003860FFF707FD0646286810F0020F09D031
:1017600011E0286810F0020F1CBFE06801280AD0C1
:1017700000F029B9FFF7F6FC801B02287ED8286804
:1017800010F0020FF6D02868216920F0F80040EA36
:10179000C100286011E0C7F80080FFF7E3FC0646AF
:1017A000286810F0020F08D0FFF7DCFC801B02282D
:1017B00064D8286810F0020FF6D1207810F0080FD6
:1017C0002AD08648864E616999B101210160FFF7F0
:1017D000C9FC8146306810F0020F1DD1FFF7C2FC32
:1017E000A0EB0900022849D8306810F0020FF5D0AC
:1017F00012E0C0F80080FFF7B5FC8146306810F0B9
:10180000020F09D0FFF7AEFCA0EB0900022835D883
:10181000306810F0020FF5D1207810F0040F77D067
:1018200070484FF0000B006810F0805F0AD16D48DF
:10183000016841F08051016000684FF0010B00F039
:1018400080500090684E306810F4807F14D130686A
:1018500040F480703060FFF785FC8146306810F4FA
:10186000807F09D1FFF77EFCA0EB0900022868D831
:10187000306810F4807FF5D05C4E00E061E0A06835
:1018800001281BD0052830680CBF40F0040020F070
:101890000100306030680CBF40F0010020F004000F
:1018A000C6F80000A06841F2883AB8B1FFF75AFCC8
:1018B0008146306810F0020F05D021E0306840F01A
:1018C00001003060EEE7FFF74DFCA0EB090050454A
:1018D00037D8306810F0020FF5D011E0FFF742FC66
:1018E0008146306810F0020F0AD000BFFFF73AFCC3
:1018F000A0EB0900504524D8306810F0020FF5D154
:10190000BBF1000F04D03748016821F0805101601D
:10191000A069E8B32E49096801F00C01082952D0EA
:101920000228C7F860800FD0FFF71CFC0446286827
:1019300010F0007F44D000BFFFF714FC001B02280A
:101940003AD90320BDE8F88FFFF70CFC064628685B
:1019500010F0007F09D000BFFFF704FC801B0228B5
:10196000EFD8286810F0007FF6D1D4E907010843CA
:10197000A16A1F4A490802EB0141626A41EA8211E9
:10198000084394F82C1040EA01611348016000E01C
:1019900016E001203866FFF7E5FB0446286810F0E2
:1019A000007F0DD1FFF7DEFB001B0228C9D8286895
:1019B00010F0007FF6D003E0286810F0007FBBD164
:1019C0000020BDE8F88F0120BDE8F88F0038024004
:1019D000083802400000474204380240800E474267
:1019E00074380240403802400070004070380240B5
:1019F0000000FFFF4FF0E021042808690CBF40F011
:101A0000040020F00400086170477047411EB1F1E6
:101A1000807F24BF012070474FF0E0204161054ADC
:101A2000F02182F8141D002181610721016100204D
:101A3000704700000FE000E010B5FFF7E6FF10BDB3
:101A400070477047002804BF0120704710B5044656
:101A500090F8390028B9002084F83800204600F0BA
:101A60000DF8022084F83900211D206800F0A8FC40
:101A7000012084F83900002010BD0000006881B00A
:101A8000A0F18041B1F580311CBF01B0704705481D
:101A9000016841F001010160006800F00100009060
:101AA00001B07047443802400168CA6842F0010240
:101AB000CA600068016841F00101016000207047C0
:101AC0000168CA6822F00102CA600068016A41F236
:101AD0001112114207D1016A9210114203D101681B
:101AE00021F00101016000207047704770B5044685
:101AF000006801694FF0000511F0020F1CBFC168BA
:101B000011F0020F13D06FF0020101610120207665
:101B10002068806910F0030F204602D0FFF7E5FF30
:101B200004E000F099F8204600F0D0F9257620680E
:101B3000016911F0040F1CBFC16811F0040F13D02C
:101B40006FF004010161022020762068806910F4A2
:101B5000407F204602D0FFF7C8FF04E000F07CF889
:101B6000204600F0B3F925762068016911F0080FCE
:101B70001CBFC16811F0080F13D06FF0080101619C
:101B8000042020762068C06910F0030F204602D0A0
:101B9000FFF7ABFF04E000F05FF8204600F096F995
:101BA00025762068016911F0100F1CBFC16811F083
:101BB000100F13D06FF0100101610820207620680B
:101BC000C06910F4407F204602D0FFF78EFF04E08A
:101BD00000F042F8204600F079F925762068016986
:101BE00011F0010F1CBFC16811F0010F05D06FF09B
:101BF00001010161204600F0C5F92068016911F07A
:101C0000800F1CBFC16811F0800F05D06FF08001FC
:101C100001612046FFF714FF2068016911F0400FB1
:101C20001CBFC16811F0400F05D06FF04001016189
:101C3000204600F00BFA2068016911F0200F1ABF4E
:101C4000C16811F0200F70BD6FF0200101612046C6
:101C5000BDE87040FFF7F5BE7047000090F83830DF
:101C6000012B04BF022070472DE9F001012480F808
:101C70003840022380F83930844BDFF814C242B177
:101C8000042A45D0082A7DD00C2A00F0C28000F03A
:101C9000F3B80268156A25F001051562156A5668E1
:101CA0009769D1F8008027F0730748EA0707D1F851
:101CB000088025F0020548EA05059A4218BF6245EA
:101CC00011D1D1F80CC025F008034CEA030323F02E
:101CD0000405D1F814C026F440734CEA0303D1F88C
:101CE00018C04CEA0306566097614B68536315624F
:101CF0000268936943F0080393610268936923F0D3
:101D00000403936102689369096943EA01013FE0B2
:101D10000268156A25F010051562156A56689769FC
:101D2000D1F8008027F4E64747EA0827D1F8088071
:101D300025F0200545EA08159A4218BF624511D1E1
:101D4000D1F80CC025F0800343EA0C1323F04005C2
:101D5000D1F814C026F4406343EA8C03D1F818C0CC
:101D600043EA8C06566097614B689363156202687C
:101D7000936943F4006393610268936923F4806379
:101D8000936100E006E002689369096943EA012172
:101D9000916171E00268156A25F480751562166A12
:101DA0005568D769D1F8008027F0730748EA07071C
:101DB000D1F8088026F4007646EA08269A4218BF31
:101DC000624511D1D1F80CC026F4006343EA0C231C
:101DD00023F48066D1F814C025F4405343EA0C1371
:101DE000D1F818C043EA0C155560D7614B68D3632E
:101DF00016620268D36943F00803D3610268D369AD
:101E000023F00403D3610268D369096943EA01013D
:101E100031E00268156A25F480551562176A556825
:101E2000D669D1F8008026F4E64646EA0826D1F8BD
:101E3000088027F4005747EA08379A4218BF6245DE
:101E400005D1D1F814C025F4804343EA8C155560C0
:101E5000D6614B68136417620268D36943F4006368
:101E6000D3610268D36923F48063D3610268D369C4
:101E7000096943EA0121D16180F839404FF000013E
:101E800080F83810BDE8F0010846704700000140B6
:101E900000040140002804BF0120704710B504462B
:101EA00090F8390028B9002084F83800204600F066
:101EB0000CF8022084F83900211D206800F080FA17
:101EC000012084F83900002010BD70477047026877
:101ED000012303FA01F1136A8B431362136A194356
:101EE00011620168A1F18042B2F580321CBFA1F1FC
:101EF0008042B2F5823203D14A6C42F400424A6415
:101F00000068016841F0010101600020704730B4B1
:101F1000026801234FF0000C156A03FA01F425EA68
:101F200004041462146A0CFA01F12143116201687D
:101F300041F21112A1F1804440F2444CB4F58034D6
:101F40001CBFA1F18044B4F582340AD10C6A14425A
:101F500004BF0C6A14EA0C0F03D14C6C24F4004447
:101F60004C6401680C6A144204BF0A6A12EA0C0F3E
:101F700003D10A6822F001020A6080F8393030BCCF
:101F80000020704770B505462DED048B02F024FB50
:101F9000B0EE409A02F076FAF0EE409A02F01CFBA6
:101FA00010EE104A2046FEF7D6FA9FED230B41ECC7
:101FB000180B53EC102BFEF7E1FA2FD302F00CFBB9
:101FC00010EE104A2046FEF7C6FA9FED1D0B41ECBD
:101FD000180B53EC102BFEF7E9FA1FD302F052FA5C
:101FE00010EE104A2046FEF7B6FA9FED130B41ECB7
:101FF000180B53EC102BFEF7C1FA0FD302F042FA84
:1020000010EE104A2046FEF7A6FA9FED0D0B41ECAC
:10201000180B53EC102BFEF7C9FA09D20A4902201B
:10202000086002F0FBFA012002F04EFA01F0A2FD76
:10203000BDEC048B70BD0000666666666666F23FA6
:102040003333333333330140040000207047FEE75D
:102050007FB512481049002401604FF40031C0E9F7
:102060000114046184610E490462C0E90A14012567
:10207000C460C56145610463FEF7FAFC00B1FEE788
:10208000CDE90045694605480294FEF715FC002895
:1020900000D0FEE77FBD0000002001401C000020B2
:1020A0000100000F7FB512481049002401604FF471
:1020B0000031C0E90114046184610E490462C0E981
:1020C0000A140125C460C56145610463FEF7D0FCB4
:1020D00000B1FEE70095CDE9015469460448FEF7DA
:1020E000EBFB002800D0FEE77FBD0000002101408F
:1020F000640000200100000F1CB50F480D4C046067
:10210000FEF7D9FE00B1FEE70020009002460190E4
:1021100069460948FEF7A8FE00B1FEE710226946AD
:102120000548FEF7A1FE00B1FEE7206840F03D1033
:1021300020601CBD00740040AC000020184800B5B1
:10214000016887B041F080010160016801F0800101
:102150000591016841F001010160016801F0010190
:102160000591016841F010010160016801F0100162
:102170000591016841F0020101600068694600F0C4
:10218000020005904FF40070009002200190029030
:102190000390012004900348FEF7C6FE07B000BD7F
:1021A00030380240001002400B4810B50949016068
:1021B0000A49416000214FF480428160C0E9031266
:1021C00041618161C1610162FEF7D2FF002800D048
:1021D000FEE710BD00540040C0000020A0860100B2
:1021E00010B5134888B00024016841F00101016076
:1021F000006800F0010007900E48FFF766FE0D48EA
:102200000D4901600F21C0E9011442F6FF71C0E9D8
:102210000314FFF73FFE7020CDE900040294002272
:10222000694604480494FFF719FD08B010BD00008A
:10223000443802401401002000000140134808B552
:102240000268002142F00102026000684FF0804203
:1022500000F0010000900E4802604FF4FA72C0E9ED
:1022600001214FF6FF72C0E90321FFF7EBFB0720C6
:10227000FFF7E0F8002211461C20FFF7A9F84FF005
:10228000E0214FF08050C1F8000108BD4038024005
:1022900050010020FEE770477047704710B5FFF708
:1022A00013F8BDE81040FFF7C7BB000030B5254864
:1022B00093B00025016841F080510160006800F092
:1022C000805011902048016841F48041016000680D
:1022D000022400F48040119001200090000401903D
:1022E0008001CDE90640192008904FF4A870CDE98F
:1022F000090404200B906846FFF7AAF900B1FEE735
:102300000CA90F2081E831004FF4A0500F904FF43A
:102310008050109005210CA8FFF79EF800B1FEE751
:10232000FFF746F94FF47A71B0FBF1F0FFF76EFB5F
:102330000420FFF75FFB00221146501EFFF748F80C
:1023400013B030BD403802400070004014480068AF
:1023500040F47000124908601248006840F0010023
:102360001049086000200F49083108600D480068D6
:102370000D4908400B4908600C48091D0860081FFA
:10238000006820F48020091F0860002005490C31F6
:1023900008604FF000600249803908607047000013
:1023A00088ED00E000380240FFFFF6FE1030002408
:1023B00010B50248FFF79AFB10BD00005001002045
:1023C000F0B402682A4B2B4C2B4D2C4EDFF8B0C0DA
:1023D000984218BFB0F1804F07D0A04218BFA84262
:1023E00003D0B04218BF604504D14F6822F070029C
:1023F00047EA0202984218BFB0F1804F25D0A042B0
:1024000018BFA84221D0B04218BF60451DD0A0F12E
:102410008044B4F5A0341CBFA0F18044B4F5A234CC
:1024200013D0A0F18044B4F5A4341CBFA0F18044C3
:10243000B4F5C05409D0A0F18044B4F5E0541CBFF9
:10244000A0F18044B4F5005403D1CC6822F440726A
:10245000224302608A68C2620A688262984212BF9E
:102460006045096901634FF001014161F0BC7047AB
:10247000000001400004004000080040000C004043
:1024800000040140FEE703B401984100009850EABF
:10249000C12018BF04204A0D18BF40F0010040F2CF
:1024A000FF72B2EB515F08BF40F00200012808BF85
:1024B000052002B07047000070B59B482DED020B5F
:1024C0002DED068B079D25F00044A04218DC9748AF
:1024D000844202DC0AD1069840B19DED060BBDECAA
:1024E000068B02B0BDE8704001F046B9002DCCBFAC
:1024F0009FED8F0B9FED900BBDEC068B02B070BD76
:102500008F48A04215DD8F48A042D8BF4FF0FF345E
:1025100058DD9DED060B51EC100BFFF7B4FF0428BE
:1025200008BF01F05DF99DED060BBDEC068B02B016
:1025300070BD9DED060B51EC100B01F03FFBCDE99A
:10254000060181489FED828BA0423CDD8248A0427B
:102550001FDD00249FED82AB9DED060B53EC1A2B83
:1025600051EC100BFDF76FFE9DED060B41EC190BC6
:1025700053EC1A2B51EC100BFDF70CFF53EC182BFE
:10258000FDF702FF53EC192BFDF776FFCDE90601AD
:1025900049E09DED060B012453EC182B51EC100B78
:1025A000FDF751FE9DED060B41EC190B53EC182B7A
:1025B00051EC100BFDF7E8FE53EC192BFDF75CFF17
:1025C000CDE906012FE06848A0421FDD02249FEDFF
:1025D000689B9DED060B53EC192B51EC100BFDF78E
:1025E000D9FE53EC182BFDF72EFE9DED060B41ECAA
:1025F000180B53EC192B51EC100BFDF7C5FE53ECE7
:10260000182BFDF739FFCDE906010CE09DED060B17
:10261000032453EC102B9FED580B51EC100BFDF7DE
:102620002BFFCDE906019DED060B53EC102B51EC71
:10263000100BFDF7AFFE41EC180B53EC182BFDF718
:10264000A9FE41EC190B4E480621B0EE490AF0EE06
:10265000690A784400F0F9FF53EC182B51EC100B89
:10266000FDF798FE41EC180B4648B0EE490AF0EE33
:10267000690A0521784400F0E8FF53EC192B51EC6E
:10268000100BFDF787FE41EC100B51EC180B53ECCF
:10269000102B002C0EDAFDF7D6FD9DED061B53EC3A
:1026A000112BFDF777FE9DED061B53EC112BFDF76B
:1026B0006EFE35E0FDF7C7FD9DED061B53EC112BBB
:1026C000FDF768FE41EC100B2F48784400EBC40086
:1026D00090ED001B51EC100B53EC112BFDF754FE49
:1026E0009DED061B53EC112BFDF74EFE41EC100B3C
:1026F0002648784400EBC40090ED001B51EC100B11
:1027000053EC112BFDF743FE41EC100B002DA2BF43
:10271000BDEC068B02B070BD51EC100B81F0004196
:1027200041EC100B01E70000000010440000F07FB6
:10273000182D4454FB21F93F182D4454FB21F9BFB7
:102740000000DC3F0000203E0000F33F00000000DE
:10275000000000000000F03F0000E63F0000000025
:102760000000000000000040008003400000000066
:10277000000000000000F83F000000000000F0BF73
:10278000E22000009820000022200000DA1F000054
:1027900070B56B4E2DED040B2DED028B82B0DDF884
:1027A0001CC0DDE905235C422CF000411C4341EADA
:1027B000D474049D22F00040B44205D86C422C43EE
:1027C00040EAD474B4420BD99DED061B9DED040B79
:1027D00002B0BDEC028B04B0BDE8704000F0D6BF83
:1027E000ACF14054A4F17F641C430BD0022404EAF2
:1027F000AC7444EAD27405439FED538B9FED542B88
:1028000007D015E09DED040B51EC100B01F09CF886
:1028100042E0002C11BF012C9DED040B02B0BDEC79
:10282000028B04BF04B070BD022C38D0032C3BD007
:102830000B439FED491B9FED4A0B0AD0B14218D1C3
:10284000B04209D121F0804120F0804007910590ED
:102850000FE0002A15DA10E0434B7B44002C08BF40
:1028600093ED000B0DD0012C10D0022C17D0032CAF
:102870001AD0B0421DD1002A03DAB0EE410AF0EEC0
:10288000610A02B0BDEC028B04B070BD93ED000B89
:1028900051EC100B81F0004141EC100BF1E7B0EE70
:1028A000480AF0EE680AECE7B0EE420AF0EE620A7F
:1028B000E7E7401A00153C28C8BF8DED000B19DC76
:1028C000BCF1000FBEBF10F13C0F9FED290B8DED49
:1028D000000B0FDB9DED060B53EC102B9DED040B55
:1028E00051EC100BFDF7C8FD01F068F901F02CF870
:1028F000CDE90001002C08BF9DED000BC1D0012CDB
:1029000010D0022C9FED1C0B53EC102B9DED000BF7
:1029100051EC100B0DD0FDF737FD53EC182BFDF7E4
:1029200033FDB9E7019880F0004001909DED000B68
:10293000A7E7FDF729FD53EC182BFDF728FDABE7C2
:102940000000F07F00000000182D4454FB210940D6
:10295000182D4454FB2109C0182D4454FB21F9BF04
:10296000182D4454FB21F93F0A1F0000000000000D
:102970000000000000000000075C143326A6A13C04
:102980002DE9F04D2DED040B2DED0E8B96B0DDE90C
:102990002550279CDDF890A025F0004624F0004843
:1029A000BAF1000F14BF0121002101EB4502FC49DF
:1029B00053184A1093422AD3002814BF012300233E
:1029C00003EB44030B44F7498B4220D358EA000140
:1029D0009FEDF59B76D0DFF8D8B35D4503D1BAF112
:1029E000000F05D188E0BAF1000F08BF002100D028
:1029F000012101EB450111F5001F08D8002814BF83
:102A00000121002101EB440111F5001F0BD99DEDBF
:102A1000261B9DED240B16B0BDEC0E8B04B0BDE85B
:102A2000F04D00F0B3BE0027002DBCBFE149884542
:102A300021DAE1498845A8BF02271CDAC3451ADC20
:102A4000DE4901EB2851142908DDC1F1340220FAD6
:102A500002F101FA02F282420DD108E058B9C1F147
:102A6000140228FA02F101FA02F2424503D101F000
:102A70000101C1F1020756EA0A0124D1002C22DA31
:102A8000002D18BF022F01D0012F0AD0022000F024
:102A9000C7FE16B0BDEC0E8B04B0BDE8F04D00F0E3
:102AA00053BE022000F0BCFE00F04EFE51EC100BB5
:102AB00081F0004141EC100B16B0BDEC0E8B04B060
:102AC000BDE8F08D18E09FEDBEAB9FEDBF8B0028F9
:102AD00071D1B848804522D105F1804010F58010B1
:102AE00008BFBAF1000F07D0B3450ADC002CA8BF1D
:102AF0009DED260BE0DA0DE0B0EE490AF0EE690A32
:102B0000DAE7002C06DA9DED260B51EC100B81F074
:102B100000416FE0AE48784490ED000BCCE7D8451B
:102B20004DD1002C48DA2EB186423AD1BAF1000FCD
:102B300042D126E0BAF1000F13D0022000F070FE5F
:102B400000F03EFE8DED020B9DED240B8DED000B94
:102B500010EE900A039961F31E0003909DED020BA5
:102B6000AAE78DED02AB9DED240B1AEE901A10EE44
:102B7000900A8DED000B61F31E0003909DED020B9A
:102B80009AE78DED028B9DED240B18EE901A10EE56
:102B9000900A8DED000B61F31E0003909DED020B7A
:102BA0008AE709DA9DED240B51EC190B53EC102B3D
:102BB000FDF762FC1EE020E09DED240B7CE78642E1
:102BC0001BDAB4F1804F0DD0A4F10050B0F1FF50EA
:102BD00013D1002D11DB9DED240B51EC100B01F0F6
:102BE0009BFC07E09DED240B53EC102B51EC100BDC
:102BF00000F0C2BC41EC100B5EE79DED240B51ECE4
:102C0000100B00F0DBFFBAF1000FCDE90E0142D14D
:102C10009FED710B46B3A6F1E040B0F17F600CD0A0
:102C20005E4538D1002D00DAA7B3022F0CBF01207A
:102C30004FF0FF30FDF71BFEDCE7002D01DD002C1F
:102C40000DDA002D01DD002C1FDB002D16DA002C23
:102C500014DB012F08BF9FED620B3FF42DAFB0EEE8
:102C60004A0AF0EE6A0A27E7022F18BF002D0CD09F
:102C7000012F0AD1002DFFF61FAF06E0002DB8BFCF
:102C8000002C08DA012F3FF417AFB0EE480AF0EE3F
:102C9000680A11E71BE0012000EBE57050EA07012C
:102CA00015D0791EB0EE498AF0EE698A084308BF54
:102CB0009FED4D8B4E480025804570DD4D494E48B7
:102CC000884514DDB0420DDB002C19DB2FE001201C
:102CD00000F0A6FD16B0BDEC0E8B04B0BDE8F04DC3
:102CE00000F05EBDB34502DC002C09DC1FE086422B
:102CF00002DA002C1BDA03E05E452BDD002C16DD2A
:102D0000022000F08DFD00F05BFD8DED020B53EC19
:102D10001A2B51EC180BFDF73DFBCDE9000103998F
:102D2000019861F31E0003909DED020BC4E60220A2
:102D300000F076FD00F054FD10EE901A18EE900AA7
:102D40008DED020B8DED008B61F31E0003909DED68
:102D5000020BB1E69DED0E0B53EC192B51EC100B51
:102D6000FDF712FB9FED260BCDE9080153EC102B6C
:102D70009DED080B51EC100BFDF70CFB9FED221B9A
:102D800053EC112BFDF703FB9DED081B53EC112BAE
:102D9000FDF700FB9FED1E1B53EC112B3CE08CE07C
:102DA000FFFF1F00FFFF0F00000000000000F03FCA
:102DB0000000F03F0000F07F0000404301FCFFFFF7
:102DC000000000000000F07F000000000000000094
:102DD0004E1C000000000000000000000000008009
:102DE000000000000000F0FF000000000000F0BF45
:102DF0000000E0410000F043FFFFEF3F0000000053
:102E0000000000000000D03F555555555555D53FA1
:102E1000000000000000E03FFDF7B9FA9DED080B4F
:102E200041EC1A0B53EC102B51EC100BFDF7B2FADE
:102E300053EC1A2BFDF7AEFA41EC1A0B9FEDFE0B8B
:102E400053EC102B9DED080B51EC100BFDF7A2FA83
:102E500041EC1B0B9FEDFA0B51EC1A0B53EC102BB2
:102E6000FDF798FA41EC1A0B9FEDF70B53EC102B82
:102E70009DED080B51EC100BFDF78CFA53EC1A2B5F
:102E8000FDF782FA41EC1A0B51EC1B0B53EC1A2B99
:102E9000FDF7D9F90690CDE906519DED060B53ECEF
:102EA0001B2B51EC100BFDF76FFA53EC1A2BFDF7AF
:102EB0006EFA41EC100B00F0A1B90020B6F5801FAE
:102EC0000EDA9FEDE30B53EC102B9DED0E0B51EC46
:102ED000100BFDF75FFACDE90E016FF034000E46DE
:102EE00000EB2650A0F2FF37C6F31300DA4940F09A
:102EF0007F6646F040568842D8BF002408DDD74997
:102F00008142C8BF012403DC0024A6F580167F1C83
:102F1000D348784400EBC4000F9690ED00CB9DEDB4
:102F20000E0B53EC1C2B51EC100BFDF72DFA9DED05
:102F30000E0B41EC1B0B53EC1C2B51EC100BFDF753
:102F400082F941EC100B51EC190B53EC102BFDF7EF
:102F500093FA41EC1D0B51EC1B0B53EC1D2BFDF7B1
:102F600019FA41EC1A0BBF488DED10AB784410955F
:102F700090ED000B4FF0005040EA660000EB8440FB
:102F80008DED080B00F5002009909DED080B53EC2A
:102F90001C2B51EC100BFDF7F7F99DED0E1B53ECBC
:102FA000112BFDF7F4F941EC100B53EC102B9DEDB8
:102FB000100B51EC100BFDF7EDF99DED080B41ECFA
:102FC0001C0B53EC102B9DED100B51EC100BFDF76F
:102FD000E1F953EC1B2BFDF7DAF953EC1C2BFDF751
:102FE000D3F953EC1D2BFDF7D5F941EC1C0B53EC39
:102FF0001A2B51EC1A0BFDF7CDF941EC1B0B9A483B
:103000000621B0EE4B0AF0EE6B0A784400F01DFB8F
:10301000B0EE401AF0EE601AB0EE41DAF0EE61DA8E
:1030200053EC1B2B51EC1B0BFDF7B4F953EC1D2B90
:10303000FDF7B0F99DED100B41EC1B0B53EC1A2B77
:1030400051EC100BFDF7FFF853EC1C2BFDF7A2F928
:1030500053EC1B2BFDF7F7F89DED100B41EC1B0B10
:1030600053EC102B51EC100BFDF794F941EC1D0BB8
:103070009FED7FEB53EC1E2BFDF7E5F853EC1B2B7C
:10308000FDF7E1F80890CDE908519DED080B53ECF0
:103090001E2B51EC100BFDF777F953EC1D2BFDF7B0
:1030A00073F953EC1B2BFDF772F99DED080B41EC06
:1030B0001D0B53EC102B9DED100B51EC100BFDF77D
:1030C00069F941EC1B0B53EC1A2B51EC1D0BFDF76E
:1030D00061F99DED080B41EC1A0B53EC102B51ECF0
:1030E0001C0BFDF757F953EC1A2BFDF7ACF841EC2C
:1030F0001A0B51EC1B0B53EC1A2BFDF7A4F80C9098
:10310000CDE90C519DED0C0B53EC1B2B51EC100B2E
:10311000FDF73AF953EC1A2BFDF739F941EC1B0B8B
:103120009FED550B53EC102B9DED0C0B51EC100B40
:10313000FDF730F941EC1A0B9FED510B51EC1B0BD5
:1031400053EC102BFDF726F941EC1B0B9FED4E0BBA
:1031500053EC102B9DED0C0B51EC100BFDF71AF9F5
:1031600053EC1B2BFDF76FF841EC100B48487844EB
:1031700000EBC40090ED001B51EC100B53EC112B35
:10318000FDF761F841EC1B0B3846FDF770FBCDE90C
:10319000080153EC1B2B51EC1A0BFDF754F841ECD2
:1031A000100B3C48784400EBC40090ED00CB51EC90
:1031B000100B53EC1C2BFDF746F89DED081B53EC50
:1031C000112BFDF740F80690CDE906519DED080B57
:1031D00053EC102B9DED060B51EC100BFDF7D4F8C2
:1031E00053EC1C2BFDF7D0F853EC1A2BFDF7CCF861
:1031F00053EC1B2BFDF7CBF841EC100B9DED261B80
:1032000053EC102B8DED001B00959DED260B51EC22
:10321000100BFDF7BFF89DED000B41EC1A0B53ECC2
:10322000102B9DED260B51EC100BFDF7ADF89DED2D
:10323000061B53EC112B2FE0000000604715F73FF1
:10324000FE822B654715F73F44DF5DF80BAE543E19
:1032500000000000000040438E9803007AB60B0087
:1032600032170000F81700006A1600000000000086
:103270000000000000000840000000E009C7EE3F29
:10328000FD033ADC09C7EE3FF5015B14E02F3EBEBB
:10329000F6140000B0140000FDF77CF853EC1A2B74
:1032A000FCF7D1FF9DED060B41EC1A0B53EC102BF4
:1032B0009DED000B51EC100BFDF76CF8CDE90C0106
:1032C0009DED0C0B51EC1A0B53EC102BFCF7BBFFD4
:1032D000CDE902010C46AA498C422FDB611A084352
:1032E00018D19DED0C0B53EC102B9DED020B51EC06
:1032F000100BFDF749F841EC1B0B9FEDA30B51ECB4
:103300001A0B53EC102BFCF79EFF53EC1B2BFDF715
:103310004DF92DD2022000F083FA00F051FA10EEA0
:10332000901A18EE900A8DED020B8DED008B61F373
:103330001E0003909DED020BFFF7BEBB944A24F0E4
:103340000041914214D39349214408437FF4EFACE8
:103350009DED0C0B53EC102B9DED020B51EC100B63
:10336000FDF712F853EC1A2BFDF720F97FF6DFACCE
:1033700024F000408849894A002601EB205182420E
:103380002BDA481C4FF4801121FA00F02044844AC3
:10339000C0F30A517A44A1F2FF3192ED000B814A49
:1033A0008DED080BCA4020EA0202C0F3130040F47E
:1033B0008010C1F1140120FA01F60992002CB8BF67
:1033C00076429DED080B53EC102B9DED0C0B51EC50
:1033D000100BFCF7D9FFCDE90C019DED0C0B51EC66
:1033E0001A0B53EC102BFCF72EFF9FED6F0B089080
:1033F000CDE9085153EC102B9DED080B51EC100B4F
:10340000FCF7C8FF41EC1B0B9FED690B53EC102B35
:103410009DED080B51EC100BFCF7BCFF9DED0C0B68
:1034200041EC1C0B53EC102B9DED080B51EC100BD9
:10343000FCF7AAFF53EC1A2BFCF7A9FF9FED5E1BCC
:1034400053EC112BFCF7A6FF53EC1C2BFCF7FBFEF7
:1034500041EC1A0B51EC1B0B53EC1A2BFCF7F3FE4F
:10346000CDE902019DED020B53EC1B2B51EC100B2F
:10347000FCF78AFF53EC1A2BFCF789FF9DED020B3A
:1034800041EC1A0B53EC102B51EC100BFCF782FFA4
:10349000CDE908014A489DED080B0521784400F06C
:1034A000D4F89DED081B51EC100B53EC112BFCF7DD
:1034B00071FF9DED021B53EC112BFCF768FFCDE96A
:1034C00006019DED020B53EC1A2B51EC100BFCF78F
:1034D00061FF53EC1A2BFCF7B6FE9FED3B0B41EC62
:1034E0001A0B53EC102B9DED060B51EC100BFCF757
:1034F0004BFF9DED060B41EC1B0B53EC102B9DED90
:10350000020B51EC100BFCF745FF53EC1B2BFCF7A7
:10351000B3FF53EC1A2BFCF737FF9DED021B53EC66
:10352000112BFCF731FF53EC192BFCF730FFCDE9E1
:10353000020101EB065001150029C8BF039015DCFC
:103540009DED020B324651EC100BFDF728F9FEF70A
:103550009AFF042808BF00F043F932469DED020BA4
:1035600051EC100BFDF71BF9CDE902019DED020BAB
:1035700051EC180B53EC102BFCF70CFFFFF73ABB88
:103580000000904000000000FE822B654715973C2C
:1035900000CC904000346F3F01FCFFFF0000E03F93
:1035A000D0130000FFFF0F0000000000432EE63F95
:1035B000396CA80C615C20BEEF39FAFE422EE63F62
:1035C00008120000000000000000000000000040A1
:1035D00000B52DED048BB0EE409AF0EE609A83B00A
:1035E00051EC190BFDF7F2F841EC180B18EE100A2C
:1035F00018EE901A8DED008B002818BF01200843AB
:1036000020F00040C0F17F6000F1E040C00F14D016
:1036100019EE101A19EE900A8DED009B002918BFC3
:103620000121084320F00040C0F17F6000F1E0403C
:10363000C00F04BF012000F0F3F8B0EE480A03B059
:10364000F0EE680ABDEC048B00BD70B504462DEDAC
:10365000028B4D1E00EBC500B0EE408AF0EE608A92
:1036600090ED000B35F0060017D053EC182B51EC01
:10367000100BFCF78FFE41EC100B6D1E04EBC50028
:1036800090ED001B51EC100B53EC112BFCF7DBFD04
:1036900041EC100B35F00600E7D1022D36D0042D99
:1036A0001CD0062D1CBFBDEC028B70BD53EC182B3B
:1036B00051EC100BFCF76EFE94ED0A1B53EC112B32
:1036C000FCF7C1FD53EC182BFCF764FE94ED081BCE
:1036D00053EC112BFCF7B7FD41EC100B53EC182BFE
:1036E00051EC100BFCF756FE94ED061B53EC112B1E
:1036F000FCF7A9FD53EC182BFCF74CFE94ED040BE2
:1037000053EC102BFCF79FFD41EC100B53EC182BE6
:1037100051EC100BFCF73EFE94ED021B53EC112B09
:10372000FCF791FD53EC182BFCF734FE94ED001BD5
:1037300053EC112BFCF787FDBDEC028B41EC100B19
:1037400070BD0000000000009FED070B10B553ECAA
:10375000102B9FED070B51EC100BFCF78DFE41EC8D
:10376000100B10BD00000000000000000000000071
:10377000000000000000F03F10B553EC102B51EC9E
:10378000100BFCF760FD41EC100B10BD10B553ECB5
:10379000112B51EC100BFCF756FD41EC100B10BD3A
:1037A0009FED050B10B553EC102B51EC100BFCF7F3
:1037B00063FE41EC100B10BD000000000000000093
:1037C0009FED050B10B553EC102B51EC100BFCF7D3
:1037D000E1FD41EC100B10BD000000000000007086
:1037E0009FED050B10B553EC102B51EC100BFCF7B3
:1037F000D1FD41EC100B10BD0000000000000010D6
:1038000002E008C8121F08C1002AFAD170477047A9
:10381000002001E001C1121F002AFBD17047000007
:1038200001490860704700001800002010B52DED18
:10383000108BB0EE408AF0EE608AB0EE41FA1FEED7
:10384000100AFCF788FE41EC1D0B9FED371BB0EE14
:103850004D0AF0EE6D0AFFF793F8B0EE40BAF0EEC5
:1038600060BA18EE900AFCF776FE41EC1D0B9FED56
:103870002E1BB0EE4D0AF0EE6D0AFFF781F8B0EEA8
:1038800040CAF0EE60CA53EC1B2B51EC1C0BFCF74A
:10389000DAFC41EC1A0BB0EE4A0AF0EE6A0AFFF7C6
:1038A00097FEB0EE409AF0EE609A51EC190BFCF7DF
:1038B00095FE04462046FCF74EFE41EC1D0B18EE2B
:1038C000100AFCF748FE41EC1E0BB0EE4D1AF0EE6C
:1038D0006D1AB0EE4E0AF0EE6E0AFEF759FFB0EE2A
:1038E00040CAF0EE60CA9FED120B51EC1C0B53EC7A
:1038F000102BFCF74FFD9FED100B41EC1B0B53EC15
:10390000102BFCF7B9FD9FED0E0B41EC1A0B53EC9D
:10391000102BFCF739FD41EC190BFCF75FFEBDECF9
:10392000108B00EE100A10BD0000000000000040E7
:1039300000000000008066404189D316F14A09402A
:10394000000000000080564010B541EC100BFEF75F
:10395000B3FD51EC100B10BD2848D0ED000AF8EE75
:10396000E00AB4EEE00AF1EE10FA02DD40F6FF7074
:10397000704722480068404200EE900AF8EEE00AE4
:10398000B4EEE00AF1EE10FA01D20020F0E7F2EE18
:10399000040AB4EEE00AF1EE10FA09D2FAEE040AD3
:1039A000B4EEE00AF1EE10FA02DD40F2FF70DFE75C
:1039B0000021B5EEC00AF1EE10FA01DD0A2101E0A6
:1039C0006FF0090100EE901A0C48F8EEE00A00686A
:1039D0000A3830EE601A00EE900AF8EEE00AC1EE06
:1039E000201AF7EE000A9FED061A71EEA00A60EEAB
:1039F000810AFDEEE00A10EE900AB9E7000000200F
:103A000000E0FF44F0EE401A42F6FF7000EE900A2C
:103A10009FED1D0A10EE900A81EE802AB0EE080A92
:103A2000C11700EB9171891030EE422A00EE101A96
:103A3000B8EEC00A22EE000AB0EE401AB8EEE00A74
:103A4000B4EEC01AF1EE10FA02DBB8EEE00A7047ED
:103A500010EE900A00EBD071491000EE101AB8EE8B
:103A6000C00AB4EEC10AF1EE10FA09DB10EE900ABA
:103A700000EBD071491000EE101AB8EEC00AE6E76C
:103A8000B0EE410AE3E70000000020420EB500F06E
:103A90009DF98DED000ACDED010A8DED021A9DED27
:103AA000000ADDED010A9DED021A0EBD0FB410B53E
:103AB0002DED028B04A8FDF731F9642104A8FDF770
:103AC000CDF804A8FCF7D0FF00EE100AB8EE400ACB
:103AD000B0EE408A04A8FDF7A9F9B0EE480ABDECA3
:103AE000028B10BC5DF814FB0FB410B52DED068BE6
:103AF000A0B0342228A90EA8FCF793FB35981B90A0
:103B000036983799CDE91C0138981E9039981F9046
:103B1000382212A96846FCF784FB0EA80FC8FFF7ED
:103B2000C5FF10EE104A2046FCF715FD9FED0D0B6A
:103B300041EC1A0B53EC102BFCF72CFC9FED0B0BFC
:103B400041EC190B53EC102BFCF796FC41EC180BD5
:103B5000FCF744FD20B000EE100ABDEC068B10BC53
:103B60005DF814FB6666666666660A400000000043
:103B70000000B04010B506480068C068012806D1B2
:103B800004480068022802D10148FDF799FF10BDE2
:103B9000500100200400002010B506480068C068ED
:103BA00030B905480068012802D10248FDF77CFFC2
:103BB00010BD0000500100200400002082B0CDE9BB
:103BC000000121F0004001909DED000B02B051EC8E
:103BD000100B704710B52DED028BA0B060E000F027
:103BE00075F98DED1D0ACDED1E0A8DED1F1A9DEDA7
:103BF0001E0A10EE101A0846FCF7ADFC9FED2C0BC8
:103C000041EC180B53EC102BFCF7D0FC02D22A49E4
:103C100001200860342229490EA8FCF702FB27483E
:103C2000406B1B902549886BC96BCDE91C0123486B
:103C3000006C1E902148406C1F90382212A96846E3
:103C4000FCF7EFFA0EA80FC8FFF730FFBDEEC00A71
:103C500010EE104A204600F0A7FC342218490EA8A6
:103C6000FCF7DFFA1648406B1B901549886BC96B4F
:103C7000CDE91C011248006C1E901148406C1F9049
:103C8000382212A96846FCF7CCFA0EA80FC8FFF735
:103C90000DFFBDEEC00A10EE104A204600F0D8FB22
:103CA0000548006802289AD020B0BDEC028B10BDF8
:103CB0009A9999999999E93F040000201C000020E5
:103CC0006400002086B0FDF707FBFEF7EFFAFEF771
:103CD00035FAFEF7BDF9FEF7E5F9FEF70DFAFEF746
:103CE00063FAFEF77DFAFEF7A9FA00F049F9002021
:103CF000039004900590009001900290FFF7C6FE9B
:103D00000F4880ED000AC0ED010A80ED021A16E0AE
:103D10000C480068022807D100F080FC022000F067
:103D2000D3FBFFF757FF0AE006480068012806D1D9
:103D300000F074FC032000F0C7FB00F03DFBE7E758
:103D40008C0100200400002010B53B2000F026FA72
:103D5000000204B23C2000F021FA204304B200EE3D
:103D6000104A9FED031AF8EEC00A80EE810A10BDDA
:103D70000000004710B53D2000F010FA000204B228
:103D80003E2000F00BFA204304B200EE104A9FEDF3
:103D9000031AF8EEC00A80EE810A10BD0000004749
:103DA00010B53F2000F0FAF9000204B2402000F004
:103DB000F5F9204304B200EE104A9FED031AF8EE25
:103DC000C00A80EE810A10BD0000004700B52DED4D
:103DD000048B83B0FFF7B8FFB0EE408AFFF7CAFF4D
:103DE000F0EE408AFFF7DCFFB0EE409A0020009032
:103DF00001900290B0EE491AF0EE680AB0EE480A5F
:103E0000FFF714FD8DED000AB0EE481AF0EE490AF6
:103E1000B0EE680AFFF70AFD8DED010AB0EE681AF0
:103E2000F0EE480AB0EE490AFFF700FD8DED020AF8
:103E30009DED000ADDED010A9DED021A03B0BDEC17
:103E4000048B00BD00B587B000200490059006905B
:103E5000FFF7BCFF8DED010ACDED020A1A488DED8A
:103E6000031A9DED010AD0ED000A30EE600A8DEDD7
:103E7000040AFFF7ABFF8DED010ACDED020A1248EF
:103E80008DED031A9DED020AD0ED010A30EE600AB5
:103E90008DED050AFFF79AFF8DED010ACDED020ABF
:103EA00009488DED031A9DED030AD0ED020A30EEAC
:103EB000600A8DED060A9DED040ADDED050A9DED13
:103EC000061A07B000BD00008C0100200EB50020CE
:103ED00000900190029000F011F88DED000A00F0C2
:103EE00023F88DED010A00F035F88DED020A9DED05
:103EF000000ADDED010A9DED021A0EBD10B543204A
:103F000000F04CF9000204B2442000F047F92043CD
:103F100004B200EE104A9FED031AF8EEC00A80EEDC
:103F2000810A10BD0000004710B5452000F036F9A9
:103F3000000204B2462000F031F9204304B200EE42
:103F4000104A9FED031AF8EEC00A80EE810A10BDF8
:103F50000000004710B5472000F020F9000204B22D
:103F6000482000F01BF9204304B200EE104A9FEDF8
:103F7000031AF8EEC00A80EE810A10BD0000004767
:103F800085480068844940F00100086008460068E0
:103F900040F48070086000BF7F481430006800F073
:103FA00001000028F8D07C48143000687A49D020FD
:103FB0001031086000BF78481430006800F002003B
:103FC0000028F8D07448143000687348183000682E
:103FD00071496B201031086000BF6F4814300068D1
:103FE00000F004000028F8D06B4900201031086070
:103FF00000BF69481430006800F004000028F8D0C1
:1040000065480068644940F400700860084600682C
:1040100040F48070086000BF5F481430006800F012
:1040200001000028F8D05C48143000685A49D020BC
:104030001031086000BF58481430006800F00200DA
:104040000028F8D0544814300068534818300068ED
:10405000514938201031086000BF4F4814300068C3
:1040600000F004000028F8D04B490120103108600E
:1040700000BF49481430006800F004000028F8D060
:1040800045480068444940F40070086008460068EC
:1040900040F48070086000BF3F481430006800F0B2
:1040A00001000028F8D03C48143000683A49D0207C
:1040B0001031086000BF38481430006800F002007A
:1040C0000028F8D0344814300068334818300068AD
:1040D00031491A201031086000BF2F4814300068A1
:1040E00000F004000028F8D02B49042010310860AB
:1040F00000BF29481430006800F004000028F8D000
:1041000025480068244940F40070086008460068AB
:1041100040F48070086000BF1F481430006800F051
:1041200001000028F8D01C48143000681A49D0203B
:104130001031086000BF18481430006800F0020019
:104140000028F8D01448143000681348183000686C
:10415000114919201031086000BF0F481430006861
:1041600000F004000028F8D00B490020103108604E
:1041700000BF09481430006800F004000028F8D09F
:1041800005480068044940F400700860002000E021
:10419000401CFF28FCDB70470054004008B5014676
:1041A000514A0C20106010144F4A083210604E4AD9
:1041B0003C201C3210600D20121D10604A4A012064
:1041C00010601046006840F48070106000BF4648E0
:1041D0001430006800F001000028F8D04248143084
:1041E0000068414AD0201032106000BF3E481430B1
:1041F000006800F002000028F8D03B481430006846
:1042000039481830006838481030016000BF36481F
:104210001430006800F004000028F8D0324800682C
:10422000314A40F48070106000BF2F48143000689D
:1042300000F001000028F8D02B48143000682A4A0A
:10424000D1201032106000BF27481430006800F001
:1042500002000028F8D024481430006822481830A2
:10426000006800BF20481430006800F040000028BB
:10427000F8D01D481030006800901B4800681A4AAA
:1042800040F48060106018481430006816481830F8
:1042900000681046006840F4007010601248143046
:1042A00000681148183000680F481030006800900E
:1042B0001046006840F40070106000BF0A481430D7
:1042C000006800F010000028F8D100BF0648183040
:1042D000006800B1FAE704480068034A40F400406F
:1042E0001060009808BD00000054004000B52DED9E
:1042F000048B83B000F048F94DE0FFF7A3FD8DED8E
:10430000000ACDED010A8DED021A9DED000AB0EE16
:10431000408AB0EE480AFFF775FBF0EE402A00F045
:10432000E9F8B3EE0E0AB4EEC08AF1EE10FA03DD3E
:104330001D49142008600DE0BBEE0E0AB4EEC08AE1
:10434000F1EE10FA03DD18491E20086002E016495C
:1043500028200860FFF7BAFD8DED000ACDED010AB7
:104360008DED021A9DED010A10EE101A0846FCF7B9
:10437000F2F89FED0E0B41EC190B53EC102BFCF7F0
:1043800015F907D200F008F9052000F09DF8094959
:104390000120086000BF074800680328ADD003B0C3
:1043A000BDEC048B00BD0000000000209A99999993
:1043B0009999E93F0400002000B52DED028B87B0EC
:1043C00038E0FFF783FD8DED010ACDED020A8DED9A
:1043D000031A9DED020A10EE101A0846FCF7BBF80E
:1043E0009FED180B41EC180B53EC102BFCF7DEF88B
:1043F00009D200F013F9042000F066F813490320F5
:104400000860FFF773FFFFF71DFD8DED040ACDED8A
:10441000050A8DED061ADDED040AB0EE600A00F023
:10442000CFF8DDED060AB0EE600A00F01FF8FFF7E6
:10443000B3FB00BF054800680128C2D007B0BDEC3F
:10444000028B00BD9A9999999999E93F040000203F
:1044500005490860044910390968034A41F002011E
:10446000103A1160704700001474004000B5B0EEBF
:10447000402AB0EE420AFFF76FFA03461846FFF7EC
:10448000E7FF00BD00B5A1B034220E490FA8FBF72D
:10449000C8FE0C48406B1C900A49886BC96BCDE97B
:1044A0001D010848006C1F900648406C209038227F
:1044B00013A96846FBF7B5FE0FA80FC8FFF714FB5A
:1044C00021B000BD6400002070B5044600250CE05A
:1044D00000F05AF89FED060A00F00CF800F09EF884
:1044E00000F05AF800F09AF86D1CA542F0DB70BDA0
:1044F00000E0BF44FCEEC00A064910EE900AC86214
:10450000F0EE000A80EE201AFCEEC10A10EE900ACE
:10451000486370470000014000B52DED048B83B067
:1045200041EC190BFCF752F941EC180B18EE100A8C
:1045300018EE901A8DED008B002818BF012008435B
:1045400020F00040C0F17F6000F1E040C00F14D0C7
:1045500019EE101A19EE900A8DED009B002918BF74
:104560000121084320F00040C0F17F6000F1E040ED
:10457000C00F04BF0120FFF753F951EC180B03B033
:10458000BDEC048B00BD000010B500210148FDF713
:104590009EFC10BD1401002010B500210148FDF75C
:1045A000B6FC10BD1401002004490860091F096809
:1045B000024A41F00101121F116070470874004067
:1045C00000B5B0EE402AB0EE420AFFF7C5F9034647
:1045D0001846FFF7E9FF00BD00B5A1B034220E492F
:1045E0000FA8FBF71EFE0C48406B1C900A49886B15
:1045F000C96BCDE91D010848006C1F900648406C4E
:104600002090382213A96846FBF70BFE0FA80FC8AD
:10461000FFF76AFA21B000BD1C000020002000E076
:10462000401CB0F5961FFBDB704700000000000047
:10463000000001020304060708090000000001024F
:104640000304000000000000000000000000F03F34
:10465000000000000000F83F000000000000000023
:104660000000004003B8E23F00000000000000002E
:1046700006D0CF43EBFD4C3E033333333333E33FBC
:10468000FFAB6FDBB66DDB3F4D268F515555D53FE8
:1046900001411DA96074D13F65DBC9934A86CD3FB6
:1046A000EF4E454A287ECA3F3E5555555555C53FA4
:1046B00093BDBE166CC166BF2CDE25AF6A56113F96
:1046C000F16BD2C541BDBBBED0A4BE726937663E98
:1046D0004FBB610567ACDD3F182D4454FB21E93F1A
:1046E0009BF681D20B73EF3F182D4454FB21F93F09
:1046F000E2652F227F2B7A3C075C143326A6813C8F
:10470000BDCBF07A8807703C075C143326A6913C39
:10471000C4EB98999999C9BF711623FEC671BCBFA5
:104720006D9A74AFF2B0B3BF9AFDDE522DDEADBF0D
:104730002F6C6A2C44B4A2BF0D5555555555D53F25
:10474000FF8300922449C23F6E204CC5CD45B73F40
:10475000513DD0A0660DB13FEB0D76244B7BA93FB8
:1047600011DA22E33AAD903F0000000000000000A3
:1047700090470008000000201C00000000380008DE
:10478000AC4700081C0000207C0500001038000821
:104790001E000000010000000100000010000000E9
:0C47A000000000000024F40000000000F5
:040000050800018965
:00000001FF
