:020000040800F2
:10000000600500209D010008431E00083F1E0008F7
:10001000411E00087D0800082120000800000000A3
:10002000000000000000000000000000471E000863
:100030007F08000800000000451E0008491E000857
:10004000B7010008B7010008B7010008B7010008B0
:10005000B7010008B7010008B7010008B7010008A0
:10006000B7010008B7010008B7010008B701000890
:10007000B7010008B7010008B7010008B701000880
:10008000B7010008B701000861080008B7010008BF
:10009000B7010008B7010008B7010008B701000860
:1000A000B7010008B7010008B7010008B701000850
:1000B000B7010008B7010008B7010008B701000840
:1000C000B7010008B7010008B7010008B701000830
:1000D000B7010008B7010008B7010008B701000820
:1000E000B7010008B7010008B7010008B701000810
:1000F000B7010008B7010008B7010008B701000800
:10010000B7010008B7010008B7010008B7010008EF
:10011000B7010008B7010008B7010008B7010008DF
:10012000B7010008B7010008B7010008B7010008CF
:10013000B7010008B7010008B7010008B7010008BF
:10014000B7010008B7010008B7010008B7010008AF
:10015000B7010008B7010008B7010008B70100089F
:10016000B7010008B7010008B7010008B70100088F
:10017000B7010008B7010008B7010008000000003F
:10018000B7010008B7010008DFF80CD000F056FBFB
:1001900000480047D9340008600500200648804721
:1001A00006480047FEE7FEE7FEE7FEE7FEE7FEE75C
:1001B000FEE7FEE7FEE7FEE7F91E000889010008FA
:1001C0002DE9F05F0546002092469B46884606468C
:1001D000814640241BE0284641464746224600F01F
:1001E000E6F953465A46C01A914110D311461846B3
:1001F000224600F0CDF92D1A67EB01084F46224642
:100200000120002100F0C4F917EB00094E41201E27
:10021000A4F10104DFDC484631462A464346BDE8E6
:10022000F09F2DE9FE4F804681EA0300C00F0C4687
:10023000009021F0004123F00045B8EB0200A941F5
:1002400005D24046214690461C460B46024623F006
:100250000040104347D0270DC7F30A00C3F30A51EB
:100260000290401A019040286BDAC3F3130040F467
:10027000801B0098924620B10023D2EB030A63EB67
:100280000B0B01985946C0F14002504600F080F92E
:1002900006460D4650465946019A00F098F910EB73
:1002A00008006141002487EA115284EAE7731A4387
:1002B00040D0009A62B3019A012A4FEA075215DC36
:1002C000001B61EB02014FF0004202EA0752CDE948
:1002D0000042001C41F5801132462B4600F0CFF958
:1002E00003B0BDE8F08F40462146F9E7001B61EB03
:1002F0000201001C41F5801300185B412018A2F593
:10030000001747EB030140EAD570B6196D4111E0C3
:100310006D084FEA360645EAC0754FEA0752001BE2
:1003200061EB0201001C41F5801149084FEA3000E1
:100330000019514132462B4603B0BDE8F04F00F0A2
:100340008FB90098012240000023D0EB020263EB3A
:10035000E073009821464FEAE074B8EB000061EBCF
:100360000401E9E783F000435BE781F0004158E7CF
:100370002DE9FE4F81EA030404F0004421F000411E
:1003800000944FF0000B23F0004350EA01045ED0CC
:1003900052EA03045BD0C3F30A54C1F30A552C4458
:1003A000A4F2F3340194A0FB0254C1F3130141F40D
:1003B0008011C3F3130343F4801301FB024400FBD9
:1003C000034E840A970A44EA815447EA8357A4FB00
:1003D000076802958D0A05FB07854FEA932C04FBFD
:1003E0000C542705029D4FEA065847EA1637B5EB2D
:1003F00008056EEB070C870E920E47EA811742EA5A
:100400008312A7FB0201B6EB0B0164EB00042B0D7A
:1004100043EA0C335E1844EB1C50DA465146E7FBC6
:100420000201C5F313044FEA0B3343EA14534FEAB6
:100430000432019C43EA0603A4F10C040294009CDC
:10044000CDE900B400F01BF903B0BDE8F08F002047
:100450000146F9E72DE9F04D81EA030404F0004B71
:1004600021F0004514464FF0000A23F0004150EA05
:10047000050220D054EA01021DD0C5F30A570246F6
:10048000C5F31303C1F31300C1F30A5640F48015FA
:1004900043F48013A7EB0608101BD64608F2FD387C
:1004A00073EB050002D308F1010801E092185B41EB
:1004B000B8F1000F03DA00200146BDE8F08D0020FE
:1004C0004FF48011064684460EE0171B73EB0507B8
:1004D00005D3121B63EB050306434CEA010C4908E4
:1004E0004FEA300092185B4150EA0107EDD152EA21
:1004F000030012D082EA040083EA0501084305D014
:10050000101BAB4106D20122002306E000224FF06F
:10051000004302E06FF0010253101AEB06004CEBAF
:10052000085110EB0A0041EB0B01BDE8F04D00F063
:1005300097B800F0004230F000400AD0C10D01F53C
:100540006071C0F3160042EA0151C208400711432E
:10055000704700200146704701F0004330B421F09D
:10056000004150EA010206D00A0DA2F56072C1F303
:100570001301002A02DC30BC00207047440F44EA1B
:10058000C104C100E01830BC00EBC25000F031B82B
:10059000202A04DB203A00FA02F100207047914043
:1005A000C2F1200320FA03F3194390407047202A38
:1005B00004DB203A21FA02F00021704721FA02F30D
:1005C000D040C2F120029140084319467047202ACA
:1005D00006DBCB17203A41FA02F043EAE07306E06B
:1005E00041FA02F3D040C2F120029140084319467B
:1005F00070470029A8BF7047401C490008BF20F081
:100600000100704710B4B0FA80FC00FA0CF050EA18
:10061000010404BF10BC704749B1CCF1200421FA99
:1006200004F411FA0CF118BF012121430843A3EB94
:100630000C01CB1D4FEA00614FEA102042BF0020A1
:1006400010BC704700EBC35010440029A4BF10BC7D
:100650007047401C490008BF20F0010010BC7047E3
:1006600010B5141E73F1000408DA401C41F10001BA
:1006700092185B411A4301D120F0010010BD2DE911
:10068000F04D92469B4611B1B1FA81F202E0B0FA08
:1006900080F220329046FFF77BFF04460F4640EA87
:1006A0000A0041EA0B0153465A46084313D011464B
:1006B00053EA010019D0C8F140025046FFF777FF16
:1006C00005460E46504659464246FFF761FF08432D
:1006D00005D0012004E020463946BDE8F08D002019
:1006E000054346EAE0762C4337430A986305E40A5B
:1006F000A0EB08000022FD0A44EA47540A3002D564
:1007000000200146E9E7010510196941DDE90845C6
:1007100000196941BDE8F04DA2E770B521F0004332
:1007200003430CD0C1F30A550024D5EB040564EB58
:100730000403D617AD1AB34102DB0020014670BD99
:10074000201841EB025170BD2DE9F04D00231A46EF
:100750001B1A8A4103DB00200146BDE8F08DC1F37E
:100760000A52C1F3130141F480154FF0000BD10779
:1007700002D100186D41521E0027044640F2FF11BD
:10078000384601EB620A3E468046024600204FF49E
:100790008011FFF70CFFC2197141BB1846EB010035
:1007A000B4EB030C75EB000C04D3E41A65EB000505
:1007B00017460E46241908F101006D418046342881
:1007C000E3DDF91946EB0600091BA84103D24FF0FF
:1007D000FF32134601E0002213461BEB070046EBF5
:1007E0000A51BDE8F04DFFF73BBF0EB5C10F80EADF
:1007F000E0700844CA07002140F233438DE80E0040
:100800000A460B46FFF73BFF03B000BD30B5041EA0
:1008100071F1000404DB4FF00044404264EB01013D
:10082000141E73F1000405DB1C464FF000435242D6
:1008300063EB0403994208BF904230BD064C074D5C
:1008400006E0E06840F0010394E8070098471034A0
:10085000AC42F6D3FFF79CFCB03E0008D03E000847
:1008600010B5044800F01EF9BDE81040024800F041
:1008700019B900002800002070000020FEE7704732
:10088000704790F83C20012A04BF022070470122E3
:1008900080F83C200A69012A026853680CBF43F0C3
:1008A000400323F0400353600268536823F400734D
:1008B00023F44003536002685368D1F800C043EA50
:1008C0000C03536003684A685A6203688A689A6234
:1008D0000268536823F01F035360026853688989D4
:1008E00089B219435160002180F83C1008467047D6
:1008F00030B482B04FF0000CCDF804C090F83C202A
:10090000012A01BF022002B030BC7047012280F8EA
:100910003C200A6807230468092A14D9E5680A3AC2
:1009200002EB420203FA02F225EA0202E2600B78CD
:100930008A680A3B03EB430302FA03F30268D468B4
:100940002343D36011E0256902EB420203FA02F26D
:1009500025EA020222610B788A6803EB430302FA5C
:1009600003F302681469234313614A681F23072AAB
:1009700016D20468656B521E02EB820203FA02F281
:1009800025EA020262630B790A885B1E92B203EBCE
:10099000830302FA03F30268546B234353632DE08D
:1009A00004680D2A15D2256BD21F02EB820203FACE
:1009B00002F225EA020222630B790A88DB1F92B257
:1009C00003EB830302FA03F30268146B23431363FC
:1009D00014E0E56A0D3A02EB820203FA02F225EA1C
:1009E0000202E2620B790A880D3B92B203EB8303A9
:1009F00002FA03F30268D46A2343D362254B0468E6
:100A0000234A9C4204BF0C68122C03D1546844F45E
:100A10008004546004689C422FD10B68102B18BFCF
:100A2000112B2AD1536843F400035360096810293D
:100A300023D11949194A0968B1FBF2F101EB81018F
:100A400049000191009118D0B1F1004F1BD200294B
:100A5000D8BF002105DD11F0010102D0019A521E1C
:100A60000192009A491C521C914206DA019B891C92
:100A70005B1E5B1E01939142F8DB80F83CC002B024
:100A8000002030BC70470199491E0191FCD1F4E768
:100A900000230140002001401400002040420F00CC
:100AA0007047704770B50446006801684268C1F33A
:100AB0004001C2F34012002918BF002A2DD0216C3A
:100AC00011F0100F03D1216C41F400712164816891
:100AD00011F0405F04BFA169002917D1C16A11F468
:100AE000700F1CBF816811F4806F0FD1416821F035
:100AF00020014160206C20F480702064206C10F490
:100B0000805F03D1206C40F0010020642046FFF795
:100B1000C7FF21686FF01200086020680168426812
:100B2000C1F38001C2F3C012002918BF002A34D0DB
:100B3000216C11F0100F03D1216C41F4005121649C
:100B4000816811F4401F21D1816B11F4401F1CBF3B
:100B5000816811F4806F19D1416811F4806F01BF71
:100B6000816811F0405FA16900290FD1416821F02F
:100B700080014160206C20F480502064206C10F4CF
:100B8000807F03D1206C40F0010020642046FFF7F5
:100B900077FE21686FF00C000860206801684268E9
:100BA00011F0010FC2F380121EBF002A006810F07E
:100BB000010F0AD0206C40F480302064204600F001
:100BC000D5F821686FF0010008602068016842686C
:100BD000C1F34011C2F38062002914BF002A70BD26
:100BE000616C41F0020161646FF0200505602046F0
:100BF000FFF757FF2068056070BD000070B5040066
:100C00004FF0000504BF012070BD206C002628B9FC
:100C1000666484F83C60204600F0B8F8206C10F060
:100C2000100F18BF012503D084F83C60284670BD22
:100C3000206C20F4885040F002002064484841684D
:100C400021F440314160416862681143416020688D
:100C5000416821F48071416020684168226941EA5D
:100C6000022141602068416821F0407141602068A4
:100C70004168A268114341602068816821F40061E5
:100C8000816020688168E26811438160A06A6FF02A
:100C90007061C8422068816821F0706181602068BD
:100CA000816808BF21F040510BD0A26A11438160D6
:100CB0002068816821F04051816020688168E26A83
:100CC000114381602068816821F002018160206801
:100CD0008168A26941EA42018160206A0028206897
:100CE000416808BF21F400610ED041F40061416009
:100CF0002068416821F46041416020684168194BD7
:100D0000626A03EB4232114341602068C16A21F4F8
:100D10007001C1622068C16AA28B134B03EB0252BF
:100D20001143C1622068816821F4007181602068EC
:100D30008168226B41EA422181602068816821F448
:100D40008061816020688168626941EA82218160F6
:100D50006664206C20F0020040F00100206463E72C
:100D60000023014000E0FFFF0000F0FF10B500216C
:100D7000044801F009F804484FF6FF71C1624910B8
:100D8000416310BD200100200000014010B5D0F8E3
:100D900000C00022194903231948ACF1804486B0F1
:100DA000B4F5903417D0174CA4451CBF06B010BD45
:100DB000D1F800C04CF4007CC1F800C00968029270
:100DC00001F4007105910221CDE90013694600F09C
:100DD0000BF906B010BDD1F800C04CF4807CC1F80E
:100DE00000C00968029201F4807105910121CDE9EA
:100DF0000013694600F0F8F806B010BD4438024010
:100E0000000002400021014082B04FF0000CCDF8FC
:100E100004C090F83C10012902BF022002B07047C4
:100E2000012180F83C1001688A6812F0010F26D178
:100E30008A6842F001028A603849394A0968B1FB80
:100E4000F2F111EB41010191009118D0B1F1004F85
:100E50005ED20029D8BF002105DD11F0010102D0CA
:100E6000019A521E0192009A491C521C914206DAC4
:100E7000019B891C5B1E5B1E01939142F8DB01689C
:100E80008A6812F0010F40D0026C22F0010222F4B5
:100E9000C06242F4807202644A6812F4806F05D026
:100EA000026C22F4005242F480520264026C12F48A
:100EB000805F08BFC0F844C003D0426C22F0060235
:100EC000426480F83CC0174A6FF022030B6001684F
:100ED0004B6843F0200343F080634B605168006827
:100EE00011F01F0F09D0A0F18041B1F5903104BF7E
:100EF000816811F0405F04D007E0816811F0405F25
:100F000003D1816841F080418160002002B07047C8
:100F10000199491E0191FCD1B1E7000014000020A5
:100F200040420F00002301404379012B04BF0220FF
:100F3000704730B44FF0010C80F805C002230371F4
:100F400003681C6840F6FE759540AC43D1E900513A
:100F5000294391402143196001680B68C02404FAB9
:100F600002F223EA02020A6080F804C00021417103
:100F700030BC08467047002804BF0120704770B598
:100F800004460079002518B96571204600F008F87C
:100F900002202071256101202071002070BD000019
:100FA00000B5006887B0A0F18041B1F5E8411CBFF1
:100FB00007B000BD00210A48026842F000520260FA
:100FC000006800F000500590302000900320CDE92B
:100FD00001016946034800F007F807B000BD0000B2
:100FE00040380240000002402DE9F84F0022884EB0
:100FF000DFF820E201274FF0030A4FF00F0800BF8F
:101000000B6807FA02F42340A34240F0FB80D1F8BA
:1010100004C0BCF1020F18BFBCF1120F15D14FEA8A
:10102000D20C00EB8C0CDCF820504FEA42794FEAEE
:10103000D96908FA09FB25EA0B05D1F810B00BFABB
:1010400009F949EA0505CCF82050D0F800904FEA9C
:10105000420C91F804B00AFA0CF50BF0030B29EAE4
:1010600005090BFA0CFB4BEA0909C0F80090D1F80E
:101070000490B9F1010F18BFB9F1020F05D0B9F111
:10108000110F18BFB9F1120F18D1D0F80890D1F88C
:101090000CB029EA05090BFA0CFB4BEA0909C0F868
:1010A0000890D0F8049029EA040491F80490C9F358
:1010B000001909FA02F949EA04044460C46824EA00
:1010C00005048D6805FA0CFC4CEA040CC0F80CC051
:1010D000D1F804C01CF0805F7ED0D6F800C04CF47C
:1010E000804CC6F800C0D6F800C00CF4804CCDF897
:1010F00000C022F0030C0CF1804505F59835D5F8B9
:1011000008C84FEA82744FEA147408FA04F92CEA0A
:10111000090CA0F18049B9F5003938D0A0F1804917
:10112000B9F5013908BF4FF0010930D0A0F180496D
:10113000B9F5023908BF4FF0020928D0A0F1804963
:10114000B9F5033908BF4FF0030920D0A0F1804959
:10115000B9F5043908BF4FF0040918D0A0F180494F
:10116000B9F5053908BF4FF0050910D0A0F1804945
:10117000B9F5063908BF4FF0060908D0A0F180493B
:10118000B9F507390CBF4FF007094FF0080909FA04
:1011900004F444EA0C0CC5F808C8DEF800C04C683A
:1011A0002CEA030C14F4803F18BF4CEA030CCEF871
:1011B00000C0194CD4F800C04D682CEA030C15F49B
:1011C000003F18BF4CEA030CC4F800C0134CD4F81D
:1011D00000C02CEA030C00E014E04D6815F4801FF9
:1011E00018BF4CEA030CC4F800C00D4CD4F800C082
:1011F0004D682CEA030C15F4001F18BF4CEA030CD1
:10120000C4F800C0521C102AFFF4FAAEBDE8F88FF3
:1012100044380240003C0140043C0140083C01408D
:101220000C3C014001488068704700000800002025
:10123000002804BF0120704770B5044690F83D00B7
:10124000002520B984F83C50204600F075F8242091
:1012500084F83D002068016821F00101016000F080
:1012600019FA33492268B0FBF1F15160314A6368E1
:10127000934298BF491C07D94FF4967359434FF4D2
:101280007A73B1FBF3F1491C2368196261688A42E1
:101290000AD34900B0FBF1F2C2F30B02042A34BFB7
:1012A0000420B0FBF1F023E0A368002B0EBF01EB9C
:1012B000410201EBC10202EB0112B0FBF2F218BFD6
:1012C00042F480421205120D08BF012010D0002BFD
:1012D00004BF01EB4101B0FBF1F007D001EBC1020B
:1012E00002EB0111B0FBF1F040F4804040F400400B
:1012F0002168C861D4E90701084321680860D4E97E
:101300000310084321688860D4E905010843216877
:10131000C8602068016841F0010101602564202057
:1013200084F83D00256384F83E50002070BD000025
:1013300040420F00A086010000B5006887B0A0F110
:101340008041B1F5A8411CBF07B000BDC02000908E
:1013500012200190012002900320039004200490A9
:1013600069460748FFF740FE0648016841F400114E
:101370000160006800F40010059007B000BD000097
:10138000000402404038024002488168027811445B
:1013900081607047080000200B4810B5016841F4D7
:1013A00000710160016841F480610160016841F4ED
:1013B00080710160032000F0A9F8002000F006F819
:1013C00000F024F8002010BD003C024070B50D4D27
:1013D00004464FF47A712878B1FBF0F00A490968A5
:1013E000B1FBF0F000F07EFB48B9102C07D20022D0
:1013F0002146501E00F058F800206C6070BD01209E
:1014000070BD000008000020140000201E4808B530
:10141000016841F480410160006800F48040009060
:101420001A48016841F080510160006800F0805066
:101430000090032000F06AF8002211466FF00B00C4
:1014400000F032F8002211466FF00A0000F02CF88C
:10145000002211466FF0090000F026F80022114624
:10146000501F00F021F800221146101F00F01CF858
:1014700000221146901E00F017F80022BDE8084037
:101480001146501E00F010B8443802404038024067
:1014900000F01F01012202FA01F14009800000F171
:1014A000E020C0F800117047174B10B41B68C3F35D
:1014B0000223C3F1070CBCF1040F88BF4FF0040CEA
:1014C0001C1D072C34BF0023DB1E012404FA0CFC76
:1014D000ACF1010C0CEA0101994004FA03F35B1E24
:1014E0001A40114300284FEA0111A1BF00F1E0208A
:1014F00080F8001410BC704700F00F0000F1E020ED
:1015000080F8141D10BC70470CED00E0074900F096
:1015100007000A684FF6FF031A4042EA002040F035
:10152000FD7040F080600860704700000CED00E046
:10153000002804BF012070472DE9F0474D4E0446B6
:101540000F46306801F0FF0800F00F00B84206D2E5
:1015500086F80080306800F00F00B84261D1206842
:10156000454D10F0020F14D010F0040F03D028687E
:1015700040F4E0502860207810F0080F03D028686D
:1015800040F4604028602868A16820F0F00008431B
:101590002860207810F0010F37D0606837490128A3
:1015A00023D0022818BF0328096823D011F0020FA6
:1015B00037D0296821F0030141EA00002860FFF7D5
:1015C00031FE81462868616800F00C00B0EB810FA5
:1015D00018BF41F2883A18D0FFF724FEA0EB0900AB
:1015E00050450BD90320BDE8F087096811F4003F8E
:1015F000DFD116E011F0007FDBD112E028686168CE
:1016000000F00C00B0EB810FE6D1306800F00F0065
:10161000B84209D986F80080306800F00F00B8425F
:1016200002D00120BDE8F087207810F0040F05D02B
:101630002868E16820F4E05008432860207810F022
:10164000080F06D02868216920F4604040EAC100F4
:10165000286000F02FF82968094AC1F30311515C92
:10166000C840084908600020FFF7B0FE0020BDE830
:10167000F0870000003C0240083802400038024079
:101680006A3D00081400002001480068704700000F
:10169000140000200448054900680968044AC1F3A1
:1016A0008221515CC8407047140000200838024075
:1016B0007A3D00081848006810F00C02174808BF6F
:1016C00070471749042A04BF08467047082A18BF04
:1016D000704710B5134C2268236802F03F0213F4E0
:1016E000800F08D020680023C0F38810A0FB010100
:1016F000FEF766FD07E021680023C1F38811A1FB16
:101700000001FEF75DFD2168C1F30141491C49005C
:10171000B0FBF1F010BD0000083802400024F400D6
:1017200040787D0104380240002804BF0120704742
:101730002DE9F84F04460078DA4D10F0010F59D02A
:10174000D948016801F00C0104290AD0006800F0B2
:101750000C0008280ED105F10400006810F4800F79
:1017600008D0286810F4003F44D06068002800F0DA
:1017700096813FE06068B0F5803F19D0B0F5A02FAA
:1017800028680CBF40F4802020F48030286028684E
:101790000CBF40F4803020F4802028606068B8B12D
:1017A000FFF740FD0646286810F4003F05D021E011
:1017B000286840F480302860F0E7FFF733FD801B95
:1017C000642800F22A81286810F4003FF5D011E067
:1017D000FFF728FD0646286810F4003F0AD000BF36
:1017E000FFF720FD801B642800F21781286810F4A1
:1017F000003FF5D12078AD4F10F0020F4FF00008F8
:1018000047D0A948016811F00C0F16D0006800F00D
:101810000C00082804D1A648006810F4800F0CD0F2
:10182000E06820B34FF001003860FFF7FBFC06468C
:10183000286810F0020F09D011E0286810F0020F9C
:101840001CBFE06801280AD000F029B9FFF7EAFCC4
:10185000801B02287ED8286810F0020FF6D0286876
:10186000216920F0F80040EAC100286011E0C7F8C3
:101870000080FFF7D7FC0646286810F0020F08D05A
:10188000FFF7D0FC801B022864D8286810F0020FF4
:10189000F6D1207810F0080F2AD08648864E61696C
:1018A00099B101210160FFF7BDFC8146306810F05D
:1018B000020F1DD1FFF7B6FCA0EB0900022849D8A2
:1018C000306810F0020FF5D012E0C0F80080FFF78A
:1018D000A9FC8146306810F0020F09D0FFF7A2FC86
:1018E000A0EB0900022835D8306810F0020FF5D1BE
:1018F000207810F0040F77D070484FF0000B00688C
:1019000010F0805F0AD16D48016841F0805101609C
:1019100000684FF0010B00F080500090684E306876
:1019200010F4807F14D1306840F480703060FFF78D
:1019300079FC8146306810F4807F09D1FFF772FC92
:10194000A0EB0900022868D8306810F4807FF5D039
:101950005C4E00E061E0A06801281BD005283068DB
:101960000CBF40F0040020F00100306030680CBF74
:1019700040F0010020F00400C6F80000A06841F229
:10198000883AB8B1FFF74EFC8146306810F0020F7C
:1019900005D021E0306840F001003060EEE7FFF74D
:1019A00041FCA0EB0900504537D8306810F0020F19
:1019B000F5D011E0FFF736FC8146306810F0020FD9
:1019C0000AD000BFFFF72EFCA0EB0900504524D839
:1019D000306810F0020FF5D1BBF1000F04D037488A
:1019E000016821F080510160A069E8B32E490968BF
:1019F00001F00C01082952D00228C7F860800FD0EE
:101A0000FFF710FC0446286810F0007F44D000BFA8
:101A1000FFF708FC001B02283AD90320BDE8F88F25
:101A2000FFF700FC0646286810F0007F09D000BFD1
:101A3000FFF7F8FB801B0228EFD8286810F0007F22
:101A4000F6D1D4E907010843A16A1F4A490802EB0D
:101A50000141626A41EA8211084394F82C1040EA7D
:101A600001611348016000E016E001203866FFF7CD
:101A7000D9FB0446286810F0007F0DD1FFF7D2FB98
:101A8000001B0228C9D8286810F0007FF6D003E0B8
:101A9000286810F0007FBBD10020BDE8F88F01203E
:101AA000BDE8F88F00380240083802400000474285
:101AB00004380240800E47427438024040380240E9
:101AC00000700040703802400000FFFF4FF0E0213E
:101AD000042808690CBF40F0040020F004000861ED
:101AE00070477047411EB1F1807F24BF01207047CD
:101AF0004FF0E0204161054AF02182F8141D0021D9
:101B00008161072101610020704700000FE000E0C3
:101B100010B5FFF7E6FF10BD90F83830012B04BF79
:101B2000022070472DE9F001012480F8384002239B
:101B300080F83930844BDFF814C242B1042A45D012
:101B4000082A7DD00C2A00F0C28000F0F3B80268A9
:101B5000156A25F001051562156A56689769D1F86E
:101B6000008027F0730748EA0707D1F8088025F0BE
:101B7000020548EA05059A4218BF624511D1D1F81D
:101B80000CC025F008034CEA030323F00405D1F848
:101B900014C026F440734CEA0303D1F818C04CEA91
:101BA0000306566097614B68536315620268936938
:101BB00043F0080393610268936923F0040393617F
:101BC00002689369096943EA01013FE00268156A06
:101BD00025F010051562156A56689769D1F80080DE
:101BE00027F4E64747EA0827D1F8088025F02005C2
:101BF00045EA08159A4218BF624511D1D1F80CC0C8
:101C000025F0800343EA0C1323F04005D1F814C0FB
:101C100026F4406343EA8C03D1F818C043EA8C06EB
:101C2000566097614B68936315620268936943F449
:101C3000006393610268936923F48063936100E019
:101C400006E002689369096943EA0121916171E044
:101C50000268156A25F480751562166A5568D76999
:101C6000D1F8008027F0730748EA0707D1F8088009
:101C700026F4007646EA08269A4218BF624511D13A
:101C8000D1F80CC026F4006343EA0C2323F48066E9
:101C9000D1F814C025F4405343EA0C13D1F818C00E
:101CA00043EA0C155560D7614B68D363166202682E
:101CB000D36943F00803D3610268D36923F00403B6
:101CC000D3610268D369096943EA010131E002681E
:101CD000156A25F480551562176A5568D669D1F8DA
:101CE000008026F4E64646EA0826D1F8088027F464
:101CF000005747EA08379A4218BF624505D1D1F824
:101D000014C025F4804343EA8C155560D6614B68B6
:101D1000136417620268D36943F40063D3610268F5
:101D2000D36923F48063D3610268D369096943EA04
:101D30000121D16180F839404FF0000180F838105E
:101D4000BDE8F00108467047000001400004014072
:101D5000002804BF0120704710B5044690F83900F0
:101D600028B9002084F83800204600F00CF8022042
:101D700084F83900211D206800F0F0F8012084F873
:101D80003900002010BD70470268012303FA01F1F9
:101D9000136A8B431362136A194311620168A1F13C
:101DA0008042B2F580321CBFA1F18042B2F582328E
:101DB00003D14A6C42F400424A640068016841F071
:101DC000010101600020704730B4026801234FF028
:101DD000000C156A03FA01F425EA04041462146A7B
:101DE0000CFA01F121431162016841F21112A1F1D3
:101DF000804440F2444CB4F580341CBFA1F18044CF
:101E0000B4F582340AD10C6A144204BF0C6A14EA95
:101E10000C0F03D14C6C24F400444C6401680C6A30
:101E2000144204BF0A6A12EA0C0F03D10A6822F0B6
:101E300001020A6080F8393030BC00207047FEE7AC
:101E4000FEE770477047704710B5FFF79DFABDE891
:101E50001040FFF75DBE000030B5254893B0002567
:101E6000016841F080510160006800F080501190DD
:101E70002048016841F4804101600068022400F4B8
:101E80008040119001200090000401908001CDE974
:101E90000640192008904FF4A870CDE909040420E9
:101EA0000B906846FFF740FC00B1FEE70F20CDE93C
:101EB0000C044FF4A050CDE90E504FF48050109018
:101EC00005210CA8FFF734FB00B1FEE7FFF7DCFBB0
:101ED0004FF47A71B0FBF1F0FFF704FE0420FFF736
:101EE000F5FD00221146501EFFF7DEFA13B030BD9B
:101EF00040380240007000401448006840F4700010
:101F0000124908601248006840F00100104908605A
:101F100000200F49083108600D4800680D4908404D
:101F20000B4908600C48091D0860081F006820F470
:101F30008020091F0860002005490C3108604FF01F
:101F400000600249803908607047000088ED00E0B9
:101F500000380240FFFFF6FE10300024F0B40268A3
:101F60002A4B2B4C2B4D2C4EDFF8B0C0984218BF9B
:101F7000B0F1804F07D0A04218BFA84203D0B042B2
:101F800018BF604504D14F6822F0700247EA020290
:101F9000984218BFB0F1804F25D0A04218BFA84288
:101FA00021D0B04218BF60451DD0A0F18044B4F5E7
:101FB000A0341CBFA0F18044B4F5A23413D0A0F12A
:101FC0008044B4F5A4341CBFA0F18044B4F5C054DF
:101FD00009D0A0F18044B4F5E0541CBFA0F18044C6
:101FE000B4F5005403D1CC6822F44072224302605D
:101FF0008A68C2620A688262984212BF60450969B3
:1020000001634FF001014161F0BC704700000140E5
:102010000004004000080040000C004000040140A3
:10202000FEE703B401984100009850EAC12018BFB0
:1020300004204A0D18BF40F0010040F2FF72B2EBDD
:10204000515F08BF40F00200012808BF052002B020
:10205000704700000000000070B59B482DED020B9A
:102060002DED068B079D25F00044A04218DC974813
:10207000844202DC0AD1069840B19DED060BBDEC0E
:10208000068B02B0BDE8704001F046B9002DCCBF10
:102090009FED8F0B9FED900BBDEC068B02B070BDDA
:1020A0008F48A04215DD8F48A042D8BF4FF0FF34C3
:1020B00058DD9DED060B51EC100BFFF7B2FF042825
:1020C00008BF01F05DF99DED060BBDEC068B02B07B
:1020D00070BD9DED060B51EC100B01F0F1F9CDE94F
:1020E000060181489FED828BA0423CDD8248A042E0
:1020F0001FDD00249FED82AB9DED060B53EC1A2BE8
:1021000051EC100BFEF78DF89DED060B41EC190B11
:1021100053EC1A2B51EC100BFEF72AF953EC182B49
:10212000FEF720F953EC192BFEF794F9CDE90601DF
:1021300049E09DED060B012453EC182B51EC100BDC
:10214000FEF76FF89DED060B41EC190B53EC182BC5
:1021500051EC100BFEF706F953EC192BFEF77AF948
:10216000CDE906012FE06848A0421FDD02249FED63
:10217000689B9DED060B53EC192B51EC100BFEF7F1
:10218000F7F853EC182BFEF74CF89DED060B41ECDD
:10219000180B53EC192B51EC100BFEF7E3F853EC32
:1021A000182BFEF757F9CDE906010CE09DED060B63
:1021B000032453EC102B9FED580B51EC100BFEF742
:1021C00049F9CDE906019DED060B53EC102B51ECBE
:1021D000100BFEF7CDF841EC180B53EC182BFEF763
:1021E000C7F841EC190B4E480621B0EE490AF0EE53
:1021F000690A784400F0F9FF53EC182B51EC100BEE
:10220000FEF7B6F841EC180B4648B0EE490AF0EE7E
:10221000690A0521784400F0E8FF53EC192B51ECD2
:10222000100BFEF7A5F841EC100B51EC180B53EC1A
:10223000102B002C0EDAFDF7F4FF9DED061B53EC7E
:10224000112BFEF795F89DED061B53EC112BFEF7B5
:102250008CF835E0FDF7E5FF9DED061B53EC112BE7
:10226000FEF786F841EC100B2F48784400EBC400D1
:1022700090ED001B51EC100B53EC112BFEF772F894
:102280009DED061B53EC112BFEF76CF841EC100B87
:102290002648784400EBC40090ED001B51EC100B75
:1022A00053EC112BFEF761F841EC100B002DA2BF8F
:1022B000BDEC068B02B070BD51EC100B81F00041FB
:1022C00041EC100B01E70000000010440000F07F1B
:1022D000182D4454FB21F93F182D4454FB21F9BF1C
:1022E0000000DC3F0000203E0000F33F0000000043
:1022F000000000000000F03F0000E63F000000008A
:1023000000000000000000400080034000000000CA
:10231000000000000000F83F000000000000F0BFD7
:10232000821C0000381C0000C21B00007A1B000049
:1023300070B56B4E2DED040B2DED028B82B0DDF8E8
:102340001CC0DDE905235C422CF000411C4341EA3E
:10235000D474049D22F00040B44205D86C422C4352
:1023600040EAD474B4420BD99DED061B9DED040BDD
:1023700002B0BDEC028B04B0BDE8704000F0D6BFE7
:10238000ACF14054A4F17F641C430BD0022404EA56
:10239000AC7444EAD27405439FED538B9FED542BEC
:1023A00007D015E09DED040B51EC100B01F080F807
:1023B00042E0002C11BF012C9DED040B02B0BDECDE
:1023C000028B04BF04B070BD022C38D0032C3BD06C
:1023D0000B439FED491B9FED4A0B0AD0B14218D128
:1023E000B04209D121F0804120F080400791059052
:1023F0000FE0002A15DA10E0434B7B44002C08BFA5
:1024000093ED000B0DD0012C10D0022C17D0032C13
:102410001AD0B0421DD1002A03DAB0EE410AF0EE24
:10242000610A02B0BDEC028B04B070BD93ED000BED
:1024300051EC100B81F0004141EC100BF1E7B0EED4
:10244000480AF0EE680AECE7B0EE420AF0EE620AE3
:10245000E7E7401A00153C28C8BF8DED000B19DCDA
:10246000BCF1000FBEBF10F13C0F9FED290B8DEDAD
:10247000000B0FDB9DED060B53EC102B9DED040BB9
:1024800051EC100BFDF7E6FF01F01AF801F010F81F
:10249000CDE90001002C08BF9DED000BC1D0012C3F
:1024A00010D0022C9FED1C0B53EC102B9DED000B5C
:1024B00051EC100B0DD0FDF755FF53EC182BFDF729
:1024C00051FFB9E7019880F0004001909DED000BAD
:1024D000A7E7FDF747FF53EC182BFDF746FFABE7E7
:1024E0000000F07F00000000182D4454FB2109403B
:1024F000182D4454FB2109C0182D4454FB21F9BF69
:10250000182D4454FB21F93FAA1A000000000000D6
:102510000000000000000000075C143326A6A13C68
:102520002DE9F04D2DED040B2DED0E8B96B0DDE970
:102530002550279CDDF890A025F0004624F00048A7
:10254000BAF1000F14BF0121002101EB4502FC4943
:1025500053184A1093422AD3002814BF01230023A2
:1025600003EB44030B44F7498B4220D358EA0001A4
:102570009FEDF59B76D0DFF8D8B35D4503D1BAF176
:10258000000F05D188E0BAF1000F08BF002100D08C
:10259000012101EB450111F5001F08D8002814BFE7
:1025A0000121002101EB440111F5001F0BD99DED24
:1025B000261B9DED240B16B0BDEC0E8B04B0BDE8C0
:1025C000F04D00F0B3BE0027002DBCBFE1498845A7
:1025D00021DAE1498845A8BF02271CDAC3451ADC85
:1025E000DE4901EB2851142908DDC1F1340220FA3B
:1025F00002F101FA02F282420DD108E058B9C1F1AC
:10260000140228FA02F101FA02F2424503D101F064
:102610000101C1F1020756EA0A0124D1002C22DA95
:10262000002D18BF022F01D0012F0AD0022000F088
:10263000C7FE16B0BDEC0E8B04B0BDE8F04D00F047
:1026400053BE022000F0BCFE00F04EFE51EC100B19
:1026500081F0004141EC100B16B0BDEC0E8B04B0C4
:10266000BDE8F08D18E09FEDBEAB9FEDBF8B00285D
:1026700071D1B848804522D105F1804010F5801015
:1026800008BFBAF1000F07D0B3450ADC002CA8BF81
:102690009DED260BE0DA0DE0B0EE490AF0EE690A96
:1026A000DAE7002C06DA9DED260B51EC100B81F0D9
:1026B00000416FE0AE48784490ED000BCCE7D84580
:1026C0004DD1002C48DA2EB186423AD1BAF1000F32
:1026D00042D126E0BAF1000F13D0022000F070FEC4
:1026E00000F03EFE8DED020B9DED240B8DED000BF9
:1026F00010EE900A039961F31E0003909DED020B0A
:10270000AAE78DED02AB9DED240B1AEE901A10EEA8
:10271000900A8DED000B61F31E0003909DED020BFE
:102720009AE78DED028B9DED240B18EE901A10EEBA
:10273000900A8DED000B61F31E0003909DED020BDE
:102740008AE709DA9DED240B51EC190B53EC102BA1
:10275000FDF780FE1EE020E09DED240B7CE7864225
:102760001BDAB4F1804F0DD0A4F10050B0F1FF504E
:1027700013D1002D11DB9DED240B51EC100B01F05A
:10278000BDFA07E09DED240B53EC102B51EC100B20
:1027900000F0C2BC41EC100B5EE79DED240B51EC48
:1027A000100B00F08DFEBAF1000FCDE90E0142D101
:1027B0009FED710B46B3A6F1E040B0F17F600CD005
:1027C0005E4538D1002D00DAA7B3022F0CBF0120DF
:1027D0004FF0FF30FEF709F8DCE7002D01DD002C9B
:1027E0000DDA002D01DD002C1FDB002D16DA002C88
:1027F00014DB012F08BF9FED620B3FF42DAFB0EE4D
:102800004A0AF0EE6A0A27E7022F18BF002D0CD003
:10281000012F0AD1002DFFF61FAF06E0002DB8BF33
:10282000002C08DA012F3FF417AFB0EE480AF0EEA3
:10283000680A11E71BE0012000EBE57050EA070190
:1028400015D0791EB0EE498AF0EE698A084308BFB8
:102850009FED4D8B4E480025804570DD4D494E481B
:10286000884514DDB0420DDB002C19DB2FE0012080
:1028700000F0A6FD16B0BDEC0E8B04B0BDE8F04D27
:1028800000F05EBDB34502DC002C09DC1FE086428F
:1028900002DA002C1BDA03E05E452BDD002C16DD8E
:1028A000022000F08DFD00F05BFD8DED020B53EC7E
:1028B0001A2B51EC180BFDF75BFDCDE900010399D4
:1028C000019861F31E0003909DED020BC4E6022007
:1028D00000F076FD00F054FD10EE901A18EE900A0C
:1028E0008DED020B8DED008B61F31E0003909DEDCD
:1028F000020BB1E69DED0E0B53EC192B51EC100BB6
:10290000FDF730FD9FED260BCDE9080153EC102BB0
:102910009DED080B51EC100BFDF72AFD9FED221BDE
:1029200053EC112BFDF721FD9DED081B53EC112BF2
:10293000FDF71EFD9FED1E1B53EC112B3CE08CE0C0
:10294000FFFF1F00FFFF0F00000000000000F03F2E
:102950000000F03F0000F07F0000404301FCFFFF5B
:10296000000000000000F07F0000000000000000F8
:10297000EE170000000000000000000000000080D2
:10298000000000000000F0FF000000000000F0BFA9
:102990000000E0410000F043FFFFEF3F00000000B7
:1029A000000000000000D03F555555555555D53F06
:1029B000000000000000E03FFDF7D7FC9DED080B94
:1029C00041EC1A0B53EC102B51EC100BFDF7D0FC23
:1029D00053EC1A2BFDF7CCFC41EC1A0B9FEDFE0BD0
:1029E00053EC102B9DED080B51EC100BFDF7C0FCC8
:1029F00041EC1B0B9FEDFA0B51EC1A0B53EC102B17
:102A0000FDF7B6FC41EC1A0B9FEDF70B53EC102BC6
:102A10009DED080B51EC100BFDF7AAFC53EC1A2BA3
:102A2000FDF7A0FC41EC1A0B51EC1B0B53EC1A2BDD
:102A3000FDF7F7FB0690CDE906519DED060B53EC33
:102A40001B2B51EC100BFDF78DFC53EC1A2BFDF7F3
:102A50008CFC41EC100B00F0A1B90020B6F5801FF2
:102A60000EDA9FEDE30B53EC102B9DED0E0B51ECAA
:102A7000100BFDF77DFCCDE90E016FF034000E4622
:102A800000EB2650A0F2FF37C6F31300DA4940F0FE
:102A90007F6646F040568842D8BF002408DDD749FB
:102AA0008142C8BF012403DC0024A6F580167F1CE8
:102AB000D348784400EBC4000F9690ED00CB9DED19
:102AC0000E0B53EC1C2B51EC100BFDF74BFC9DED4A
:102AD0000E0B41EC1B0B53EC1C2B51EC100BFDF7B8
:102AE000A0FB41EC100B51EC190B53EC102BFDF734
:102AF000B1FC41EC1D0B51EC1B0B53EC1D2BFDF7F6
:102B000037FC41EC1A0BBF488DED10AB78441095A3
:102B100090ED000B4FF0005040EA660000EB84405F
:102B20008DED080B00F5002009909DED080B53EC8E
:102B30001C2B51EC100BFDF715FC9DED0E1B53ECFF
:102B4000112BFDF712FC41EC100B53EC102B9DEDFB
:102B5000100B51EC100BFDF70BFC9DED080B41EC3D
:102B60001C0B53EC102B9DED100B51EC100BFDF7D3
:102B7000FFFB53EC1B2BFDF7F8FB53EC1C2BFDF775
:102B8000F1FB53EC1D2BFDF7F3FB41EC1C0B53EC5D
:102B90001A2B51EC1A0BFDF7EBFB41EC1B0B9A487F
:102BA0000621B0EE4B0AF0EE6B0A784400F01DFBF4
:102BB000B0EE401AF0EE601AB0EE41DAF0EE61DAF3
:102BC00053EC1B2B51EC1B0BFDF7D2FB53EC1D2BD5
:102BD000FDF7CEFB9DED100B41EC1B0B53EC1A2BBC
:102BE00051EC100BFDF71DFB53EC1C2BFDF7C0FB4C
:102BF00053EC1B2BFDF715FB9DED100B41EC1B0B54
:102C000053EC102B51EC100BFDF7B2FB41EC1D0BFC
:102C10009FED7FEB53EC1E2BFDF703FB53EC1B2BBF
:102C2000FDF7FFFA0890CDE908519DED080B53EC34
:102C30001E2B51EC100BFDF795FB53EC1D2BFDF7F4
:102C400091FB53EC1B2BFDF790FB9DED080B41EC2A
:102C50001D0B53EC102B9DED100B51EC100BFDF7E1
:102C600087FB41EC1B0B53EC1A2B51EC1D0BFDF7B2
:102C70007FFB9DED080B41EC1A0B53EC102B51EC34
:102C80001C0BFDF775FB53EC1A2BFDF7CAFA41EC50
:102C90001A0B51EC1B0B53EC1A2BFDF7C2FA0C90DC
:102CA000CDE90C519DED0C0B53EC1B2B51EC100B93
:102CB000FDF758FB53EC1A2BFDF757FB41EC1B0BB0
:102CC0009FED550B53EC102B9DED0C0B51EC100BA5
:102CD000FDF74EFB41EC1A0B9FED510B51EC1B0B1A
:102CE00053EC102BFDF744FB41EC1B0B9FED4E0BFF
:102CF00053EC102B9DED0C0B51EC100BFDF738FB3A
:102D000053EC1B2BFDF78DFA41EC100B484878442F
:102D100000EBC40090ED001B51EC100B53EC112B99
:102D2000FDF77FFA41EC1B0B3846FDF75EFDCDE960
:102D3000080153EC1B2B51EC1A0BFDF772FA41EC16
:102D4000100B3C48784400EBC40090ED00CB51ECF4
:102D5000100B53EC1C2BFDF764FA9DED081B53EC94
:102D6000112BFDF75EFA0690CDE906519DED080B9B
:102D700053EC102B9DED060B51EC100BFDF7F2FA06
:102D800053EC1C2BFDF7EEFA53EC1A2BFDF7EAFA85
:102D900053EC1B2BFDF7E9FA41EC100B9DED261BC4
:102DA00053EC102B8DED001B00959DED260B51EC87
:102DB000100BFDF7DDFA9DED000B41EC1A0B53EC07
:102DC000102B9DED260B51EC100BFDF7CBFA9DED72
:102DD000061B53EC112B2FE0000000604715F73F56
:102DE000FE822B654715F73F44DF5DF80BAE543E7E
:102DF00000000000000040438E9803007AB60B00EC
:102E0000D2120000981300000A1200000000000017
:102E10000000000000000840000000E009C7EE3F8D
:102E2000FD033ADC09C7EE3FF5015B14E02F3EBE1F
:102E30009610000050100000FDF79AFA53EC1A2B80
:102E4000FDF7EFF99DED060B41EC1A0B53EC102B3F
:102E50009DED000B51EC100BFDF78AFACDE90C014A
:102E60009DED0C0B51EC1A0B53EC102BFDF7D9F91F
:102E7000CDE902010C46AA498C422FDB611A0843B6
:102E800018D19DED0C0B53EC102B9DED020B51EC6A
:102E9000100BFDF767FA41EC1B0B9FEDA30B51ECF8
:102EA0001A0B53EC102BFDF7BCF953EC1B2BFDF761
:102EB000ADFC2DD2022000F083FA00F051FA10EEA2
:102EC000901A18EE900A8DED020B8DED008B61F3D8
:102ED0001E0003909DED020BFFF7BEBB944A24F049
:102EE0000041914214D39349214408437FF4EFAC4D
:102EF0009DED0C0B53EC102B9DED020B51EC100BC8
:102F0000FDF730FA53EC1A2BFDF780FC7FF6DFACAF
:102F100024F000408849894A002601EB2051824272
:102F20002BDA481C4FF4801121FA00F02044844A27
:102F3000C0F30A517A44A1F2FF3192ED000B814AAD
:102F40008DED080BCA4020EA0202C0F3130040F4E2
:102F50008010C1F1140120FA01F60992002CB8BFCB
:102F600076429DED080B53EC102B9DED0C0B51ECB4
:102F7000100BFDF7F7F9CDE90C019DED0C0B51ECB1
:102F80001A0B53EC102BFDF74CF99FED6F0B0890CB
:102F9000CDE9085153EC102B9DED080B51EC100BB3
:102FA000FDF7E6F941EC1B0B9FED690B53EC102B81
:102FB0009DED080B51EC100BFDF7DAF99DED0C0BB4
:102FC00041EC1C0B53EC102B9DED080B51EC100B3E
:102FD000FDF7C8F953EC1A2BFDF7C7F99FED5E1BFF
:102FE00053EC112BFDF7C4F953EC1C2BFDF719F929
:102FF00041EC1A0B51EC1B0B53EC1A2BFDF711F99A
:10300000CDE902019DED020B53EC1B2B51EC100B93
:10301000FDF7A8F953EC1A2BFDF7A7F99DED020B6C
:1030200041EC1A0B53EC102B51EC100BFDF7A0F9EF
:10303000CDE908014A489DED080B0521784400F0D0
:10304000D4F89DED081B51EC100B53EC112BFDF740
:103050008FF99DED021B53EC112BFDF786F9CDE99D
:1030600006019DED020B53EC1A2B51EC100BFDF7F2
:103070007FF953EC1A2BFDF7D4F89FED3B0B41EC95
:103080001A0B53EC102B9DED060B51EC100BFDF7BA
:1030900069F99DED060B41EC1B0B53EC102B9DEDDC
:1030A000020B51EC100BFDF763F953EC1B2BFDF7F2
:1030B000D1F953EC1A2BFDF755F99DED021B53EC9A
:1030C000112BFDF74FF953EC192BFDF74EF9CDE914
:1030D000020101EB065001150029C8BF039015DC61
:1030E0009DED020B324651EC100BFDF716FBFEF77F
:1030F00098FF042808BF00F043F932469DED020B0B
:1031000051EC100BFDF709FBCDE902019DED020B1F
:1031100051EC180B53EC102BFDF72AF9FFF73ABBD3
:103120000000904000000000FE822B654715973C90
:1031300000CC904000346F3F01FCFFFF0000E03FF7
:10314000700F0000FFFF0F0000000000432EE63F5D
:10315000396CA80C615C20BEEF39FAFE422EE63FC6
:10316000A80D00000000000000000000000000406A
:1031700000B52DED048BB0EE409AF0EE609A83B06E
:1031800051EC190BFDF7E0FA41EC180B18EE100AA0
:1031900018EE901A8DED008B002818BF012008430F
:1031A00020F00040C0F17F6000F1E040C00F14D07B
:1031B00019EE101A19EE900A8DED009B002918BF28
:1031C0000121084320F00040C0F17F6000F1E040A1
:1031D000C00F04BF012000F0F3F8B0EE480A03B0BE
:1031E000F0EE680ABDEC048B00BD70B504462DED11
:1031F000028B4D1E00EBC500B0EE408AF0EE608AF7
:1032000090ED000B35F0060017D053EC182B51EC65
:10321000100BFDF7ADF841EC100B6D1E04EBC50073
:1032200090ED001B51EC100B53EC112BFCF7F9FF48
:1032300041EC100B35F00600E7D1022D36D0042DFD
:103240001CD0062D1CBFBDEC028B70BD53EC182B9F
:1032500051EC100BFDF78CF894ED0A1B53EC112B7D
:10326000FCF7DFFF53EC182BFDF782F894ED081BF9
:1032700053EC112BFCF7D5FF41EC100B53EC182B42
:1032800051EC100BFDF774F894ED061B53EC112B69
:10329000FCF7C7FF53EC182BFDF76AF894ED040B0D
:1032A00053EC102BFCF7BDFF41EC100B53EC182B2B
:1032B00051EC100BFDF75CF894ED021B53EC112B55
:1032C000FCF7AFFF53EC182BFDF752F894ED001B01
:1032D00053EC112BFCF7A5FFBDEC028B41EC100B5E
:1032E00070BD0000000000009FED070B10B553EC0F
:1032F000102B9FED070B51EC100BFDF7ABF841ECD9
:10330000100B10BD000000000000000000000000D5
:10331000000000000000F03F10B553EC102B51EC02
:10332000100BFCF77EFF41EC100B10BD10B553ECF9
:10333000112B51EC100BFCF774FF41EC100B10BD7E
:103340009FED050B10B553EC102B51EC100BFDF756
:1033500081F841EC100B10BD0000000000000000DF
:103360009FED050B10B553EC102B51EC100BFCF737
:10337000FFFF41EC100B10BD0000000000000070CA
:103380009FED050B10B553EC102B51EC100BFCF717
:10339000EFFF41EC100B10BD00000000000000101A
:1033A00002E008C8121F08C1002AFAD1704770470E
:1033B000002001E001C1121F002AFBD1704700006C
:1033C000014908607047000018000020000000005C
:1033D00010B511EE100A2DED068BF0EE608AB0EEFE
:1033E000408AFDF7A6F89FED2AAB41EC100BB0EE3A
:1033F0004A1AF0EE6A1AFFF793F8B0EE409AF0EE30
:10340000609A18EE900AFDF794F841EC100BB0EEBC
:103410004A1AF0EE6A1AFFF783F853EC192B51ECB5
:10342000100BFCF7FEFE41EC100BFFF7A1FE51EC78
:10343000100BFDF791F8FDF77CF841EC190B18EE35
:10344000100AFDF776F841EC100BB0EE491AF0EED9
:10345000691AFEF76DFF9FED101B51EC100B53EC3A
:10346000112BFCF785FF9FED0E1B53EC112BFCF786
:10347000F1FF9FED0D1B53EC112BFCF773FFFDF7D4
:103480006BF8BDEC068B00EE100A10BD00000000CA
:1034900000000000000000400000000000806640C6
:1034A0004189D316F14A09400000000000805640CF
:1034B00010B541EC100BFEF7CFFD51EC100B10BD19
:1034C00082B0CDE9000121F0004001909DED000B9C
:1034D00002B051EC100B70478EB0FDF75DFFFEF7A8
:1034E000BBFC6F480024016841F080010160016865
:1034F00001F080010B91016841F001010160016858
:1035000001F001010B91016841F0100101600168B7
:1035100001F010010B91016841F0020101600068A7
:10352000022600F002000B904FF40070CDE9060671
:1035300001250896CDE9096506A95A48FDF754FD0D
:103540005A4859495A4F01604FF44031C0E90114BB
:10355000046185610462C0E90A74C4600463C561E2
:103560004461FDF74BFB00B1FEE707200694CDE96F
:10357000075006A94D48FDF7BBF900B1FEE74E48DC
:103580004C4901604FF40031C0E9011404618461C9
:103590000462C0E90A74C460C56145610463FDF753
:1035A0002DFB00B1FEE70695CDE9075406A9424878
:1035B000FDF79EF900B1FEE73F48FDF725FC4048C6
:1035C0003E4F0760FDF7D7FC00B1FEE706940022EE
:1035D00006A93B480794FDF7A7FC00B1FEE71022BF
:1035E00006A93748FDF7A0FC00B1FEE7386840F0B7
:1035F0003D1038603448334901603449C0E9011452
:103600004FF48041C0E9034144618461C4610462B4
:10361000FDF70EFE00B1FEE72D48016841F0010103
:103620000160006800F001000D902A48FEF7ABFB36
:1036300028482949C0E900164FF6FF71C0E9024148
:103640000461FEF785FB7020CDE906040894002292
:1036500006A920480A94FEF75FFA2048009040F639
:10366000AB20019040F2D940CDE9020469460495AF
:103670000E48FDF706F91220FDF70AFF0B48FDF78B
:10368000C3FB00F089F800F02DF8154880ED000A22
:10369000C0ED010A80ED021A00F076FAFCE70000A6
:1036A0003038024000100240002001402800002075
:1036B0000100000F00210140700000200074004054
:1036C000B800002000540040CC000020A08601007B
:1036D0004438024020010020000001400002800028
:1036E0001C00002010B53B202DED068B00F0F4F8F7
:1036F00004023C2000F0F0F8204300B200EE100A73
:103700003D20F8EEC00A9FED230A20EE809A00F0DB
:10371000E3F804023E2000F0DFF8204300B200EEA0
:10372000900A3F20F8EEE00A60EE808A00F0D4F8BC
:103730000402402000F0D0F8204300B200EE900ACE
:10374000F8EEE00A20EE808AF0EE680AB0EE490A50
:10375000B0EE481AFFF73CFEB0EE40AAB0EE491AB0
:10376000F0EE480AB0EE680AFFF732FEF0EE409A3B
:10377000B0EE681AF0EE490AB0EE480AFFF728FEEC
:10378000B0EE401AB0EE4A0AF0EE690ABDEC068BC4
:1037900010BD0000000000384B4930B4086840F00C
:1037A00001000860086840F48070086047480268BB
:1037B00012F0010FFBD00268454A4FF0D00CC2F85E
:1037C00000C0036813F0020FFBD00368414B1C6874
:1037D0006B241460046814F0040FFBD00024146000
:1037E000056815F0040FFBD00D6845F400750D60F9
:1037F0000D6845F480750D60056815F0010FFBD06C
:103800000568C2F800C0056815F0020FFBD0056816
:103810001D6838251560056815F0040FFBD00125DB
:103820001560056815F0040FFBD00D6845F40075B0
:103830000D600D6845F480750D60056815F0010F89
:10384000FBD00568C2F800C0056815F0020FFBD078
:1038500005681D681A251560056815F0040FFBD072
:1038600004251560056815F0040FFBD00D6845F4BC
:1038700000750D600D6845F480750D60056815F0E4
:10388000010FFBD00568C2F800C000BFD0F800C02F
:103890001CF0020FFAD0D0F800C01B681923136087
:1038A000036813F0040FFBD01460026812F0040FD9
:1038B000FBD0086840F4007008600220401CFF281C
:1038C000FCDB30BC70470000005400401454004042
:1038D000105400401854004018B4364B0C211960A5
:1038E000354A19141160354A3C2111600D21121D11
:1038F00011600121196040F6FF72491C9142FCDB06
:10390000196841F4807119602D490A6812F0010F9D
:10391000FBD00A68DFF8ACC0D022CCF800200A68DF
:1039200012F0020FFBD00A68274A1468CCF8000096
:10393000086810F0040FFBD0186840F4807018601D
:10394000086810F0010FFBD00868D120CCF8000007
:10395000086810F0020FFBD008681068086810F0C3
:10396000400FFBD0DCF80000186840F4806018605D
:1039700008681068186840F40070186008681068DB
:10398000DCF800000090186840F4007018600868C7
:1039900010F0100FFBD110680028FCD1186840F41B
:1039A000004018600220401CFF28FCDB009818BC77
:1039B0007047000000540040085400401C54004070
:1039C0001454004010540040185400402DE9F05F9A
:1039D000604C03202DED088B002160605E48FEF7EF
:1039E000D3F9DFED5E8A5E4F47F6FF70F862401054
:1039F000F6EE009A78635B4E0120401CB042FCDB7F
:103A000000215548FEF7E0F90220401CB042FCDBE3
:103A100000215148FEF7B8F96068032873D1524D70
:103A20009FED52AAF0EE08AA9FED51BADFED51BA10
:103A3000DFF844814FF0140A9FED509ADFF840916F
:103A4000FFF750FED5ED000A30EE608AFFF74AFE20
:103A5000FFF748FE88EE0A0AF0EE6B0A3AEEC00A5B
:103A600020EE0B0AB4EEE00AF1EE10FAA8BFB0EEB9
:103A7000600A06DAF4EEC08AF1EE10FAA8BFB0EEE2
:103A8000680AFCEEC00A10EE900AF86220EE290ADD
:103A9000BCEEC00A10EE100A786318EE100A40451A
:103AA000C8BFC4F800A007DC18EE100A35498842E8
:103AB00034BF1E20282020604320FFF70DFF442044
:103AC000FFF70AFF4520FFF707FF4FEA002B4620CC
:103AD000FFF702FF40EA0B0000B200EE100A472099
:103AE000B8EEC00A20EE090AFFF7F6FE4820FFF7FD
:103AF000F3FE10EE100A484502DB0120606002E090
:103B0000606803289CD000211348FEF75DF94FF050
:103B10000208002547F6FF7943F6FF7A00210E4898
:103B2000FEF732F9C7F82C90C7F834A034460220CB
:103B3000401CA042FCDB00210748FEF745F90220AB
:103B4000401CA042FCDB6D1C4545E7DBBDEC088B4F
:103B5000BDE8F09F000000202001002000FEFF468D
:103B60000000014000C05D001C0000200000204259
:103B700000FC7F4600FF7F470000F0410000003856
:103B8000CDCC4C3F0000F0C12DE9F047544D2DED58
:103B9000048B686801281CBFBDEC048BBDE8F0876E
:103BA000DFED508A504F514EDFF84481B7EE009A56
:103BB000DFED509ADFF84091A8F104044320FFF7AD
:103BC0008BFE4420FFF788FE4520FFF785FE4FEA75
:103BD000002A4620FFF780FE40EA0A0000B200EE0D
:103BE000100A4720B8EEC00A20EE280AFFF774FE3C
:103BF0004820FFF771FE10EE100AB842A8BFFFF789
:103C0000E5FEFFF76FFDD6ED000A30EE608AFFF7A4
:103C100069FDFFF767FD286896ED020A00EE900A3D
:103C200031EE400AF8EEE00AB4EEE08AF1EE10FA66
:103C3000C8BF40F6FF7119DC414200EE901AF8EE61
:103C4000E00AB4EEE08AF1EE10FA38BF00210DD39D
:103C500000EE900AB8EEE01AC8EE010A70EE890A8A
:103C600060EEA90AFDEEE00A10EE901AC8F8001006
:103C7000216841F00101216000EE900AF8EEE00AAF
:103C8000B4EEE00AF1EE10FAC8BF40F6FF7019DC9E
:103C9000414200EE901AF8EEE00AB4EEE00AF1EECE
:103CA00010FA38BF00200DD300EE900AB8EEE01AEB
:103CB000C0EE010A30EE890A20EE290ABDEEC00AE4
:103CC00010EE100AC9F80000206840F002002060E1
:103CD000686801283FF472AFBDEC048BBDE8F08743
:103CE0000000002000000038CDCC4C3F1C0000201C
:103CF0000874004000E0FF441474004000B52DED4E
:103D0000048B83B041EC190BFCF71EFD41EC180B42
:103D100018EE100A18EE901A8DED008B002818BFCF
:103D20000120084320F00040C0F17F6000F1E04036
:103D3000C00F14D019EE101A19EE900A8DED009BE9
:103D4000002918BF0121084320F00040C0F17F6026
:103D500000F1E040C00F04BF0120FFF731FB51EC40
:103D6000180B03B0BDEC048B00BD00000000000088
:103D70000000010203040607080900000000010218
:103D80000304000000000000000000000000F03FFD
:103D9000000000000000F83F0000000000000000EC
:103DA0000000004003B8E23F0000000000000000F7
:103DB00006D0CF43EBFD4C3E033333333333E33F85
:103DC000FFAB6FDBB66DDB3F4D268F515555D53FB1
:103DD00001411DA96074D13F65DBC9934A86CD3F7F
:103DE000EF4E454A287ECA3F3E5555555555C53F6D
:103DF00093BDBE166CC166BF2CDE25AF6A56113F5F
:103E0000F16BD2C541BDBBBED0A4BE726937663E60
:103E10004FBB610567ACDD3F182D4454FB21E93FE2
:103E20009BF681D20B73EF3F182D4454FB21F93FD1
:103E3000E2652F227F2B7A3C075C143326A6813C57
:103E4000BDCBF07A8807703C075C143326A6913C02
:103E5000C4EB98999999C9BF711623FEC671BCBF6E
:103E60006D9A74AFF2B0B3BF9AFDDE522DDEADBFD6
:103E70002F6C6A2C44B4A2BF0D5555555555D53FEE
:103E8000FF8300922449C23F6E204CC5CD45B73F09
:103E9000513DD0A0660DB13FEB0D76244B7BA93F81
:103EA00011DA22E33AAD903F00000000000000006C
:103EB000D03E0008000000201C000000A0330008D5
:103EC000EC3E00081C00002044050000B033000850
:103ED0001E000000010000000100000010000000B2
:0C3EE000000000000024F40000000000BE
:040000050800018965
:00000001FF
