:020000040800F2
:10000000480500209D010008D71A0008A71800081D
:10001000D51A000885090008971E00080000000096
:10002000000000000000000000000000FB1A0008B3
:100030008709000800000000F91A0008FD1A0008EE
:10004000B7010008B7010008B7010008B7010008B0
:10005000B7010008B7010008B7010008B7010008A0
:10006000B7010008B7010008B7010008B701000890
:10007000B7010008B7010008B7010008B701000880
:10008000B7010008B7010008B7010008B701000870
:10009000B7010008B7010008B7010008B701000860
:1000A000B7010008B7010008B7010008B701000850
:1000B000B7010008B7010008B7010008B701000840
:1000C000B7010008B7010008B7010008B701000830
:1000D000B7010008B7010008B7010008B701000820
:1000E000B7010008B7010008B7010008B701000810
:1000F000B7010008B7010008B7010008B701000800
:10010000B7010008B7010008B7010008B7010008EF
:10011000B7010008B7010008B7010008B7010008DF
:10012000B7010008B7010008B7010008B7010008CF
:10013000B7010008B7010008B7010008B7010008BF
:10014000B7010008B7010008B7010008B7010008AF
:10015000B7010008B7010008B7010008B70100089F
:10016000B7010008B7010008B7010008B70100088F
:10017000B7010008B7010008B7010008000000003F
:10018000B7010008B7010008DFF80CD000F056FBFB
:1001900000480047693300084805002006488047AA
:1001A00006480047FEE7FEE7FEE7FEE7FEE7FEE75C
:1001B000FEE7FEE7FEE7FEE7AD1B00088901000849
:1001C0002DE9F05F0546002092469B46884606468C
:1001D000814640241BE0284641464746224600F01F
:1001E000E6F953465A46C01A914110D311461846B3
:1001F000224600F0CDF92D1A67EB01084F46224642
:100200000120002100F0C4F917EB00094E41201E27
:10021000A4F10104DFDC484631462A464346BDE8E6
:10022000F09F2DE9FE4F804681EA0300C00F0C4687
:10023000009021F0004123F00045B8EB0200A941F5
:1002400005D24046214690461C460B46024623F006
:100250000040104347D0270DC7F30A00C3F30A51EB
:100260000290401A019040286BDAC3F3130040F467
:10027000801B0098924620B10023D2EB030A63EB67
:100280000B0B01985946C0F14002504600F080F92E
:1002900006460D4650465946019A00F098F910EB73
:1002A00008006141002487EA115284EAE7731A4387
:1002B00040D0009A62B3019A012A4FEA075215DC36
:1002C000001B61EB02014FF0004202EA0752CDE948
:1002D0000042001C41F5801132462B4600F0CFF958
:1002E00003B0BDE8F08F40462146F9E7001B61EB03
:1002F0000201001C41F5801300185B412018A2F593
:10030000001747EB030140EAD570B6196D4111E0C3
:100310006D084FEA360645EAC0754FEA0752001BE2
:1003200061EB0201001C41F5801149084FEA3000E1
:100330000019514132462B4603B0BDE8F04F00F0A2
:100340008FB90098012240000023D0EB020263EB3A
:10035000E073009821464FEAE074B8EB000061EBCF
:100360000401E9E783F000435BE781F0004158E7CF
:100370002DE9FE4F81EA030404F0004421F000411E
:1003800000944FF0000B23F0004350EA01045ED0CC
:1003900052EA03045BD0C3F30A54C1F30A552C4458
:1003A000A4F2F3340194A0FB0254C1F3130141F40D
:1003B0008011C3F3130343F4801301FB024400FBD9
:1003C000034E840A970A44EA815447EA8357A4FB00
:1003D000076802958D0A05FB07854FEA932C04FBFD
:1003E0000C542705029D4FEA065847EA1637B5EB2D
:1003F00008056EEB070C870E920E47EA811742EA5A
:100400008312A7FB0201B6EB0B0164EB00042B0D7A
:1004100043EA0C335E1844EB1C50DA465146E7FBC6
:100420000201C5F313044FEA0B3343EA14534FEAB6
:100430000432019C43EA0603A4F10C040294009CDC
:10044000CDE900B400F01BF903B0BDE8F08F002047
:100450000146F9E72DE9F04D81EA030404F0004B71
:1004600021F0004514464FF0000A23F0004150EA05
:10047000050220D054EA01021DD0C5F30A570246F6
:10048000C5F31303C1F31300C1F30A5640F48015FA
:1004900043F48013A7EB0608101BD64608F2FD387C
:1004A00073EB050002D308F1010801E092185B41EB
:1004B000B8F1000F03DA00200146BDE8F08D0020FE
:1004C0004FF48011064684460EE0171B73EB0507B8
:1004D00005D3121B63EB050306434CEA010C4908E4
:1004E0004FEA300092185B4150EA0107EDD152EA21
:1004F000030012D082EA040083EA0501084305D014
:10050000101BAB4106D20122002306E000224FF06F
:10051000004302E06FF0010253101AEB06004CEBAF
:10052000085110EB0A0041EB0B01BDE8F04D00F063
:1005300097B800F0004230F000400AD0C10D01F53C
:100540006071C0F3160042EA0151C208400711432E
:10055000704700200146704701F0004330B421F09D
:10056000004150EA010206D00A0DA2F56072C1F303
:100570001301002A02DC30BC00207047440F44EA1B
:10058000C104C100E01830BC00EBC25000F031B82B
:10059000202A04DB203A00FA02F100207047914043
:1005A000C2F1200320FA03F3194390407047202A38
:1005B00004DB203A21FA02F00021704721FA02F30D
:1005C000D040C2F120029140084319467047202ACA
:1005D00006DBCB17203A41FA02F043EAE07306E06B
:1005E00041FA02F3D040C2F120029140084319467B
:1005F00070470029A8BF7047401C490008BF20F081
:100600000100704710B4B0FA80FC00FA0CF050EA18
:10061000010404BF10BC704749B1CCF1200421FA99
:1006200004F411FA0CF118BF012121430843A3EB94
:100630000C01CB1D4FEA00614FEA102042BF0020A1
:1006400010BC704700EBC35010440029A4BF10BC7D
:100650007047401C490008BF20F0010010BC7047E3
:1006600010B5141E73F1000408DA401C41F10001BA
:1006700092185B411A4301D120F0010010BD2DE911
:10068000F04D92469B4611B1B1FA81F202E0B0FA08
:1006900080F220329046FFF77BFF04460F4640EA87
:1006A0000A0041EA0B0153465A46084313D011464B
:1006B00053EA010019D0C8F140025046FFF777FF16
:1006C00005460E46504659464246FFF761FF08432D
:1006D00005D0012004E020463946BDE8F08D002019
:1006E000054346EAE0762C4337430A986305E40A5B
:1006F000A0EB08000022FD0A44EA47540A3002D564
:1007000000200146E9E7010510196941DDE90845C6
:1007100000196941BDE8F04DA2E770B521F0004332
:1007200003430CD0C1F30A550024D5EB040564EB58
:100730000403D617AD1AB34102DB0020014670BD99
:10074000201841EB025170BD2DE9F04D00231A46EF
:100750001B1A8A4103DB00200146BDE8F08DC1F37E
:100760000A52C1F3130141F480154FF0000BD10779
:1007700002D100186D41521E0027044640F2FF11BD
:10078000384601EB620A3E468046024600204FF49E
:100790008011FFF70CFFC2197141BB1846EB010035
:1007A000B4EB030C75EB000C04D3E41A65EB000505
:1007B00017460E46241908F101006D418046342881
:1007C000E3DDF91946EB0600091BA84103D24FF0FF
:1007D000FF32134601E0002213461BEB070046EBF5
:1007E0000A51BDE8F04DFFF73BBF0EB5C10F80EADF
:1007F000E0700844CA07002140F233438DE80E0040
:100800000A460B46FFF73BFF03B000BD30B5041EA0
:1008100071F1000404DB4FF00044404264EB01013D
:10082000141E73F1000405DB1C464FF000435242D6
:1008300063EB0403994208BF904230BD064C074D5C
:1008400006E0E06840F0010394E8070098471034A0
:10085000AC42F6D3FFF79CFC003A0008203A0008AF
:10086000454910B54A6822F440324A604A684368F4
:100870001A434A6001684A6822F480724A6001683B
:100880004A68036942EA03224A6001684A6822F022
:1008900040724A6001684A6883681A434A60016886
:1008A0008A6822F400628A6001688A68C3681A4311
:1008B0008A60816A6FF07062D14201688A6822F0B2
:1008C00070628A6001688A680CD0836A1A438A6001
:1008D00001688A6822F040528A6001688A68C36AA7
:1008E0001A4301E022F040528A6001688A6822F0CF
:1008F00002028A6001688A68836942EA43028A6068
:10090000016A002901684A680FD042F400624A6017
:1009100001684A6822F460424A6001684A68174CDC
:10092000436A04EB43331A4301E022F400624A6055
:100930000168CA6A22F47002CA620168CA6A838BBB
:100940000F4C04EB03531A43CA6201688A6822F40D
:1009500000728A6001688A68036B42EA43228A60F7
:1009600001688A6822F480628A6001688A68406946
:1009700042EA8020886010BD0023014000E0FFFFB4
:100980000000F0FFFEE7704778B50024009490F86F
:100990003C20012A19D0012280F83C200A68072354
:1009A0000568092A13D9EE680A3A02EB420293401D
:1009B0009E43EE600B788A680A3B03EB43039A4040
:1009C0000368DD682A43DA6010E0022078BD2E69F2
:1009D00002EB420293409E432E610B788A6803EB40
:1009E00043039A4003681D692A431A614A681F231A
:1009F000072A13D205686E6B521E02EB82029340E7
:100A00009E436E630B790A885B1E92B203EB8303ED
:100A10009A4003685D6B2A435A6327E005680D2AF4
:100A200012D22E6BD21F02EB820293409E432E63A2
:100A30000B790A88DB1F92B203EB83039A400368A9
:100A40001D6B2A431A6311E0EE6A0D3A02EB820233
:100A500093409E43EE620B790A880D3B92B203EB02
:100A600083039A400368DD6A2A43DA62164B0568FD
:100A7000144A9D4206D10D68122D03D1556845F4E4
:100A80008005556005689D4218D10B68102B01D078
:100A9000112B13D1536843F40003536009681029E4
:100AA0000CD10A490A4A0968B1FBF2F101EB810154
:100AB000490000E0491E00910029FBD180F83C402C
:100AC000002078BD00230140002001400C000020E0
:100AD00040420F0070B504004FF0000503D0206CB9
:100AE000002610B107E0012070BD666484F83C6008
:100AF000204600F019F8206CC00610D4206C20F4B9
:100B0000885040F0020020642046FFF7A9FE66648A
:100B1000206C20F0020040F00100206400E001257C
:100B200084F83C60284670BD30B5134D046800223F
:100B300012490323124887B0AC4209D10C6844F42F
:100B400080740C60096801F48071059101210BE04B
:100B50000C4DAC420ED10C6844F400740C60096872
:100B600001F4007105910221CDE90013029269465A
:100B700000F062F807B030BD002001404438024068
:100B8000000002400021014070B54379012B1AD0CA
:100B9000012646710223037105682C6840F6FE7336
:100BA00093409C43D1E900310B43934023432B6096
:100BB00001680B68C0249440A3430B6006710021B8
:100BC0004171084670BD022070BD70B5040003D0AD
:100BD0002079002510B105E0012070BD6571204627
:100BE00000F008F80220207125610120207100200A
:100BF00070BD000000B500680C4987B0884212D172
:100C00000B480021026842F000520260006800F0C8
:100C100000500590302000900320CDE90101694685
:100C2000044800F009F807B000BD0000007400405F
:100C300040380240000002402DE9F84FDFF87CB157
:100C400000224FF001084FF0030A4FF00F090BF19B
:100C5000040E00BF0B6808FA02F42340A3426ED1D1
:100C60004D68022D01D0122D0ED1D50800EB850C58
:100C7000DCF820505607F70E09FA07F6B5430E695F
:100C8000BE402E43CCF82060066855000F790AFA62
:100C900005FC07F0030726EA0C06AF403743076060
:100CA0004E68012E05D0022E03D0112E01D0122E37
:100CB0000ED18668CF6826EA0C06AF4037438760BE
:100CC0004668A6430C79C4F300149440344344604E
:100CD000C6688C6826EA0C06AC403443C4604C6895
:100CE000E40065D5364C256845F4804525602468C8
:100CF00022F0030504F480440094324C2E19D6F8F7
:100D0000084895072F0F09FA07F5AC432E4DA84266
:100D100001D1002524E02D4DA84201D101251FE07D
:100D20002B4DA84201D102251AE02A4DA84201D13B
:100D3000032515E0284DA84202D1042510E037E034
:100D4000264DA84201D105250AE0254DA84201D132
:100D5000062505E0234DA84201D1072500E008251E
:100D6000BD402543C6F80858DBF800405D464E6894
:100D70009C43F60300D51C432C60DEF8004075460A
:100D80004E689C43B60300D51C432C600B4D0835C0
:100D90002C684E689C43F60200D51C432C60074D1E
:100DA0000C352C684E689C43B60200D51C432C6061
:100DB000521C102AFFF44EAFBDE8F88F003C0140F2
:100DC000443802400030014000000240000402406C
:100DD00000080240000C02400010024000140240D3
:100DE00000180240001C02400AB1816170470904EA
:100DF000FBE7000001488068704700000000002009
:100E000070B5040004D094F83D00002510B106E050
:100E1000012070BD84F83C50204600F075F8242075
:100E200084F83D002068016821F00101016000F0B4
:100E3000E5F933492268B0FBF1F15160314A63684A
:100E4000934206D94FF4967359434FF47A73B1FB2A
:100E5000F3F12368491C1962616891420BD849007B
:100E6000B0FBF1F2C2F30B02042A01D2042019E014
:100E7000B0FBF1F016E0A3689BB301EBC10202EBFB
:100E80000112B0FBF2F242F48042120530D04BB3B3
:100E900001EBC10202EB0111B0FBF1F040F4804024
:100EA00040F400402168C861D4E907010843216883
:100EB0000860D4E90310084321688860D4E905017B
:100EC00008432168C8602068016841F001010160A1
:100ED0002564202084F83D00256384F83E500020DE
:100EE00070BD00E006E001EB4102B0FBF2F2CCE79E
:100EF0000120D7E701EB4101B0FBF1F0D0E70000A2
:100F000040420F00A086010000B500680E4987B07E
:100F1000884216D1C020009012200190012002903A
:100F2000032003900420049069460848FFF784FEDC
:100F30000748016841F400110160006800F40010E6
:100F4000059007B000BD00000054004000040240BE
:100F5000403802400248816802781144816070473D
:100F6000000000200B4810B5016841F400710160D9
:100F7000016841F480610160016841F480710160A1
:100F8000032000F08BF8002000F006F800F024F8B1
:100F9000002010BD003C024070B50D4D04464FF4DA
:100FA0007A712878B1FBF0F00A490968B1FBF0F0DA
:100FB00000F001FB48B9102C07D200222146501E38
:100FC00000F04CF800206C6070BD012070BD000086
:100FD000000000200C0000201F4808B5016841F403
:100FE00080410160006800F4804000901A48001FB2
:100FF000016841F080510160006800F0805000906D
:10100000032000F04BF8002211466FF00B0000F0B7
:1010100025F8002211466FF00A0000F01FF80022A8
:1010200011466FF0090000F019F800221146501F18
:1010300000F014F800221146101F00F00FF80022F3
:101040001146901E00F00AF80022BDE80840114643
:10105000501E00F003B8000044380240F0B40E4BBC
:101060001B680C46C3F30223C3F10705042D00D906
:101070000425191D072901D2002300E0DB1E0126EB
:1010800006FA05F1491E214099409E40761E164001
:101090003143F0BC00F020BD0CED00E0064900F04B
:1010A000070208684FF6FF03184040EA0220034A8F
:1010B00010430860704700000CED00E00000FA05E6
:1010C0002DE9F0470E46050065D0DFF81481D8F809
:1010D0000000F7B200F00F00B04207D288F80070AD
:1010E000D8F8000000F00F00B04254D128683D4C01
:1010F000810712D5400703D5206840F4E0502060F6
:101100002878000703D5206840F4604020602068FC
:10111000A96820F0F000084320602878C0072DD08F
:10112000304968680839012812D0022813D00328F2
:1011300011D00968890700292DDA216821F00301FF
:1011400001432160FFF756FE814641F2883A0EE0E6
:1011500009688903EFE709688901ECE7FFF74AFEB0
:10116000A0EB0901514502D90320BDE8F0872068B2
:10117000696800F00C00B0EB810FEFD1D8F80010D7
:10118000404601F00F01B14207D90770006800F036
:101190000F00B04201D00120E7E72878400705D5CD
:1011A0002068E96820F4E0500843206028780007B0
:1011B00006D52068296920F4604040EAC10020601B
:1011C00000F02CF82168084AC1F30311515CC840B3
:1011D000064908600020FFF7DFFE0020C5E7000099
:1011E000003C024008380240BE3800080C000020D5
:1011F00001480068704700000C00002004480549C1
:1012000000680968044AC1F38221515CC8407047F4
:101210000C00002008380240CE380008154810B5F0
:10122000006810F00C02144813D01449042A0FD09F
:10123000082A0ED10F4C241F2268236802F03F02B7
:101240005B0207D52068C0F38810A0FB010106E00F
:10125000084610BD2168C1F38811A1FB00010023DD
:10126000FEF7AEFF2168C1F30141491C4900B0FB04
:10127000F1F010BD083802400024F40040787D01F0
:101280002DE9F84F050076D02878DFF8F8B2BE4C8B
:10129000C00749D0DBF800105846C1F3810101298D
:1012A00008D00068C0F3810002280AD1201D006820
:1012B000400206D52068800336D568680028E2D051
:1012C00032E06868B0F5803F10D0B0F5A02F2068FC
:1012D00010D020F480302060206820F4802020602E
:1012E0006868A0B1FFF786FD06460CE0206840F470
:1012F0008030F4E740F480202060F7E7FFF77AFDC4
:10130000801B642873D820688003F7D50CE0FFF7B2
:1013100071FD064605E000BFFFF76CFD801B6428E9
:10132000F0D820688003F7D42878DFF8608280073F
:101330004FF000093ED5DBF80010584611F00C0FB5
:1013400009D00068C0F3810002280BD18D48001F2E
:101350000068400206D42068800715D5E868012897
:1013600009D111E0E868B8B10120C8F80000FFF722
:1013700041FD064605E002E1FFF73CFD801B022827
:10138000C0D820688007F7D52068296920F0F800C8
:1013900040EAC10020600DE0C8F80090FFF72AFD88
:1013A000064604E0FFF726FD801B02281FD82068B0
:1013B0008007F7D42878000722D5724E74486969EF
:1013C0006C3671B101210160FFF714FD074604E09E
:1013D000FFF710FDC01B022809D830688007F7D539
:1013E0000EE0C0F80090FFF705FD074605E083E03A
:1013F000FFF700FDC01B02287ED830688007F7D4B5
:101400002878400768D5DFF87CA100270AF1380A60
:10141000DAF80000C0000BD4DAF8001041F0805177
:10142000CAF80010DAF80000012700F080500090A0
:10143000584E3068C00510D4306840F48070306079
:10144000FFF7D8FC009005E0FFF7D4FC0099401AA4
:10145000022851D83068C005F6D54A4EA8686836CB
:1014600001280FD00528306810D020F0010030602E
:10147000306820F004003060A868B8B1FFF7BAFC0B
:1014800000900FE0306840F00100F4E740F0040005
:101490003060F7E7FFF7AEFC0099411A41F288305F
:1014A000814264D830688007F4D50EE0FFF7A2FCD3
:1014B000009007E0FFF79EFC0099411A41F2883046
:1014C000814254D830688007F4D42FB1DAF8001084
:1014D00021F08051CAF80010A869C0B3DBF80010F1
:1014E000C1F3810102294AD00228484607D0C8F832
:1014F0006000FFF77FFC00E039E005463AE0474630
:10150000C8F86000FFF776FC064604E0FFF772FCBF
:10151000801B02282BD820688001F7D4D5E9070169
:101520000843A96A1C4A490802EB01416A6A41EA78
:101530008211084395F82C1040EA01611148001F00
:10154000016001203866FFF755FC054605E014E010
:10155000FFF750FC401B022809D820688001F7D50E
:101560000BE000BFFFF746FC401B022802D9032016
:10157000BDE8F88F20688001F4D40020F8E701204E
:10158000F6E70000083802400038024000004742F9
:10159000800E4742007000400000FFFF4FF0E02146
:1015A0000428086903D020F004000861704740F067
:1015B0000400FAE7704710B5401EB0F1807F01D3F8
:1015C000012010BD4FF0E02460610F21601700F092
:1015D00083FA0020A06107202061002010BD10B513
:1015E000FFF7E8FF10BD10B590F83820012A25D08C
:1015F000012280F83820CA688C6822F440722243A5
:101600004C6822F4806222430C6822F40062224378
:101610000C6922F4805222434C6922F40052224386
:101620008C6922F48042224322F4004102680023A4
:101630002143516480F83830002010BD022010BDD5
:1016400030B590F83820012A20D0012280F83820C7
:10165000022380F8393003685C6824F070045C6011
:1016600003685C680D682C435C6003689C6824F028
:1016700080049C6003689C6849680C439C6080F807
:101680003920002180F83810084630BD022030BDD6
:1016900010B5040003D094F8390010B107E0012020
:1016A00010BD002084F83800204600F00DF802201C
:1016B00084F83900211D206800F0A2FA012084F886
:1016C0003900002010BD000008B5006806498842B6
:1016D00008D10648016841F001010160006800F08E
:1016E0000100009008BD00000000014044380240A5
:1016F00070B5044690F83800012817D0012584F809
:101700003850022084F839002068826822F077027D
:1017100022F47F4282600868502837D00DDC2028F0
:1017200059D005DC88B3102841D151E0022070BDAA
:10173000302853D040283AD13FE060282ED070287E
:101740000BD0B0F5805F03D0B0F5005F2FD110E073
:101750002068816821F0070115E0CB68D1E90121FB
:10176000206800F0ADFA2168886840F07700886052
:101770001DE0CB68D1E90121206800F0A1FA2068C2
:10178000816841F48041816011E01EE0CA684968C7
:10179000206800F05DFB5021206806E0CA684968B7
:1017A000206800F066FB6021206800F093FA84F85E
:1017B0003950002084F8380070BDCA684968206834
:1017C00000F046FB40212068EFE700212068ECE7AD
:1017D00010212068E9E720212068E6E73021206811
:1017E000E3E7000000B50068094985B088420CD1E4
:1017F0004015009002200021CDE901010390012055
:10180000049069460348FFF717FA05B000BD0000D1
:10181000000001400010024070B5044690F8380006
:1018200001280DD0012584F83850022084F83900B1
:1018300042B1042A0AD0082A0CD00C2A11D10DE09A
:10184000022070BD206800F04DFA0AE0206800F028
:1018500075FA06E0206800F0A3FA02E0206800F0C4
:10186000CFFA84F83950002084F8380070BD10B5E4
:10187000040003D094F8390010B107E0012010BD36
:10188000002084F83800204600F00CF8022084F88C
:101890003900211D206800F0B3F9012084F83900D7
:1018A000002010BD7047FEE77FB5124810490024A4
:1018B00001604FF40031C0E90114046184610E49F4
:1018C0000462C0E90A140125C460C561456104636E
:1018D000FFF700F900B1FEE7CDE90045694605488C
:1018E0000294FFF751F8002800D0FEE77FBD00000A
:1018F00000200140140000200100000F7FB51248B5
:101900001049002401604FF40031C0E90114046162
:1019100084610E490462C0E90A140125C460C561EE
:1019200045610463FFF7D6F800B1FEE70095CDE905
:10193000015469460448FFF727F8002800D0FEE765
:101940007FBD0000002101405C0000200100000F6D
:101950001CB50E490C4808600846FFF736F900B17F
:10196000FEE7002000900246019069460748FFF715
:101970000BF900B1FEE7102269460448FFF704F9AD
:10198000002800D0FEE71CBD00740040A400002029
:1019900030B51A4887B00024016841F08001016029
:1019A000016801F080010591016841F001010160C9
:1019B000016801F001010591016841F01001016029
:1019C000016801F010010591016841F00201016018
:1019D00000680B4D00F0020005900022012128460E
:1019E000FFF702FA01210091CDE90114694628466A
:1019F0000394FFF721F907B030BD000030380240F2
:101A0000001002400B4810B5094901600A494160C5
:101A100000214FF480428160C0E90312416181617D
:101A2000C1610162FFF7ECF9002800D0FEE710BDAC
:101A300000540040B8000020A086010010B52448E2
:101A400094B022490024C0E900148460C460046199
:101A50004461FFF71DFE00B1FEE74FF480500E9089
:101A60000EA91B48FFF744FE00B1FEE71848FFF738
:101A7000FEFE00B1FEE7129412A915481394FFF779
:101A8000DFFD00B1FEE700940194029403940494F6
:101A90000594002269460E480694FFF7BDFE00B18A
:101AA000FEE70794089409944FF400500A94CDE996
:101AB0000B4007A906480D94FFF795FD00B1FEE71E
:101AC0000348FFF78FFE14B010BD00000000014076
:101AD0000C010020FEE770470907090E002806DA0E
:101AE00000F00F0000F1E02080F8141D704700F1B5
:101AF000E02080F8001470477047704710B5FFF77A
:101B000029FABDE81040FFF76ABD000030B525484E
:101B100093B00025016841F080510160006800F039
:101B2000805011902048016841F4804101600068B4
:101B3000022400F4804011900120009000040190E4
:101B40008001CDE90640192008904FF4A870CDE936
:101B5000090404200B906846FFF792FB00B1FEE7F2
:101B60000CA90F2081E831004FF4A0500F904FF4E2
:101B70008050109005210CA8FFF7A2FA00B1FEE7F3
:101B8000FFF736FB4FF47A71B0FBF1F0FFF713FD6E
:101B90000420FFF703FD00221146501EFFF75EFAF6
:101BA00013B030BD4038024000700040104801685A
:101BB00041F4700101600F48016841F001010160CA
:101BC0000C4A00210832116002680B4B1A40026077
:101BD000031D0A4A1A60026822F480220260054846
:101BE0000C300160024958068039086070470000D7
:101BF00088ED00E000380240FFFFF6FE10300024C0
:101C0000F0B50268234B244D244E254F254C4FF050
:101C1000804C984209D0604507D0A84205D0B04218
:101C200003D0B84201D0A04204D122F0700E4A681D
:101C300042EA0E0298421BD0604519D0A84217D044
:101C4000B04215D0B84213D0A04211D0164DA842D0
:101C50000ED0164DA8420BD0154DA84208D0154DF8
:101C6000A84205D0144DA84202D0144DA84203D179
:101C700022F44075CA682A4302608A68C2620A6810
:101C80008262984201D0A04201D109690163012119
:101C90004161F0BD00000140000400400008004028
:101CA000000C00400004014000400140004401409D
:101CB0000048014000180040001C00400020004087
:101CC00010B5846842EA032224F47F440A43224385
:101CD000826010BD826822F070020A4342F0070160
:101CE0008160704730B5026A22F001020262026A26
:101CF000436884690D6824F07304254322F00204CC
:101D00008A6822430B4CA04202D00B4CA0420BD15C
:101D100022F00804CA6823F4407322434C6922F07D
:101D200004021C438B692343436085614968416316
:101D3000026230BD000001400004014030B5026A7B
:101D400022F010020262026A436884690D6824F47A
:101D5000E64444EA05248D6822F0200242EA051296
:101D60000D4DA84202D00D4DA8420ED1CD6822F0F3
:101D7000800242EA05124D6923F4406343EA850379
:101D80008D6922F0400243EA85034360846149681B
:101D90008163026230BD0000000001400004014088
:101DA00030B5026A22F480720262036A4268C46932
:101DB00023F4007324F073050C682C438D6843EA08
:101DC00005230D4DA84202D00C4DA8420ED1CD687E
:101DD00023F4006343EA05234D6922F4405242EAAA
:101DE00005128D6923F4806342EA05124260C461E2
:101DF0004968C163036230BD000001400004014036
:101E000030B5026A22F480520262046A4268C369F1
:101E10000D6823F4E64343EA05238D6824F4005457
:101E200044EA0534084DA84202D0084DA84204D126
:101E30004D6922F4804242EA85124260C3614968DA
:101E40000164046230BD0000000001400004014054
:101E500010B5036A046A24F001040462846924F062
:101E6000F00444EA021423F00A020A438461026285
:101E700010BD10B5036A23F0100303628369046A7E
:101E800023F4704343EA023224F0A00343EA011131
:101E90008261016210BDFEE703B401984100009821
:101EA00050EAC12018BF04204A0D18BF40F00100BD
:101EB00040F2FF72B2EB515F08BF40F00200012810
:101EC00008BF052002B0704770B59B482DED020B8E
:101ED0002DED068B079D25F00044A04218DC9748A5
:101EE000844202DC0AD1069840B19DED060BBDECA0
:101EF000068B02B0BDE8704001F046B9002DCCBFA2
:101F00009FED8F0B9FED900BBDEC068B02B070BD6B
:101F10008F48A04215DD8F48A042D8BF4FF0FF3454
:101F200058DD9DED060B51EC100BFFF7B5FF0428B3
:101F300008BF01F05DF99DED060BBDEC068B02B00C
:101F400070BD9DED060B51EC100B01F001FACDE9CF
:101F5000060181489FED828BA0423CDD8248A04271
:101F60001FDD00249FED82AB9DED060B53EC1A2B79
:101F700051EC100BFEF755F99DED060B41EC190BDA
:101F800053EC1A2B51EC100BFEF7F2F953EC182B13
:101F9000FEF7E8F953EC192BFEF75CFACDE90601E0
:101FA00049E09DED060B012453EC182B51EC100B6E
:101FB000FEF737F99DED060B41EC190B53EC182B8E
:101FC00051EC100BFEF7CEF953EC192BFEF742FA49
:101FD000CDE906012FE06848A0421FDD02249FEDF5
:101FE000689B9DED060B53EC192B51EC100BFEF783
:101FF000BFF953EC182BFEF714F99DED060B41ECDD
:10200000180B53EC192B51EC100BFEF7ABF953ECFA
:10201000182BFEF71FFACDE906010CE09DED060B2B
:10202000032453EC102B9FED580B51EC100BFEF7D3
:1020300011FACDE906019DED060B53EC102B51EC86
:10204000100BFEF795F941EC180B53EC182BFEF72B
:102050008FF941EC190B4E480621B0EE490AF0EE1B
:10206000690A784400F0F9FF53EC182B51EC100B7F
:10207000FEF77EF941EC180B4648B0EE490AF0EE47
:10208000690A0521784400F0E8FF53EC192B51EC64
:10209000100BFEF76DF941EC100B51EC180B53ECE3
:1020A000102B002C0EDAFEF7BCF89DED061B53EC4E
:1020B000112BFEF75DF99DED061B53EC112BFEF77E
:1020C00054F935E0FEF7ADF89DED061B53EC112BEE
:1020D000FEF74EF941EC100B2F48784400EBC4009A
:1020E00090ED001B51EC100B53EC112BFEF73AF95D
:1020F0009DED061B53EC112BFEF734F941EC100B50
:102100002648784400EBC40090ED001B51EC100B06
:1021100053EC112BFEF729F941EC100B002DA2BF57
:10212000BDEC068B02B070BD51EC100B81F000418C
:1021300041EC100B01E70000000010440000F07FAC
:10214000182D4454FB21F93F182D4454FB21F9BFAD
:102150000000DC3F0000203E0000F33F00000000D4
:10216000000000000000F03F0000E63F000000001B
:10217000000000000000004000800340000000005C
:10218000000000000000F83F000000000000F0BF69
:102190006219000018190000A21800005A18000067
:1021A00070B56B4E2DED040B2DED028B82B0DDF87A
:1021B0001CC0DDE905235C422CF000411C4341EAD0
:1021C000D474049D22F00040B44205D86C422C43E4
:1021D00040EAD474B4420BD99DED061B9DED040B6F
:1021E00002B0BDEC028B04B0BDE8704000F0D6BF79
:1021F000ACF14054A4F17F641C430BD0022404EAE8
:10220000AC7444EAD27405439FED538B9FED542B7D
:1022100007D015E09DED040B51EC100B01F090F888
:1022200042E0002C11BF012C9DED040B02B0BDEC6F
:10223000028B04BF04B070BD022C38D0032C3BD0FD
:102240000B439FED491B9FED4A0B0AD0B14218D1B9
:10225000B04209D121F0804120F0804007910590E3
:102260000FE0002A15DA10E0434B7B44002C08BF36
:1022700093ED000B0DD0012C10D0022C17D0032CA5
:102280001AD0B0421DD1002A03DAB0EE410AF0EEB6
:10229000610A02B0BDEC028B04B070BD93ED000B7F
:1022A00051EC100B81F0004141EC100BF1E7B0EE66
:1022B000480AF0EE680AECE7B0EE420AF0EE620A75
:1022C000E7E7401A00153C28C8BF8DED000B19DC6C
:1022D000BCF1000FBEBF10F13C0F9FED290B8DED3F
:1022E000000B0FDB9DED060B53EC102B9DED040B4B
:1022F00051EC100BFEF7AEF801F02AF801F020F8CF
:10230000CDE90001002C08BF9DED000BC1D0012CD0
:1023100010D0022C9FED1C0B53EC102B9DED000BED
:1023200051EC100B0DD0FEF71DF853EC182BFEF7F7
:1023300019F8B9E7019880F0004001909DED000B7D
:10234000A7E7FEF70FF853EC182BFEF70EF8ABE7F4
:102350000000F07F00000000182D4454FB210940CC
:10236000182D4454FB2109C0182D4454FB21F9BFFA
:10237000182D4454FB21F93F8A170000000000008B
:102380000000000000000000075C143326A6A13CFA
:102390002DE9F04D2DED040B2DED0E8B96B0DDE902
:1023A0002550279CDDF890A025F0004624F0004839
:1023B000BAF1000F14BF0121002101EB4502FC49D5
:1023C00053184A1093422AD3002814BF0123002334
:1023D00003EB44030B44F7498B4220D358EA000136
:1023E0009FEDF59B76D0DFF8D8B35D4503D1BAF108
:1023F000000F05D188E0BAF1000F08BF002100D01E
:10240000012101EB450111F5001F08D8002814BF78
:102410000121002101EB440111F5001F0BD99DEDB5
:10242000261B9DED240B16B0BDEC0E8B04B0BDE851
:10243000F04D00F0B3BE0027002DBCBFE149884538
:1024400021DAE1498845A8BF02271CDAC3451ADC16
:10245000DE4901EB2851142908DDC1F1340220FACC
:1024600002F101FA02F282420DD108E058B9C1F13D
:10247000140228FA02F101FA02F2424503D101F0F6
:102480000101C1F1020756EA0A0124D1002C22DA27
:10249000002D18BF022F01D0012F0AD0022000F01A
:1024A000C7FE16B0BDEC0E8B04B0BDE8F04D00F0D9
:1024B00053BE022000F0BCFE00F04EFE51EC100BAB
:1024C00081F0004141EC100B16B0BDEC0E8B04B056
:1024D000BDE8F08D18E09FEDBEAB9FEDBF8B0028EF
:1024E00071D1B848804522D105F1804010F58010A7
:1024F00008BFBAF1000F07D0B3450ADC002CA8BF13
:102500009DED260BE0DA0DE0B0EE490AF0EE690A27
:10251000DAE7002C06DA9DED260B51EC100B81F06A
:1025200000416FE0AE48784490ED000BCCE7D84511
:102530004DD1002C48DA2EB186423AD1BAF1000FC3
:1025400042D126E0BAF1000F13D0022000F070FE55
:1025500000F03EFE8DED020B9DED240B8DED000B8A
:1025600010EE900A039961F31E0003909DED020B9B
:10257000AAE78DED02AB9DED240B1AEE901A10EE3A
:10258000900A8DED000B61F31E0003909DED020B90
:102590009AE78DED028B9DED240B18EE901A10EE4C
:1025A000900A8DED000B61F31E0003909DED020B70
:1025B0008AE709DA9DED240B51EC190B53EC102B33
:1025C000FDF748FF1EE020E09DED240B7CE78642EE
:1025D0001BDAB4F1804F0DD0A4F10050B0F1FF50E0
:1025E00013D1002D11DB9DED240B51EC100B01F0EC
:1025F0002FF907E09DED240B53EC102B51EC100B41
:1026000000F0C2BC41EC100B5EE79DED240B51ECD9
:10261000100B00F09DFEBAF1000FCDE90E0142D182
:102620009FED710B46B3A6F1E040B0F17F600CD096
:102630005E4538D1002D00DAA7B3022F0CBF012070
:102640004FF0FF30FEF7D1F8DCE7002D01DD002C64
:102650000DDA002D01DD002C1FDB002D16DA002C19
:1026600014DB012F08BF9FED620B3FF42DAFB0EEDE
:102670004A0AF0EE6A0A27E7022F18BF002D0CD095
:10268000012F0AD1002DFFF61FAF06E0002DB8BFC5
:10269000002C08DA012F3FF417AFB0EE480AF0EE35
:1026A000680A11E71BE0012000EBE57050EA070122
:1026B00015D0791EB0EE498AF0EE698A084308BF4A
:1026C0009FED4D8B4E480025804570DD4D494E48AD
:1026D000884514DDB0420DDB002C19DB2FE0012012
:1026E00000F0A6FD16B0BDEC0E8B04B0BDE8F04DB9
:1026F00000F05EBDB34502DC002C09DC1FE0864221
:1027000002DA002C1BDA03E05E452BDD002C16DD1F
:10271000022000F08DFD00F05BFD8DED020B53EC0F
:102720001A2B51EC180BFDF723FECDE9000103999C
:10273000019861F31E0003909DED020BC4E6022098
:1027400000F076FD00F054FD10EE901A18EE900A9D
:102750008DED020B8DED008B61F31E0003909DED5E
:10276000020BB1E69DED0E0B53EC192B51EC100B47
:10277000FDF7F8FD9FED260BCDE9080153EC102B7A
:102780009DED080B51EC100BFDF7F2FD9FED221BA8
:1027900053EC112BFDF7E9FD9DED081B53EC112BBC
:1027A000FDF7E6FD9FED1E1B53EC112B3CE08CE08A
:1027B000FFFF1F00FFFF0F00000000000000F03FC0
:1027C0000000F03F0000F07F0000404301FCFFFFED
:1027D000000000000000F07F00000000000000008A
:1027E000CE14000000000000000000000000008087
:1027F000000000000000F0FF000000000000F0BF3B
:102800000000E0410000F043FFFFEF3F0000000048
:10281000000000000000D03F555555555555D53F97
:10282000000000000000E03FFDF79FFD9DED080B5C
:1028300041EC1A0B53EC102B51EC100BFDF798FDEB
:1028400053EC1A2BFDF794FD41EC1A0B9FEDFE0B98
:1028500053EC102B9DED080B51EC100BFDF788FD90
:1028600041EC1B0B9FEDFA0B51EC1A0B53EC102BA8
:10287000FDF77EFD41EC1A0B9FEDF70B53EC102B8F
:102880009DED080B51EC100BFDF772FD53EC1A2B6C
:10289000FDF768FD41EC1A0B51EC1B0B53EC1A2BA6
:1028A000FDF7BFFC0690CDE906519DED060B53ECFC
:1028B0001B2B51EC100BFDF755FD53EC1A2BFDF7BC
:1028C00054FD41EC100B00F0A1B90020B6F5801FBB
:1028D0000EDA9FEDE30B53EC102B9DED0E0B51EC3C
:1028E000100BFDF745FDCDE90E016FF034000E46EB
:1028F00000EB2650A0F2FF37C6F31300DA4940F090
:102900007F6646F040568842D8BF002408DDD7498C
:102910008142C8BF012403DC0024A6F580167F1C79
:10292000D348784400EBC4000F9690ED00CB9DEDAA
:102930000E0B53EC1C2B51EC100BFDF713FD9DED12
:102940000E0B41EC1B0B53EC1C2B51EC100BFDF749
:1029500068FC41EC100B51EC190B53EC102BFDF7FC
:1029600079FD41EC1D0B51EC1B0B53EC1D2BFDF7BE
:10297000FFFC41EC1A0BBF488DED10AB784410956D
:1029800090ED000B4FF0005040EA660000EB8440F1
:102990008DED080B00F5002009909DED080B53EC20
:1029A0001C2B51EC100BFDF7DDFC9DED0E1B53ECC9
:1029B000112BFDF7DAFC41EC100B53EC102B9DEDC5
:1029C000100B51EC100BFDF7D3FC9DED080B41EC07
:1029D0001C0B53EC102B9DED100B51EC100BFDF765
:1029E000C7FC53EC1B2BFDF7C0FC53EC1C2BFDF775
:1029F000B9FC53EC1D2BFDF7BBFC41EC1C0B53EC5D
:102A00001A2B51EC1A0BFDF7B3FC41EC1B0B9A4847
:102A10000621B0EE4B0AF0EE6B0A784400F01DFB85
:102A2000B0EE401AF0EE601AB0EE41DAF0EE61DA84
:102A300053EC1B2B51EC1B0BFDF79AFC53EC1D2B9D
:102A4000FDF796FC9DED100B41EC1B0B53EC1A2B84
:102A500051EC100BFDF7E5FB53EC1C2BFDF788FC4C
:102A600053EC1B2BFDF7DDFB9DED100B41EC1B0B1D
:102A700053EC102B51EC100BFDF77AFC41EC1D0BC5
:102A80009FED7FEB53EC1E2BFDF7CBFB53EC1B2B89
:102A9000FDF7C7FB0890CDE908519DED080B53ECFD
:102AA0001E2B51EC100BFDF75DFC53EC1D2BFDF7BD
:102AB00059FC53EC1B2BFDF758FC9DED080B41EC2A
:102AC0001D0B53EC102B9DED100B51EC100BFDF773
:102AD0004FFC41EC1B0B53EC1A2B51EC1D0BFDF77B
:102AE00047FC9DED080B41EC1A0B53EC102B51ECFD
:102AF0001C0BFDF73DFC53EC1A2BFDF792FB41EC50
:102B00001A0B51EC1B0B53EC1A2BFDF78AFB0C90A4
:102B1000CDE90C519DED0C0B53EC1B2B51EC100B24
:102B2000FDF720FC53EC1A2BFDF71FFC41EC1B0BAF
:102B30009FED550B53EC102B9DED0C0B51EC100B36
:102B4000FDF716FC41EC1A0B9FED510B51EC1B0BE2
:102B500053EC102BFDF70CFC41EC1B0B9FED4E0BC7
:102B600053EC102B9DED0C0B51EC100BFDF700FC02
:102B700053EC1B2BFDF755FB41EC100B48487844F8
:102B800000EBC40090ED001B51EC100B53EC112B2B
:102B9000FDF747FB41EC1B0B3846FDF726FECDE960
:102BA000080153EC1B2B51EC1A0BFDF73AFB41ECDF
:102BB000100B3C48784400EBC40090ED00CB51EC86
:102BC000100B53EC1C2BFDF72CFB9DED081B53EC5D
:102BD000112BFDF726FB0690CDE906519DED080B64
:102BE00053EC102B9DED060B51EC100BFDF7BAFBCF
:102BF00053EC1C2BFDF7B6FB53EC1A2BFDF7B2FB85
:102C000053EC1B2BFDF7B1FB41EC100B9DED261B8C
:102C100053EC102B8DED001B00959DED260B51EC18
:102C2000100BFDF7A5FB9DED000B41EC1A0B53ECCF
:102C3000102B9DED260B51EC100BFDF793FB9DED3A
:102C4000061B53EC112B2FE0000000604715F73FE7
:102C5000FE822B654715F73F44DF5DF80BAE543E0F
:102C600000000000000040438E9803007AB60B007D
:102C7000B20F000078100000EA0E00000000000013
:102C80000000000000000840000000E009C7EE3F1F
:102C9000FD033ADC09C7EE3FF5015B14E02F3EBEB1
:102CA000760D0000300D0000FDF762FB53EC1A2B8F
:102CB000FDF7B7FA9DED060B41EC1A0B53EC102B08
:102CC0009DED000B51EC100BFDF752FBCDE90C0113
:102CD0009DED0C0B51EC1A0B53EC102BFDF7A1FAE8
:102CE000CDE902010C46AA498C422FDB611A084348
:102CF00018D19DED0C0B53EC102B9DED020B51ECFC
:102D0000100BFDF72FFB41EC1B0B9FEDA30B51ECC0
:102D10001A0B53EC102BFDF784FA53EC1B2BFDF729
:102D200075FD2DD2022000F083FA00F051FA10EE6A
:102D3000901A18EE900A8DED020B8DED008B61F369
:102D40001E0003909DED020BFFF7BEBB944A24F0DA
:102D50000041914214D39349214408437FF4EFACDE
:102D60009DED0C0B53EC102B9DED020B51EC100B59
:102D7000FDF7F8FA53EC1A2BFDF748FD7FF6DFACB0
:102D800024F000408849894A002601EB2051824204
:102D90002BDA481C4FF4801121FA00F02044844AB9
:102DA000C0F30A517A44A1F2FF3192ED000B814A3F
:102DB0008DED080BCA4020EA0202C0F3130040F474
:102DC0008010C1F1140120FA01F60992002CB8BF5D
:102DD00076429DED080B53EC102B9DED0C0B51EC46
:102DE000100BFDF7BFFACDE90C019DED0C0B51EC7A
:102DF0001A0B53EC102BFDF714FA9FED6F0B089094
:102E0000CDE9085153EC102B9DED080B51EC100B44
:102E1000FDF7AEFA41EC1B0B9FED690B53EC102B49
:102E20009DED080B51EC100BFDF7A2FA9DED0C0B7C
:102E300041EC1C0B53EC102B9DED080B51EC100BCF
:102E4000FDF790FA53EC1A2BFDF78FFA9FED5E1BFE
:102E500053EC112BFDF78CFA53EC1C2BFDF7E1F929
:102E600041EC1A0B51EC1B0B53EC1A2BFDF7D9F963
:102E7000CDE902019DED020B53EC1B2B51EC100B25
:102E8000FDF770FA53EC1A2BFDF76FFA9DED020B6C
:102E900041EC1A0B53EC102B51EC100BFDF768FAB8
:102EA000CDE908014A489DED080B0521784400F062
:102EB000D4F89DED081B51EC100B53EC112BFDF7D2
:102EC00057FA9DED021B53EC112BFDF74EFACDE99D
:102ED00006019DED020B53EC1A2B51EC100BFDF784
:102EE00047FA53EC1A2BFDF79CF99FED3B0B41EC95
:102EF0001A0B53EC102B9DED060B51EC100BFDF74C
:102F000031FA9DED060B41EC1B0B53EC102B9DEDA4
:102F1000020B51EC100BFDF72BFA53EC1B2BFDF7BA
:102F200099FA53EC1A2BFDF71DFA9DED021B53EC99
:102F3000112BFDF717FA53EC192BFDF716FACDE913
:102F4000020101EB065001150029C8BF039015DCF2
:102F50009DED020B324651EC100BFDF7DEFBFEF748
:102F60009BFF042808BF00F043F932469DED020B99
:102F700051EC100BFDF7D1FBCDE902019DED020BE9
:102F800051EC180B53EC102BFDF7F2F9FFF73ABB9D
:102F90000000904000000000FE822B654715973C22
:102FA00000CC904000346F3F01FCFFFF0000E03F89
:102FB000500C0000FFFF0F0000000000432EE63F12
:102FC000396CA80C615C20BEEF39FAFE422EE63F58
:102FD000880A00000000000000000000000000401F
:102FE00000B52DED048BB0EE409AF0EE609A83B000
:102FF00051EC190BFDF7A8FB41EC180B18EE100A69
:1030000018EE901A8DED008B002818BF01200843A0
:1030100020F00040C0F17F6000F1E040C00F14D00C
:1030200019EE101A19EE900A8DED009B002918BFB9
:103030000121084320F00040C0F17F6000F1E04032
:10304000C00F04BF012000F0F3F8B0EE480A03B04F
:10305000F0EE680ABDEC048B00BD70B504462DEDA2
:10306000028B4D1E00EBC500B0EE408AF0EE608A88
:1030700090ED000B35F0060017D053EC182B51ECF7
:10308000100BFDF775F941EC100B6D1E04EBC5003C
:1030900090ED001B51EC100B53EC112BFDF7C1F818
:1030A00041EC100B35F00600E7D1022D36D0042D8F
:1030B0001CD0062D1CBFBDEC028B70BD53EC182B31
:1030C00051EC100BFDF754F994ED0A1B53EC112B46
:1030D000FDF7A7F853EC182BFDF74AF994ED081B00
:1030E00053EC112BFDF79DF841EC100B53EC182B12
:1030F00051EC100BFDF73CF994ED061B53EC112B32
:10310000FDF78FF853EC182BFDF732F994ED040B13
:1031100053EC102BFDF785F841EC100B53EC182BFA
:1031200051EC100BFDF724F994ED021B53EC112B1D
:10313000FDF777F853EC182BFDF71AF994ED001B07
:1031400053EC112BFDF76DF8BDEC028B41EC100B2D
:1031500070BD0000000000009FED070B10B553ECA0
:10316000102B9FED070B51EC100BFDF773F941ECA1
:10317000100B10BD00000000000000000000000067
:10318000000000000000F03F10B553EC102B51EC94
:10319000100BFDF746F841EC100B10BD10B553ECC9
:1031A000112B51EC100BFDF73CF841EC100B10BD4E
:1031B0009FED050B10B553EC102B51EC100BFDF7E8
:1031C00049F941EC100B10BD0000000000000000A8
:1031D0009FED050B10B553EC102B51EC100BFDF7C8
:1031E000C7F841EC100B10BD00000000000000709B
:1031F0009FED050B10B553EC102B51EC100BFDF7A8
:10320000B7F841EC100B10BD0000000000000010EA
:1032100002E008C8121F08C1002AFAD1704770479F
:10322000002001E001C1121F002AFBD170470000FD
:1032300001490860704700001000002010B52DED16
:103240000E8BB0EE408AF0EE608AB0EE419A19EE35
:10325000100AFDF76EF941EC1E0B9FED331BB0EE2B
:103260004E0AF0EE6E0AFFF793F8B0EE40CAF0EEA9
:1032700060CA18EE900AFDF75CF941EC1E0B9FED59
:103280002A1BB0EE4E0AF0EE6E0AFFF781F8B0EEA0
:1032900040DAF0EE60DA53EC1C2B51EC1D0BFCF71E
:1032A000C0FF41EC1B0BB0EE4B0AF0EE6B0AFFF7D0
:1032B00097FEB0EE40AAF0EE60AA51EC1A0BFDF7B3
:1032C0004BF904462046FDF734F941EC1D0B18EE8E
:1032D000100AFDF72EF941EC1E0BB0EE4D1AF0EE80
:1032E0006D1AB0EE4E0AF0EE6E0AFEF759FFB0EE20
:1032F00040CAF0EE60CA9FED0E0B51EC1C0B53EC74
:10330000102BFDF735F89FED0C0B41EC1B0B53EC2C
:10331000102BFDF79FF841EC1A0BFDF71DF9BDECE2
:103320000E8B00EE100A10BD0000000000000040EF
:1033300000000000008066404189D316F14A094030
:1033400010B541EC100BFEF7BFFD51EC100B10BD9A
:1033500082B0CDE9000121F0004001909DED000B0D
:1033600002B051EC100B70470EB5FDF7FBFDFEF7F8
:10337000CDFBFEF70DFBFEF797FAFEF7BFFAFEF75F
:10338000E7FAFEF73FFBFEF759FB00F09FF800203D
:1033900000900190029007E000F04AF88DED000ADD
:1033A000CDED010A8DED021AF6E7000010B53B20C5
:1033B00000F09AF9000204B23C2000F095F9204395
:1033C00004B200EE104A9FED031AF8EEC00A80EE38
:1033D000810A10BD00FEFF4610B53D2000F084F9C3
:1033E000000204B23E2000F07FF9204304B200EE58
:1033F000104A9FED031AF8EEC00A80EE810A10BD54
:1034000000FEFF4610B53F2000F06EF9000204B246
:10341000402000F069F9204304B200EE104A9FED0D
:10342000031AF8EEC00A80EE810A10BD00FEFF46C6
:1034300000B587B00020049005900690FFF7B6FF16
:103440008DED040AFFF7C8FF8DED050AFFF7DAFFDF
:103450008DED060A0020019002900390DDED061A22
:10346000B0EE611ADDED051AF0EE610ADDED041A29
:10347000B0EE610AFFF7E2FE8DED010ADDED041A00
:10348000B0EE611ADDED061AF0EE610ADDED051A07
:10349000B0EE610AFFF7D2FE8DED020ADDED051AEE
:1034A000B0EE611ADDED041AF0EE610ADDED061AE8
:1034B000B0EE610AFFF7C2FE8DED030A9DED010A31
:1034C000DDED020A9DED031A07B000BD85480068D6
:1034D000844940F0010008600846006840F48070AC
:1034E000086000BF7F481430006800F00100002829
:1034F000F8D07C48143000687A49D0201031086038
:1035000000BF78481430006800F002000028F8D0AE
:1035100074481430006873481830006871496B2093
:103520001031086000BF6F481430006800F00400DC
:103530000028F8D06B4900201031086000BF6948AE
:103540001430006800F004000028F8D065480068D6
:10355000644940F4007008600846006840F48070D8
:10356000086000BF5F481430006800F001000028C8
:10357000F8D05C48143000685A49D02010310860F7
:1035800000BF58481430006800F002000028F8D04E
:1035900054481430006853481830006851493820A6
:1035A0001031086000BF4F481430006800F004007C
:1035B0000028F8D04B4901201031086000BF49486D
:1035C0001430006800F004000028F8D04548006876
:1035D000444940F4007008600846006840F4807078
:1035E000086000BF3F481430006800F00100002868
:1035F000F8D03C48143000683A49D02010310860B7
:1036000000BF38481430006800F002000028F8D0ED
:1036100034481430006833481830006831491A20A3
:103620001031086000BF2F481430006800F004001B
:103630000028F8D02B4904201031086000BF294829
:103640001430006800F004000028F8D02548006815
:10365000244940F4007008600846006840F4807017
:10366000086000BF1F481430006800F00100002807
:10367000F8D01C48143000681A49D0201031086076
:1036800000BF18481430006800F002000028F8D08D
:103690001448143000681348183000681149192084
:1036A0001031086000BF0F481430006800F00400BB
:1036B0000028F8D00B4900201031086000BF0948ED
:1036C0001430006800F004000028F8D005480068B5
:1036D000044940F400700860002000E0401CFF280E
:1036E000FCDB70470054004008B50146574A0C20E7
:1036F00010601014554A08321060544A3C201C32A5
:1037000010600D20121D1060504A01201060002032
:1037100000E0401C40F6FF729042FADB4B48006824
:103720004A4A40F48070106000BF48481430006876
:1037300000F001000028F8D0444814300068434AE3
:10374000D0201032106000BF40481430006800F0F4
:1037500002000028F8D03D48143000683B4818307B
:1037600000683A481030016000BF384814300068E3
:1037700000F004000028F8D034480068334A40F4D0
:103780008070106000BF31481430006800F0010004
:103790000028F8D02D48143000682C4AD12010326F
:1037A000106000BF29481430006800F002000028B3
:1037B000F8D026481430006824481830006800BF4C
:1037C00022481430006800F040000028F8D01F485C
:1037D0001030006800901D4800681C4A40F480606A
:1037E00010601A48143000681848183000681046F5
:1037F000006840F4007010601448143000681348EA
:1038000018300068114810300068009010460068B9
:1038100040F40070106000BF0C481430006800F0E5
:1038200010000028F8D100BF08481830006800B127
:10383000FAE706480068054A40F40040106000209E
:1038400000E0401CFF28FCDB009808BD005400404D
:1038500000B52DED048B83B041EC190BFCF774FF20
:1038600041EC180B18EE100A18EE901A8DED008B33
:10387000002818BF0120084320F00040C0F17F60FD
:1038800000F1E040C00F14D019EE101A19EE900AA2
:103890008DED009B002918BF0121084320F0004056
:1038A000C0F17F6000F1E040C00F04BF0120FFF7CE
:1038B000BFFC51EC180B03B0BDEC048B00BD000045
:1038C00000000000000001020304060708090000D0
:1038D0000000010203040000000000000000F03FAF
:1038E000000000000000F83F0000000000000000A1
:1038F0000000004003B8E23F0000000000000000AC
:1039000006D0CF43EBFD4C3E033333333333E33F39
:10391000FFAB6FDBB66DDB3F4D268F515555D53F65
:1039200001411DA96074D13F65DBC9934A86CD3F33
:10393000EF4E454A287ECA3F3E5555555555C53F21
:1039400093BDBE166CC166BF2CDE25AF6A56113F13
:10395000F16BD2C541BDBBBED0A4BE726937663E15
:103960004FBB610567ACDD3F182D4454FB21E93F97
:103970009BF681D20B73EF3F182D4454FB21F93F86
:10398000E2652F227F2B7A3C075C143326A6813C0C
:10399000BDCBF07A8807703C075C143326A6913CB7
:1039A000C4EB98999999C9BF711623FEC671BCBF23
:1039B0006D9A74AFF2B0B3BF9AFDDE522DDEADBF8B
:1039C0002F6C6A2C44B4A2BF0D5555555555D53FA3
:1039D000FF8300922449C23F6E204CC5CD45B73FBE
:1039E000513DD0A0660DB13FEB0D76244B7BA93F36
:1039F00011DA22E33AAD903F000000000000000021
:103A0000203A0008000000201400000010320008D6
:103A1000343A000814000020340500002032000869
:103A20000100000010000000000000000024F4006D
:043A30000000000092
:040000050800018965
:00000001FF
