:020000040800F2
:10000000980500209D0100083F2A00089923000858
:100010003D2A0008E9090008E32E0008000000005E
:10002000000000000000000000000000632A00083B
:10003000EB09000800000000612A0008B92A000846
:10004000B7010008B7010008B7010008B7010008B0
:10005000B7010008B7010008B7010008B7010008A0
:10006000B7010008B7010008B7010008B701000890
:10007000B7010008B7010008B7010008B701000880
:10008000B7010008B7010008B7010008B701000870
:10009000B7010008B7010008B7010008B701000860
:1000A000B7010008B7010008B7010008B701000850
:1000B000B92B00081D2C0008B7010008B701000883
:1000C000B7010008B7010008B7010008B701000830
:1000D000B7010008B7010008B7010008B701000820
:1000E000B7010008B7010008B7010008B701000810
:1000F000B7010008B7010008B7010008B701000800
:10010000B7010008B7010008B7010008B7010008EF
:10011000B7010008B7010008B7010008B7010008DF
:10012000B7010008B7010008B7010008B7010008CF
:10013000B7010008B7010008B7010008B7010008BF
:10014000B7010008B7010008B7010008B7010008AF
:10015000B7010008B7010008B7010008B70100089F
:10016000B7010008B7010008B7010008B70100088F
:10017000B7010008B7010008B7010008000000003F
:10018000B7010008B7010008DFF80CD000F088FBC9
:10019000004800470D4600089805002006488047A3
:1001A00006480047FEE7FEE7FEE7FEE7FEE7FEE75C
:1001B000FEE7FEE7FEE7FEE7652B00088901000881
:1001C0002DE9F05F0546002092469B46884606468C
:1001D000814640241BE0284641464746224600F01F
:1001E00010FA53465A46C01A914110D31146184688
:1001F000224600F0F7F92D1A67EB01084F46224618
:100200000120002100F0EEF917EB00094E41201EFD
:10021000A4F10104DFDC484631462A464346BDE8E6
:10022000F09F2DE9FE4F804681EA0300C00F0C4687
:10023000009021F0004123F00045B8EB0200A941F5
:1002400005D24046214690461C460B46024623F006
:100250000040104347D0270DC7F30A00C3F30A51EB
:100260000290401A019040286BDAC3F3130040F467
:10027000801B0098924620B10023D2EB030A63EB67
:100280000B0B01985946C0F14002504600F0AAF904
:1002900006460D4650465946019A00F0C2F910EB49
:1002A00008006141002487EA115284EAE7731A4387
:1002B00040D0009A62B3019A012A4FEA075215DC36
:1002C000001B61EB02014FF0004202EA0752CDE948
:1002D0000042001C41F5801132462B4600F0F9F92E
:1002E00003B0BDE8F08F40462146F9E7001B61EB03
:1002F0000201001C41F5801300185B412018A2F593
:10030000001747EB030140EAD570B6196D4111E0C3
:100310006D084FEA360645EAC0754FEA0752001BE2
:1003200061EB0201001C41F5801149084FEA3000E1
:100330000019514132462B4603B0BDE8F04F00F0A2
:10034000B9B90098012240000023D0EB020263EB10
:10035000E073009821464FEAE074B8EB000061EBCF
:100360000401E9E783F000435BE781F0004158E7CF
:100370002DE9FE4F81EA030404F0004421F000411E
:1003800000944FF0000B23F0004350EA01045ED0CC
:1003900052EA03045BD0C3F30A54C1F30A552C4458
:1003A000A4F2F3340194A0FB0254C1F3130141F40D
:1003B0008011C3F3130343F4801301FB024400FBD9
:1003C000034E840A970A44EA815447EA8357A4FB00
:1003D000076802958D0A05FB07854FEA932C04FBFD
:1003E0000C542705029D4FEA065847EA1637B5EB2D
:1003F00008056EEB070C870E920E47EA811742EA5A
:100400008312A7FB0201B6EB0B0164EB00042B0D7A
:1004100043EA0C335E1844EB1C50DA465146E7FBC6
:100420000201C5F313044FEA0B3343EA14534FEAB6
:100430000432019C43EA0603A4F10C040294009CDC
:10044000CDE900B400F045F903B0BDE8F08F00201D
:100450000146F9E72DE9F04D81EA030404F0004B71
:1004600021F0004514464FF0000A23F0004150EA05
:10047000050220D054EA01021DD0C5F30A570246F6
:10048000C5F31303C1F31300C1F30A5640F48015FA
:1004900043F48013A7EB0608101BD64608F2FD387C
:1004A00073EB050002D308F1010801E092185B41EB
:1004B000B8F1000F03DA00200146BDE8F08D0020FE
:1004C0004FF48011064684460EE0171B73EB0507B8
:1004D00005D3121B63EB050306434CEA010C4908E4
:1004E0004FEA300092185B4150EA0107EDD152EA21
:1004F000030012D082EA040083EA0501084305D014
:10050000101BAB4106D20122002306E000224FF06F
:10051000004302E06FF0010253101AEB06004CEBAF
:10052000085110EB0A0041EB0B01BDE8F04D00F063
:10053000C1B80EB5C10F80EAE0700844CA070021B7
:1005400040F233438DE80E000A460B4600F0C1F836
:1005500003B000BD00F0004230F000400AD0C10DF1
:1005600001F56071C0F3160042EA0151C20840076C
:1005700011437047002001467047000030B5041E4B
:1005800071F1000404DB4FF00044404264EB0101D0
:10059000141E73F1000405DB1C464FF00043524269
:1005A00063EB0403994208BF904230BD01F0004361
:1005B00030B421F0004150EA010206D00A0DA2F544
:1005C0006072C1F31301002A02DC30BC00207047C6
:1005D000440F44EAC104C100E01830BC00EBC25033
:1005E00000F031B8202A04DB203A00FA02F10020A2
:1005F00070479140C2F1200320FA03F31943904061
:100600007047202A04DB203A21FA02F000217047CB
:1006100021FA02F3D040C2F120029140084319466A
:100620007047202A06DBCB17203A41FA02F043EA52
:10063000E07306E041FA02F3D040C2F1200291409B
:100640000843194670470029A8BF7047401C49005D
:1006500008BF20F00100704710B4B0FA80FC00FA27
:100660000CF050EA010404BF10BC704749B1CCF152
:10067000200421FA04F411FA0CF118BF01212143DE
:100680000843A3EB0C01CB1D4FEA00614FEA102099
:1006900042BF002010BC704700EBC350104400293B
:1006A000A4BF10BC7047401C490008BF20F00100E7
:1006B00010BC704710B5141E73F1000408DA401C1A
:1006C00041F1000192185B411A4301D120F0010071
:1006D00010BD2DE9F04D92469B4611B1B1FA81F261
:1006E00002E0B0FA80F220329046FFF77BFF04462A
:1006F0000F4640EA0A0041EA0B0153465A460843B6
:1007000013D0114653EA010019D0C8F140025046F7
:10071000FFF777FF05460E46504659464246FFF71B
:1007200061FF084305D0012004E020463946BDE8BA
:10073000F08D0020054346EAE0762C4337430A98C3
:100740006305E40AA0EB08000022FD0A44EA4754CE
:100750000A3002D500200146E9E701051019694178
:10076000DDE9084500196941BDE8F04DA2E770B523
:1007700021F0004303430CD0C1F30A550024D5EB0C
:10078000040564EB0403D617AD1AB34102DB002065
:10079000014670BD201841EB025170BD2DE9F04DAE
:1007A00000231A461B1A8A4103DB00200146BDE8DC
:1007B000F08DC1F30A52C1F3130141F480154FF0DB
:1007C000000BD10702D100186D41521E00270446CC
:1007D00040F2FF11384601EB620A3E46804602466F
:1007E00000204FF48011FFF70CFFC2197141BB18B4
:1007F00046EB0100B4EB030C75EB000C04D3E41AD8
:1008000065EB000517460E46241908F101006D41FD
:1008100080463428E3DDF91946EB0600091BA841A0
:1008200003D24FF0FF32134601E0002213461BEBC8
:10083000070046EB0A51BDE8F04DFFF73BBF70B52E
:10084000044601F000450020054304D14FF0004567
:10085000644265EB010103F00045284305D11846C9
:100860004FF00043524263EB0003101B73EB010097
:1008700002D24FF0004009E082EA040283EA010359
:100880004FF000501A4301D14FF0C0404FEA2062B0
:10089000EFF3008162F31F6181F3008870BD0000F7
:1008A000064C074D06E0E06840F0010394E80700BD
:1008B00098471034AC42F6D3FFF76AFCA04C00080E
:1008C000C04C0008454910B54A6822F440324A60DD
:1008D0004A6843681A434A6001684A6822F4807291
:1008E0004A6001684A68036942EA03224A60016873
:1008F0004A6822F040724A6001684A6883681A4375
:100900004A6001688A6822F400628A6001688A6825
:10091000C3681A438A60816A6FF07062D1420168CD
:100920008A6822F070628A6001688A680CD0836AE3
:100930001A438A6001688A6822F040528A6001681E
:100940008A68C36A1A4301E022F040528A60016853
:100950008A6822F002028A6001688A68836942EA32
:1009600043028A60016A002901684A680FD042F494
:1009700000624A6001684A6822F460424A60016885
:100980004A68174C436A04EB43331A4301E022F4EC
:1009900000624A600168CA6A22F47002CA62016891
:1009A000CA6A838B0F4C04EB03531A43CA62016873
:1009B0008A6822F400728A6001688A68036B42EADE
:1009C00043228A6001688A6822F480628A60016832
:1009D0008A68406942EA8020886010BD0023014097
:1009E00000E0FFFF0000F0FFFEE770471CB5044683
:1009F00008233B226946D02001F0D0FCBDF800104E
:100A000049BA2180BDF8021049BA6180BDF80410CE
:100A100049BAA1809DF806109DF80720090209B285
:100A2000114300EE101AB8EEC00A84ED020A1CBD94
:100A30001CB50446062343226946D02001F0AEFCD3
:100A4000BDF8001049BA2180BDF8021049BA618092
:100A5000BDF8041049BAA1801CBD000070B590F823
:100A60003C20694D012A19D0012280F83C200A68F7
:100A700007230468092A13D9E6680A3A02EB4202FE
:100A800093409E43E6600A788B680A3A02EB420282
:100A900093400268D4682343D36010E0022070BD05
:100AA000266902EB420293409E4326610A788B68D6
:100AB00002EB420293400268146923431361026807
:100AC000936B23F4401393630268936B0C8A4F4E2D
:100AD00006EB0454234393630A790B7CD21AD21C8D
:100AE00002EB82021F2393400268946B9C43946341
:100AF0000A790B7CD21AD21C02EB82030A8892B2CA
:100B00009A4003689C6B22439A63CA69AA420268AE
:100B1000936823F470239360026893680CD0CC69C7
:100B2000234393600268936823F440139360026840
:100B300093680C6A234301E023F4401393608A69AD
:100B4000002A0268536802D043F4806301E023F472
:100B5000806353604A69002A0268536802D043F4F4
:100B6000805301E023F4805353604A68012A16D071
:100B7000022A1FD0032A026827D0136A6FF30B03DF
:100B800013620268136ACC6823431362214B046822
:100B90001F4A9C4227D10C68122C20D023E0026807
:100BA00053696FF30B03536102685369CC682343A5
:100BB0005361EBE7026893696FF30B03936102687B
:100BC0009369CC6823439361E0E7D3696FF30B0328
:100BD000D3610268D369CC682343D361D6E75468F4
:100BE00044F48004546004689C4208D109681029C8
:100BF00001D0112903D1516841F400015160002155
:100C000080F83C10084670BD01000F000000F0FFA6
:100C1000002301400020014078B50024009490F8A2
:100C20003C20012A19D0012280F83C200A680723C1
:100C30000568092A13D9EE680A3A02EB420293408A
:100C40009E43EE600B788A680A3B03EB43039A40AD
:100C50000368DD682A43DA6010E0022078BD2E695F
:100C600002EB420293409E432E610B788A6803EBAD
:100C700043039A4003681D692A431A614A681F2387
:100C8000072A13D205686E6B521E02EB8202934054
:100C90009E436E630B790A885B1E92B203EB83035B
:100CA0009A4003685D6B2A435A6327E005680D2A62
:100CB00012D22E6BD21F02EB820293409E432E6310
:100CC0000B790A88DB1F92B203EB83039A40036817
:100CD0001D6B2A431A6311E0EE6A0D3A02EB8202A1
:100CE00093409E43EE620B790A880D3B92B203EB70
:100CF00083039A400368DD6A2A43DA62164B05686B
:100D0000144A9D4206D10D68122D03D1556845F451
:100D10008005556005689D4218D10B68102B01D0E5
:100D2000112B13D1536843F4000353600968102951
:100D30000CD10A490A4A0968B1FBF2F101EB8101C1
:100D4000490000E0491E00910029FBD180F83C4099
:100D5000002078BD00230140002001402000002039
:100D600040420F0070B504004FF0000503D0206C26
:100D7000002610B107E0012070BD666484F83C6075
:100D8000204600F019F8206CC00610D4206C20F426
:100D9000885040F0020020642046FFF793FD66640F
:100DA000206C20F0020040F00100206400E00125EA
:100DB00084F83C60284670BD00B500680C4987B0D7
:100DC000884212D10B480021026842F4807202600E
:100DD000006800F480700590062000900320CDE9A3
:100DE00001016946044800F007F907B000BD0000A2
:100DF00000200140443802400000024018B50021A4
:100E0000009190F83C20012A07D0012280F83C2074
:100E100002689368DB0702D011E0022018BD9368D6
:100E200043F001039360204A204B1268B2FBF3F2B7
:100E300002EB420200E0521E0092002AFBD102683F
:100E40009368DB072DD0036C40F20164A34343F4A5
:100E50008073036453685B0505D5036C23F400536A
:100E600043F480530364036CDB0404D5436C23F028
:100E70000603436400E0416480F83C100C496FF0C5
:100E80002203136049680068C90602D009498842F4
:100E900007D1816811F0405F03D1816841F0804142
:100EA0008160002018BD00002000002040420F009B
:100EB000002301400020014070B54379012B1AD076
:100EC000012646710223037105682C6840F6FE7303
:100ED00093409C43D1E900310B43934023432B6063
:100EE00001680B68C0249440A3430B600671002185
:100EF0004171084670BD022070BD70B5040003D07A
:100F00002079002510B105E0012070BD65712046F3
:100F100000F008F8022020712561012020710020D6
:100F200070BD000000B500680C4987B0884212D13E
:100F30000B480021026842F000520260006800F095
:100F400000500590302000900320CDE90101694652
:100F5000044800F051F807B000BD000000740040E4
:100F6000403802400000024030B54279012A16D0D4
:100F7000012242710223037103681D6802FA01F421
:100F800025431D60002901680B680AD00C6803F432
:100F9000802304F46014B3F5802F0FD015E00220F5
:100FA00030BD0C6803F0040304F03804042B0CD1AA
:100FB000382C0AD14B6843F0010305E0B4F5601FFB
:100FC00003D14B6843F002034B6002710021417171
:100FD000084630BD70B5044600F0E6F80546601CD2
:100FE00002D004480078044400F0DEF8401BA04220
:100FF000FAD370BD140000202DE9F84FDFF87CB162
:1010000000224FF001084FF0030A4FF00F090BF1D7
:10101000040E00BF0B6808FA02F42340A3426ED10D
:101020004D68022D01D0122D0ED1D50800EB850C94
:10103000DCF820505607F70E09FA07F6B5430E699B
:10104000BE402E43CCF82060066855000F790AFA9E
:1010500005FC07F0030726EA0C06AF40374307609C
:101060004E68012E05D0022E03D0112E01D0122E73
:101070000ED18668CF6826EA0C06AF4037438760FA
:101080004668A6430C79C4F300149440344344608A
:10109000C6688C6826EA0C06AC403443C4604C68D1
:1010A000E40065D5364C256845F480452560246804
:1010B00022F0030504F480440094324C2E19D6F833
:1010C000084895072F0F09FA07F5AC432E4DA842A3
:1010D00001D1002524E02D4DA84201D101251FE0BA
:1010E0002B4DA84201D102251AE02A4DA84201D178
:1010F000032515E0284DA84202D1042510E037E071
:10110000264DA84201D105250AE0254DA84201D16E
:10111000062505E0234DA84201D1072500E008255A
:10112000BD402543C6F80858DBF800405D464E68D0
:101130009C43F60300D51C432C60DEF80040754646
:101140004E689C43B60300D51C432C600B4D0835FC
:101150002C684E689C43F60200D51C432C60074D5A
:101160000C352C684E689C43B60200D51C432C609D
:10117000521C102AFFF44EAFBDE8F88F003C01402E
:1011800044380240003001400000024000040240A8
:1011900000080240000C024000100240001402400F
:1011A00000180240001C024001488068704700009F
:1011B0001400002070B5040004D094F83D00002510
:1011C00010B106E0012070BD84F83C50204600F0CC
:1011D000C1FA242084F83D002068016821F0010153
:1011E000016000F03DFC33492268B0FBF1F1516031
:1011F000314A6368934206D94FF4967359434FF4CA
:101200007A73B1FBF3F12368491C1962616891425A
:101210000BD84900B0FBF1F2C2F30B02042A01D251
:10122000042019E0B0FBF1F016E0A3689BB301EBDA
:10123000C10202EB0112B0FBF2F242F4804212054D
:1012400030D04BB301EBC10202EB0111B0FBF1F066
:1012500040F4804040F400402168C861D4E90701AF
:10126000084321680860D4E90310084321688860B6
:10127000D4E9050108432168C8602068016841F08D
:10128000010101602564202084F83D00256384F875
:101290003E50002070BD00E006E001EB4102B0FBD3
:1012A000F2F2CCE70120D7E701EB4101B0FBF1F00E
:1012B000D0E7000040420F00A08601002DE9FF4F5B
:1012C00081B099468B4604464FF00108FFF76CFF4A
:1012D000054694F83D0020287BD1192301224D4971
:1012E0002046009501F078F9002872D194F83C006E
:1012F00001286ED0012084F83C0020680168C907ED
:1013000003D1016841F0010101602068016821F406
:1013100000610160242084F83D00002626643E48D8
:10132000E06220272068016841F4807101604B462B
:1013300000224FF001112046009501F04DF90028E0
:1013400058D121680BF0FE000861FFF72DFF2168DE
:10135000054648694969C0F3400094F83D20C1F34F
:1013600080214FF0A00A12E0B9F1000F04D0FFF77E
:101370001BFF411B494501D984F83DA021684869FC
:101380004969C0F3400094F83D20C1F3802108432F
:1013900001D1A02AE8D184F83D7020684169C94391
:1013A000890717D4016841F4007101602068416920
:1013B00080691923012217492046009501F00CF994
:1013C000C0B984F83D7084F83C60002005B0BDE8E9
:1013D000F08F1DE0016841F40071016021686FF435
:1013E00080604861192301220A492046009501F0D6
:1013F000F3F808B10320E9E74146039808F1010832
:1014000081428FD384F83D7084F83C600120DDE791
:101410000220DBE7020010000000FFFF2DE9FF4F74
:1014200083B09A46DDE9118793460446DDF8409083
:10143000FFF7BAFE054694F83D00202874D1192321
:10144000012272492046009501F0C6F80028F5D126
:1014500094F83C00012867D0012084F83C00206803
:101460000168C90703D1016841F0010101602068EA
:10147000016821F400610160222084F83D004020D1
:1014800084F83E0000262664C4F82490A4F82A803C
:101490005F48E062608D2085CDE9007553465A466D
:1014A0002046049900F0A8FF28B1206C84F83C6025
:1014B000042843D076E0208DC8B1012820D002282E
:1014C000206823D0416980690090208D03286BD863
:1014D00001282AD04F4902283B464FF000020095D0
:1014E0005BD08846204601F077F8E8BB40E02068F2
:1014F000416981690091016841F40071016076E001
:101500002068016821F480610160F0E7016821F43E
:10151000806101602068016841F400610160206819
:1015200041698069009062E06EE02A4639462046B3
:1015300001F0D8F830B1206C202833D0012007B05A
:10154000BDE8F08F206847E02068016841F4007131
:10155000016020680169606A421C62620170208D2E
:10156000401E2085608D00E01CE0401E6085E9E79C
:101570002068016821F48061016020680169606A67
:10158000421C62620170208D401E2085608D401ECD
:1015900060853B46002241460095204601F01CF83C
:1015A0000028D1D00320CAE72A463946204601F058
:1015B00099F80028BFD120680169606A421C626204
:1015C0000170208D401E2085608D401E6085206842
:1015D0004169C94349070AD40169606A421C6262D1
:1015E0000170208D401E2085608D401E6085208DFD
:1015F00000287FF46AAF202084F83D0084F83E6024
:1016000084F83C6000209AE7022098E7020010006E
:101610000000FFFF040001002DE9FF4F83B09A4650
:10162000DDE9118793460446DDF84090FFF7BCFDE5
:10163000064694F83D0020287DD119230122434914
:101640002046009600F0C8FF00287CD194F83C00AA
:10165000012878D0012084F83C0020680168C9077F
:1016600003D1016841F0010101602068016821F4A3
:1016700000610160212084F83D00402084F83E0094
:1016800000252564C4F82490A4F82A803048E0623C
:10169000608D2085CDE9007653465A462046049950
:1016A00000F022FF80B3206C84F83C50042848D01E
:1016B00008E032463946204601F045F830B1206C4A
:1016C000042839D0032007B0BDE8F08F606A411CC0
:1016D0006162216800780861208D401E80B22085FB
:1016E000618D491E618521684A69D24352070BD436
:1016F00068B1606A421C626200780861208D401EF9
:101700002085608D401E6085208D0028D1D1324615
:101710003946204600F038FF0028D0D154F83D0B60
:10172000016841F400710160202004F81E09E5778A
:1017300065770020C7E706E02068016841F4007182
:1017400001600120BFE70220BDE700000200100099
:101750000000FFFF00B500680E4987B0884216D12F
:10176000C0200090122001900120029003200390DD
:101770000420049069460848FFF73EFC07480168CA
:1017800041F400110160006800F40010059007B0FA
:1017900000BD0000005400400004024040380240F8
:1017A000024881680278114481607047140000206B
:1017B0000B4810B5016841F400710160016841F403
:1017C00080610160016841F480710160032000F0D4
:1017D00097F8002000F006F800F024F8002010BD73
:1017E000003C024070B50D4D04464FF47A712878E4
:1017F000B1FBF0F00A490968B1FBF0F000F00BFB17
:1018000048B9102C07D200222146501E00F058F88B
:1018100000206C6070BD012070BD0000140000202D
:10182000200000201F4808B5016841F48041016094
:10183000006800F4804000901A48001F016841F0E1
:1018400080510160006800F080500090032000F09B
:1018500057F8002211466FF00B0000F031F800221B
:1018600011466FF00A0000F02BF8002211466FF0CD
:10187000090000F025F800221146501F00F020F862
:1018800000221146101F00F01BF800221146901E86
:1018900000F016F80022BDE808401146501E00F086
:1018A0000FB800004438024000F01F0201219140AF
:1018B0004009800000F1E020C0F8001170470000EE
:1018C000F0B40E4B1B680C46C3F30223C3F10705AB
:1018D000042D00D90425191D072901D2002300E099
:1018E000DB1E012606FA05F1491E214099409E4063
:1018F000761E16403143F0BC01F0A2B80CED00E0BA
:10190000064900F0070208684FF6FF03184040EA56
:101910000220034A10430860704700000CED00E00D
:101920000000FA052DE9F0470E46050065D0DFF806
:101930001481D8F80000F7B200F00F00B04207D2CF
:1019400088F80070D8F8000000F00F00B04254D1C1
:1019500028683D4C810712D5400703D5206840F424
:10196000E05020602878000703D5206840F46040EC
:1019700020602068A96820F0F000084320602878E3
:10198000C0072DD0304968680839012812D00228D4
:1019900013D0032811D00968890700292DDA21689E
:1019A00021F0030101432160FFF7FEFB814641F274
:1019B000883A0EE009688903EFE709688901ECE7D6
:1019C000FFF7F2FBA0EB0901514502D90320BDE866
:1019D000F0872068696800F00C00B0EB810FEFD150
:1019E000D8F80010404601F00F01B14207D9077046
:1019F000006800F00F00B04201D00120E7E728782E
:101A0000400705D52068E96820F4E05008432060CD
:101A10002878000706D52068296920F4604040EA4C
:101A2000C100206000F02CF82168084AC1F30311BE
:101A3000515CC840064908600020FFF7D3FE002033
:101A4000C5E70000003C0240083802405C4B00083B
:101A5000200000200148006870470000200000209E
:101A60000448054900680968044AC1F38221515CB1
:101A7000C840704720000020083802406C4B000826
:101A8000154810B5006810F00C02144813D041102E
:101A9000042A0FD0082A0ED10F4C241F2268236875
:101AA00002F03F025B0207D52068C0F38810A0FB5C
:101AB000010106E0084610BD2168C1F38811A1FBB1
:101AC00000010023FEF77CFB2168C1F30141491CA2
:101AD0004900B0FBF1F010BD083802400024F400CA
:101AE0002DE9F84F050076D02878DFF8F8B2BE4C23
:101AF000C00749D0DBF800105846C1F38101012925
:101B000008D00068C0F3810002280AD1201D0068B7
:101B1000400206D52068800336D568680028E2D0E8
:101B200032E06868B0F5803F10D0B0F5A02F206893
:101B300010D020F480302060206820F480202060C5
:101B40006868A0B1FFF730FB06460CE0206840F45F
:101B50008030F4E740F480202060F7E7FFF724FBB3
:101B6000801B642873D820688003F7D50CE0FFF74A
:101B70001BFB064605E000BFFFF716FB801B642831
:101B8000F0D820688003F7D42878DFF860828007D7
:101B90004FF000093ED5DBF80010584611F00C0F4D
:101BA00009D00068C0F3810002280BD18D48001FC6
:101BB0000068400206D42068800715D5E86801282F
:101BC00009D111E0E868B8B10120C8F80000FFF7BA
:101BD000EBFA064605E002E1FFF7E6FA801B022871
:101BE000C0D820688007F7D52068296920F0F80060
:101BF00040EAC10020600DE0C8F80090FFF7D4FA79
:101C0000064604E0FFF7D0FA801B02281FD82068A0
:101C10008007F7D42878000722D5724E7448696986
:101C20006C3671B101210160FFF7BEFA074604E08E
:101C3000FFF7BAFAC01B022809D830688007F7D529
:101C40000EE0C0F80090FFF7AFFA074605E083E02A
:101C5000FFF7AAFAC01B02287ED830688007F7D4A5
:101C60002878400768D5DFF87CA100270AF1380AF8
:101C7000DAF80000C0000BD4DAF8001041F080510F
:101C8000CAF80010DAF80000012700F08050009038
:101C9000584E3068C00510D4306840F48070306011
:101CA000FFF782FA009005E0FFF77EFA0099401AEC
:101CB000022851D83068C005F6D54A4EA868683663
:101CC00001280FD00528306810D020F001003060C6
:101CD000306820F004003060A868B8B1FFF764FAFB
:101CE00000900FE0306840F00100F4E740F004009D
:101CF0003060F7E7FFF758FA0099411A41F288304F
:101D0000814264D830688007F4D50EE0FFF74CFAC2
:101D1000009007E0FFF748FA0099411A41F2883035
:101D2000814254D830688007F4D42FB1DAF800101B
:101D300021F08051CAF80010A869C0B3DBF8001088
:101D4000C1F3810102294AD00228484607D0C8F8C9
:101D50006000FFF729FA00E039E005463AE047461F
:101D6000C8F86000FFF720FA064604E0FFF71CFA07
:101D7000801B02282BD820688001F7D4D5E9070101
:101D80000843A96A1C4A490802EB01416A6A41EA10
:101D90008211084395F82C1040EA01611148001F98
:101DA000016001203866FFF7FFF9054605E014E001
:101DB000FFF7FAF9401B022809D820688001F7D5FF
:101DC0000BE000BFFFF7F0F9401B022802D9032007
:101DD000BDE8F88F20688001F4D40020F8E70120E6
:101DE000F6E7000008380240003802400000474291
:101DF000800E4742007000400000FFFF4FF0E021DE
:101E00000428086903D020F004000861704740F0FE
:101E10000400FAE7704710B5401EB0F1807F01D38F
:101E2000012010BD4FF0E02460610F21601700F029
:101E300007FE0020A06107202061002010BD10B522
:101E4000FFF7E8FF10BD7047704730B590F83820B5
:101E5000012A20D0012280F83820022380F839306E
:101E600003685C6824F070045C6003685C680D685B
:101E70002C435C6003689C6824F080049C600368C9
:101E80009C6849680C439C6080F83920002180F8E8
:101E90003810084630BD022030BD10B5040003D014
:101EA00094F8390010B107E0012010BD002084F83B
:101EB0003800204600F00CF8022084F83900211D7B
:101EC000206800F0B7FE012084F83900002010BD22
:101ED00008B501681448B1F1804F14D0134A9142FB
:101EE00020D1016841F0020101600068002200F089
:101EF0000200009011461D20FFF7E2FC1D20BDE806
:101F00000840FFF7D1BC016841F0010101600068A1
:101F1000002200F00100009011461C20FFF7D0FCC9
:101F20001C20ECE708BD00004038024000040040DF
:101F30000168CA6842F00102CA600068016841F0A5
:101F400001010160002070470168CA6822F00102A7
:101F5000CA600068016A41F21112114207D1016A98
:101F60009210114203D1016821F0010101600020AB
:101F7000704770B5044690F83800012817D0012545
:101F800084F83850022084F839002068826822F0F2
:101F9000770222F47F4282600868502837D00DDC37
:101FA000202859D005DC88B3102841D151E0022007
:101FB00070BD302853D040283AD13FE060282ED061
:101FC00070280BD0B0F5805F03D0B0F5005F2FD143
:101FD00010E02068816821F0070115E0CB68D1E9A5
:101FE0000121206800F091FE2168886840F07700A8
:101FF00088601DE0CB68D1E90121206800F085FEF2
:102000002068816841F48041816011E01EE0CA6867
:102010004968206800F042FF5021206806E0CA6845
:102020004968206800F04BFF6021206800F077FECF
:1020300084F83950002084F8380070BDCA684968B7
:10204000206800F02BFF40212068EFE70021206886
:10205000ECE710212068E9E720212068E6E730213D
:102060002068E3E7704770B50446006801694FF0E7
:102070000005C943890715D4C168C943890711D42C
:10208000E91E0161012020762068806980072046D2
:1020900002D0FFF7E7FF04E000F098F8204600F0D8
:1020A0002DF9257620680169C943490717D4C1680D
:1020B000C943490713D46FF004010161022020765F
:1020C0002068806910F4407F204602D0FFF7CAFFE5
:1020D00004E000F07BF8204600F010F92576206837
:1020E0000169C943090716D4C168C943090712D455
:1020F0006FF008010161042020762068C069800724
:10210000204602D0FFF7AEFF04E000F05FF8204663
:1021100000F0F4F8257620680169C943C90617D490
:10212000C168C943C90613D46FF0100101610820CA
:1021300020762068C06910F4407F204602D0FFF767
:1021400091FF04E000F042F8204600F0D7F8257631
:1021500020680169C943C90708D1C168C943C907D3
:1021600004D1891E0161204600F014F9206801693C
:10217000C943090609D4C168C943090605D46FF0EB
:10218000800101612046FFF75EFE20680169C943B6
:10219000490609D4C168C943490605D46FF0400116
:1021A0000161204600F0F7F820680169C9438906FB
:1021B0000BD4C168C943890607D46FF020010161BF
:1021C0002046BDE87040FFF73FBE70BD704770B558
:1021D000044690F838000D4601280DD0012684F8F9
:1021E0003860022084F8390042B1042A18D0082A45
:1021F0002AD00C2A4DD139E0022070BD206800F0B1
:1022000097FD2068816941F008018161206881693A
:1022100021F004018161206881692A69114311E07C
:10222000206800F0B1FD2068816941F4006181619E
:102230002068816921F480618161206881692A694F
:1022400041EA0221816124E0206800F0CFFD20688E
:10225000C16941F00801C1612068C16921F0040130
:10226000C1612068C1692A69114311E0206800F04A
:10227000EDFD2068C16941F40061C1612068C16958
:1022800021F48061C1612068C1692A6941EA0221A3
:10229000C16184F83960002084F8380070BD10B541
:1022A000040003D094F8390010B107E0012010BDFC
:1022B000002084F83800204600F00CF8022084F852
:1022C0003900211D206800F0B5FC012084F8390098
:1022D000002010BD08B500680649884208D10648AC
:1022E000016841F001010160006800F00100009008
:1022F00008BD000000000140443802407047000063
:1023000010B504460068012200F0F4FC084920687A
:10231000884202D00749884203D1416C41F4004110
:1023200041642068016841F001010160002010BD96
:10233000000001400004014010B50446006800227E
:1023400000F0D8FC114841F211122168931081422B
:1023500002D00F48814209D1086A104206D1086AAA
:10236000184203D1486C20F4004048642068016A98
:10237000114206D1016A194203D1016821F001011D
:102380000160012084F83900002010BD00000140E8
:102390000004014070477047FEE700003EB564242A
:1023A0008DE81A00014601230148FFF737F83EBDCA
:1023B000900000203EB5642300910124CDE9014343
:1023C000014623460148FFF727F93EBD9000002053
:1023D00001684A69D24352050CD46FF480624A61A5
:1023E00004210164002140F8301F20224273017350
:1023F00001207047002070472DE9F84F044600681F
:1024000089460B9D01689846174641F4806101603A
:102410002068016841F48071016000954FF0011A55
:102420000022514620460A9B00F0D6F8F0BB2168F6
:1024300009F0FE0008610AF1010B2B4659462046BF
:102440000A9A00F00BF918B1206C042812D03AE077
:1024500020684169806900902A4620460A9900F068
:1024600072F950B1206C04282DD12068016841F424
:10247000007101600120BDE8F88FFEB2B8F1010FD4
:1024800009D02168380A08612A4620460A9900F0D6
:102490005AF90028E6D1206806612A4620460A99A2
:1024A00000F051F90028DDD1206800E00BE0016860
:1024B00041F48071016000950022514620460A9B3C
:1024C00000F08AF808B10320D5E7216809F0FF0081
:1024D00040F0010008612B46594620460A9A00F058
:1024E000BDF80028B0D1C6E72DE9F84304460068DE
:1024F0000D46DDE9089701689846164641F480715B
:1025000001604B4600224FF001112046009700F079
:1025100063F8E8B9216805F0FE0008613B464A46C9
:102520001849204600F09AF828B1206C04280FD1F1
:102530000120BDE8F88320684169806900903A462F
:102540004946204600F0FFF820B1206C042813D043
:102550000320EEE7F5B2B8F1010F09D02168300A87
:1025600008613A464946204600F0EDF80028ECD1D3
:10257000206805610020DCE72068016841F40071F3
:102580000160D5E70200010070B516460D4604460D
:102590001AE02046FFF71CFF08B1012070BD681C3F
:1025A00012D025B1FEF700FE801BA8420CD954F8CA
:1025B000400F40F0200044F8100900202060202146
:1025C00061732073032070BD20684069C0434007D9
:1025D000DFD4002070BD00002DE9F0471E46904674
:1025E0000D460446C1F30747DDF8209023E0701C38
:1025F00021D02EB1FEF7D8FDA0EB0900B0421AD9C8
:1026000000252563202084F83D0084F83E50216891
:102610000001086000E000BF0A230522D021204607
:10262000FEF74CFE0028F6D100F0B4F884F83C50D8
:102630000320BDE8F0872068012F0BD0D0F81800E8
:1026400025EA00000004000C06D000214145CED050
:102650000020EEE74069F3E70121F7E72DE9F047B5
:102660009A4691460D46044600264FF02008C1F3D5
:1026700007472AE020684069C043400512D420681B
:10268000016841F40071016021686FF48060486165
:1026900004202064266384F83D8084F83C60012097
:1026A000BDE8F087B9F1FF3F0FD0B9F1000F05D0B9
:1026B000FEF77AFDA0EB0A01494506D944F8306FD0
:1026C00084F80D8026730320EAE72068012F07D0E5
:1026D000D0F8180025EA00000004000CE0D0C9E79B
:1026E0004069F7E72DE9F041002590460E46044683
:1026F000202721E04069C043C0060CD421686FF058
:10270000100048612564256384F83D7084F83C50CE
:102710000120BDE8F0812EB1FEF746FDA0EB0800D8
:10272000B04209D954F8400F40F0200044F80409A1
:10273000677025700320ECE720684169C9434906AA
:10274000D8D40020E5E770B516460D4604461AE0D9
:102750002046FFF73DFE08B1012070BD681C12D075
:1027600025B1FEF721FD801BA8420CD954F8400F7B
:1027700040F0200044F810090020206020216173FF
:102780002073032070BD20684069C0430006DFD479
:10279000002070BD10B5002000F06DF9002815D1A3
:1027A00000F072F9002811D100F077F900280DD15E
:1027B00000F07CF9002809D1062000F053F9002828
:1027C00004D1BDE81040062000F04CB910BD000057
:1027D00070B51C488EB01A490160012505614FF49F
:1027E000003100248561C0E9011417490462C0E981
:1027F0000A14C4600463C5614461FEF7B3FA00B112
:10280000FEE70726CDE90A5609A90E480995FEF705
:1028100003FA00B1FEE70220CDE900050B4804955C
:10282000CDE90704CDE90545CDE9026469460548CF
:10283000FEF714F9002800D0FEE70EB070BD0000CE
:1028400000200140340000200100000F01000F00B3
:102850001CB50E490C4808600846FEF74EFB00B157
:10286000FEE7002000900246019069460748FEF707
:1028700023FB00B1FEE7102269460448FEF71CFB6B
:10288000002800D0FEE71CBD007400407C00002042
:10289000184800B5016887B041F080010160016807
:1028A00001F080010591016841F0010101600168BA
:1028B00001F001010591016841F01001016001681A
:1028C00001F010010591016841F00201016000680A
:1028D000694600F0020005904FF40070009002205D
:1028E000019002900390012004900348FEF784FBBE
:1028F00007B000BD30380240001002400B4810B550
:10290000094901600A49416000214FF48042816019
:10291000C0E9031241618161C1610162FEF74AFCB5
:10292000002800D0FEE710BD0054004090000020B9
:10293000A086010010B5134888B00024016841F05A
:1029400001010160006800F0010007900E48FFF7E8
:10295000C1FC0D480D4901600F21C0E9011440F68A
:10296000FF71C0E90314FFF79AFC7020CDE9000461
:1029700002940022694604480494FFF728FC08B03A
:1029800010BD000044380240E40000200000014077
:1029900010B5134886B04FF080410160FA21002441
:1029A000C0E901144FF6FF71C0E90314FFF775FA8F
:1029B00000B1FEE74FF48050009069460848FFF7E9
:1029C000D8FA00B1FEE72020CDE9040404A90448A8
:1029D000FFF73BFA002800D0FEE706B010BD00006C
:1029E0002001002010B5144886B01249016040F261
:1029F000FF410024C0E901144FF6FF71C0E9031440
:102A0000FFF74BFA00B1FEE74FF4805000906946A3
:102A10000948FFF7AEFA00B1FEE72020CDE9040433
:102A200004A90548FFF711FA002800D0FEE706B018
:102A300010BD0000000400405C010020FEE770476C
:102A40000907090E002806DA00F00F0000F1E02067
:102A500080F8141D704700F1E02080F800147047E2
:102A60007047704708B50323009002221D21D02033
:102A700000F054FA08BD08B50323009002226B2130
:102A8000D02000F04BFA08BD08B5022300900422C4
:102A90001C21D02000F042FA08BD08B502230090A6
:102AA00004221B21D02000F039FA08BD034606227B
:102AB0006B21D02000F016BA10B5FEF771FEBDE80C
:102AC0001040FFF7BCB9000030B5244893B0002592
:102AD000016841F080510160006800F08050119061
:102AE0001F48016841F4804101600068022400F43D
:102AF0008040119001200090000401908001CDE9F8
:102B00000640082008904FF4A870CDE9090404207D
:102B10000B906846FEF7E4FF00B1FEE70CA90F201A
:102B200081E831004FF4C0500F90109005210CA89F
:102B3000FEF7F8FE00B1FEE7FEF78CFF4FF47A7166
:102B4000B0FBF1F0FFF767F90420FFF757F9002217
:102B50001146501EFEF7B4FE13B030BD403802409F
:102B6000007000401048016841F4700101600F4896
:102B7000016841F0010101600C4A00210832116036
:102B800002680B4B1A400260031D0A4A1A60026871
:102B900022F48022026005480C3001600249580688
:102BA000803908607047000088ED00E0003802407E
:102BB000FFFFF6FE1030002410B512482DED028BF9
:102BC000FFF751FA1048006880471048B0EE408A7D
:102BD0000068804730EE080A0D4910EE100A0844DC
:102BE000B0F5001F0AD90B49022008600A490120EC
:102BF0000968BDEC028BBDE810400847BDEC028BB4
:102C000010BD000020010020080000200C00002062
:102C1000000060BF040000201000002010B5034831
:102C2000FFF721FA02490420086010BD5C01002072
:102C300004000020F0B50268234B244D244E254F9C
:102C4000254C4FF0804C984209D0604507D0A842EF
:102C500005D0B04203D0B84201D0A04204D122F046
:102C6000700E4A6842EA0E0298421BD0604519D0A5
:102C7000A84217D0B04215D0B84213D0A04211D00C
:102C8000164DA8420ED0164DA8420BD0154DA842A5
:102C900008D0154DA84205D0144DA84202D0144DBD
:102CA000A84203D122F44075CA682A4302608A68A8
:102CB000C2620A688262984201D0A04201D10969C9
:102CC000016301214161F0BD0000014000040040AA
:102CD00000080040000C004000040140004001409A
:102CE000004401400048014000180040001C004022
:102CF0000020004010B50123046A8B409C4304620D
:102D0000036A8A401343036210BD10B5846842EA27
:102D1000032224F47F440A432243826010BD826868
:102D200022F070020A4342F0070181607047000000
:102D300030B5026A22F001020262026A43688469C5
:102D40000D6824F07304254322F002048A682243AC
:102D50000B4CA04202D00B4CA0420BD122F0080435
:102D6000CA6823F4407322434C6922F004021C43D6
:102D70008B6923434360856149684163026230BDCA
:102D8000000001400004014030B5026A22F0100248
:102D90000262026A436884690D6824F4E64444EAE6
:102DA00005248D6822F0200242EA05120D4DA8424A
:102DB00002D00D4DA8420ED1CD6822F0800242EA29
:102DC00005124D6923F4406343EA85038D6922F0BF
:102DD000400243EA8503436084614968816302627B
:102DE00030BD0000000001400004014030B5026A1F
:102DF00022F480720262036A4268C46923F4007399
:102E000024F073050C682C438D6843EA05230D4DAF
:102E1000A84202D00C4DA8420ED1CD6823F4006325
:102E200043EA05234D6922F4405242EA05128D69B6
:102E300023F4806342EA05124260C4614968C163B9
:102E4000036230BD000001400004014030B5026A59
:102E500022F480520262046A4268C3690D6823F456
:102E6000E64343EA05238D6824F4005444EA05341C
:102E7000084DA84202D0084DA84204D14D6922F461
:102E8000804242EA85124260C3614968016404627B
:102E900030BD0000000001400004014010B5036A8D
:102EA000046A24F001040462846924F0F00444EA12
:102EB000021423F00A020A438461026210BD10B5B5
:102EC000036A23F0100303628369046A23F47043E6
:102ED00043EA023224F0A00343EA01118261016255
:102EE00010BDFEE7F8B515461C460E460A460746D5
:102EF00001236946FFF752FA00280ED101209DF800
:102F00000010A8400CB1014300E081438DF800108F
:102F1000324669463846FFF74DFAF8BD2DE9F843C9
:102F200016461D460F460A46804601236946089C00
:102F3000FFF734FA002812D10120A840711B401E6F
:102F4000491C88408C409DF8001004408143214377
:102F50008DF800103A4669464046FFF72BFABDE867
:102F6000F88303B401984100009850EAC12018BFCB
:102F700004204A0D18BF40F0010040F2FF72B2EB8E
:102F8000515F08BF40F00200012808BF052002B0D1
:102F9000704700000000000070B59B482DED020B4B
:102FA0002DED068B079D25F00044A04218DC9748C4
:102FB000844202DC0AD1069840B19DED060BBDECBF
:102FC000068B02B0BDE8704001F082B9002DCCBF85
:102FD0009FED8F0B9FED900BBDEC068B02B070BD8B
:102FE0008F48A04215DD8F48A042D8BF4FF0FF3474
:102FF00058DD9DED060B51EC100BFFF7B2FF0428D6
:1030000008BF01F099F99DED060BBDEC068B02B0EF
:1030100070BD9DED060B51EC100B01F0C9FACDE926
:10302000060181489FED828BA0423CDD8248A04290
:103030001FDD00249FED82AB9DED060B53EC1A2B98
:1030400051EC100BFDF7EDF89DED060B41EC190B63
:1030500053EC1A2B51EC100BFDF78AF953EC182B9B
:10306000FDF780F953EC192BFDF7F4F9CDE90601D2
:1030700049E09DED060B012453EC182B51EC100B8D
:10308000FDF7CFF89DED060B41EC190B53EC182B17
:1030900051EC100BFDF766F953EC192BFDF7DAF93B
:1030A000CDE906012FE06848A0421FDD02249FED14
:1030B000689B9DED060B53EC192B51EC100BFDF7A3
:1030C00057F953EC182BFDF7ACF89DED060B41ECCE
:1030D000180B53EC192B51EC100BFDF743F953EC83
:1030E000182BFDF7B7F9CDE906010CE09DED060BB5
:1030F000032453EC102B9FED580B51EC100BFDF7F4
:10310000A9F9CDE906019DED060B53EC102B51EC0E
:10311000100BFDF72DF941EC180B53EC182BFDF7B4
:1031200027F941EC190B4E480621B0EE490AF0EEA2
:10313000690A784401F035F853EC182B51EC100B68
:10314000FDF716F941EC180B4648B0EE490AF0EECF
:10315000690A0521784401F024F853EC192B51EC4D
:10316000100BFDF705F941EC100B51EC180B53EC6B
:10317000102B002C0EDAFDF754F89DED061B53ECD6
:10318000112BFDF7F5F89DED061B53EC112BFDF708
:10319000ECF835E0FDF745F89DED061B53EC112BDF
:1031A000FDF7E6F841EC100B2F48784400EBC40023
:1031B00090ED001B51EC100B53EC112BFDF7D2F8E6
:1031C0009DED061B53EC112BFDF7CCF841EC100BD9
:1031D0002648784400EBC40090ED001B51EC100B26
:1031E00053EC112BFDF7C1F841EC100B002DA2BFE1
:1031F000BDEC068B02B070BD51EC100B81F00041AC
:1032000041EC100B01E70000000010440000F07FCB
:10321000182D4454FB21F93F182D4454FB21F9BFCC
:103220000000DC3F0000203E0000F33F00000000F3
:10323000000000000000F03F0000E63F000000003A
:10324000000000000000004000800340000000007B
:10325000000000000000F83F000000000000F0BF88
:10326000321B0000E81A0000721A00002A1A00003F
:1032700070B56B4E2DED040B2DED028B82B0DDF899
:103280001CC0DDE905235C422CF000411C4341EAEF
:10329000D474049D22F00040B44205D86C422C4303
:1032A00040EAD474B4420BD99DED061B9DED040B8E
:1032B00002B0BDEC028B04B0BDE8704001F012B862
:1032C000ACF14054A4F17F641C430BD0022404EA07
:1032D000AC7444EAD27405439FED538B9FED542B9D
:1032E00007D015E09DED040B51EC100B01F0BCF87C
:1032F00042E0002C11BF012C9DED040B02B0BDEC8F
:10330000028B04BF04B070BD022C38D0032C3BD01C
:103310000B439FED491B9FED4A0B0AD0B14218D1D8
:10332000B04209D121F0804120F080400791059002
:103330000FE0002A15DA10E0434B7B44002C08BF55
:1033400093ED000B0DD0012C10D0022C17D0032CC4
:103350001AD0B0421DD1002A03DAB0EE410AF0EED5
:10336000610A02B0BDEC028B04B070BD93ED000B9E
:1033700051EC100B81F0004141EC100BF1E7B0EE85
:10338000480AF0EE680AECE7B0EE420AF0EE620A94
:10339000E7E7401A00153C28C8BF8DED000B19DC8B
:1033A000BCF1000FBEBF10F13C0F9FED290B8DED5E
:1033B000000B0FDB9DED060B53EC102B9DED040B6A
:1033C00051EC100BFDF746F801F0F2F801F04CF863
:1033D000CDE90001002C08BF9DED000BC1D0012CF0
:1033E00010D0022C9FED1C0B53EC102B9DED000B0D
:1033F00051EC100B0DD0FCF7B5FF53EC182BFCF77C
:10340000B1FFB9E7019880F0004001909DED000BFD
:10341000A7E7FCF7A7FF53EC182BFCF7A6FFABE7D9
:103420000000F07F00000000182D4454FB210940EB
:10343000182D4454FB2109C0182D4454FB21F9BF19
:10344000182D4454FB21F93F5A19000000000000D8
:103450000000000000000000075C143326A6A13C19
:1034600000B52DED048BB0EE418AF0EE618AB0EE2E
:10347000409AF0EE609A83B053EC182B51EC190B84
:10348000FDF7DDF900F07040B0F1005F1AD018EEE2
:10349000101A18EE900A8DED008B002918BF01213B
:1034A000084320F00040C0F17F6000F1E040C00F11
:1034B00001BFB0EE480AF0EE680A03B0BDEC048B21
:1034C00008BF00BDB0EE490A03B0F0EE690ABDECDA
:1034D000048B00BD000000002DE9F04D2DED040B24
:1034E0002DED0E8B96B0DDE92550279CDDF890A0E0
:1034F00025F0004624F00048BAF1000F14BF012166
:10350000002101EB4502FC4953184A1093422AD38B
:10351000002814BF0123002303EB44030B44F749A5
:103520008B4220D358EA00019FEDF59B76D0DFF85F
:10353000D8B35D4503D1BAF1000F05D188E0BAF1E7
:10354000000F08BF002100D0012101EB450111F55A
:10355000001F08D8002814BF0121002101EB4401FD
:1035600011F5001F0BD99DED261B9DED240B16B008
:10357000BDEC0E8B04B0BDE8F04D00F0B3BE0027EB
:10358000002DBCBFE149884521DAE1498845A8BF43
:1035900002271CDAC3451ADCDE4901EB2851142945
:1035A00008DDC1F1340220FA02F101FA02F282428E
:1035B0000DD108E058B9C1F1140228FA02F101FA5C
:1035C00002F2424503D101F00101C1F1020756EABE
:1035D0000A0124D1002C22DA002D18BF022F01D0BD
:1035E000012F0AD0022000F0C7FE16B0BDEC0E8BF2
:1035F00004B0BDE8F04D00F053BE022000F0BCFE68
:1036000000F04EFE51EC100B81F0004141EC100B2C
:1036100016B0BDEC0E8B04B0BDE8F08D18E09FED48
:10362000BEAB9FEDBF8B002871D1B848804522D139
:1036300005F1804010F5801008BFBAF1000F07D0E7
:10364000B3450ADC002CA8BF9DED260BE0DA0DE0A7
:10365000B0EE490AF0EE690ADAE7002C06DA9DEDD1
:10366000260B51EC100B81F000416FE0AE4878441E
:1036700090ED000BCCE7D8454DD1002C48DA2EB1A7
:1036800086423AD1BAF1000F42D126E0BAF1000FDA
:1036900013D0022000F070FE00F03EFE8DED020B14
:1036A0009DED240B8DED000B10EE900A039961F354
:1036B0001E0003909DED020BAAE78DED02AB9DED80
:1036C000240B1AEE901A10EE900A8DED000B61F3A8
:1036D0001E0003909DED020B9AE78DED028B9DED90
:1036E000240B18EE901A10EE900A8DED000B61F38A
:1036F0001E0003909DED020B8AE709DA9DED240B75
:1037000051EC190B53EC102BFCF7A4FE1EE020E04B
:103710009DED240B7CE786421BDAB4F1804F0DD07F
:10372000A4F10050B0F1FF5013D1002D11DB9DED3D
:10373000240B51EC100B01F08BF907E09DED240BED
:1037400053EC102B51EC100B00F0C2BC41EC100BF1
:103750005EE79DED240B51EC100B00F029FFBAF150
:10376000000FCDE90E0142D19FED710B46B3A6F1DA
:10377000E040B0F17F600CD05E4538D1002D00DA1A
:10378000A7B3022F0CBF01204FF0FF30FCF7D1FE92
:10379000DCE7002D01DD002C0DDA002D01DD002C11
:1037A0001FDB002D16DA002C14DB012F08BF9FED64
:1037B000620B3FF42DAFB0EE4A0AF0EE6A0A27E73B
:1037C000022F18BF002D0CD0012F0AD1002DFFF6BB
:1037D0001FAF06E0002DB8BF002C08DA012F3FF420
:1037E00017AFB0EE480AF0EE680A11E71BE00120BF
:1037F00000EBE57050EA070115D0791EB0EE498A5A
:10380000F0EE698A084308BF9FED4D8B4E480025B6
:10381000804570DD4D494E48884514DDB0420DDBD2
:10382000002C19DB2FE0012000F0A6FD16B0BDEC46
:103830000E8B04B0BDE8F04D00F05EBDB34502DC78
:10384000002C09DC1FE0864202DA002C1BDA03E0C0
:103850005E452BDD002C16DD022000F08DFD00F012
:103860005BFD8DED020B53EC1A2B51EC180BFCF7A2
:103870007FFDCDE900010399019861F31E000390DB
:103880009DED020BC4E6022000F076FD00F054FD31
:1038900010EE901A18EE900A8DED020B8DED008B54
:1038A00061F31E0003909DED020BB1E69DED0E0B42
:1038B00053EC192B51EC100BFCF754FD9FED260B2C
:1038C000CDE9080153EC102B9DED080B51EC100BCA
:1038D000FCF74EFD9FED221B53EC112BFCF745FD31
:1038E0009DED081B53EC112BFCF742FD9FED1E1BB9
:1038F00053EC112B3CE08CE0FFFF1F00FFFF0F009B
:10390000000000000000F03F0000F03F0000F07FEA
:103910000000404301FCFFFF000000000000F07FBA
:10392000000000000000000026160000000000005B
:103930000000000000000080000000000000F0FF18
:10394000000000000000F0BF0000E0410000F04374
:10395000FFFFEF3F00000000000000000000D03F2C
:10396000555555555555D53F000000000000E03F26
:10397000FCF7FBFC9DED080B41EC1A0B53EC102BF4
:1039800051EC100BFCF7F4FC53EC1A2BFCF7F0FC99
:1039900041EC1A0B9FEDFE0B53EC102B9DED080B29
:1039A00051EC100BFCF7E4FC41EC1B0B9FEDFA0B08
:1039B00051EC1A0B53EC102BFCF7DAFC41EC1A0B10
:1039C0009FEDF70B53EC102B9DED080B51EC100BFA
:1039D000FCF7CEFC53EC1A2BFCF7C4FC41EC1A0BA1
:1039E00051EC1B0B53EC1A2BFCF71BFC0690CDE99A
:1039F00006519DED060B53EC1B2B51EC100BFCF705
:103A0000B1FC53EC1A2BFCF7B0FC41EC100B00F0AE
:103A1000A1B90020B6F5801F0EDA9FEDE30B53EC41
:103A2000102B9DED0E0B51EC100BFCF7A1FCCDE91A
:103A30000E016FF034000E4600EB2650A0F2FF3767
:103A4000C6F31300DA4940F07F6646F040568842DC
:103A5000D8BF002408DDD7498142C8BF012403DC58
:103A60000024A6F580167F1CD348784400EBC400E0
:103A70000F9690ED00CB9DED0E0B53EC1C2B51ECF3
:103A8000100BFCF76FFC9DED0E0B41EC1B0B53EC88
:103A90001C2B51EC100BFCF7C4FB41EC100B51EC50
:103AA000190B53EC102BFCF7D5FC41EC1D0B51EC22
:103AB0001B0B53EC1D2BFCF75BFC41EC1A0BBF48B6
:103AC0008DED10AB7844109590ED000B4FF0005049
:103AD00040EA660000EB84408DED080B00F5002005
:103AE00009909DED080B53EC1C2B51EC100BFCF7CF
:103AF00039FC9DED0E1B53EC112BFCF736FC41EC11
:103B0000100B53EC102B9DED100B51EC100BFCF730
:103B10002FFC9DED080B41EC1C0B53EC102B9DED85
:103B2000100B51EC100BFCF723FC53EC1B2BFCF798
:103B30001CFC53EC1C2BFCF715FC53EC1D2BFCF769
:103B400017FC41EC1C0B53EC1A2B51EC1A0BFCF735
:103B50000FFC41EC1B0B9A480621B0EE4B0AF0EE2D
:103B60006B0A784400F01DFBB0EE401AF0EE601ACC
:103B7000B0EE41DAF0EE61DA53EC1B2B51EC1B0B8B
:103B8000FCF7F6FB53EC1D2BFCF7F2FB9DED100B45
:103B900041EC1B0B53EC1A2B51EC100BFCF741FBC7
:103BA00053EC1C2BFCF7E4FB53EC1B2BFCF739FB11
:103BB0009DED100B41EC1B0B53EC102B51EC100B3B
:103BC000FCF7D6FB41EC1D0B9FED7FEB53EC1E2B5E
:103BD000FCF727FB53EC1B2BFCF723FB0890CDE9EC
:103BE00008519DED080B53EC1E2B51EC100BFCF70C
:103BF000B9FB53EC1D2BFCF7B5FB53EC1B2BFCF76F
:103C0000B4FB9DED080B41EC1D0B53EC102B9DED0F
:103C1000100B51EC100BFCF7ABFB41EC1B0B53EC06
:103C20001A2B51EC1D0BFCF7A3FB9DED080B41EC8F
:103C30001A0B53EC102B51EC1C0BFCF799FB53ECBB
:103C40001A2BFCF7EEFA41EC1A0B51EC1B0B53EC60
:103C50001A2BFCF7E6FA0C90CDE90C519DED0C0BFC
:103C600053EC1B2B51EC100BFCF77CFB53EC1A2B89
:103C7000FCF77BFB41EC1B0B9FED550B53EC102B22
:103C80009DED0C0B51EC100BFCF772FB41EC1A0B89
:103C90009FED510B51EC1B0B53EC102BFCF768FB09
:103CA00041EC1B0B9FED4E0B53EC102B9DED0C0BC1
:103CB00051EC100BFCF75CFB53EC1B2BFCF7B1FA3F
:103CC00041EC100B4848784400EBC40090ED001B19
:103CD00051EC100B53EC112BFCF7A3FA41EC1B0B2E
:103CE0003846FCF726FCCDE9080153EC1B2B51ECC0
:103CF0001A0BFCF796FA41EC100B3C48784400EBA9
:103D0000C40090ED00CB51EC100B53EC1C2BFCF7D6
:103D100088FA9DED081B53EC112BFCF782FA0690F4
:103D2000CDE906519DED080B53EC102B9DED060BD4
:103D300051EC100BFCF716FB53EC1C2BFCF712FBA1
:103D400053EC1A2BFCF70EFB53EC1B2BFCF70DFB73
:103D500041EC100B9DED261B53EC102B8DED001B41
:103D600000959DED260B51EC100BFCF701FB9DED32
:103D7000000B41EC1A0B53EC102B9DED260B51EC74
:103D8000100BFCF7EFFA9DED061B53EC112B2FE007
:103D9000000000604715F73FFE822B654715F73F8F
:103DA00044DF5DF80BAE543E0000000000004043CD
:103DB0008E9803007AB60B000A110000D0110000A3
:103DC0004210000000000000000000000000084059
:103DD000000000E009C7EE3FFD033ADC09C7EE3FF3
:103DE000F5015B14E02F3EBECE0E0000880E0000F1
:103DF000FCF7BEFA53EC1A2BFCF713FA9DED060BF9
:103E000041EC1A0B53EC102B9DED000B51EC100BF9
:103E1000FCF7AEFACDE90C019DED0C0B51EC1A0B41
:103E200053EC102BFCF7FDF9CDE902010C46AA4931
:103E30008C422FDB611A084318D19DED0C0B53EC1B
:103E4000102B9DED020B51EC100BFCF78BFA41ECA3
:103E50001B0B9FEDA30B51EC1A0B53EC102BFCF733
:103E6000E0F953EC1B2BFCF789FB2DD2022000F06C
:103E700083FA00F051FA10EE901A18EE900A8DEDC8
:103E8000020B8DED008B61F31E0003909DED020B84
:103E9000FFF7BEBB944A24F00041914214D39349EA
:103EA000214408437FF4EFAC9DED0C0B53EC102B39
:103EB0009DED020B51EC100BFCF754FA53EC1A2B4E
:103EC000FCF75CFB7FF6DFAC24F000408849894AB0
:103ED000002601EB205182422BDA481C4FF480115E
:103EE00021FA00F02044844AC0F30A517A44A1F236
:103EF000FF3192ED000B814A8DED080BCA4020EA9C
:103F00000202C0F3130040F48010C1F1140120FA42
:103F100001F60992002CB8BF76429DED080B53ECD8
:103F2000102B9DED0C0B51EC100BFCF71BFACDE99F
:103F30000C019DED0C0B51EC1A0B53EC102BFCF704
:103F400070F99FED6F0B0890CDE9085153EC102BE1
:103F50009DED080B51EC100BFCF70AFA41EC1B0B22
:103F60009FED690B53EC102B9DED080B51EC100BE2
:103F7000FCF7FEF99DED0C0B41EC1C0B53EC102BE8
:103F80009DED080B51EC100BFCF7ECF953EC1A2BE0
:103F9000FCF7EBF99FED5E1B53EC112BFCF7E8F9F6
:103FA00053EC1C2BFCF73DF941EC1A0B51EC1B0BAD
:103FB00053EC1A2BFCF735F9CDE902019DED020B0C
:103FC00053EC1B2B51EC100BFCF7CCF953EC1A2BD8
:103FD000FCF7CBF99DED020B41EC1A0B53EC102BC7
:103FE00051EC100BFCF7C4F9CDE908014A489DEDEE
:103FF000080B0521784400F0D4F89DED081B51EC26
:10400000100B53EC112BFCF7B3F99DED021B53EC95
:10401000112BFCF7AAF9CDE906019DED020B53EC3B
:104020001A2B51EC100BFCF7A3F953EC1A2BFCF7ED
:10403000F8F89FED3B0B41EC1A0B53EC102B9DED68
:10404000060B51EC100BFCF78DF99DED060B41ECC6
:104050001B0B53EC102B9DED020B51EC100BFCF7DE
:1040600087F953EC1B2BFCF7F5F953EC1A2BFCF7F3
:1040700079F99DED021B53EC112BFCF773F953EC0E
:10408000192BFCF772F9CDE9020101EB065001157D
:104090000029C8BF039015DC9DED020B324651ECA0
:1040A000100BFCF764FBFEF75CFF042808BF00F070
:1040B00043F932469DED020B51EC100BFCF757FB18
:1040C000CDE902019DED020B51EC180B53EC102BC6
:1040D000FCF74EF9FFF73ABB0000904000000000EB
:1040E000FE822B654715973C00CC904000346F3F13
:1040F00001FCFFFF0000E03FA80D0000FFFF0F00E4
:1041000000000000432EE63F396CA80C615C20BE25
:10411000EF39FAFE422EE63FE00B000000000000FF
:10412000000000000000004000B52DED048BB0EE53
:10413000409AF0EE609A83B051EC190BFCF72EFB1D
:1041400041EC180B18EE100A18EE901A8DED008B4A
:10415000002818BF0120084320F00040C0F17F6014
:1041600000F1E040C00F14D019EE101A19EE900AB9
:104170008DED009B002918BF0121084320F000406D
:10418000C0F17F6000F1E040C00F04BF012000F0EB
:10419000F3F8B0EE480A03B0F0EE680ABDEC048B09
:1041A00000BD70B504462DED028B4D1E00EBC50021
:1041B000B0EE408AF0EE608A90ED000B35F006001C
:1041C00017D053EC182B51EC100BFCF7D1F841EC45
:1041D000100B6D1E04EBC50090ED001B51EC100B95
:1041E00053EC112BFCF71DF841EC100B35F00600D9
:1041F000E7D1022D36D0042D1CD0062D1CBFBDECFE
:10420000028B70BD53EC182B51EC100BFCF7B0F87F
:1042100094ED0A1B53EC112BFCF703F853EC182B0D
:10422000FCF7A6F894ED081B53EC112BFBF7F9FFF4
:1042300041EC100B53EC182B51EC100BFCF798F8D9
:1042400094ED061B53EC112BFBF7EBFF53EC182BF3
:10425000FCF78EF894ED040B53EC102BFBF7E1FF09
:1042600041EC100B53EC182B51EC100BFCF780F8C1
:1042700094ED021B53EC112BFBF7D3FF53EC182BDF
:10428000FCF776F894ED001B53EC112BFBF7C9FFFC
:10429000BDEC028B41EC100B70BD00000000000073
:1042A0009FED070B10B553EC102B9FED070B51EC56
:1042B000100BFCF7CFF841EC100B10BD0000000014
:1042C0000000000000000000000000000000F03FBF
:1042D00010B553EC102B51EC100BFBF7A2FF41EC87
:1042E000100B10BD10B553EC112B51EC100BFBF75C
:1042F00098FF41EC100B10BD9FED050B10B553EC72
:10430000102B51EC100BFCF7A5F841EC100B10BD75
:1043100000000000000000009FED050B10B553ECFD
:10432000102B51EC100BFCF723F841EC100B10BDD7
:1043300000000000000000709FED050B10B553EC6D
:10434000102B51EC100BFCF713F841EC100B10BDC7
:10435000000000000000001002E008C8121F08C1A1
:10436000002AFAD170477047002001E001C1121FF6
:10437000002AFBD170470000014908607047000027
:104380002400002010B511EE100A2DED068BF0EE82
:10439000608AB0EE408AFCF7DDF89FED2BAB41EC74
:1043A000100BB0EE4A1AF0EE6A1AFFF795F8B0EE6D
:1043B000409AF0EE609A18EE900AFCF7CBF841ECC8
:1043C000100BB0EE4A1AF0EE6A1AFFF785F8B0EE5D
:1043D000401AF0EE601A53EC192B51EC110BFBF75D
:1043E00020FF41EC100BFFF79FFE51EC100BFCF788
:1043F000DDF8FCF7AFF841EC190B18EE100AFCF7EA
:10440000A9F841EC100BB0EE491AF0EE691AFEF76C
:104410002FFF9FED0F1B51EC100B53EC112BFBF7F3
:10442000A7FF9FED0D1B53EC112BFCF713F89FED2D
:104430000C1B53EC112BFBF795FFFCF7B7F8BDEC09
:10444000068B00EE100A10BD0000000000000040C6
:1044500000000000008066404189D316F14A0940FF
:10446000000000000080564010B541EC100BFEF734
:1044700093FD51EC100B10BD0E48006800EE900A41
:10448000F8EEE00AB4EEE00AF1EE10FA02DB40F6D4
:1044900035107047404200EE900AF8EEE00AB4EEA4
:1044A000E00AF1EE10FA02D840F6FF7070474FF4C0
:1044B00050607047000000209FED0E1AC0EE010A08
:1044C000B0EE080A30EE600ADFED0B0A20EE200A9B
:1044D000DFED0A0AB4EEE00AF1EE10FA06DADFEDDB
:1044E000080AF4EEC00AF1EE10FA01DBB0EE600A41
:1044F000704700000000204200F03F4500FC3F46AE
:1045000000F8BF4500F01AB970B5F0EEE00A2DEDE5
:10451000048BB0EE409A002410EE900AFCF71AF8D3
:1045200041EC180BB0EEC90A10EE100AFCF712F8B5
:1045300041EC100BB0EE481AF0EE681AFEF790FF4F
:1045400051EC100BFCF732F8054614480068FBF7F5
:10455000F0FF9FED131B53EC112BFBF709FF41EC10
:10456000180B2846FBF7F6FF53EC182BFCF706F860
:104570000BD2012000F03EFA0B4804600B48BDEC62
:10458000048BBDE87040FDF7D3BC0848FDF7DCFCA8
:10459000064800684462BDEC048B70BD000000203A
:1045A000000000000000F83F100400405C01002003
:1045B00082B0CDE9000121F0004001909DED000B9B
:1045C00002B051EC100B70472DE9F0410C4C0D4E30
:1045D00001270D4D0FE000BF00F02CF910EE900AFE
:1045E000B04200DB67602868C06C00F075FA28688C
:1045F000C06B00F0C3F960680228EDD0BDE8F0811F
:10460000000000209A99993F340000202DED028B84
:10461000FDF7CEF8FEF758FAFEF73AF9FEF7D8F8AC
:10462000FEF716F9FEF76AF9FEF784F9FEF7DAF9F4
:10463000FEF7AEF900E000BF0A230522D0213B4877
:10464000FCF73CFE0028F6D1FEF7A4F8FFF75AFF6E
:10465000364C683C04F10C0084EC030AFCF7CEFBFA
:10466000002104F15400FCF77FFC102104F15400F8
:10467000FCF77AFC4FF0804500F040FA10EE100A8B
:10468000A842F9DB00F08EF910EE100AA842F3DB25
:1046900027490220401C8842FCDB244A5C3A10680F
:1046A000C06C00F019FA1068C06B00F067F94FF4A5
:1046B000FA60FCF78FFCFFF725FF1C4884EC030A27
:1046C0009030FDF735FC012000F094F9194C9FED76
:1046D0001A8A4FF450656068022807D100F08AF901
:1046E00012489030FDF730FCFFF76EFF606801283C
:1046F00008D10E489030FDF71BFC032000F07AF93A
:1047000000F012F960680428E5D12A46284600F036
:10471000E3F9104600F032F900F0D2F9B0EE480AA1
:1047200000F084F960680428FDD0D4E790000020F0
:10473000A08601000000002000C03F4400B500201A
:104740002DED068B83B00090019002906846FCF737
:104750004DF9BDF90000FBF7ECFE9FED249B53ECF7
:10476000192BFBF705FEFBF721FF08EE900ABDF9B8
:104770000200FBF7DEFE53EC192BFBF7F9FDFBF70C
:1047800015FF08EE100ABDF90400FBF7D2FE53EC4A
:10479000192BFBF7EDFDFBF709FF09EE100AF0EE10
:1047A000480AB0EE680AB0EE491AFFF7EBFDF0EEEA
:1047B000409AB0EE681AF0EE490AB0EE480AFFF7E8
:1047C000E1FDB0EE40AAB0EE481AF0EE680AB0EE95
:1047D000490AFFF7D7FDB0EE401A03B0B0EE690A00
:1047E000F0EE4A0ABDEC068B00BD000000000000A0
:1047F0000000103F10B52DED028BFFF79FFF0C4C12
:10480000D4ED000A30EE608AFFF798FF94ED010ABC
:1048100070EEC08AFFF792FF94ED020AF0EE680A8C
:1048200031EE401AB0EE480ABDEC028B10BD00001C
:104830002800002000B500202DED048B83B00090EF
:1048400001906846FCF7F4F8BDF90000FBF771FE33
:104850009FED149B53EC192BFBF78AFDFBF7A6FE8B
:1048600008EE900ABDF90200FBF763FE53EC192B2A
:10487000FBF77EFDFBF79AFE08EE100ABDF9040077
:10488000FBF757FE53EC192BFBF772FDFBF78EFE7F
:1048900003B0B0EE680AF0EE480ABDEC048B01EEFE
:1048A000100A00BD000000000000103F10B500F02D
:1048B00007F9194C2BE000BFFFF79CFF10EE100A20
:1048C00001EE900AB0EE610AFFF7F6FD00F0AEF8D7
:1048D00011EE900A1149884201DD142007E011EE23
:1048E000900A0F49884201D21E2000E02820206053
:1048F000FFF7A0FF10EE900A0A49884207DB00F09C
:10490000E5F8052000F076F80120606010BD6068D1
:104910000328D1D010BD0000000000200000F041AD
:104920000000F0C19A99993F10B5124C1EE000BFEB
:10493000FFF780FF10EE900A0F49884206DB042043
:1049400000F058F803206060FFF7B0FFFFF752FF58
:10495000F0EE401A00F0CAF8B0EE410A00F01AF882
:10496000F0EE410AB0EE610AFFF7CEFD6068012863
:10497000DED010BD000000209A99993F04490860DC
:1049800003481038016841F00201016070470000DF
:104990001474004000B5FFF76FFD5DF804EBFFF7FE
:1049A000EDBF00000E4810B50068C06B00EE100AA5
:1049B000B8EE400A10EE100AFBF7CCFD9FED091B84
:1049C00053EC112BFBF7D4FC9FED081B53EC112B80
:1049D000FBF7CEFCFBF7EAFD00EE100A10BD00006D
:1049E000340000206666666666660A4000000000C5
:1049F0000000303F70B505462DED028B00249FED81
:104A00000A8A0CE000F05CF8B0EE480A00F00EF8FC
:104A100000F09CF800F05AF800F098F8641CAC42E2
:104A2000F0DBBDEC028B70BD00C03F44FCEEC00A61
:104A3000064810EE901AC162F6EE000A20EE200A37
:104A4000BCEEC00A10EE101A41637047000001402E
:104A500000B52DED048B83B041EC190BFBF79EFEE6
:104A600041EC180B18EE100A18EE901A8DED008B21
:104A7000002818BF0120084320F00040C0F17F60EB
:104A800000F1E040C00F14D019EE101A19EE900A90
:104A90008DED009B002918BF0121084320F0004044
:104AA000C0F17F6000F1E040C00F04BF0120FFF7BC
:104AB00063FC51EC180B03B0BDEC048B00BD00008F
:104AC00000210148FDF71CBCE40000200021014842
:104AD000FDF732BCE400002003490860081F0168AC
:104AE00041F00101016070470874004000B5FFF714
:104AF000C3FC5DF804EBFFF7EFBF00000E4810B5F4
:104B00000068C06C00EE100AB8EE400A10EE100A01
:104B1000FBF720FD9FED091B53EC112BFBF728FC45
:104B20009FED081B53EC112BFBF722FCFBF73EFD1E
:104B300000EE100A10BD00003400002066666666B4
:104B400066660A40000000000000303F0249002075
:104B5000401C8842FCDB70470080BB000000000066
:104B6000000000000102030406070809000000001D
:104B70000102030400000000000000000000F03FFC
:104B8000000000000000F83F0000000000000000EE
:104B90000000004003B8E23F0000000000000000F9
:104BA00006D0CF43EBFD4C3E033333333333E33F87
:104BB000FFAB6FDBB66DDB3F4D268F515555D53FB3
:104BC00001411DA96074D13F65DBC9934A86CD3F81
:104BD000EF4E454A287ECA3F3E5555555555C53F6F
:104BE00093BDBE166CC166BF2CDE25AF6A56113F61
:104BF000F16BD2C541BDBBBED0A4BE726937663E63
:104C00004FBB610567ACDD3F182D4454FB21E93FE4
:104C10009BF681D20B73EF3F182D4454FB21F93FD3
:104C2000E2652F227F2B7A3C075C143326A6813C59
:104C3000BDCBF07A8807703C075C143326A6913C04
:104C4000C4EB98999999C9BF711623FEC671BCBF70
:104C50006D9A74AFF2B0B3BF9AFDDE522DDEADBFD8
:104C60002F6C6A2C44B4A2BF0D5555555555D53FF0
:104C7000FF8300922449C23F6E204CC5CD45B73F0B
:104C8000513DD0A0660DB13FEB0D76244B7BA93F83
:104C900011DA22E33AAD903F00000000000000006E
:104CA000C04C000800000020280000005843000805
:104CB000E84C000828000020700500006843000848
:104CC0001E00000001000000FD4A0008A549000880
:104CD000F54900080100000010000000000000007D
:084CE0000024F40000000000B4
:040000050800018965
:00000001FF
